{"contracts/rbt/RBTPrimarySaleRouter.sol":{"RBTPrimarySaleRouter":{"abi":[{"inputs":[{"internalType":"address","name":"usdrToken","type":"address"},{"internalType":"address","name":"admin","type":"address"}],"stateMutability":"nonpayable","type":"constructor"},{"inputs":[],"name":"AccessControlBadConfirmation","type":"error"},{"inputs":[{"internalType":"address","name":"account","type":"address"},{"internalType":"bytes32","name":"neededRole","type":"bytes32"}],"name":"AccessControlUnauthorizedAccount","type":"error"},{"inputs":[],"name":"BuyerNotWhitelisted","type":"error"},{"inputs":[{"internalType":"uint256","name":"cost","type":"uint256"},{"internalType":"uint256","name":"maxCost","type":"uint256"}],"name":"CostExceeded","type":"error"},{"inputs":[],"name":"EnforcedPause","type":"error"},{"inputs":[],"name":"ExpectedPause","type":"error"},{"inputs":[],"name":"InsufficientRemaining","type":"error"},{"inputs":[],"name":"InvalidAddress","type":"error"},{"inputs":[],"name":"InvalidPrice","type":"error"},{"inputs":[],"name":"InvalidUnits","type":"error"},{"inputs":[],"name":"NotEnabled","type":"error"},{"inputs":[],"name":"NotInSaleTime","type":"error"},{"inputs":[],"name":"ReentrancyGuardReentrantCall","type":"error"},{"inputs":[{"internalType":"address","name":"token","type":"address"}],"name":"SafeERC20FailedOperation","type":"error"},{"inputs":[],"name":"SettlementTokenMismatch","type":"error"},{"anonymous":false,"inputs":[{"indexed":true,"internalType":"uint256","name":"offeringId","type":"uint256"},{"indexed":true,"internalType":"address","name":"asset","type":"address"},{"indexed":true,"internalType":"uint256","name":"seriesId","type":"uint256"},{"indexed":false,"internalType":"uint256","name":"unitPrice","type":"uint256"},{"indexed":false,"internalType":"uint256","name":"remainingUnits","type":"uint256"},{"indexed":false,"internalType":"uint64","name":"startAt","type":"uint64"},{"indexed":false,"internalType":"uint64","name":"endAt","type":"uint64"},{"indexed":false,"internalType":"address","name":"treasury","type":"address"},{"indexed":false,"internalType":"bool","name":"enabled","type":"bool"}],"name":"OfferingUpserted","type":"event"},{"anonymous":false,"inputs":[{"indexed":false,"internalType":"address","name":"account","type":"address"}],"name":"Paused","type":"event"},{"anonymous":false,"inputs":[{"indexed":true,"internalType":"uint256","name":"offeringId","type":"uint256"},{"indexed":true,"internalType":"address","name":"buyer","type":"address"},{"indexed":true,"internalType":"address","name":"asset","type":"address"},{"indexed":false,"internalType":"uint256","name":"seriesId","type":"uint256"},{"indexed":false,"internalType":"uint256","name":"units","type":"uint256"},{"indexed":false,"internalType":"uint256","name":"cost","type":"uint256"},{"indexed":false,"internalType":"address","name":"treasury","type":"address"}],"name":"Purchased","type":"event"},{"anonymous":false,"inputs":[{"indexed":true,"internalType":"bytes32","name":"role","type":"bytes32"},{"indexed":true,"internalType":"bytes32","name":"previousAdminRole","type":"bytes32"},{"indexed":true,"internalType":"bytes32","name":"newAdminRole","type":"bytes32"}],"name":"RoleAdminChanged","type":"event"},{"anonymous":false,"inputs":[{"indexed":true,"internalType":"bytes32","name":"role","type":"bytes32"},{"indexed":true,"internalType":"address","name":"account","type":"address"},{"indexed":true,"internalType":"address","name":"sender","type":"address"}],"name":"RoleGranted","type":"event"},{"anonymous":false,"inputs":[{"indexed":true,"internalType":"bytes32","name":"role","type":"bytes32"},{"indexed":true,"internalType":"address","name":"account","type":"address"},{"indexed":true,"internalType":"address","name":"sender","type":"address"}],"name":"RoleRevoked","type":"event"},{"anonymous":false,"inputs":[{"indexed":false,"internalType":"address","name":"account","type":"address"}],"name":"Unpaused","type":"event"},{"inputs":[],"name":"DEFAULT_ADMIN_ROLE","outputs":[{"internalType":"bytes32","name":"","type":"bytes32"}],"stateMutability":"view","type":"function"},{"inputs":[],"name":"PAUSER_ROLE","outputs":[{"internalType":"bytes32","name":"","type":"bytes32"}],"stateMutability":"view","type":"function"},{"inputs":[],"name":"SALE_MANAGER_ROLE","outputs":[{"internalType":"bytes32","name":"","type":"bytes32"}],"stateMutability":"view","type":"function"},{"inputs":[{"internalType":"uint256","name":"offeringId","type":"uint256"},{"internalType":"uint256","name":"units","type":"uint256"},{"internalType":"uint256","name":"maxCost","type":"uint256"}],"name":"buy","outputs":[],"stateMutability":"nonpayable","type":"function"},{"inputs":[{"internalType":"bytes32","name":"role","type":"bytes32"}],"name":"getRoleAdmin","outputs":[{"internalType":"bytes32","name":"","type":"bytes32"}],"stateMutability":"view","type":"function"},{"inputs":[{"internalType":"bytes32","name":"role","type":"bytes32"},{"internalType":"address","name":"account","type":"address"}],"name":"grantRole","outputs":[],"stateMutability":"nonpayable","type":"function"},{"inputs":[{"internalType":"bytes32","name":"role","type":"bytes32"},{"internalType":"address","name":"account","type":"address"}],"name":"hasRole","outputs":[{"internalType":"bool","name":"","type":"bool"}],"stateMutability":"view","type":"function"},{"inputs":[{"internalType":"uint256","name":"","type":"uint256"}],"name":"offerings","outputs":[{"internalType":"address","name":"asset","type":"address"},{"internalType":"uint256","name":"seriesId","type":"uint256"},{"internalType":"uint256","name":"unitPrice","type":"uint256"},{"internalType":"uint256","name":"remainingUnits","type":"uint256"},{"internalType":"uint64","name":"startAt","type":"uint64"},{"internalType":"uint64","name":"endAt","type":"uint64"},{"internalType":"address","name":"treasury","type":"address"},{"internalType":"bool","name":"enabled","type":"bool"}],"stateMutability":"view","type":"function"},{"inputs":[],"name":"pause","outputs":[],"stateMutability":"nonpayable","type":"function"},{"inputs":[],"name":"paused","outputs":[{"internalType":"bool","name":"","type":"bool"}],"stateMutability":"view","type":"function"},{"inputs":[{"internalType":"bytes32","name":"role","type":"bytes32"},{"internalType":"address","name":"callerConfirmation","type":"address"}],"name":"renounceRole","outputs":[],"stateMutability":"nonpayable","type":"function"},{"inputs":[{"internalType":"address","name":"token","type":"address"},{"internalType":"address","name":"to","type":"address"},{"internalType":"uint256","name":"amount","type":"uint256"}],"name":"rescueERC20","outputs":[],"stateMutability":"nonpayable","type":"function"},{"inputs":[{"internalType":"bytes32","name":"role","type":"bytes32"},{"internalType":"address","name":"account","type":"address"}],"name":"revokeRole","outputs":[],"stateMutability":"nonpayable","type":"function"},{"inputs":[{"internalType":"bytes4","name":"interfaceId","type":"bytes4"}],"name":"supportsInterface","outputs":[{"internalType":"bool","name":"","type":"bool"}],"stateMutability":"view","type":"function"},{"inputs":[],"name":"unpause","outputs":[],"stateMutability":"nonpayable","type":"function"},{"inputs":[{"internalType":"uint256","name":"offeringId","type":"uint256"},{"internalType":"address","name":"asset","type":"address"},{"internalType":"uint256","name":"seriesId","type":"uint256"},{"internalType":"uint256","name":"unitPrice","type":"uint256"},{"internalType":"uint256","name":"remainingUnits","type":"uint256"},{"internalType":"uint64","name":"startAt","type":"uint64"},{"internalType":"uint64","name":"endAt","type":"uint64"},{"internalType":"address","name":"treasury","type":"address"},{"internalType":"bool","name":"enabled","type":"bool"}],"name":"upsertOffering","outputs":[],"stateMutability":"nonpayable","type":"function"},{"inputs":[],"name":"usdr","outputs":[{"internalType":"contract IERC20","name":"","type":"address"}],"stateMutability":"view","type":"function"}],"evm":{"bytecode":{"linkReferences":{},"object":"60a06040523480156200001157600080fd5b50604051620013a1380380620013a18339810160408190526200003491620001bf565b60016002556001600160a01b03821615806200005757506001600160a01b038116155b15620000765760405163e6c4247b60e01b815260040160405180910390fd5b6001600160a01b03821660805262000090600082620000f3565b50620000bd7f988301af8238f779281a300de031815cd01b48e9f1ae47a0f91ed6584213624a82620000f3565b50620000ea7f65d7a28e3265b37a6474929f336521b332c1681b933f6cb9f3376673440d862a82620000f3565b505050620001f7565b6000828152602081815260408083206001600160a01b038516845290915281205460ff1662000198576000838152602081815260408083206001600160a01b03861684529091529020805460ff191660011790556200014f3390565b6001600160a01b0316826001600160a01b0316847f2f8788117e7eff1d82e926ec794901d17c78024a50270940304540a733656f0d60405160405180910390a45060016200019c565b5060005b92915050565b80516001600160a01b0381168114620001ba57600080fd5b919050565b60008060408385031215620001d357600080fd5b620001de83620001a2565b9150620001ee60208401620001a2565b90509250929050565b60805161118062000221600039600081816102190152818161046e01526109e701526111806000f3fe608060405234801561001057600080fd5b506004361061010b5760003560e01c80635c975abb116100a2578063ada13fc611610071578063ada13fc614610214578063b2118a8d14610253578063d547741f14610266578063e34fec1d14610279578063e63ab1e91461034257600080fd5b80635c975abb146101e65780638456cb59146101f157806391d14854146101f9578063a217fddf1461020c57600080fd5b806336568abe116100de57806336568abe146101915780633f4ba83a146101a457806340993b26146101ac578063551b42a8146101bf57600080fd5b806301ffc9a71461011057806318710e2414610138578063248a9ca31461014d5780632f2ff15d1461017e575b600080fd5b61012361011e366004610f16565b610369565b60405190151581526020015b60405180910390f35b61014b610146366004610f86565b6103a0565b005b61017061015b36600461101a565b60009081526020819052604090206001015490565b60405190815260200161012f565b61014b61018c366004611033565b610718565b61014b61019f366004611033565b610743565b61014b61077b565b61014b6101ba366004611063565b6107b0565b6101707f988301af8238f779281a300de031815cd01b48e9f1ae47a0f91ed6584213624a81565b60015460ff16610123565b61014b610af1565b610123610207366004611033565b610b23565b610170600081565b61023b7f000000000000000000000000000000000000000000000000000000000000000081565b6040516001600160a01b03909116815260200161012f565b61014b61026136600461108f565b610b4c565b61014b610274366004611033565b610ba6565b6102ec61028736600461101a565b60036020819052600091825260409091208054600182015460028301549383015460048401546005909401546001600160a01b03938416959294929391926001600160401b0380821693600160401b909204169190811690600160a01b900460ff1688565b604080516001600160a01b03998a168152602081019890985287019590955260608601939093526001600160401b0391821660808601521660a084015290921660c082015290151560e08201526101000161012f565b6101707f65d7a28e3265b37a6474929f336521b332c1681b933f6cb9f3376673440d862a81565b60006001600160e01b03198216637965db0b60e01b148061039a57506301ffc9a760e01b6001600160e01b03198316145b92915050565b7f988301af8238f779281a300de031815cd01b48e9f1ae47a0f91ed6584213624a6103ca81610bcb565b6001600160a01b03891615806103e757506001600160a01b038316155b156104055760405163e6c4247b60e01b815260040160405180910390fd5b866000036104255760405162bfc92160e01b815260040160405180910390fd5b6001600160401b0384161580159061044e5750846001600160401b0316846001600160401b0316105b1561046c5760405163c867bfaf60e01b815260040160405180910390fd5b7f00000000000000000000000000000000000000000000000000000000000000006001600160a01b0316896001600160a01b0316637b9e618d6040518163ffffffff1660e01b8152600401602060405180830381865afa1580156104d4573d6000803e3d6000fd5b505050506040513d601f19601f820116820180604052508101906104f891906110d0565b6001600160a01b03161461051f5760405163913c5c2160e01b815260040160405180910390fd5b6040518061010001604052808a6001600160a01b03168152602001898152602001888152602001878152602001866001600160401b03168152602001856001600160401b03168152602001846001600160a01b03168152602001831515815250600360008c815260200190815260200160002060008201518160000160006101000a8154816001600160a01b0302191690836001600160a01b0316021790555060208201518160010155604082015181600201556060820151816003015560808201518160040160006101000a8154816001600160401b0302191690836001600160401b0316021790555060a08201518160040160086101000a8154816001600160401b0302191690836001600160401b0316021790555060c08201518160050160006101000a8154816001600160a01b0302191690836001600160a01b0316021790555060e08201518160050160146101000a81548160ff02191690831515021790555090505087896001600160a01b03168b7f1680c70a8b7fec1ff25935c15c119073cc5cfcb500ceed89c8be7bb78a9e9c728a8a8a8a8a8a6040516107049695949392919095865260208601949094526001600160401b039283166040860152911660608401526001600160a01b03166080830152151560a082015260c00190565b60405180910390a450505050505050505050565b60008281526020819052604090206001015461073381610bcb565b61073d8383610bd5565b50505050565b6001600160a01b038116331461076c5760405163334bd91960e11b815260040160405180910390fd5b6107768282610c67565b505050565b7f65d7a28e3265b37a6474929f336521b332c1681b933f6cb9f3376673440d862a6107a581610bcb565b6107ad610cd2565b50565b6107b8610d24565b6107c0610d4c565b816000036107e157604051630e433c2360e31b815260040160405180910390fd5b60008381526003602052604090206005810154600160a01b900460ff1661081b57604051633f54562b60e11b815260040160405180910390fd5b600481015442906001600160401b031615801590610849575060048201546001600160401b03908116908216105b156108675760405163c867bfaf60e01b815260040160405180910390fd5b6004820154600160401b90046001600160401b0316158015906108a1575060048201546001600160401b03600160401b9091048116908216115b156108bf5760405163c867bfaf60e01b815260040160405180910390fd5b6003820154156109085783826003015410156108ee576040516304fce4c160e21b815260040160405180910390fd5b838260030160008282546109029190611103565b90915550505b8154604051636c9b2a3f60e11b81523360048201526001600160a01b039091169063d936547e90602401602060405180830381865afa15801561094f573d6000803e3d6000fd5b505050506040513d601f19601f820116820180604052508101906109739190611116565b6109905760405163716e1be760e11b815260040160405180910390fd5b60008260020154856109a29190611133565b9050838111156109d45760405163571797b560e11b815260048101829052602481018590526044015b60405180910390fd5b6005830154610a12906001600160a01b037f000000000000000000000000000000000000000000000000000000000000000081169133911684610d72565b82546001840154604051630ffea21360e21b81526004810191909152336024820152604481018790526001600160a01b0390911690633ffa884c90606401600060405180830381600087803b158015610a6a57600080fd5b505af1158015610a7e573d6000803e3d6000fd5b505084546001860154600587015460408051928352602083018b90528281018790526001600160a01b039182166060840152519216935033925089917f6d6d9146d86c1569a48365a49d5a6ca05fb3463e82a9508f75c5319fe0ddbba79181900360800190a45050506107766001600255565b7f65d7a28e3265b37a6474929f336521b332c1681b933f6cb9f3376673440d862a610b1b81610bcb565b6107ad610dd9565b6000918252602082815260408084206001600160a01b0393909316845291905290205460ff1690565b6000610b5781610bcb565b6001600160a01b0384161580610b7457506001600160a01b038316155b15610b925760405163e6c4247b60e01b815260040160405180910390fd5b61073d6001600160a01b0385168484610e14565b600082815260208190526040902060010154610bc181610bcb565b61073d8383610c67565b6107ad8133610e45565b6000610be18383610b23565b610c5f576000838152602081815260408083206001600160a01b03861684529091529020805460ff19166001179055610c173390565b6001600160a01b0316826001600160a01b0316847f2f8788117e7eff1d82e926ec794901d17c78024a50270940304540a733656f0d60405160405180910390a450600161039a565b50600061039a565b6000610c738383610b23565b15610c5f576000838152602081815260408083206001600160a01b0386168085529252808320805460ff1916905551339286917ff6391f5c32d9c69d2a47ea670b442974b53935d1edc7fd64eb21e047a839171b9190a450600161039a565b610cda610e82565b6001805460ff191690557f5db9ee0a495bf2e6ff9c91a7834c1ba4fdd244a5e8aa4e537bd38aeae4b073aa335b6040516001600160a01b03909116815260200160405180910390a1565b6002805403610d4657604051633ee5aeb560e01b815260040160405180910390fd5b60028055565b60015460ff1615610d705760405163d93c066560e01b815260040160405180910390fd5b565b6040516001600160a01b03848116602483015283811660448301526064820183905261073d9186918216906323b872dd906084015b604051602081830303815290604052915060e01b6020820180516001600160e01b038381831617835250505050610ea5565b610de1610d4c565b6001805460ff1916811790557f62e78cea01bee320cd4e420270b5ea74000d11b0c9f74754ebdbfc544b05a25833610d07565b6040516001600160a01b0383811660248301526044820183905261077691859182169063a9059cbb90606401610da7565b610e4f8282610b23565b610e7e5760405163e2517d3f60e01b81526001600160a01b0382166004820152602481018390526044016109cb565b5050565b60015460ff16610d7057604051638dfc202b60e01b815260040160405180910390fd5b600080602060008451602086016000885af180610ec8576040513d6000823e3d81fd5b50506000513d91508115610ee0578060011415610eed565b6001600160a01b0384163b155b1561073d57604051635274afe760e01b81526001600160a01b03851660048201526024016109cb565b600060208284031215610f2857600080fd5b81356001600160e01b031981168114610f4057600080fd5b9392505050565b6001600160a01b03811681146107ad57600080fd5b80356001600160401b0381168114610f7357600080fd5b919050565b80151581146107ad57600080fd5b60008060008060008060008060006101208a8c031215610fa557600080fd5b8935985060208a0135610fb781610f47565b975060408a0135965060608a0135955060808a01359450610fda60a08b01610f5c565b9350610fe860c08b01610f5c565b925060e08a0135610ff881610f47565b91506101008a013561100981610f78565b809150509295985092959850929598565b60006020828403121561102c57600080fd5b5035919050565b6000806040838503121561104657600080fd5b82359150602083013561105881610f47565b809150509250929050565b60008060006060848603121561107857600080fd5b505081359360208301359350604090920135919050565b6000806000606084860312156110a457600080fd5b83356110af81610f47565b925060208401356110bf81610f47565b929592945050506040919091013590565b6000602082840312156110e257600080fd5b8151610f4081610f47565b634e487b7160e01b600052601160045260246000fd5b8181038181111561039a5761039a6110ed565b60006020828403121561112857600080fd5b8151610f4081610f78565b808202811582820484141761039a5761039a6110ed56fea264697066735822122081e947bc1cdb74385cbaf48ce9ce48bb493f7c782b4baeea2c5bcfafaed7f1c564736f6c63430008180033","opcodes":"PUSH1 0xA0 PUSH1 0x40 MSTORE CALLVALUE DUP1 ISZERO PUSH3 0x11 JUMPI PUSH1 0x0 DUP1 REVERT JUMPDEST POP PUSH1 0x40 MLOAD PUSH3 0x13A1 CODESIZE SUB DUP1 PUSH3 0x13A1 DUP4 CODECOPY DUP2 ADD PUSH1 0x40 DUP2 SWAP1 MSTORE PUSH3 0x34 SWAP2 PUSH3 0x1BF JUMP JUMPDEST PUSH1 0x1 PUSH1 0x2 SSTORE PUSH1 0x1 PUSH1 0x1 PUSH1 0xA0 SHL SUB DUP3 AND ISZERO DUP1 PUSH3 0x57 JUMPI POP PUSH1 0x1 PUSH1 0x1 PUSH1 0xA0 SHL SUB DUP2 AND ISZERO JUMPDEST ISZERO PUSH3 0x76 JUMPI PUSH1 0x40 MLOAD PUSH4 0xE6C4247B PUSH1 0xE0 SHL DUP2 MSTORE PUSH1 0x4 ADD PUSH1 0x40 MLOAD DUP1 SWAP2 SUB SWAP1 REVERT JUMPDEST PUSH1 0x1 PUSH1 0x1 PUSH1 0xA0 SHL SUB DUP3 AND PUSH1 0x80 MSTORE PUSH3 0x90 PUSH1 0x0 DUP3 PUSH3 0xF3 JUMP JUMPDEST POP PUSH3 0xBD PUSH32 0x988301AF8238F779281A300DE031815CD01B48E9F1AE47A0F91ED6584213624A DUP3 PUSH3 0xF3 JUMP JUMPDEST POP PUSH3 0xEA PUSH32 0x65D7A28E3265B37A6474929F336521B332C1681B933F6CB9F3376673440D862A DUP3 PUSH3 0xF3 JUMP JUMPDEST POP POP POP PUSH3 0x1F7 JUMP JUMPDEST PUSH1 0x0 DUP3 DUP2 MSTORE PUSH1 0x20 DUP2 DUP2 MSTORE PUSH1 0x40 DUP1 DUP4 KECCAK256 PUSH1 0x1 PUSH1 0x1 PUSH1 0xA0 SHL SUB DUP6 AND DUP5 MSTORE SWAP1 SWAP2 MSTORE DUP2 KECCAK256 SLOAD PUSH1 0xFF AND PUSH3 0x198 JUMPI PUSH1 0x0 DUP4 DUP2 MSTORE PUSH1 0x20 DUP2 DUP2 MSTORE PUSH1 0x40 DUP1 DUP4 KECCAK256 PUSH1 0x1 PUSH1 0x1 PUSH1 0xA0 SHL SUB DUP7 AND DUP5 MSTORE SWAP1 SWAP2 MSTORE SWAP1 KECCAK256 DUP1 SLOAD PUSH1 0xFF NOT AND PUSH1 0x1 OR SWAP1 SSTORE PUSH3 0x14F CALLER SWAP1 JUMP JUMPDEST PUSH1 0x1 PUSH1 0x1 PUSH1 0xA0 SHL SUB AND DUP3 PUSH1 0x1 PUSH1 0x1 PUSH1 0xA0 SHL SUB AND DUP5 PUSH32 0x2F8788117E7EFF1D82E926EC794901D17C78024A50270940304540A733656F0D PUSH1 0x40 MLOAD PUSH1 0x40 MLOAD DUP1 SWAP2 SUB SWAP1 LOG4 POP PUSH1 0x1 PUSH3 0x19C JUMP JUMPDEST POP PUSH1 0x0 JUMPDEST SWAP3 SWAP2 POP POP JUMP JUMPDEST DUP1 MLOAD PUSH1 0x1 PUSH1 0x1 PUSH1 0xA0 SHL SUB DUP2 AND DUP2 EQ PUSH3 0x1BA JUMPI PUSH1 0x0 DUP1 REVERT JUMPDEST SWAP2 SWAP1 POP JUMP JUMPDEST PUSH1 0x0 DUP1 PUSH1 0x40 DUP4 DUP6 SUB SLT ISZERO PUSH3 0x1D3 JUMPI PUSH1 0x0 DUP1 REVERT JUMPDEST PUSH3 0x1DE DUP4 PUSH3 0x1A2 JUMP JUMPDEST SWAP2 POP PUSH3 0x1EE PUSH1 0x20 DUP5 ADD PUSH3 0x1A2 JUMP JUMPDEST SWAP1 POP SWAP3 POP SWAP3 SWAP1 POP JUMP JUMPDEST PUSH1 0x80 MLOAD PUSH2 0x1180 PUSH3 0x221 PUSH1 0x0 CODECOPY PUSH1 0x0 DUP2 DUP2 PUSH2 0x219 ADD MSTORE DUP2 DUP2 PUSH2 0x46E ADD MSTORE PUSH2 0x9E7 ADD MSTORE PUSH2 0x1180 PUSH1 0x0 RETURN INVALID PUSH1 0x80 PUSH1 0x40 MSTORE CALLVALUE DUP1 ISZERO PUSH2 0x10 JUMPI PUSH1 0x0 DUP1 REVERT JUMPDEST POP PUSH1 0x4 CALLDATASIZE LT PUSH2 0x10B JUMPI PUSH1 0x0 CALLDATALOAD PUSH1 0xE0 SHR DUP1 PUSH4 0x5C975ABB GT PUSH2 0xA2 JUMPI DUP1 PUSH4 0xADA13FC6 GT PUSH2 0x71 JUMPI DUP1 PUSH4 0xADA13FC6 EQ PUSH2 0x214 JUMPI DUP1 PUSH4 0xB2118A8D EQ PUSH2 0x253 JUMPI DUP1 PUSH4 0xD547741F EQ PUSH2 0x266 JUMPI DUP1 PUSH4 0xE34FEC1D EQ PUSH2 0x279 JUMPI DUP1 PUSH4 0xE63AB1E9 EQ PUSH2 0x342 JUMPI PUSH1 0x0 DUP1 REVERT JUMPDEST DUP1 PUSH4 0x5C975ABB EQ PUSH2 0x1E6 JUMPI DUP1 PUSH4 0x8456CB59 EQ PUSH2 0x1F1 JUMPI DUP1 PUSH4 0x91D14854 EQ PUSH2 0x1F9 JUMPI DUP1 PUSH4 0xA217FDDF EQ PUSH2 0x20C JUMPI PUSH1 0x0 DUP1 REVERT JUMPDEST DUP1 PUSH4 0x36568ABE GT PUSH2 0xDE JUMPI DUP1 PUSH4 0x36568ABE EQ PUSH2 0x191 JUMPI DUP1 PUSH4 0x3F4BA83A EQ PUSH2 0x1A4 JUMPI DUP1 PUSH4 0x40993B26 EQ PUSH2 0x1AC JUMPI DUP1 PUSH4 0x551B42A8 EQ PUSH2 0x1BF JUMPI PUSH1 0x0 DUP1 REVERT JUMPDEST DUP1 PUSH4 0x1FFC9A7 EQ PUSH2 0x110 JUMPI DUP1 PUSH4 0x18710E24 EQ PUSH2 0x138 JUMPI DUP1 PUSH4 0x248A9CA3 EQ PUSH2 0x14D JUMPI DUP1 PUSH4 0x2F2FF15D EQ PUSH2 0x17E JUMPI JUMPDEST PUSH1 0x0 DUP1 REVERT JUMPDEST PUSH2 0x123 PUSH2 0x11E CALLDATASIZE PUSH1 0x4 PUSH2 0xF16 JUMP JUMPDEST PUSH2 0x369 JUMP JUMPDEST PUSH1 0x40 MLOAD SWAP1 ISZERO ISZERO DUP2 MSTORE PUSH1 0x20 ADD JUMPDEST PUSH1 0x40 MLOAD DUP1 SWAP2 SUB SWAP1 RETURN JUMPDEST PUSH2 0x14B PUSH2 0x146 CALLDATASIZE PUSH1 0x4 PUSH2 0xF86 JUMP JUMPDEST PUSH2 0x3A0 JUMP JUMPDEST STOP JUMPDEST PUSH2 0x170 PUSH2 0x15B CALLDATASIZE PUSH1 0x4 PUSH2 0x101A JUMP JUMPDEST PUSH1 0x0 SWAP1 DUP2 MSTORE PUSH1 0x20 DUP2 SWAP1 MSTORE PUSH1 0x40 SWAP1 KECCAK256 PUSH1 0x1 ADD SLOAD SWAP1 JUMP JUMPDEST PUSH1 0x40 MLOAD SWAP1 DUP2 MSTORE PUSH1 0x20 ADD PUSH2 0x12F JUMP JUMPDEST PUSH2 0x14B PUSH2 0x18C CALLDATASIZE PUSH1 0x4 PUSH2 0x1033 JUMP JUMPDEST PUSH2 0x718 JUMP JUMPDEST PUSH2 0x14B PUSH2 0x19F CALLDATASIZE PUSH1 0x4 PUSH2 0x1033 JUMP JUMPDEST PUSH2 0x743 JUMP JUMPDEST PUSH2 0x14B PUSH2 0x77B JUMP JUMPDEST PUSH2 0x14B PUSH2 0x1BA CALLDATASIZE PUSH1 0x4 PUSH2 0x1063 JUMP JUMPDEST PUSH2 0x7B0 JUMP JUMPDEST PUSH2 0x170 PUSH32 0x988301AF8238F779281A300DE031815CD01B48E9F1AE47A0F91ED6584213624A DUP2 JUMP JUMPDEST PUSH1 0x1 SLOAD PUSH1 0xFF AND PUSH2 0x123 JUMP JUMPDEST PUSH2 0x14B PUSH2 0xAF1 JUMP JUMPDEST PUSH2 0x123 PUSH2 0x207 CALLDATASIZE PUSH1 0x4 PUSH2 0x1033 JUMP JUMPDEST PUSH2 0xB23 JUMP JUMPDEST PUSH2 0x170 PUSH1 0x0 DUP2 JUMP JUMPDEST PUSH2 0x23B PUSH32 0x0 DUP2 JUMP JUMPDEST PUSH1 0x40 MLOAD PUSH1 0x1 PUSH1 0x1 PUSH1 0xA0 SHL SUB SWAP1 SWAP2 AND DUP2 MSTORE PUSH1 0x20 ADD PUSH2 0x12F JUMP JUMPDEST PUSH2 0x14B PUSH2 0x261 CALLDATASIZE PUSH1 0x4 PUSH2 0x108F JUMP JUMPDEST PUSH2 0xB4C JUMP JUMPDEST PUSH2 0x14B PUSH2 0x274 CALLDATASIZE PUSH1 0x4 PUSH2 0x1033 JUMP JUMPDEST PUSH2 0xBA6 JUMP JUMPDEST PUSH2 0x2EC PUSH2 0x287 CALLDATASIZE PUSH1 0x4 PUSH2 0x101A JUMP JUMPDEST PUSH1 0x3 PUSH1 0x20 DUP2 SWAP1 MSTORE PUSH1 0x0 SWAP2 DUP3 MSTORE PUSH1 0x40 SWAP1 SWAP2 KECCAK256 DUP1 SLOAD PUSH1 0x1 DUP3 ADD SLOAD PUSH1 0x2 DUP4 ADD SLOAD SWAP4 DUP4 ADD SLOAD PUSH1 0x4 DUP5 ADD SLOAD PUSH1 0x5 SWAP1 SWAP5 ADD SLOAD PUSH1 0x1 PUSH1 0x1 PUSH1 0xA0 SHL SUB SWAP4 DUP5 AND SWAP6 SWAP3 SWAP5 SWAP3 SWAP4 SWAP2 SWAP3 PUSH1 0x1 PUSH1 0x1 PUSH1 0x40 SHL SUB DUP1 DUP3 AND SWAP4 PUSH1 0x1 PUSH1 0x40 SHL SWAP1 SWAP3 DIV AND SWAP2 SWAP1 DUP2 AND SWAP1 PUSH1 0x1 PUSH1 0xA0 SHL SWAP1 DIV PUSH1 0xFF AND DUP9 JUMP JUMPDEST PUSH1 0x40 DUP1 MLOAD PUSH1 0x1 PUSH1 0x1 PUSH1 0xA0 SHL SUB SWAP10 DUP11 AND DUP2 MSTORE PUSH1 0x20 DUP2 ADD SWAP9 SWAP1 SWAP9 MSTORE DUP8 ADD SWAP6 SWAP1 SWAP6 MSTORE PUSH1 0x60 DUP7 ADD SWAP4 SWAP1 SWAP4 MSTORE PUSH1 0x1 PUSH1 0x1 PUSH1 0x40 SHL SUB SWAP2 DUP3 AND PUSH1 0x80 DUP7 ADD MSTORE AND PUSH1 0xA0 DUP5 ADD MSTORE SWAP1 SWAP3 AND PUSH1 0xC0 DUP3 ADD MSTORE SWAP1 ISZERO ISZERO PUSH1 0xE0 DUP3 ADD MSTORE PUSH2 0x100 ADD PUSH2 0x12F JUMP JUMPDEST PUSH2 0x170 PUSH32 0x65D7A28E3265B37A6474929F336521B332C1681B933F6CB9F3376673440D862A DUP2 JUMP JUMPDEST PUSH1 0x0 PUSH1 0x1 PUSH1 0x1 PUSH1 0xE0 SHL SUB NOT DUP3 AND PUSH4 0x7965DB0B PUSH1 0xE0 SHL EQ DUP1 PUSH2 0x39A JUMPI POP PUSH4 0x1FFC9A7 PUSH1 0xE0 SHL PUSH1 0x1 PUSH1 0x1 PUSH1 0xE0 SHL SUB NOT DUP4 AND EQ JUMPDEST SWAP3 SWAP2 POP POP JUMP JUMPDEST PUSH32 0x988301AF8238F779281A300DE031815CD01B48E9F1AE47A0F91ED6584213624A PUSH2 0x3CA DUP2 PUSH2 0xBCB JUMP JUMPDEST PUSH1 0x1 PUSH1 0x1 PUSH1 0xA0 SHL SUB DUP10 AND ISZERO DUP1 PUSH2 0x3E7 JUMPI POP PUSH1 0x1 PUSH1 0x1 PUSH1 0xA0 SHL SUB DUP4 AND ISZERO JUMPDEST ISZERO PUSH2 0x405 JUMPI PUSH1 0x40 MLOAD PUSH4 0xE6C4247B PUSH1 0xE0 SHL DUP2 MSTORE PUSH1 0x4 ADD PUSH1 0x40 MLOAD DUP1 SWAP2 SUB SWAP1 REVERT JUMPDEST DUP7 PUSH1 0x0 SUB PUSH2 0x425 JUMPI PUSH1 0x40 MLOAD PUSH3 0xBFC921 PUSH1 0xE0 SHL DUP2 MSTORE PUSH1 0x4 ADD PUSH1 0x40 MLOAD DUP1 SWAP2 SUB SWAP1 REVERT JUMPDEST PUSH1 0x1 PUSH1 0x1 PUSH1 0x40 SHL SUB DUP5 AND ISZERO DUP1 ISZERO SWAP1 PUSH2 0x44E JUMPI POP DUP5 PUSH1 0x1 PUSH1 0x1 PUSH1 0x40 SHL SUB AND DUP5 PUSH1 0x1 PUSH1 0x1 PUSH1 0x40 SHL SUB AND LT JUMPDEST ISZERO PUSH2 0x46C JUMPI PUSH1 0x40 MLOAD PUSH4 0xC867BFAF PUSH1 0xE0 SHL DUP2 MSTORE PUSH1 0x4 ADD PUSH1 0x40 MLOAD DUP1 SWAP2 SUB SWAP1 REVERT JUMPDEST PUSH32 0x0 PUSH1 0x1 PUSH1 0x1 PUSH1 0xA0 SHL SUB AND DUP10 PUSH1 0x1 PUSH1 0x1 PUSH1 0xA0 SHL SUB AND PUSH4 0x7B9E618D PUSH1 0x40 MLOAD DUP2 PUSH4 0xFFFFFFFF AND PUSH1 0xE0 SHL DUP2 MSTORE PUSH1 0x4 ADD PUSH1 0x20 PUSH1 0x40 MLOAD DUP1 DUP4 SUB DUP2 DUP7 GAS STATICCALL ISZERO DUP1 ISZERO PUSH2 0x4D4 JUMPI RETURNDATASIZE PUSH1 0x0 DUP1 RETURNDATACOPY RETURNDATASIZE PUSH1 0x0 REVERT JUMPDEST POP POP POP POP PUSH1 0x40 MLOAD RETURNDATASIZE PUSH1 0x1F NOT PUSH1 0x1F DUP3 ADD AND DUP3 ADD DUP1 PUSH1 0x40 MSTORE POP DUP2 ADD SWAP1 PUSH2 0x4F8 SWAP2 SWAP1 PUSH2 0x10D0 JUMP JUMPDEST PUSH1 0x1 PUSH1 0x1 PUSH1 0xA0 SHL SUB AND EQ PUSH2 0x51F JUMPI PUSH1 0x40 MLOAD PUSH4 0x913C5C21 PUSH1 0xE0 SHL DUP2 MSTORE PUSH1 0x4 ADD PUSH1 0x40 MLOAD DUP1 SWAP2 SUB SWAP1 REVERT JUMPDEST PUSH1 0x40 MLOAD DUP1 PUSH2 0x100 ADD PUSH1 0x40 MSTORE DUP1 DUP11 PUSH1 0x1 PUSH1 0x1 PUSH1 0xA0 SHL SUB AND DUP2 MSTORE PUSH1 0x20 ADD DUP10 DUP2 MSTORE PUSH1 0x20 ADD DUP9 DUP2 MSTORE PUSH1 0x20 ADD DUP8 DUP2 MSTORE PUSH1 0x20 ADD DUP7 PUSH1 0x1 PUSH1 0x1 PUSH1 0x40 SHL SUB AND DUP2 MSTORE PUSH1 0x20 ADD DUP6 PUSH1 0x1 PUSH1 0x1 PUSH1 0x40 SHL SUB AND DUP2 MSTORE PUSH1 0x20 ADD DUP5 PUSH1 0x1 PUSH1 0x1 PUSH1 0xA0 SHL SUB AND DUP2 MSTORE PUSH1 0x20 ADD DUP4 ISZERO ISZERO DUP2 MSTORE POP PUSH1 0x3 PUSH1 0x0 DUP13 DUP2 MSTORE PUSH1 0x20 ADD SWAP1 DUP2 MSTORE PUSH1 0x20 ADD PUSH1 0x0 KECCAK256 PUSH1 0x0 DUP3 ADD MLOAD DUP2 PUSH1 0x0 ADD PUSH1 0x0 PUSH2 0x100 EXP DUP2 SLOAD DUP2 PUSH1 0x1 PUSH1 0x1 PUSH1 0xA0 SHL SUB MUL NOT AND SWAP1 DUP4 PUSH1 0x1 PUSH1 0x1 PUSH1 0xA0 SHL SUB AND MUL OR SWAP1 SSTORE POP PUSH1 0x20 DUP3 ADD MLOAD DUP2 PUSH1 0x1 ADD SSTORE PUSH1 0x40 DUP3 ADD MLOAD DUP2 PUSH1 0x2 ADD SSTORE PUSH1 0x60 DUP3 ADD MLOAD DUP2 PUSH1 0x3 ADD SSTORE PUSH1 0x80 DUP3 ADD MLOAD DUP2 PUSH1 0x4 ADD PUSH1 0x0 PUSH2 0x100 EXP DUP2 SLOAD DUP2 PUSH1 0x1 PUSH1 0x1 PUSH1 0x40 SHL SUB MUL NOT AND SWAP1 DUP4 PUSH1 0x1 PUSH1 0x1 PUSH1 0x40 SHL SUB AND MUL OR SWAP1 SSTORE POP PUSH1 0xA0 DUP3 ADD MLOAD DUP2 PUSH1 0x4 ADD PUSH1 0x8 PUSH2 0x100 EXP DUP2 SLOAD DUP2 PUSH1 0x1 PUSH1 0x1 PUSH1 0x40 SHL SUB MUL NOT AND SWAP1 DUP4 PUSH1 0x1 PUSH1 0x1 PUSH1 0x40 SHL SUB AND MUL OR SWAP1 SSTORE POP PUSH1 0xC0 DUP3 ADD MLOAD DUP2 PUSH1 0x5 ADD PUSH1 0x0 PUSH2 0x100 EXP DUP2 SLOAD DUP2 PUSH1 0x1 PUSH1 0x1 PUSH1 0xA0 SHL SUB MUL NOT AND SWAP1 DUP4 PUSH1 0x1 PUSH1 0x1 PUSH1 0xA0 SHL SUB AND MUL OR SWAP1 SSTORE POP PUSH1 0xE0 DUP3 ADD MLOAD DUP2 PUSH1 0x5 ADD PUSH1 0x14 PUSH2 0x100 EXP DUP2 SLOAD DUP2 PUSH1 0xFF MUL NOT AND SWAP1 DUP4 ISZERO ISZERO MUL OR SWAP1 SSTORE POP SWAP1 POP POP DUP8 DUP10 PUSH1 0x1 PUSH1 0x1 PUSH1 0xA0 SHL SUB AND DUP12 PUSH32 0x1680C70A8B7FEC1FF25935C15C119073CC5CFCB500CEED89C8BE7BB78A9E9C72 DUP11 DUP11 DUP11 DUP11 DUP11 DUP11 PUSH1 0x40 MLOAD PUSH2 0x704 SWAP7 SWAP6 SWAP5 SWAP4 SWAP3 SWAP2 SWAP1 SWAP6 DUP7 MSTORE PUSH1 0x20 DUP7 ADD SWAP5 SWAP1 SWAP5 MSTORE PUSH1 0x1 PUSH1 0x1 PUSH1 0x40 SHL SUB SWAP3 DUP4 AND PUSH1 0x40 DUP7 ADD MSTORE SWAP2 AND PUSH1 0x60 DUP5 ADD MSTORE PUSH1 0x1 PUSH1 0x1 PUSH1 0xA0 SHL SUB AND PUSH1 0x80 DUP4 ADD MSTORE ISZERO ISZERO PUSH1 0xA0 DUP3 ADD MSTORE PUSH1 0xC0 ADD SWAP1 JUMP JUMPDEST PUSH1 0x40 MLOAD DUP1 SWAP2 SUB SWAP1 LOG4 POP POP POP POP POP POP POP POP POP POP JUMP JUMPDEST PUSH1 0x0 DUP3 DUP2 MSTORE PUSH1 0x20 DUP2 SWAP1 MSTORE PUSH1 0x40 SWAP1 KECCAK256 PUSH1 0x1 ADD SLOAD PUSH2 0x733 DUP2 PUSH2 0xBCB JUMP JUMPDEST PUSH2 0x73D DUP4 DUP4 PUSH2 0xBD5 JUMP JUMPDEST POP POP POP POP JUMP JUMPDEST PUSH1 0x1 PUSH1 0x1 PUSH1 0xA0 SHL SUB DUP2 AND CALLER EQ PUSH2 0x76C JUMPI PUSH1 0x40 MLOAD PUSH4 0x334BD919 PUSH1 0xE1 SHL DUP2 MSTORE PUSH1 0x4 ADD PUSH1 0x40 MLOAD DUP1 SWAP2 SUB SWAP1 REVERT JUMPDEST PUSH2 0x776 DUP3 DUP3 PUSH2 0xC67 JUMP JUMPDEST POP POP POP JUMP JUMPDEST PUSH32 0x65D7A28E3265B37A6474929F336521B332C1681B933F6CB9F3376673440D862A PUSH2 0x7A5 DUP2 PUSH2 0xBCB JUMP JUMPDEST PUSH2 0x7AD PUSH2 0xCD2 JUMP JUMPDEST POP JUMP JUMPDEST PUSH2 0x7B8 PUSH2 0xD24 JUMP JUMPDEST PUSH2 0x7C0 PUSH2 0xD4C JUMP JUMPDEST DUP2 PUSH1 0x0 SUB PUSH2 0x7E1 JUMPI PUSH1 0x40 MLOAD PUSH4 0xE433C23 PUSH1 0xE3 SHL DUP2 MSTORE PUSH1 0x4 ADD PUSH1 0x40 MLOAD DUP1 SWAP2 SUB SWAP1 REVERT JUMPDEST PUSH1 0x0 DUP4 DUP2 MSTORE PUSH1 0x3 PUSH1 0x20 MSTORE PUSH1 0x40 SWAP1 KECCAK256 PUSH1 0x5 DUP2 ADD SLOAD PUSH1 0x1 PUSH1 0xA0 SHL SWAP1 DIV PUSH1 0xFF AND PUSH2 0x81B JUMPI PUSH1 0x40 MLOAD PUSH4 0x3F54562B PUSH1 0xE1 SHL DUP2 MSTORE PUSH1 0x4 ADD PUSH1 0x40 MLOAD DUP1 SWAP2 SUB SWAP1 REVERT JUMPDEST PUSH1 0x4 DUP2 ADD SLOAD TIMESTAMP SWAP1 PUSH1 0x1 PUSH1 0x1 PUSH1 0x40 SHL SUB AND ISZERO DUP1 ISZERO SWAP1 PUSH2 0x849 JUMPI POP PUSH1 0x4 DUP3 ADD SLOAD PUSH1 0x1 PUSH1 0x1 PUSH1 0x40 SHL SUB SWAP1 DUP2 AND SWAP1 DUP3 AND LT JUMPDEST ISZERO PUSH2 0x867 JUMPI PUSH1 0x40 MLOAD PUSH4 0xC867BFAF PUSH1 0xE0 SHL DUP2 MSTORE PUSH1 0x4 ADD PUSH1 0x40 MLOAD DUP1 SWAP2 SUB SWAP1 REVERT JUMPDEST PUSH1 0x4 DUP3 ADD SLOAD PUSH1 0x1 PUSH1 0x40 SHL SWAP1 DIV PUSH1 0x1 PUSH1 0x1 PUSH1 0x40 SHL SUB AND ISZERO DUP1 ISZERO SWAP1 PUSH2 0x8A1 JUMPI POP PUSH1 0x4 DUP3 ADD SLOAD PUSH1 0x1 PUSH1 0x1 PUSH1 0x40 SHL SUB PUSH1 0x1 PUSH1 0x40 SHL SWAP1 SWAP2 DIV DUP2 AND SWAP1 DUP3 AND GT JUMPDEST ISZERO PUSH2 0x8BF JUMPI PUSH1 0x40 MLOAD PUSH4 0xC867BFAF PUSH1 0xE0 SHL DUP2 MSTORE PUSH1 0x4 ADD PUSH1 0x40 MLOAD DUP1 SWAP2 SUB SWAP1 REVERT JUMPDEST PUSH1 0x3 DUP3 ADD SLOAD ISZERO PUSH2 0x908 JUMPI DUP4 DUP3 PUSH1 0x3 ADD SLOAD LT ISZERO PUSH2 0x8EE JUMPI PUSH1 0x40 MLOAD PUSH4 0x4FCE4C1 PUSH1 0xE2 SHL DUP2 MSTORE PUSH1 0x4 ADD PUSH1 0x40 MLOAD DUP1 SWAP2 SUB SWAP1 REVERT JUMPDEST DUP4 DUP3 PUSH1 0x3 ADD PUSH1 0x0 DUP3 DUP3 SLOAD PUSH2 0x902 SWAP2 SWAP1 PUSH2 0x1103 JUMP JUMPDEST SWAP1 SWAP2 SSTORE POP POP JUMPDEST DUP2 SLOAD PUSH1 0x40 MLOAD PUSH4 0x6C9B2A3F PUSH1 0xE1 SHL DUP2 MSTORE CALLER PUSH1 0x4 DUP3 ADD MSTORE PUSH1 0x1 PUSH1 0x1 PUSH1 0xA0 SHL SUB SWAP1 SWAP2 AND SWAP1 PUSH4 0xD936547E SWAP1 PUSH1 0x24 ADD PUSH1 0x20 PUSH1 0x40 MLOAD DUP1 DUP4 SUB DUP2 DUP7 GAS STATICCALL ISZERO DUP1 ISZERO PUSH2 0x94F JUMPI RETURNDATASIZE PUSH1 0x0 DUP1 RETURNDATACOPY RETURNDATASIZE PUSH1 0x0 REVERT JUMPDEST POP POP POP POP PUSH1 0x40 MLOAD RETURNDATASIZE PUSH1 0x1F NOT PUSH1 0x1F DUP3 ADD AND DUP3 ADD DUP1 PUSH1 0x40 MSTORE POP DUP2 ADD SWAP1 PUSH2 0x973 SWAP2 SWAP1 PUSH2 0x1116 JUMP JUMPDEST PUSH2 0x990 JUMPI PUSH1 0x40 MLOAD PUSH4 0x716E1BE7 PUSH1 0xE1 SHL DUP2 MSTORE PUSH1 0x4 ADD PUSH1 0x40 MLOAD DUP1 SWAP2 SUB SWAP1 REVERT JUMPDEST PUSH1 0x0 DUP3 PUSH1 0x2 ADD SLOAD DUP6 PUSH2 0x9A2 SWAP2 SWAP1 PUSH2 0x1133 JUMP JUMPDEST SWAP1 POP DUP4 DUP2 GT ISZERO PUSH2 0x9D4 JUMPI PUSH1 0x40 MLOAD PUSH4 0x571797B5 PUSH1 0xE1 SHL DUP2 MSTORE PUSH1 0x4 DUP2 ADD DUP3 SWAP1 MSTORE PUSH1 0x24 DUP2 ADD DUP6 SWAP1 MSTORE PUSH1 0x44 ADD JUMPDEST PUSH1 0x40 MLOAD DUP1 SWAP2 SUB SWAP1 REVERT JUMPDEST PUSH1 0x5 DUP4 ADD SLOAD PUSH2 0xA12 SWAP1 PUSH1 0x1 PUSH1 0x1 PUSH1 0xA0 SHL SUB PUSH32 0x0 DUP2 AND SWAP2 CALLER SWAP2 AND DUP5 PUSH2 0xD72 JUMP JUMPDEST DUP3 SLOAD PUSH1 0x1 DUP5 ADD SLOAD PUSH1 0x40 MLOAD PUSH4 0xFFEA213 PUSH1 0xE2 SHL DUP2 MSTORE PUSH1 0x4 DUP2 ADD SWAP2 SWAP1 SWAP2 MSTORE CALLER PUSH1 0x24 DUP3 ADD MSTORE PUSH1 0x44 DUP2 ADD DUP8 SWAP1 MSTORE PUSH1 0x1 PUSH1 0x1 PUSH1 0xA0 SHL SUB SWAP1 SWAP2 AND SWAP1 PUSH4 0x3FFA884C SWAP1 PUSH1 0x64 ADD PUSH1 0x0 PUSH1 0x40 MLOAD DUP1 DUP4 SUB DUP2 PUSH1 0x0 DUP8 DUP1 EXTCODESIZE ISZERO DUP1 ISZERO PUSH2 0xA6A JUMPI PUSH1 0x0 DUP1 REVERT JUMPDEST POP GAS CALL ISZERO DUP1 ISZERO PUSH2 0xA7E JUMPI RETURNDATASIZE PUSH1 0x0 DUP1 RETURNDATACOPY RETURNDATASIZE PUSH1 0x0 REVERT JUMPDEST POP POP DUP5 SLOAD PUSH1 0x1 DUP7 ADD SLOAD PUSH1 0x5 DUP8 ADD SLOAD PUSH1 0x40 DUP1 MLOAD SWAP3 DUP4 MSTORE PUSH1 0x20 DUP4 ADD DUP12 SWAP1 MSTORE DUP3 DUP2 ADD DUP8 SWAP1 MSTORE PUSH1 0x1 PUSH1 0x1 PUSH1 0xA0 SHL SUB SWAP2 DUP3 AND PUSH1 0x60 DUP5 ADD MSTORE MLOAD SWAP3 AND SWAP4 POP CALLER SWAP3 POP DUP10 SWAP2 PUSH32 0x6D6D9146D86C1569A48365A49D5A6CA05FB3463E82A9508F75C5319FE0DDBBA7 SWAP2 DUP2 SWAP1 SUB PUSH1 0x80 ADD SWAP1 LOG4 POP POP POP PUSH2 0x776 PUSH1 0x1 PUSH1 0x2 SSTORE JUMP JUMPDEST PUSH32 0x65D7A28E3265B37A6474929F336521B332C1681B933F6CB9F3376673440D862A PUSH2 0xB1B DUP2 PUSH2 0xBCB JUMP JUMPDEST PUSH2 0x7AD PUSH2 0xDD9 JUMP JUMPDEST PUSH1 0x0 SWAP2 DUP3 MSTORE PUSH1 0x20 DUP3 DUP2 MSTORE PUSH1 0x40 DUP1 DUP5 KECCAK256 PUSH1 0x1 PUSH1 0x1 PUSH1 0xA0 SHL SUB SWAP4 SWAP1 SWAP4 AND DUP5 MSTORE SWAP2 SWAP1 MSTORE SWAP1 KECCAK256 SLOAD PUSH1 0xFF AND SWAP1 JUMP JUMPDEST PUSH1 0x0 PUSH2 0xB57 DUP2 PUSH2 0xBCB JUMP JUMPDEST PUSH1 0x1 PUSH1 0x1 PUSH1 0xA0 SHL SUB DUP5 AND ISZERO DUP1 PUSH2 0xB74 JUMPI POP PUSH1 0x1 PUSH1 0x1 PUSH1 0xA0 SHL SUB DUP4 AND ISZERO JUMPDEST ISZERO PUSH2 0xB92 JUMPI PUSH1 0x40 MLOAD PUSH4 0xE6C4247B PUSH1 0xE0 SHL DUP2 MSTORE PUSH1 0x4 ADD PUSH1 0x40 MLOAD DUP1 SWAP2 SUB SWAP1 REVERT JUMPDEST PUSH2 0x73D PUSH1 0x1 PUSH1 0x1 PUSH1 0xA0 SHL SUB DUP6 AND DUP5 DUP5 PUSH2 0xE14 JUMP JUMPDEST PUSH1 0x0 DUP3 DUP2 MSTORE PUSH1 0x20 DUP2 SWAP1 MSTORE PUSH1 0x40 SWAP1 KECCAK256 PUSH1 0x1 ADD SLOAD PUSH2 0xBC1 DUP2 PUSH2 0xBCB JUMP JUMPDEST PUSH2 0x73D DUP4 DUP4 PUSH2 0xC67 JUMP JUMPDEST PUSH2 0x7AD DUP2 CALLER PUSH2 0xE45 JUMP JUMPDEST PUSH1 0x0 PUSH2 0xBE1 DUP4 DUP4 PUSH2 0xB23 JUMP JUMPDEST PUSH2 0xC5F JUMPI PUSH1 0x0 DUP4 DUP2 MSTORE PUSH1 0x20 DUP2 DUP2 MSTORE PUSH1 0x40 DUP1 DUP4 KECCAK256 PUSH1 0x1 PUSH1 0x1 PUSH1 0xA0 SHL SUB DUP7 AND DUP5 MSTORE SWAP1 SWAP2 MSTORE SWAP1 KECCAK256 DUP1 SLOAD PUSH1 0xFF NOT AND PUSH1 0x1 OR SWAP1 SSTORE PUSH2 0xC17 CALLER SWAP1 JUMP JUMPDEST PUSH1 0x1 PUSH1 0x1 PUSH1 0xA0 SHL SUB AND DUP3 PUSH1 0x1 PUSH1 0x1 PUSH1 0xA0 SHL SUB AND DUP5 PUSH32 0x2F8788117E7EFF1D82E926EC794901D17C78024A50270940304540A733656F0D PUSH1 0x40 MLOAD PUSH1 0x40 MLOAD DUP1 SWAP2 SUB SWAP1 LOG4 POP PUSH1 0x1 PUSH2 0x39A JUMP JUMPDEST POP PUSH1 0x0 PUSH2 0x39A JUMP JUMPDEST PUSH1 0x0 PUSH2 0xC73 DUP4 DUP4 PUSH2 0xB23 JUMP JUMPDEST ISZERO PUSH2 0xC5F JUMPI PUSH1 0x0 DUP4 DUP2 MSTORE PUSH1 0x20 DUP2 DUP2 MSTORE PUSH1 0x40 DUP1 DUP4 KECCAK256 PUSH1 0x1 PUSH1 0x1 PUSH1 0xA0 SHL SUB DUP7 AND DUP1 DUP6 MSTORE SWAP3 MSTORE DUP1 DUP4 KECCAK256 DUP1 SLOAD PUSH1 0xFF NOT AND SWAP1 SSTORE MLOAD CALLER SWAP3 DUP7 SWAP2 PUSH32 0xF6391F5C32D9C69D2A47EA670B442974B53935D1EDC7FD64EB21E047A839171B SWAP2 SWAP1 LOG4 POP PUSH1 0x1 PUSH2 0x39A JUMP JUMPDEST PUSH2 0xCDA PUSH2 0xE82 JUMP JUMPDEST PUSH1 0x1 DUP1 SLOAD PUSH1 0xFF NOT AND SWAP1 SSTORE PUSH32 0x5DB9EE0A495BF2E6FF9C91A7834C1BA4FDD244A5E8AA4E537BD38AEAE4B073AA CALLER JUMPDEST PUSH1 0x40 MLOAD PUSH1 0x1 PUSH1 0x1 PUSH1 0xA0 SHL SUB SWAP1 SWAP2 AND DUP2 MSTORE PUSH1 0x20 ADD PUSH1 0x40 MLOAD DUP1 SWAP2 SUB SWAP1 LOG1 JUMP JUMPDEST PUSH1 0x2 DUP1 SLOAD SUB PUSH2 0xD46 JUMPI PUSH1 0x40 MLOAD PUSH4 0x3EE5AEB5 PUSH1 0xE0 SHL DUP2 MSTORE PUSH1 0x4 ADD PUSH1 0x40 MLOAD DUP1 SWAP2 SUB SWAP1 REVERT JUMPDEST PUSH1 0x2 DUP1 SSTORE JUMP JUMPDEST PUSH1 0x1 SLOAD PUSH1 0xFF AND ISZERO PUSH2 0xD70 JUMPI PUSH1 0x40 MLOAD PUSH4 0xD93C0665 PUSH1 0xE0 SHL DUP2 MSTORE PUSH1 0x4 ADD PUSH1 0x40 MLOAD DUP1 SWAP2 SUB SWAP1 REVERT JUMPDEST JUMP JUMPDEST PUSH1 0x40 MLOAD PUSH1 0x1 PUSH1 0x1 PUSH1 0xA0 SHL SUB DUP5 DUP2 AND PUSH1 0x24 DUP4 ADD MSTORE DUP4 DUP2 AND PUSH1 0x44 DUP4 ADD MSTORE PUSH1 0x64 DUP3 ADD DUP4 SWAP1 MSTORE PUSH2 0x73D SWAP2 DUP7 SWAP2 DUP3 AND SWAP1 PUSH4 0x23B872DD SWAP1 PUSH1 0x84 ADD JUMPDEST PUSH1 0x40 MLOAD PUSH1 0x20 DUP2 DUP4 SUB SUB DUP2 MSTORE SWAP1 PUSH1 0x40 MSTORE SWAP2 POP PUSH1 0xE0 SHL PUSH1 0x20 DUP3 ADD DUP1 MLOAD PUSH1 0x1 PUSH1 0x1 PUSH1 0xE0 SHL SUB DUP4 DUP2 DUP4 AND OR DUP4 MSTORE POP POP POP POP PUSH2 0xEA5 JUMP JUMPDEST PUSH2 0xDE1 PUSH2 0xD4C JUMP JUMPDEST PUSH1 0x1 DUP1 SLOAD PUSH1 0xFF NOT AND DUP2 OR SWAP1 SSTORE PUSH32 0x62E78CEA01BEE320CD4E420270B5EA74000D11B0C9F74754EBDBFC544B05A258 CALLER PUSH2 0xD07 JUMP JUMPDEST PUSH1 0x40 MLOAD PUSH1 0x1 PUSH1 0x1 PUSH1 0xA0 SHL SUB DUP4 DUP2 AND PUSH1 0x24 DUP4 ADD MSTORE PUSH1 0x44 DUP3 ADD DUP4 SWAP1 MSTORE PUSH2 0x776 SWAP2 DUP6 SWAP2 DUP3 AND SWAP1 PUSH4 0xA9059CBB SWAP1 PUSH1 0x64 ADD PUSH2 0xDA7 JUMP JUMPDEST PUSH2 0xE4F DUP3 DUP3 PUSH2 0xB23 JUMP JUMPDEST PUSH2 0xE7E JUMPI PUSH1 0x40 MLOAD PUSH4 0xE2517D3F PUSH1 0xE0 SHL DUP2 MSTORE PUSH1 0x1 PUSH1 0x1 PUSH1 0xA0 SHL SUB DUP3 AND PUSH1 0x4 DUP3 ADD MSTORE PUSH1 0x24 DUP2 ADD DUP4 SWAP1 MSTORE PUSH1 0x44 ADD PUSH2 0x9CB JUMP JUMPDEST POP POP JUMP JUMPDEST PUSH1 0x1 SLOAD PUSH1 0xFF AND PUSH2 0xD70 JUMPI PUSH1 0x40 MLOAD PUSH4 0x8DFC202B PUSH1 0xE0 SHL DUP2 MSTORE PUSH1 0x4 ADD PUSH1 0x40 MLOAD DUP1 SWAP2 SUB SWAP1 REVERT JUMPDEST PUSH1 0x0 DUP1 PUSH1 0x20 PUSH1 0x0 DUP5 MLOAD PUSH1 0x20 DUP7 ADD PUSH1 0x0 DUP9 GAS CALL DUP1 PUSH2 0xEC8 JUMPI PUSH1 0x40 MLOAD RETURNDATASIZE PUSH1 0x0 DUP3 RETURNDATACOPY RETURNDATASIZE DUP2 REVERT JUMPDEST POP POP PUSH1 0x0 MLOAD RETURNDATASIZE SWAP2 POP DUP2 ISZERO PUSH2 0xEE0 JUMPI DUP1 PUSH1 0x1 EQ ISZERO PUSH2 0xEED JUMP JUMPDEST PUSH1 0x1 PUSH1 0x1 PUSH1 0xA0 SHL SUB DUP5 AND EXTCODESIZE ISZERO JUMPDEST ISZERO PUSH2 0x73D JUMPI PUSH1 0x40 MLOAD PUSH4 0x5274AFE7 PUSH1 0xE0 SHL DUP2 MSTORE PUSH1 0x1 PUSH1 0x1 PUSH1 0xA0 SHL SUB DUP6 AND PUSH1 0x4 DUP3 ADD MSTORE PUSH1 0x24 ADD PUSH2 0x9CB JUMP JUMPDEST PUSH1 0x0 PUSH1 0x20 DUP3 DUP5 SUB SLT ISZERO PUSH2 0xF28 JUMPI PUSH1 0x0 DUP1 REVERT JUMPDEST DUP2 CALLDATALOAD PUSH1 0x1 PUSH1 0x1 PUSH1 0xE0 SHL SUB NOT DUP2 AND DUP2 EQ PUSH2 0xF40 JUMPI PUSH1 0x0 DUP1 REVERT JUMPDEST SWAP4 SWAP3 POP POP POP JUMP JUMPDEST PUSH1 0x1 PUSH1 0x1 PUSH1 0xA0 SHL SUB DUP2 AND DUP2 EQ PUSH2 0x7AD JUMPI PUSH1 0x0 DUP1 REVERT JUMPDEST DUP1 CALLDATALOAD PUSH1 0x1 PUSH1 0x1 PUSH1 0x40 SHL SUB DUP2 AND DUP2 EQ PUSH2 0xF73 JUMPI PUSH1 0x0 DUP1 REVERT JUMPDEST SWAP2 SWAP1 POP JUMP JUMPDEST DUP1 ISZERO ISZERO DUP2 EQ PUSH2 0x7AD JUMPI PUSH1 0x0 DUP1 REVERT JUMPDEST PUSH1 0x0 DUP1 PUSH1 0x0 DUP1 PUSH1 0x0 DUP1 PUSH1 0x0 DUP1 PUSH1 0x0 PUSH2 0x120 DUP11 DUP13 SUB SLT ISZERO PUSH2 0xFA5 JUMPI PUSH1 0x0 DUP1 REVERT JUMPDEST DUP10 CALLDATALOAD SWAP9 POP PUSH1 0x20 DUP11 ADD CALLDATALOAD PUSH2 0xFB7 DUP2 PUSH2 0xF47 JUMP JUMPDEST SWAP8 POP PUSH1 0x40 DUP11 ADD CALLDATALOAD SWAP7 POP PUSH1 0x60 DUP11 ADD CALLDATALOAD SWAP6 POP PUSH1 0x80 DUP11 ADD CALLDATALOAD SWAP5 POP PUSH2 0xFDA PUSH1 0xA0 DUP12 ADD PUSH2 0xF5C JUMP JUMPDEST SWAP4 POP PUSH2 0xFE8 PUSH1 0xC0 DUP12 ADD PUSH2 0xF5C JUMP JUMPDEST SWAP3 POP PUSH1 0xE0 DUP11 ADD CALLDATALOAD PUSH2 0xFF8 DUP2 PUSH2 0xF47 JUMP JUMPDEST SWAP2 POP PUSH2 0x100 DUP11 ADD CALLDATALOAD PUSH2 0x1009 DUP2 PUSH2 0xF78 JUMP JUMPDEST DUP1 SWAP2 POP POP SWAP3 SWAP6 SWAP9 POP SWAP3 SWAP6 SWAP9 POP SWAP3 SWAP6 SWAP9 JUMP JUMPDEST PUSH1 0x0 PUSH1 0x20 DUP3 DUP5 SUB SLT ISZERO PUSH2 0x102C JUMPI PUSH1 0x0 DUP1 REVERT JUMPDEST POP CALLDATALOAD SWAP2 SWAP1 POP JUMP JUMPDEST PUSH1 0x0 DUP1 PUSH1 0x40 DUP4 DUP6 SUB SLT ISZERO PUSH2 0x1046 JUMPI PUSH1 0x0 DUP1 REVERT JUMPDEST DUP3 CALLDATALOAD SWAP2 POP PUSH1 0x20 DUP4 ADD CALLDATALOAD PUSH2 0x1058 DUP2 PUSH2 0xF47 JUMP JUMPDEST DUP1 SWAP2 POP POP SWAP3 POP SWAP3 SWAP1 POP JUMP JUMPDEST PUSH1 0x0 DUP1 PUSH1 0x0 PUSH1 0x60 DUP5 DUP7 SUB SLT ISZERO PUSH2 0x1078 JUMPI PUSH1 0x0 DUP1 REVERT JUMPDEST POP POP DUP2 CALLDATALOAD SWAP4 PUSH1 0x20 DUP4 ADD CALLDATALOAD SWAP4 POP PUSH1 0x40 SWAP1 SWAP3 ADD CALLDATALOAD SWAP2 SWAP1 POP JUMP JUMPDEST PUSH1 0x0 DUP1 PUSH1 0x0 PUSH1 0x60 DUP5 DUP7 SUB SLT ISZERO PUSH2 0x10A4 JUMPI PUSH1 0x0 DUP1 REVERT JUMPDEST DUP4 CALLDATALOAD PUSH2 0x10AF DUP2 PUSH2 0xF47 JUMP JUMPDEST SWAP3 POP PUSH1 0x20 DUP5 ADD CALLDATALOAD PUSH2 0x10BF DUP2 PUSH2 0xF47 JUMP JUMPDEST SWAP3 SWAP6 SWAP3 SWAP5 POP POP POP PUSH1 0x40 SWAP2 SWAP1 SWAP2 ADD CALLDATALOAD SWAP1 JUMP JUMPDEST PUSH1 0x0 PUSH1 0x20 DUP3 DUP5 SUB SLT ISZERO PUSH2 0x10E2 JUMPI PUSH1 0x0 DUP1 REVERT JUMPDEST DUP2 MLOAD PUSH2 0xF40 DUP2 PUSH2 0xF47 JUMP JUMPDEST PUSH4 0x4E487B71 PUSH1 0xE0 SHL PUSH1 0x0 MSTORE PUSH1 0x11 PUSH1 0x4 MSTORE PUSH1 0x24 PUSH1 0x0 REVERT JUMPDEST DUP2 DUP2 SUB DUP2 DUP2 GT ISZERO PUSH2 0x39A JUMPI PUSH2 0x39A PUSH2 0x10ED JUMP JUMPDEST PUSH1 0x0 PUSH1 0x20 DUP3 DUP5 SUB SLT ISZERO PUSH2 0x1128 JUMPI PUSH1 0x0 DUP1 REVERT JUMPDEST DUP2 MLOAD PUSH2 0xF40 DUP2 PUSH2 0xF78 JUMP JUMPDEST DUP1 DUP3 MUL DUP2 ISZERO DUP3 DUP3 DIV DUP5 EQ OR PUSH2 0x39A JUMPI PUSH2 0x39A PUSH2 0x10ED JUMP INVALID LOG2 PUSH5 0x6970667358 0x22 SLT KECCAK256 DUP2 0xE9 SELFBALANCE 0xBC SHR 0xDB PUSH21 0x385CBAF48CE9CE48BB493F7C782B4BAEEA2C5BCFAF 0xAE 0xD7 CALL 0xC5 PUSH5 0x736F6C6343 STOP ADDMOD XOR STOP CALLER "},"methodIdentifiers":{"DEFAULT_ADMIN_ROLE()":"a217fddf","PAUSER_ROLE()":"e63ab1e9","SALE_MANAGER_ROLE()":"551b42a8","buy(uint256,uint256,uint256)":"40993b26","getRoleAdmin(bytes32)":"248a9ca3","grantRole(bytes32,address)":"2f2ff15d","hasRole(bytes32,address)":"91d14854","offerings(uint256)":"e34fec1d","pause()":"8456cb59","paused()":"5c975abb","renounceRole(bytes32,address)":"36568abe","rescueERC20(address,address,uint256)":"b2118a8d","revokeRole(bytes32,address)":"d547741f","supportsInterface(bytes4)":"01ffc9a7","unpause()":"3f4ba83a","upsertOffering(uint256,address,uint256,uint256,uint256,uint64,uint64,address,bool)":"18710e24","usdr()":"ada13fc6"}},"storageLayout":{"storage":[{"astId":27,"contract":"contracts/rbt/RBTPrimarySaleRouter.sol:RBTPrimarySaleRouter","label":"_roles","offset":0,"slot":"0","type":"t_mapping(t_bytes32,t_struct(RoleData)22_storage)"},{"astId":4203,"contract":"contracts/rbt/RBTPrimarySaleRouter.sol:RBTPrimarySaleRouter","label":"_paused","offset":0,"slot":"1","type":"t_bool"},{"astId":4313,"contract":"contracts/rbt/RBTPrimarySaleRouter.sol:RBTPrimarySaleRouter","label":"_status","offset":0,"slot":"2","type":"t_uint256"},{"astId":9791,"contract":"contracts/rbt/RBTPrimarySaleRouter.sol:RBTPrimarySaleRouter","label":"offerings","offset":0,"slot":"3","type":"t_mapping(t_uint256,t_struct(Offering)9786_storage)"}],"types":{"t_address":{"encoding":"inplace","label":"address","numberOfBytes":"20"},"t_bool":{"encoding":"inplace","label":"bool","numberOfBytes":"1"},"t_bytes32":{"encoding":"inplace","label":"bytes32","numberOfBytes":"32"},"t_mapping(t_address,t_bool)":{"encoding":"mapping","key":"t_address","label":"mapping(address => bool)","numberOfBytes":"32","value":"t_bool"},"t_mapping(t_bytes32,t_struct(RoleData)22_storage)":{"encoding":"mapping","key":"t_bytes32","label":"mapping(bytes32 => struct AccessControl.RoleData)","numberOfBytes":"32","value":"t_struct(RoleData)22_storage"},"t_mapping(t_uint256,t_struct(Offering)9786_storage)":{"encoding":"mapping","key":"t_uint256","label":"mapping(uint256 => struct RBTPrimarySaleRouter.Offering)","numberOfBytes":"32","value":"t_struct(Offering)9786_storage"},"t_struct(Offering)9786_storage":{"encoding":"inplace","label":"struct RBTPrimarySaleRouter.Offering","members":[{"astId":9771,"contract":"contracts/rbt/RBTPrimarySaleRouter.sol:RBTPrimarySaleRouter","label":"asset","offset":0,"slot":"0","type":"t_address"},{"astId":9773,"contract":"contracts/rbt/RBTPrimarySaleRouter.sol:RBTPrimarySaleRouter","label":"seriesId","offset":0,"slot":"1","type":"t_uint256"},{"astId":9775,"contract":"contracts/rbt/RBTPrimarySaleRouter.sol:RBTPrimarySaleRouter","label":"unitPrice","offset":0,"slot":"2","type":"t_uint256"},{"astId":9777,"contract":"contracts/rbt/RBTPrimarySaleRouter.sol:RBTPrimarySaleRouter","label":"remainingUnits","offset":0,"slot":"3","type":"t_uint256"},{"astId":9779,"contract":"contracts/rbt/RBTPrimarySaleRouter.sol:RBTPrimarySaleRouter","label":"startAt","offset":0,"slot":"4","type":"t_uint64"},{"astId":9781,"contract":"contracts/rbt/RBTPrimarySaleRouter.sol:RBTPrimarySaleRouter","label":"endAt","offset":8,"slot":"4","type":"t_uint64"},{"astId":9783,"contract":"contracts/rbt/RBTPrimarySaleRouter.sol:RBTPrimarySaleRouter","label":"treasury","offset":0,"slot":"5","type":"t_address"},{"astId":9785,"contract":"contracts/rbt/RBTPrimarySaleRouter.sol:RBTPrimarySaleRouter","label":"enabled","offset":20,"slot":"5","type":"t_bool"}],"numberOfBytes":"192"},"t_struct(RoleData)22_storage":{"encoding":"inplace","label":"struct AccessControl.RoleData","members":[{"astId":19,"contract":"contracts/rbt/RBTPrimarySaleRouter.sol:RBTPrimarySaleRouter","label":"hasRole","offset":0,"slot":"0","type":"t_mapping(t_address,t_bool)"},{"astId":21,"contract":"contracts/rbt/RBTPrimarySaleRouter.sol:RBTPrimarySaleRouter","label":"adminRole","offset":0,"slot":"1","type":"t_bytes32"}],"numberOfBytes":"64"},"t_uint256":{"encoding":"inplace","label":"uint256","numberOfBytes":"32"},"t_uint64":{"encoding":"inplace","label":"uint64","numberOfBytes":"8"}}}}}}