{"contracts/rbt/RBTPropertyToken.sol":{"RBTPropertyToken":{"abi":[{"inputs":[],"stateMutability":"nonpayable","type":"constructor"},{"inputs":[],"name":"AccessControlBadConfirmation","type":"error"},{"inputs":[{"internalType":"address","name":"account","type":"address"},{"internalType":"bytes32","name":"neededRole","type":"bytes32"}],"name":"AccessControlUnauthorizedAccount","type":"error"},{"inputs":[{"internalType":"address","name":"sender","type":"address"},{"internalType":"uint256","name":"balance","type":"uint256"},{"internalType":"uint256","name":"needed","type":"uint256"},{"internalType":"uint256","name":"tokenId","type":"uint256"}],"name":"ERC1155InsufficientBalance","type":"error"},{"inputs":[{"internalType":"address","name":"approver","type":"address"}],"name":"ERC1155InvalidApprover","type":"error"},{"inputs":[{"internalType":"uint256","name":"idsLength","type":"uint256"},{"internalType":"uint256","name":"valuesLength","type":"uint256"}],"name":"ERC1155InvalidArrayLength","type":"error"},{"inputs":[{"internalType":"address","name":"operator","type":"address"}],"name":"ERC1155InvalidOperator","type":"error"},{"inputs":[{"internalType":"address","name":"receiver","type":"address"}],"name":"ERC1155InvalidReceiver","type":"error"},{"inputs":[{"internalType":"address","name":"sender","type":"address"}],"name":"ERC1155InvalidSender","type":"error"},{"inputs":[{"internalType":"address","name":"operator","type":"address"},{"internalType":"address","name":"owner","type":"address"}],"name":"ERC1155MissingApprovalForAll","type":"error"},{"inputs":[],"name":"EnforcedPause","type":"error"},{"inputs":[],"name":"ExpectedPause","type":"error"},{"inputs":[],"name":"ReentrancyGuardReentrantCall","type":"error"},{"anonymous":false,"inputs":[{"indexed":true,"internalType":"address","name":"account","type":"address"},{"indexed":true,"internalType":"address","name":"operator","type":"address"},{"indexed":false,"internalType":"bool","name":"approved","type":"bool"}],"name":"ApprovalForAll","type":"event"},{"anonymous":false,"inputs":[{"indexed":false,"internalType":"string","name":"baseURI","type":"string"}],"name":"BaseURIUpdated","type":"event"},{"anonymous":false,"inputs":[{"indexed":true,"internalType":"address","name":"account","type":"address"},{"indexed":false,"internalType":"bool","name":"blacklisted","type":"bool"}],"name":"BlacklistUpdated","type":"event"},{"anonymous":false,"inputs":[{"indexed":true,"internalType":"address","name":"account","type":"address"},{"indexed":false,"internalType":"bool","name":"frozen","type":"bool"}],"name":"FrozenUpdated","type":"event"},{"anonymous":false,"inputs":[{"indexed":true,"internalType":"uint256","name":"tokenId","type":"uint256"},{"indexed":true,"internalType":"address","name":"to","type":"address"},{"indexed":false,"internalType":"uint256","name":"amount","type":"uint256"}],"name":"Issued","type":"event"},{"anonymous":false,"inputs":[{"indexed":false,"internalType":"address","name":"account","type":"address"}],"name":"Paused","type":"event"},{"anonymous":false,"inputs":[{"indexed":true,"internalType":"uint256","name":"tokenId","type":"uint256"},{"indexed":true,"internalType":"address","name":"account","type":"address"},{"indexed":false,"internalType":"uint256","name":"amount","type":"uint256"}],"name":"RevenueClaimed","type":"event"},{"anonymous":false,"inputs":[{"indexed":true,"internalType":"uint256","name":"tokenId","type":"uint256"},{"indexed":false,"internalType":"uint256","name":"amount","type":"uint256"},{"indexed":false,"internalType":"uint256","name":"newCumulativePerToken","type":"uint256"}],"name":"RevenueDeposited","type":"event"},{"anonymous":false,"inputs":[{"indexed":true,"internalType":"bytes32","name":"role","type":"bytes32"},{"indexed":true,"internalType":"bytes32","name":"previousAdminRole","type":"bytes32"},{"indexed":true,"internalType":"bytes32","name":"newAdminRole","type":"bytes32"}],"name":"RoleAdminChanged","type":"event"},{"anonymous":false,"inputs":[{"indexed":true,"internalType":"bytes32","name":"role","type":"bytes32"},{"indexed":true,"internalType":"address","name":"account","type":"address"},{"indexed":true,"internalType":"address","name":"sender","type":"address"}],"name":"RoleGranted","type":"event"},{"anonymous":false,"inputs":[{"indexed":true,"internalType":"bytes32","name":"role","type":"bytes32"},{"indexed":true,"internalType":"address","name":"account","type":"address"},{"indexed":true,"internalType":"address","name":"sender","type":"address"}],"name":"RoleRevoked","type":"event"},{"anonymous":false,"inputs":[{"indexed":true,"internalType":"uint256","name":"tokenId","type":"uint256"},{"indexed":false,"internalType":"string","name":"label","type":"string"},{"indexed":false,"internalType":"uint256","name":"unitPrice","type":"uint256"},{"indexed":false,"internalType":"uint256","name":"maxSupply","type":"uint256"}],"name":"SeriesCreated","type":"event"},{"anonymous":false,"inputs":[{"indexed":true,"internalType":"uint256","name":"tokenId","type":"uint256"},{"indexed":false,"internalType":"bool","name":"active","type":"bool"}],"name":"SeriesStatusChanged","type":"event"},{"anonymous":false,"inputs":[{"indexed":true,"internalType":"address","name":"operator","type":"address"},{"indexed":true,"internalType":"address","name":"from","type":"address"},{"indexed":true,"internalType":"address","name":"to","type":"address"},{"indexed":false,"internalType":"uint256[]","name":"ids","type":"uint256[]"},{"indexed":false,"internalType":"uint256[]","name":"values","type":"uint256[]"}],"name":"TransferBatch","type":"event"},{"anonymous":false,"inputs":[{"indexed":true,"internalType":"address","name":"operator","type":"address"},{"indexed":true,"internalType":"address","name":"from","type":"address"},{"indexed":true,"internalType":"address","name":"to","type":"address"},{"indexed":false,"internalType":"uint256","name":"id","type":"uint256"},{"indexed":false,"internalType":"uint256","name":"value","type":"uint256"}],"name":"TransferSingle","type":"event"},{"anonymous":false,"inputs":[{"indexed":false,"internalType":"string","name":"value","type":"string"},{"indexed":true,"internalType":"uint256","name":"id","type":"uint256"}],"name":"URI","type":"event"},{"anonymous":false,"inputs":[{"indexed":false,"internalType":"address","name":"account","type":"address"}],"name":"Unpaused","type":"event"},{"anonymous":false,"inputs":[{"indexed":true,"internalType":"address","name":"account","type":"address"},{"indexed":false,"internalType":"bool","name":"allowed","type":"bool"}],"name":"WhitelistUpdated","type":"event"},{"inputs":[],"name":"DEFAULT_ADMIN_ROLE","outputs":[{"internalType":"bytes32","name":"","type":"bytes32"}],"stateMutability":"view","type":"function"},{"inputs":[],"name":"ISSUER_ROLE","outputs":[{"internalType":"bytes32","name":"","type":"bytes32"}],"stateMutability":"view","type":"function"},{"inputs":[],"name":"OPERATOR_ROLE","outputs":[{"internalType":"bytes32","name":"","type":"bytes32"}],"stateMutability":"view","type":"function"},{"inputs":[],"name":"assetLabel","outputs":[{"internalType":"string","name":"","type":"string"}],"stateMutability":"view","type":"function"},{"inputs":[],"name":"assetName","outputs":[{"internalType":"string","name":"","type":"string"}],"stateMutability":"view","type":"function"},{"inputs":[],"name":"assetSymbol","outputs":[{"internalType":"string","name":"","type":"string"}],"stateMutability":"view","type":"function"},{"inputs":[{"internalType":"address","name":"account","type":"address"},{"internalType":"uint256","name":"id","type":"uint256"}],"name":"balanceOf","outputs":[{"internalType":"uint256","name":"","type":"uint256"}],"stateMutability":"view","type":"function"},{"inputs":[{"internalType":"address[]","name":"accounts","type":"address[]"},{"internalType":"uint256[]","name":"ids","type":"uint256[]"}],"name":"balanceOfBatch","outputs":[{"internalType":"uint256[]","name":"","type":"uint256[]"}],"stateMutability":"view","type":"function"},{"inputs":[],"name":"baseURI","outputs":[{"internalType":"string","name":"","type":"string"}],"stateMutability":"view","type":"function"},{"inputs":[{"internalType":"address","name":"","type":"address"}],"name":"blacklisted","outputs":[{"internalType":"bool","name":"","type":"bool"}],"stateMutability":"view","type":"function"},{"inputs":[{"internalType":"uint256","name":"tokenId","type":"uint256"}],"name":"claim","outputs":[],"stateMutability":"nonpayable","type":"function"},{"inputs":[{"internalType":"uint256","name":"tokenId","type":"uint256"},{"internalType":"address","name":"account","type":"address"}],"name":"claimable","outputs":[{"internalType":"uint256","name":"","type":"uint256"}],"stateMutability":"view","type":"function"},{"inputs":[{"internalType":"string","name":"label","type":"string"},{"internalType":"uint256","name":"unitPrice","type":"uint256"},{"internalType":"uint256","name":"maxSupply","type":"uint256"}],"name":"createSeries","outputs":[{"internalType":"uint256","name":"tokenId","type":"uint256"}],"stateMutability":"nonpayable","type":"function"},{"inputs":[{"internalType":"uint256","name":"","type":"uint256"}],"name":"cumulativeRevenuePerToken","outputs":[{"internalType":"uint256","name":"","type":"uint256"}],"stateMutability":"view","type":"function"},{"inputs":[{"internalType":"uint256","name":"tokenId","type":"uint256"},{"internalType":"uint256","name":"amount","type":"uint256"}],"name":"depositRevenue","outputs":[],"stateMutability":"nonpayable","type":"function"},{"inputs":[{"internalType":"uint256","name":"id","type":"uint256"}],"name":"exists","outputs":[{"internalType":"bool","name":"","type":"bool"}],"stateMutability":"view","type":"function"},{"inputs":[{"internalType":"address","name":"","type":"address"}],"name":"frozen","outputs":[{"internalType":"bool","name":"","type":"bool"}],"stateMutability":"view","type":"function"},{"inputs":[{"internalType":"bytes32","name":"role","type":"bytes32"}],"name":"getRoleAdmin","outputs":[{"internalType":"bytes32","name":"","type":"bytes32"}],"stateMutability":"view","type":"function"},{"inputs":[{"internalType":"bytes32","name":"role","type":"bytes32"},{"internalType":"address","name":"account","type":"address"}],"name":"grantRole","outputs":[],"stateMutability":"nonpayable","type":"function"},{"inputs":[{"internalType":"bytes32","name":"role","type":"bytes32"},{"internalType":"address","name":"account","type":"address"}],"name":"hasRole","outputs":[{"internalType":"bool","name":"","type":"bool"}],"stateMutability":"view","type":"function"},{"inputs":[{"internalType":"string","name":"_assetName","type":"string"},{"internalType":"string","name":"_assetSymbol","type":"string"},{"internalType":"string","name":"_assetLabel","type":"string"},{"internalType":"address","name":"_settlementToken","type":"address"},{"internalType":"address","name":"admin","type":"address"}],"name":"initialize","outputs":[],"stateMutability":"nonpayable","type":"function"},{"inputs":[{"internalType":"address","name":"account","type":"address"},{"internalType":"address","name":"operator","type":"address"}],"name":"isApprovedForAll","outputs":[{"internalType":"bool","name":"","type":"bool"}],"stateMutability":"view","type":"function"},{"inputs":[{"internalType":"uint256","name":"tokenId","type":"uint256"},{"internalType":"address","name":"to","type":"address"},{"internalType":"uint256","name":"amount","type":"uint256"}],"name":"issue","outputs":[],"stateMutability":"nonpayable","type":"function"},{"inputs":[],"name":"nextSeriesId","outputs":[{"internalType":"uint256","name":"","type":"uint256"}],"stateMutability":"view","type":"function"},{"inputs":[],"name":"pause","outputs":[],"stateMutability":"nonpayable","type":"function"},{"inputs":[],"name":"paused","outputs":[{"internalType":"bool","name":"","type":"bool"}],"stateMutability":"view","type":"function"},{"inputs":[{"internalType":"uint256","name":"","type":"uint256"},{"internalType":"address","name":"","type":"address"}],"name":"pendingRevenue","outputs":[{"internalType":"uint256","name":"","type":"uint256"}],"stateMutability":"view","type":"function"},{"inputs":[{"internalType":"bytes32","name":"role","type":"bytes32"},{"internalType":"address","name":"callerConfirmation","type":"address"}],"name":"renounceRole","outputs":[],"stateMutability":"nonpayable","type":"function"},{"inputs":[{"internalType":"bytes32","name":"role","type":"bytes32"},{"internalType":"address","name":"account","type":"address"}],"name":"revokeRole","outputs":[],"stateMutability":"nonpayable","type":"function"},{"inputs":[{"internalType":"address","name":"from","type":"address"},{"internalType":"address","name":"to","type":"address"},{"internalType":"uint256[]","name":"ids","type":"uint256[]"},{"internalType":"uint256[]","name":"values","type":"uint256[]"},{"internalType":"bytes","name":"data","type":"bytes"}],"name":"safeBatchTransferFrom","outputs":[],"stateMutability":"nonpayable","type":"function"},{"inputs":[{"internalType":"address","name":"from","type":"address"},{"internalType":"address","name":"to","type":"address"},{"internalType":"uint256","name":"id","type":"uint256"},{"internalType":"uint256","name":"value","type":"uint256"},{"internalType":"bytes","name":"data","type":"bytes"}],"name":"safeTransferFrom","outputs":[],"stateMutability":"nonpayable","type":"function"},{"inputs":[{"internalType":"uint256","name":"","type":"uint256"}],"name":"series","outputs":[{"internalType":"string","name":"label","type":"string"},{"internalType":"uint256","name":"unitPrice","type":"uint256"},{"internalType":"uint256","name":"maxSupply","type":"uint256"},{"internalType":"bool","name":"active","type":"bool"}],"stateMutability":"view","type":"function"},{"inputs":[{"internalType":"address","name":"operator","type":"address"},{"internalType":"bool","name":"approved","type":"bool"}],"name":"setApprovalForAll","outputs":[],"stateMutability":"nonpayable","type":"function"},{"inputs":[{"internalType":"string","name":"uri_","type":"string"}],"name":"setBaseURI","outputs":[],"stateMutability":"nonpayable","type":"function"},{"inputs":[{"internalType":"address","name":"account","type":"address"},{"internalType":"bool","name":"_blacklisted","type":"bool"}],"name":"setBlacklisted","outputs":[],"stateMutability":"nonpayable","type":"function"},{"inputs":[{"internalType":"address","name":"account","type":"address"},{"internalType":"bool","name":"_frozen","type":"bool"}],"name":"setFrozen","outputs":[],"stateMutability":"nonpayable","type":"function"},{"inputs":[{"internalType":"uint256","name":"tokenId","type":"uint256"},{"internalType":"bool","name":"active","type":"bool"}],"name":"setSeriesActive","outputs":[],"stateMutability":"nonpayable","type":"function"},{"inputs":[{"internalType":"address","name":"account","type":"address"},{"internalType":"bool","name":"allowed","type":"bool"}],"name":"setWhitelist","outputs":[],"stateMutability":"nonpayable","type":"function"},{"inputs":[],"name":"settlementToken","outputs":[{"internalType":"contract IERC20","name":"","type":"address"}],"stateMutability":"view","type":"function"},{"inputs":[{"internalType":"bytes4","name":"interfaceId","type":"bytes4"}],"name":"supportsInterface","outputs":[{"internalType":"bool","name":"","type":"bool"}],"stateMutability":"view","type":"function"},{"inputs":[],"name":"totalSupply","outputs":[{"internalType":"uint256","name":"","type":"uint256"}],"stateMutability":"view","type":"function"},{"inputs":[{"internalType":"uint256","name":"id","type":"uint256"}],"name":"totalSupply","outputs":[{"internalType":"uint256","name":"","type":"uint256"}],"stateMutability":"view","type":"function"},{"inputs":[],"name":"unpause","outputs":[],"stateMutability":"nonpayable","type":"function"},{"inputs":[{"internalType":"uint256","name":"tokenId","type":"uint256"}],"name":"uri","outputs":[{"internalType":"string","name":"","type":"string"}],"stateMutability":"view","type":"function"},{"inputs":[{"internalType":"uint256","name":"","type":"uint256"},{"internalType":"address","name":"","type":"address"}],"name":"userRevenueCredited","outputs":[{"internalType":"uint256","name":"","type":"uint256"}],"stateMutability":"view","type":"function"},{"inputs":[{"internalType":"address","name":"","type":"address"}],"name":"whitelisted","outputs":[{"internalType":"bool","name":"","type":"bool"}],"stateMutability":"view","type":"function"}],"evm":{"bytecode":{"linkReferences":{},"object":"60806040523480156200001157600080fd5b506040805160208101909152600081526200002c8162000038565b506001600755620001bd565b6002620000468282620000f1565b5050565b634e487b7160e01b600052604160045260246000fd5b600181811c908216806200007557607f821691505b6020821081036200009657634e487b7160e01b600052602260045260246000fd5b50919050565b601f821115620000ec576000816000526020600020601f850160051c81016020861015620000c75750805b601f850160051c820191505b81811015620000e857828155600101620000d3565b5050505b505050565b81516001600160401b038111156200010d576200010d6200004a565b62000125816200011e845462000060565b846200009c565b602080601f8311600181146200015d5760008415620001445750858301515b600019600386901b1c1916600185901b178555620000e8565b600085815260208120601f198616915b828110156200018e578886015182559484019460019091019084016200016d565b5085821015620001ad5787850151600019600388901b60f8161c191681555b5050505050600190811b01905550565b61320c80620001cd6000396000f3fe608060405234801561001057600080fd5b50600436106102895760003560e01c80638456cb591161015c578063c9230c5d116100ce578063dbac26e911610087578063dbac26e9146105fe578063dc22cb6a14610621578063e985e9c514610644578063f242432a14610657578063f38dab601461066a578063f5b541a61461067d57600080fd5b8063c9230c5d14610577578063d01dd6d21461057f578063d051665014610592578063d547741f146105b5578063d6d0faee146105c8578063d936547e146105db57600080fd5b8063a217fddf11610120578063a217fddf146104d3578063a22cb465146104db578063ac869cd8146104ee578063bb0bc51414610501578063bd85b0391461052c578063c4f0da7b1461054c57600080fd5b80638456cb59146104725780638baeb23d1461047a57806391d148541461048d578063945a3bad146104a0578063a0c7f71c146104c057600080fd5b80633f4ba83a116102005780635b2e374f116101b95780635b2e374f1461040e5780635c975abb146104165780636c0360eb146104215780636ed3e3e3146104295780637b9e618d1461043257806382aefa241461045d57600080fd5b80633f4ba83a1461038b5780633ffa884c146103935780634e1273f4146103a65780634f558e79146103c657806353d6fd59146103e857806355f804b3146103fb57600080fd5b806318160ddd1161025257806318160ddd14610314578063248a9ca31461031c5780632eb2c2d61461033f5780632f2ff15d1461035257806336568abe14610365578063379607f51461037857600080fd5b8062fdd58e1461028e57806301ffc9a7146102b45780630cae7afc146102d75780630e89341c146102ec578063176de7a81461030c575b600080fd5b6102a161029c366004612543565b610692565b6040519081526020015b60405180910390f35b6102c76102c2366004612583565b6106ba565b60405190151581526020016102ab565b6102ea6102e53660046125a7565b6106c5565b005b6102ff6102fa3660046125c9565b610900565b6040516102ab9190612632565b6102ff61095e565b6004546102a1565b6102a161032a3660046125c9565b60009081526005602052604090206001015490565b6102ea61034d36600461278c565b6109ec565b6102ea610360366004612835565b610a53565b6102ea610373366004612835565b610a7e565b6102ea6103863660046125c9565b610ab6565b6102ea610c71565b6102ea6103a1366004612861565b610c91565b6103b96103b4366004612896565b610ed1565b6040516102ab9190612991565b6102c76103d43660046125c9565b600090815260036020526040902054151590565b6102ea6103f63660046129b2565b610f9d565b6102ea610409366004612a31565b611016565b6102ff61107a565b60065460ff166102c7565b6102ff611087565b6102a160105481565b600b54610445906001600160a01b031681565b6040516001600160a01b0390911681526020016102ab565b6102a160008051602061319783398151915281565b6102ea611094565b6102ea610488366004612a72565b6110b4565b6102c761049b366004612835565b611159565b6102a16104ae3660046125c9565b60126020526000908152604090205481565b6102a16104ce366004612835565b611184565b6102a1600081565b6102ea6104e93660046129b2565b611237565b6102ea6104fc3660046129b2565b611246565b6102a161050f366004612835565b601460209081526000928352604080842090915290825290205481565b6102a161053a3660046125c9565b60009081526003602052604090205490565b6102a161055a366004612835565b601360209081526000928352604080842090915290825290205481565b6102ff6112b6565b6102ea61058d3660046129b2565b6112c3565b6102c76105a0366004612a97565b600e6020526000908152604090205460ff1681565b6102ea6105c3366004612835565b611333565b6102ea6105d6366004612ab2565b611358565b6102c76105e9366004612a97565b600d6020526000908152604090205460ff1681565b6102c761060c366004612a97565b600f6020526000908152604090205460ff1681565b61063461062f3660046125c9565b611462565b6040516102ab9493929190612b6c565b6102c7610652366004612b9d565b611517565b6102ea610665366004612bc7565b611545565b6102a1610678366004612c2b565b6115a4565b6102a16000805160206131b783398151915281565b6000818152602081815260408083206001600160a01b03861684529091529020545b92915050565b60006106b4826116f8565b6000805160206131b78339815191526106dd8161171d565b6000821161071d5760405162461bcd60e51b81526020600482015260086024820152670616d6f756e743d360c41b60448201526064015b60405180910390fd5b600083815260036020526040812054116107655760405162461bcd60e51b81526020600482015260096024820152686e6f20737570706c7960b81b6044820152606401610714565b6000838152601160205260409020805461077e90612c7b565b905060000361079f5760405162461bcd60e51b815260040161071490612cb5565b600b546040516323b872dd60e01b8152336004820152306024820152604481018490526001600160a01b03909116906323b872dd906064016020604051808303816000875af11580156107f6573d6000803e3d6000fd5b505050506040513d601f19601f8201168201806040525081019061081a9190612cdf565b61085c5760405162461bcd60e51b81526020600482015260136024820152721d1c985b9cd9995c919c9bdb4819985a5b1959606a1b6044820152606401610714565b60008381526003602052604081205461087d84670de0b6b3a7640000612d12565b6108879190612d29565b9050806012600086815260200190815260200160002060008282546108ac9190612d4b565b90915550506000848152601260209081526040918290205482518681529182015285917f271447a7fc6bd5726818ce06a9d9ffdecd61963481f678d3903cc5bacc523c86910160405180910390a250505050565b6060600c805461090f90612c7b565b905060000361092c57505060408051602081019091526000815290565b600c61093783611727565b604051602001610948929190612d5e565b6040516020818303038152906040529050919050565b6009805461096b90612c7b565b80601f016020809104026020016040519081016040528092919081815260200182805461099790612c7b565b80156109e45780601f106109b9576101008083540402835291602001916109e4565b820191906000526020600020905b8154815290600101906020018083116109c757829003601f168201915b505050505081565b336001600160a01b0386168114801590610a0d5750610a0b8682611517565b155b15610a3e5760405163711bec9160e11b81526001600160a01b03808316600483015287166024820152604401610714565b610a4b86868686866117b9565b505050505050565b600082815260056020526040902060010154610a6e8161171d565b610a788383611820565b50505050565b6001600160a01b0381163314610aa75760405163334bd91960e11b815260040160405180910390fd5b610ab182826118b4565b505050565b610abe611921565b610ac661194b565b610acf33611971565b610aeb5760405162461bcd60e51b815260040161071490612de5565b6000610af78233611184565b905060008111610b3c5760405162461bcd60e51b815260206004820152601060248201526f6e6f7468696e6720746f20636c61696d60801b6044820152606401610714565b6000828152601460209081526040808320338085529083528184208490558584526012835281842054601384528285208286529093529281902091909155600b54905163a9059cbb60e01b81526004810192909252602482018390526001600160a01b03169063a9059cbb906044016020604051808303816000875af1158015610bca573d6000803e3d6000fd5b505050506040513d601f19601f82011682018060405250810190610bee9190612cdf565b610c2c5760405162461bcd60e51b815260206004820152600f60248201526e1d1c985b9cd9995c8819985a5b1959608a1b6044820152606401610714565b604051818152339083907fb9e8470097faa00e83252475f2ee4b69007b0bb2405268ebec248676998a21b39060200160405180910390a350610c6e6001600755565b50565b6000805160206131b7833981519152610c898161171d565b610c6e6119f3565b600080516020613197833981519152610ca98161171d565b600084815260116020526040808220815160808101909252805482908290610cd090612c7b565b80601f0160208091040260200160405190810160405280929190818152602001828054610cfc90612c7b565b8015610d495780601f10610d1e57610100808354040283529160200191610d49565b820191906000526020600020905b815481529060010190602001808311610d2c57829003601f168201915b5050509183525050600182015460208201526002820154604082015260039091015460ff161515606090910152805151909150600003610d9b5760405162461bcd60e51b815260040161071490612cb5565b8060600151610dde5760405162461bcd60e51b815260206004820152600f60248201526e73657269657320696e61637469766560881b6044820152606401610714565b806040015183610dfa8760009081526003602052604090205490565b610e049190612d4b565b1115610e465760405162461bcd60e51b815260206004820152601160248201527065786365656473206d6178537570706c7960781b6044820152606401610714565b610e4f84611a45565b610e6b5760405162461bcd60e51b815260040161071490612e11565b610e8684868560405180602001604052806000815250611a50565b836001600160a01b0316857f317f5fcebc6292737b7bf155c74847bfde3facfb62681e7b754c7eedb9eef87585604051610ec291815260200190565b60405180910390a35050505050565b60608151835114610f025781518351604051635b05999160e01b815260048101929092526024820152604401610714565b600083516001600160401b03811115610f1d57610f1d612645565b604051908082528060200260200182016040528015610f46578160200160208202803683370190505b50905060005b8451811015610f9557602080820286010151610f7090602080840287010151610692565b828281518110610f8257610f82612e3f565b6020908102919091010152600101610f4c565b509392505050565b6000805160206131b7833981519152610fb58161171d565b6001600160a01b0383166000818152600d6020908152604091829020805460ff191686151590811790915591519182527ff93f9a76c1bf3444d22400a00cb9fe990e6abe9dbb333fda48859cfee864543d91015b60405180910390a2505050565b6000805160206131b783398151915261102e8161171d565b600c61103b838583612e9d565b507f6741b2fc379fad678116fe3d4d4b9a1a184ab53ba36b86ad0fa66340b1ab41ad838360405161106d929190612f85565b60405180910390a1505050565b600a805461096b90612c7b565b600c805461096b90612c7b565b6000805160206131b78339815191526110ac8161171d565b610c6e611aad565b6000805160206131b78339815191526110cc8161171d565b600083815260116020526040902080546110e590612c7b565b90506000036111065760405162461bcd60e51b815260040161071490612cb5565b600083815260116020908152604091829020600301805460ff1916851515908117909155915191825284917fc28b90a416ff3b17c6686905293ae1f597be96b9ad4488f3dcc48a7fe4043a739101611009565b60009182526005602090815260408084206001600160a01b0393909316845291905290205460ff1690565b6000806111918385610692565b600085815260126020908152604080832054601383528184206001600160a01b0389168552909252822054929350919083158015906111cf57508183115b156111fe57670de0b6b3a76400006111e78385612fa1565b6111f19086612d12565b6111fb9190612d29565b90505b60008781526014602090815260408083206001600160a01b038a16845290915290205461122c908290612d4b565b979650505050505050565b611242338383611aea565b5050565b6000805160206131b783398151915261125e8161171d565b6001600160a01b0383166000818152600e6020908152604091829020805460ff191686151590811790915591519182527f3fdf348e931eca704dcfa3857f82af4904ebc7a2898428f61b37252a2cc71d2a9101611009565b6008805461096b90612c7b565b6000805160206131b78339815191526112db8161171d565b6001600160a01b0383166000818152600f6020908152604091829020805460ff191686151590811790915591519182527f6a12b3df6cba4203bd7fd06b816789f87de8c594299aed5717ae070fac781bac9101611009565b60008281526005602052604090206001015461134e8161171d565b610a7883836118b4565b60155460ff16156113a15760405162461bcd60e51b8152602060048201526013602482015272185b1c9958591e481a5b9a5d1a585b1a5e9959606a1b6044820152606401610714565b6015805460ff1916600117905560086113bb888a83612e9d565b5060096113c9868883612e9d565b50600a6113d7848683612e9d565b50600b80546001600160a01b0319166001600160a01b0384161790556113fe600082611820565b506114176000805160206131b783398151915282611820565b5061143060008051602061319783398151915282611820565b506001600160a01b03166000908152600d60205260409020805460ff1916600190811790915560105550505050505050565b60116020526000908152604090208054819061147d90612c7b565b80601f01602080910402602001604051908101604052809291908181526020018280546114a990612c7b565b80156114f65780601f106114cb576101008083540402835291602001916114f6565b820191906000526020600020905b8154815290600101906020018083116114d957829003601f168201915b50505050600183015460028401546003909401549293909290915060ff1684565b6001600160a01b03918216600090815260016020908152604080832093909416825291909152205460ff1690565b336001600160a01b038616811480159061156657506115648682611517565b155b156115975760405163711bec9160e11b81526001600160a01b03808316600483015287166024820152604401610714565b610a4b8686868686611b80565b60006000805160206131978339815191526115be8161171d565b600083116115fc5760405162461bcd60e51b815260206004820152600b60248201526a06d6178537570706c793d360ac1b6044820152606401610714565b6010805490600061160c83612fb4565b909155506040805160a06020601f8a01819004028201810190925260808101888152929450918291899089908190850183828082843760009201829052509385525050506020808301889052604080840188905260016060909401939093528582526011905220815181906116819082612fcd565b506020820151600182015560408083015160028301556060909201516003909101805460ff19169115159190911790555182907fb0086ef6a899a5b335d43711ce99cd3531b617f30db912afe75841b84627a192906116e790899089908990899061308c565b60405180910390a250949350505050565b60006001600160e01b03198216637965db0b60e01b14806106b457506106b482611c0e565b610c6e8133611c5e565b6060600061173483611c97565b60010190506000816001600160401b0381111561175357611753612645565b6040519080825280601f01601f19166020018201604052801561177d576020820181803683370190505b5090508181016020015b600019016f181899199a1a9b1b9c1cb0b131b232b360811b600a86061a8153600a850494508461178757509392505050565b6001600160a01b0384166117e357604051632bfa23e760e11b815260006004820152602401610714565b6001600160a01b03851661180c57604051626a0d4560e21b815260006004820152602401610714565b6118198585858585611d6f565b5050505050565b600061182c8383611159565b6118ac5760008381526005602090815260408083206001600160a01b03861684529091529020805460ff191660011790556118643390565b6001600160a01b0316826001600160a01b0316847f2f8788117e7eff1d82e926ec794901d17c78024a50270940304540a733656f0d60405160405180910390a45060016106b4565b5060006106b4565b60006118c08383611159565b156118ac5760008381526005602090815260408083206001600160a01b0386168085529252808320805460ff1916905551339286917ff6391f5c32d9c69d2a47ea670b442974b53935d1edc7fd64eb21e047a839171b9190a45060016106b4565b60026007540361194457604051633ee5aeb560e01b815260040160405180910390fd5b6002600755565b60065460ff161561196f5760405163d93c066560e01b815260040160405180910390fd5b565b6001600160a01b0381166000908152600f602052604081205460ff161561199a57506000919050565b6001600160a01b0382166000908152600e602052604090205460ff16156119c357506000919050565b6001600160a01b0382166000908152600d602052604090205460ff166119eb57506000919050565b506001919050565b6119fb611dc2565b6006805460ff191690557f5db9ee0a495bf2e6ff9c91a7834c1ba4fdd244a5e8aa4e537bd38aeae4b073aa335b6040516001600160a01b03909116815260200160405180910390a1565b60006106b482611971565b6001600160a01b038416611a7a57604051632bfa23e760e11b815260006004820152602401610714565b60408051600180825260208201869052818301908152606082018590526080820190925290610a4b600087848487611d6f565b611ab561194b565b6006805460ff191660011790557f62e78cea01bee320cd4e420270b5ea74000d11b0c9f74754ebdbfc544b05a258611a283390565b6001600160a01b038216611b135760405162ced3e160e81b815260006004820152602401610714565b6001600160a01b03838116600081815260016020908152604080832094871680845294825291829020805460ff191686151590811790915591519182527f17307eab39ab6107e8899845ad3d59bd9653f200f220920489ca2b5937696c31910160405180910390a3505050565b6001600160a01b038416611baa57604051632bfa23e760e11b815260006004820152602401610714565b6001600160a01b038516611bd357604051626a0d4560e21b815260006004820152602401610714565b60408051600180825260208201869052818301908152606082018590526080820190925290611c058787848487611d6f565b50505050505050565b60006001600160e01b03198216636cdb3d1360e11b1480611c3f57506001600160e01b031982166303a24d0760e21b145b806106b457506301ffc9a760e01b6001600160e01b03198316146106b4565b611c688282611159565b6112425760405163e2517d3f60e01b81526001600160a01b038216600482015260248101839052604401610714565b60008072184f03e93ff9f4daa797ed6e38ed64bf6a1f0160401b8310611cd65772184f03e93ff9f4daa797ed6e38ed64bf6a1f0160401b830492506040015b6d04ee2d6d415b85acef81000000008310611d02576d04ee2d6d415b85acef8100000000830492506020015b662386f26fc100008310611d2057662386f26fc10000830492506010015b6305f5e1008310611d38576305f5e100830492506008015b6127108310611d4c57612710830492506004015b60648310611d5e576064830492506002015b600a83106106b45760010192915050565b611d7b85858585611de5565b6001600160a01b038416156118195782513390600103611db45760208481015190840151611dad838989858589611f2b565b5050610a4b565b610a4b81878787878761204f565b60065460ff1661196f57604051638dfc202b60e01b815260040160405180910390fd5b611ded61194b565b60005b8251811015611e5d576000838281518110611e0d57611e0d612e3f565b6020026020010151905060006001600160a01b0316866001600160a01b031614611e3b57611e3b8187612138565b6001600160a01b03851615611e5457611e548186612138565b50600101611df0565b506001600160a01b038416611ea257611e7583611a45565b611e915760405162461bcd60e51b815260040161071490612e11565b611e9d84848484612227565b610a78565b6001600160a01b038316611ed557611eb984611971565b611e915760405162461bcd60e51b815260040161071490612de5565b611ede84611971565b611efa5760405162461bcd60e51b815260040161071490612de5565b611f0383611a45565b611f1f5760405162461bcd60e51b815260040161071490612e11565b610a7884848484612227565b6001600160a01b0384163b15610a4b5760405163f23a6e6160e01b81526001600160a01b0385169063f23a6e6190611f6f90899089908890889088906004016130b3565b6020604051808303816000875af1925050508015611faa575060408051601f3d908101601f19168201909252611fa7918101906130ed565b60015b612013573d808015611fd8576040519150601f19603f3d011682016040523d82523d6000602084013e611fdd565b606091505b50805160000361200b57604051632bfa23e760e11b81526001600160a01b0386166004820152602401610714565b805160208201fd5b6001600160e01b0319811663f23a6e6160e01b14611c0557604051632bfa23e760e11b81526001600160a01b0386166004820152602401610714565b6001600160a01b0384163b15610a4b5760405163bc197c8160e01b81526001600160a01b0385169063bc197c8190612093908990899088908890889060040161310a565b6020604051808303816000875af19250505080156120ce575060408051601f3d908101601f191682019092526120cb918101906130ed565b60015b6120fc573d808015611fd8576040519150601f19603f3d011682016040523d82523d6000602084013e611fdd565b6001600160e01b0319811663bc197c8160e01b14611c0557604051632bfa23e760e11b81526001600160a01b0386166004820152602401610714565b6001600160a01b03811661214a575050565b60006121568284610692565b600084815260126020908152604080832054601383528184206001600160a01b03881685529092529091205491925090821580159061219457508082115b156121fd5760006121a58284612fa1565b9050670de0b6b3a76400006121ba8286612d12565b6121c49190612d29565b60008781526014602090815260408083206001600160a01b038a168452909152812080549091906121f6908490612d4b565b9091555050505b5060009384526013602090815260408086206001600160a01b039095168652939052919092205550565b61223384848484612313565b6001600160a01b0384166122b3576000805b8351811015612299576020818102848101820151908601820151600090815260039092526040822080549192839261227e908490612d4b565b9091555061228e90508184612d4b565b925050600101612245565b5080600460008282546122ac9190612d4b565b9091555050505b6001600160a01b038316610a78576000805b83518110156123025760208181028481018201519086018201516000908152600390925260409091208054829003905591909101906001016122c5565b506004805491909103905550505050565b80518251146123425781518151604051635b05999160e01b815260048101929092526024820152604401610714565b3360005b8351811015612448576020818102858101820151908501909101516001600160a01b038816156123f9576000828152602081815260408083206001600160a01b038c168452909152902054818110156123d2576040516303dee4c560e01b81526001600160a01b038a166004820152602481018290526044810183905260648101849052608401610714565b6000838152602081815260408083206001600160a01b038d16845290915290209082900390555b6001600160a01b0387161561243e576000828152602081815260408083206001600160a01b038b16845290915281208054839290612438908490612d4b565b90915550505b5050600101612346565b5082516001036124c95760208301516000906020840151909150856001600160a01b0316876001600160a01b0316846001600160a01b03167fc3d58168c5ae7397731d063d5bbf3d657854427343f4c083240f7aacaa2d0f6285856040516124ba929190918252602082015260400190565b60405180910390a45050611819565b836001600160a01b0316856001600160a01b0316826001600160a01b03167f4a39dc06d4c0dbc64b70af90fd698a233a518aa5d07e595d983b8c0526c8f7fb8686604051612518929190613168565b60405180910390a45050505050565b80356001600160a01b038116811461253e57600080fd5b919050565b6000806040838503121561255657600080fd5b61255f83612527565b946020939093013593505050565b6001600160e01b031981168114610c6e57600080fd5b60006020828403121561259557600080fd5b81356125a08161256d565b9392505050565b600080604083850312156125ba57600080fd5b50508035926020909101359150565b6000602082840312156125db57600080fd5b5035919050565b60005b838110156125fd5781810151838201526020016125e5565b50506000910152565b6000815180845261261e8160208601602086016125e2565b601f01601f19169290920160200192915050565b6020815260006125a06020830184612606565b634e487b7160e01b600052604160045260246000fd5b604051601f8201601f191681016001600160401b038111828210171561268357612683612645565b604052919050565b60006001600160401b038211156126a4576126a4612645565b5060051b60200190565b600082601f8301126126bf57600080fd5b813560206126d46126cf8361268b565b61265b565b8083825260208201915060208460051b8701019350868411156126f657600080fd5b602086015b8481101561271257803583529183019183016126fb565b509695505050505050565b600082601f83011261272e57600080fd5b81356001600160401b0381111561274757612747612645565b61275a601f8201601f191660200161265b565b81815284602083860101111561276f57600080fd5b816020850160208301376000918101602001919091529392505050565b600080600080600060a086880312156127a457600080fd5b6127ad86612527565b94506127bb60208701612527565b935060408601356001600160401b03808211156127d757600080fd5b6127e389838a016126ae565b945060608801359150808211156127f957600080fd5b61280589838a016126ae565b9350608088013591508082111561281b57600080fd5b506128288882890161271d565b9150509295509295909350565b6000806040838503121561284857600080fd5b8235915061285860208401612527565b90509250929050565b60008060006060848603121561287657600080fd5b8335925061288660208501612527565b9150604084013590509250925092565b600080604083850312156128a957600080fd5b82356001600160401b03808211156128c057600080fd5b818501915085601f8301126128d457600080fd5b813560206128e46126cf8361268b565b82815260059290921b8401810191818101908984111561290357600080fd5b948201945b838610156129285761291986612527565b82529482019490820190612908565b9650508601359250508082111561293e57600080fd5b5061294b858286016126ae565b9150509250929050565b60008151808452602080850194506020840160005b838110156129865781518752958201959082019060010161296a565b509495945050505050565b6020815260006125a06020830184612955565b8015158114610c6e57600080fd5b600080604083850312156129c557600080fd5b6129ce83612527565b915060208301356129de816129a4565b809150509250929050565b60008083601f8401126129fb57600080fd5b5081356001600160401b03811115612a1257600080fd5b602083019150836020828501011115612a2a57600080fd5b9250929050565b60008060208385031215612a4457600080fd5b82356001600160401b03811115612a5a57600080fd5b612a66858286016129e9565b90969095509350505050565b60008060408385031215612a8557600080fd5b8235915060208301356129de816129a4565b600060208284031215612aa957600080fd5b6125a082612527565b60008060008060008060008060a0898b031215612ace57600080fd5b88356001600160401b0380821115612ae557600080fd5b612af18c838d016129e9565b909a50985060208b0135915080821115612b0a57600080fd5b612b168c838d016129e9565b909850965060408b0135915080821115612b2f57600080fd5b50612b3c8b828c016129e9565b9095509350612b4f905060608a01612527565b9150612b5d60808a01612527565b90509295985092959890939650565b608081526000612b7f6080830187612606565b60208301959095525060408101929092521515606090910152919050565b60008060408385031215612bb057600080fd5b612bb983612527565b915061285860208401612527565b600080600080600060a08688031215612bdf57600080fd5b612be886612527565b9450612bf660208701612527565b9350604086013592506060860135915060808601356001600160401b03811115612c1f57600080fd5b6128288882890161271d565b60008060008060608587031215612c4157600080fd5b84356001600160401b03811115612c5757600080fd5b612c63878288016129e9565b90989097506020870135966040013595509350505050565b600181811c90821680612c8f57607f821691505b602082108103612caf57634e487b7160e01b600052602260045260246000fd5b50919050565b60208082526010908201526f1cd95c9a595cc81b9bdd08199bdd5b9960821b604082015260600190565b600060208284031215612cf157600080fd5b81516125a0816129a4565b634e487b7160e01b600052601160045260246000fd5b80820281158282048414176106b4576106b4612cfc565b600082612d4657634e487b7160e01b600052601260045260246000fd5b500490565b808201808211156106b4576106b4612cfc565b6000808454612d6c81612c7b565b60018281168015612d845760018114612d9957612dc8565b60ff1984168752821515830287019450612dc8565b8860005260208060002060005b85811015612dbf5781548a820152908401908201612da6565b50505082870194505b505050508351612ddc8183602088016125e2565b01949350505050565b6020808252601290820152711cd95b99195c881b9bdd08185b1b1bddd95960721b604082015260600190565b6020808252601490820152731c9958d95a5d995c881b9bdd08185b1b1bddd95960621b604082015260600190565b634e487b7160e01b600052603260045260246000fd5b601f821115610ab1576000816000526020600020601f850160051c81016020861015612e7e5750805b601f850160051c820191505b81811015610a4b57828155600101612e8a565b6001600160401b03831115612eb457612eb4612645565b612ec883612ec28354612c7b565b83612e55565b6000601f841160018114612efc5760008515612ee45750838201355b600019600387901b1c1916600186901b178355611819565b600083815260209020601f19861690835b82811015612f2d5786850135825560209485019460019092019101612f0d565b5086821015612f4a5760001960f88860031b161c19848701351681555b505060018560011b0183555050505050565b81835281816020850137506000828201602090810191909152601f909101601f19169091010190565b602081526000612f99602083018486612f5c565b949350505050565b818103818111156106b4576106b4612cfc565b600060018201612fc657612fc6612cfc565b5060010190565b81516001600160401b03811115612fe657612fe6612645565b612ffa81612ff48454612c7b565b84612e55565b602080601f83116001811461302f57600084156130175750858301515b600019600386901b1c1916600185901b178555610a4b565b600085815260208120601f198616915b8281101561305e5788860151825594840194600190910190840161303f565b508582101561307c5787850151600019600388901b60f8161c191681555b5050505050600190811b01905550565b6060815260006130a0606083018688612f5c565b6020830194909452506040015292915050565b6001600160a01b03868116825285166020820152604081018490526060810183905260a06080820181905260009061122c90830184612606565b6000602082840312156130ff57600080fd5b81516125a08161256d565b6001600160a01b0386811682528516602082015260a06040820181905260009061313690830186612955565b82810360608401526131488186612955565b9050828103608084015261315c8185612606565b98975050505050505050565b60408152600061317b6040830185612955565b828103602084015261318d8185612955565b9594505050505056fe114e74f6ea3bd819998f78687bfcb11b140da08e9b7d222fa9c1f1ba1f2aa12297667070c54ef182b0f5858b034beac1b6f3089aa2d3188bb1e8929f4fa9b929a264697066735822122086962ebe490e2b2d7917eb816ec69faa4ca47d59e1915cbe7bf8fcc11f88172c64736f6c63430008180033","opcodes":"PUSH1 0x80 PUSH1 0x40 MSTORE CALLVALUE DUP1 ISZERO PUSH3 0x11 JUMPI PUSH1 0x0 DUP1 REVERT JUMPDEST POP PUSH1 0x40 DUP1 MLOAD PUSH1 0x20 DUP2 ADD SWAP1 SWAP2 MSTORE PUSH1 0x0 DUP2 MSTORE PUSH3 0x2C DUP2 PUSH3 0x38 JUMP JUMPDEST POP PUSH1 0x1 PUSH1 0x7 SSTORE PUSH3 0x1BD JUMP JUMPDEST PUSH1 0x2 PUSH3 0x46 DUP3 DUP3 PUSH3 0xF1 JUMP JUMPDEST POP POP JUMP JUMPDEST PUSH4 0x4E487B71 PUSH1 0xE0 SHL PUSH1 0x0 MSTORE PUSH1 0x41 PUSH1 0x4 MSTORE PUSH1 0x24 PUSH1 0x0 REVERT JUMPDEST PUSH1 0x1 DUP2 DUP2 SHR SWAP1 DUP3 AND DUP1 PUSH3 0x75 JUMPI PUSH1 0x7F DUP3 AND SWAP2 POP JUMPDEST PUSH1 0x20 DUP3 LT DUP2 SUB PUSH3 0x96 JUMPI PUSH4 0x4E487B71 PUSH1 0xE0 SHL PUSH1 0x0 MSTORE PUSH1 0x22 PUSH1 0x4 MSTORE PUSH1 0x24 PUSH1 0x0 REVERT JUMPDEST POP SWAP2 SWAP1 POP JUMP JUMPDEST PUSH1 0x1F DUP3 GT ISZERO PUSH3 0xEC JUMPI PUSH1 0x0 DUP2 PUSH1 0x0 MSTORE PUSH1 0x20 PUSH1 0x0 KECCAK256 PUSH1 0x1F DUP6 ADD PUSH1 0x5 SHR DUP2 ADD PUSH1 0x20 DUP7 LT ISZERO PUSH3 0xC7 JUMPI POP DUP1 JUMPDEST PUSH1 0x1F DUP6 ADD PUSH1 0x5 SHR DUP3 ADD SWAP2 POP JUMPDEST DUP2 DUP2 LT ISZERO PUSH3 0xE8 JUMPI DUP3 DUP2 SSTORE PUSH1 0x1 ADD PUSH3 0xD3 JUMP JUMPDEST POP POP POP JUMPDEST POP POP POP JUMP JUMPDEST DUP2 MLOAD PUSH1 0x1 PUSH1 0x1 PUSH1 0x40 SHL SUB DUP2 GT ISZERO PUSH3 0x10D JUMPI PUSH3 0x10D PUSH3 0x4A JUMP JUMPDEST PUSH3 0x125 DUP2 PUSH3 0x11E DUP5 SLOAD PUSH3 0x60 JUMP JUMPDEST DUP5 PUSH3 0x9C JUMP JUMPDEST PUSH1 0x20 DUP1 PUSH1 0x1F DUP4 GT PUSH1 0x1 DUP2 EQ PUSH3 0x15D JUMPI PUSH1 0x0 DUP5 ISZERO PUSH3 0x144 JUMPI POP DUP6 DUP4 ADD MLOAD JUMPDEST PUSH1 0x0 NOT PUSH1 0x3 DUP7 SWAP1 SHL SHR NOT AND PUSH1 0x1 DUP6 SWAP1 SHL OR DUP6 SSTORE PUSH3 0xE8 JUMP JUMPDEST PUSH1 0x0 DUP6 DUP2 MSTORE PUSH1 0x20 DUP2 KECCAK256 PUSH1 0x1F NOT DUP7 AND SWAP2 JUMPDEST DUP3 DUP2 LT ISZERO PUSH3 0x18E JUMPI DUP9 DUP7 ADD MLOAD DUP3 SSTORE SWAP5 DUP5 ADD SWAP5 PUSH1 0x1 SWAP1 SWAP2 ADD SWAP1 DUP5 ADD PUSH3 0x16D JUMP JUMPDEST POP DUP6 DUP3 LT ISZERO PUSH3 0x1AD JUMPI DUP8 DUP6 ADD MLOAD PUSH1 0x0 NOT PUSH1 0x3 DUP9 SWAP1 SHL PUSH1 0xF8 AND SHR NOT AND DUP2 SSTORE JUMPDEST POP POP POP POP POP PUSH1 0x1 SWAP1 DUP2 SHL ADD SWAP1 SSTORE POP JUMP JUMPDEST PUSH2 0x320C DUP1 PUSH3 0x1CD PUSH1 0x0 CODECOPY PUSH1 0x0 RETURN INVALID PUSH1 0x80 PUSH1 0x40 MSTORE CALLVALUE DUP1 ISZERO PUSH2 0x10 JUMPI PUSH1 0x0 DUP1 REVERT JUMPDEST POP PUSH1 0x4 CALLDATASIZE LT PUSH2 0x289 JUMPI PUSH1 0x0 CALLDATALOAD PUSH1 0xE0 SHR DUP1 PUSH4 0x8456CB59 GT PUSH2 0x15C JUMPI DUP1 PUSH4 0xC9230C5D GT PUSH2 0xCE JUMPI DUP1 PUSH4 0xDBAC26E9 GT PUSH2 0x87 JUMPI DUP1 PUSH4 0xDBAC26E9 EQ PUSH2 0x5FE JUMPI DUP1 PUSH4 0xDC22CB6A EQ PUSH2 0x621 JUMPI DUP1 PUSH4 0xE985E9C5 EQ PUSH2 0x644 JUMPI DUP1 PUSH4 0xF242432A EQ PUSH2 0x657 JUMPI DUP1 PUSH4 0xF38DAB60 EQ PUSH2 0x66A JUMPI DUP1 PUSH4 0xF5B541A6 EQ PUSH2 0x67D JUMPI PUSH1 0x0 DUP1 REVERT JUMPDEST DUP1 PUSH4 0xC9230C5D EQ PUSH2 0x577 JUMPI DUP1 PUSH4 0xD01DD6D2 EQ PUSH2 0x57F JUMPI DUP1 PUSH4 0xD0516650 EQ PUSH2 0x592 JUMPI DUP1 PUSH4 0xD547741F EQ PUSH2 0x5B5 JUMPI DUP1 PUSH4 0xD6D0FAEE EQ PUSH2 0x5C8 JUMPI DUP1 PUSH4 0xD936547E EQ PUSH2 0x5DB JUMPI PUSH1 0x0 DUP1 REVERT JUMPDEST DUP1 PUSH4 0xA217FDDF GT PUSH2 0x120 JUMPI DUP1 PUSH4 0xA217FDDF EQ PUSH2 0x4D3 JUMPI DUP1 PUSH4 0xA22CB465 EQ PUSH2 0x4DB JUMPI DUP1 PUSH4 0xAC869CD8 EQ PUSH2 0x4EE JUMPI DUP1 PUSH4 0xBB0BC514 EQ PUSH2 0x501 JUMPI DUP1 PUSH4 0xBD85B039 EQ PUSH2 0x52C JUMPI DUP1 PUSH4 0xC4F0DA7B EQ PUSH2 0x54C JUMPI PUSH1 0x0 DUP1 REVERT JUMPDEST DUP1 PUSH4 0x8456CB59 EQ PUSH2 0x472 JUMPI DUP1 PUSH4 0x8BAEB23D EQ PUSH2 0x47A JUMPI DUP1 PUSH4 0x91D14854 EQ PUSH2 0x48D JUMPI DUP1 PUSH4 0x945A3BAD EQ PUSH2 0x4A0 JUMPI DUP1 PUSH4 0xA0C7F71C EQ PUSH2 0x4C0 JUMPI PUSH1 0x0 DUP1 REVERT JUMPDEST DUP1 PUSH4 0x3F4BA83A GT PUSH2 0x200 JUMPI DUP1 PUSH4 0x5B2E374F GT PUSH2 0x1B9 JUMPI DUP1 PUSH4 0x5B2E374F EQ PUSH2 0x40E JUMPI DUP1 PUSH4 0x5C975ABB EQ PUSH2 0x416 JUMPI DUP1 PUSH4 0x6C0360EB EQ PUSH2 0x421 JUMPI DUP1 PUSH4 0x6ED3E3E3 EQ PUSH2 0x429 JUMPI DUP1 PUSH4 0x7B9E618D EQ PUSH2 0x432 JUMPI DUP1 PUSH4 0x82AEFA24 EQ PUSH2 0x45D JUMPI PUSH1 0x0 DUP1 REVERT JUMPDEST DUP1 PUSH4 0x3F4BA83A EQ PUSH2 0x38B JUMPI DUP1 PUSH4 0x3FFA884C EQ PUSH2 0x393 JUMPI DUP1 PUSH4 0x4E1273F4 EQ PUSH2 0x3A6 JUMPI DUP1 PUSH4 0x4F558E79 EQ PUSH2 0x3C6 JUMPI DUP1 PUSH4 0x53D6FD59 EQ PUSH2 0x3E8 JUMPI DUP1 PUSH4 0x55F804B3 EQ PUSH2 0x3FB JUMPI PUSH1 0x0 DUP1 REVERT JUMPDEST DUP1 PUSH4 0x18160DDD GT PUSH2 0x252 JUMPI DUP1 PUSH4 0x18160DDD EQ PUSH2 0x314 JUMPI DUP1 PUSH4 0x248A9CA3 EQ PUSH2 0x31C JUMPI DUP1 PUSH4 0x2EB2C2D6 EQ PUSH2 0x33F JUMPI DUP1 PUSH4 0x2F2FF15D EQ PUSH2 0x352 JUMPI DUP1 PUSH4 0x36568ABE EQ PUSH2 0x365 JUMPI DUP1 PUSH4 0x379607F5 EQ PUSH2 0x378 JUMPI PUSH1 0x0 DUP1 REVERT JUMPDEST DUP1 PUSH3 0xFDD58E EQ PUSH2 0x28E JUMPI DUP1 PUSH4 0x1FFC9A7 EQ PUSH2 0x2B4 JUMPI DUP1 PUSH4 0xCAE7AFC EQ PUSH2 0x2D7 JUMPI DUP1 PUSH4 0xE89341C EQ PUSH2 0x2EC JUMPI DUP1 PUSH4 0x176DE7A8 EQ PUSH2 0x30C JUMPI JUMPDEST PUSH1 0x0 DUP1 REVERT JUMPDEST PUSH2 0x2A1 PUSH2 0x29C CALLDATASIZE PUSH1 0x4 PUSH2 0x2543 JUMP JUMPDEST PUSH2 0x692 JUMP JUMPDEST PUSH1 0x40 MLOAD SWAP1 DUP2 MSTORE PUSH1 0x20 ADD JUMPDEST PUSH1 0x40 MLOAD DUP1 SWAP2 SUB SWAP1 RETURN JUMPDEST PUSH2 0x2C7 PUSH2 0x2C2 CALLDATASIZE PUSH1 0x4 PUSH2 0x2583 JUMP JUMPDEST PUSH2 0x6BA JUMP JUMPDEST PUSH1 0x40 MLOAD SWAP1 ISZERO ISZERO DUP2 MSTORE PUSH1 0x20 ADD PUSH2 0x2AB JUMP JUMPDEST PUSH2 0x2EA PUSH2 0x2E5 CALLDATASIZE PUSH1 0x4 PUSH2 0x25A7 JUMP JUMPDEST PUSH2 0x6C5 JUMP JUMPDEST STOP JUMPDEST PUSH2 0x2FF PUSH2 0x2FA CALLDATASIZE PUSH1 0x4 PUSH2 0x25C9 JUMP JUMPDEST PUSH2 0x900 JUMP JUMPDEST PUSH1 0x40 MLOAD PUSH2 0x2AB SWAP2 SWAP1 PUSH2 0x2632 JUMP JUMPDEST PUSH2 0x2FF PUSH2 0x95E JUMP JUMPDEST PUSH1 0x4 SLOAD PUSH2 0x2A1 JUMP JUMPDEST PUSH2 0x2A1 PUSH2 0x32A CALLDATASIZE PUSH1 0x4 PUSH2 0x25C9 JUMP JUMPDEST PUSH1 0x0 SWAP1 DUP2 MSTORE PUSH1 0x5 PUSH1 0x20 MSTORE PUSH1 0x40 SWAP1 KECCAK256 PUSH1 0x1 ADD SLOAD SWAP1 JUMP JUMPDEST PUSH2 0x2EA PUSH2 0x34D CALLDATASIZE PUSH1 0x4 PUSH2 0x278C JUMP JUMPDEST PUSH2 0x9EC JUMP JUMPDEST PUSH2 0x2EA PUSH2 0x360 CALLDATASIZE PUSH1 0x4 PUSH2 0x2835 JUMP JUMPDEST PUSH2 0xA53 JUMP JUMPDEST PUSH2 0x2EA PUSH2 0x373 CALLDATASIZE PUSH1 0x4 PUSH2 0x2835 JUMP JUMPDEST PUSH2 0xA7E JUMP JUMPDEST PUSH2 0x2EA PUSH2 0x386 CALLDATASIZE PUSH1 0x4 PUSH2 0x25C9 JUMP JUMPDEST PUSH2 0xAB6 JUMP JUMPDEST PUSH2 0x2EA PUSH2 0xC71 JUMP JUMPDEST PUSH2 0x2EA PUSH2 0x3A1 CALLDATASIZE PUSH1 0x4 PUSH2 0x2861 JUMP JUMPDEST PUSH2 0xC91 JUMP JUMPDEST PUSH2 0x3B9 PUSH2 0x3B4 CALLDATASIZE PUSH1 0x4 PUSH2 0x2896 JUMP JUMPDEST PUSH2 0xED1 JUMP JUMPDEST PUSH1 0x40 MLOAD PUSH2 0x2AB SWAP2 SWAP1 PUSH2 0x2991 JUMP JUMPDEST PUSH2 0x2C7 PUSH2 0x3D4 CALLDATASIZE PUSH1 0x4 PUSH2 0x25C9 JUMP JUMPDEST PUSH1 0x0 SWAP1 DUP2 MSTORE PUSH1 0x3 PUSH1 0x20 MSTORE PUSH1 0x40 SWAP1 KECCAK256 SLOAD ISZERO ISZERO SWAP1 JUMP JUMPDEST PUSH2 0x2EA PUSH2 0x3F6 CALLDATASIZE PUSH1 0x4 PUSH2 0x29B2 JUMP JUMPDEST PUSH2 0xF9D JUMP JUMPDEST PUSH2 0x2EA PUSH2 0x409 CALLDATASIZE PUSH1 0x4 PUSH2 0x2A31 JUMP JUMPDEST PUSH2 0x1016 JUMP JUMPDEST PUSH2 0x2FF PUSH2 0x107A JUMP JUMPDEST PUSH1 0x6 SLOAD PUSH1 0xFF AND PUSH2 0x2C7 JUMP JUMPDEST PUSH2 0x2FF PUSH2 0x1087 JUMP JUMPDEST PUSH2 0x2A1 PUSH1 0x10 SLOAD DUP2 JUMP JUMPDEST PUSH1 0xB SLOAD PUSH2 0x445 SWAP1 PUSH1 0x1 PUSH1 0x1 PUSH1 0xA0 SHL SUB AND DUP2 JUMP JUMPDEST PUSH1 0x40 MLOAD PUSH1 0x1 PUSH1 0x1 PUSH1 0xA0 SHL SUB SWAP1 SWAP2 AND DUP2 MSTORE PUSH1 0x20 ADD PUSH2 0x2AB JUMP JUMPDEST PUSH2 0x2A1 PUSH1 0x0 DUP1 MLOAD PUSH1 0x20 PUSH2 0x3197 DUP4 CODECOPY DUP2 MLOAD SWAP2 MSTORE DUP2 JUMP JUMPDEST PUSH2 0x2EA PUSH2 0x1094 JUMP JUMPDEST PUSH2 0x2EA PUSH2 0x488 CALLDATASIZE PUSH1 0x4 PUSH2 0x2A72 JUMP JUMPDEST PUSH2 0x10B4 JUMP JUMPDEST PUSH2 0x2C7 PUSH2 0x49B CALLDATASIZE PUSH1 0x4 PUSH2 0x2835 JUMP JUMPDEST PUSH2 0x1159 JUMP JUMPDEST PUSH2 0x2A1 PUSH2 0x4AE CALLDATASIZE PUSH1 0x4 PUSH2 0x25C9 JUMP JUMPDEST PUSH1 0x12 PUSH1 0x20 MSTORE PUSH1 0x0 SWAP1 DUP2 MSTORE PUSH1 0x40 SWAP1 KECCAK256 SLOAD DUP2 JUMP JUMPDEST PUSH2 0x2A1 PUSH2 0x4CE CALLDATASIZE PUSH1 0x4 PUSH2 0x2835 JUMP JUMPDEST PUSH2 0x1184 JUMP JUMPDEST PUSH2 0x2A1 PUSH1 0x0 DUP2 JUMP JUMPDEST PUSH2 0x2EA PUSH2 0x4E9 CALLDATASIZE PUSH1 0x4 PUSH2 0x29B2 JUMP JUMPDEST PUSH2 0x1237 JUMP JUMPDEST PUSH2 0x2EA PUSH2 0x4FC CALLDATASIZE PUSH1 0x4 PUSH2 0x29B2 JUMP JUMPDEST PUSH2 0x1246 JUMP JUMPDEST PUSH2 0x2A1 PUSH2 0x50F CALLDATASIZE PUSH1 0x4 PUSH2 0x2835 JUMP JUMPDEST PUSH1 0x14 PUSH1 0x20 SWAP1 DUP2 MSTORE PUSH1 0x0 SWAP3 DUP4 MSTORE PUSH1 0x40 DUP1 DUP5 KECCAK256 SWAP1 SWAP2 MSTORE SWAP1 DUP3 MSTORE SWAP1 KECCAK256 SLOAD DUP2 JUMP JUMPDEST PUSH2 0x2A1 PUSH2 0x53A CALLDATASIZE PUSH1 0x4 PUSH2 0x25C9 JUMP JUMPDEST PUSH1 0x0 SWAP1 DUP2 MSTORE PUSH1 0x3 PUSH1 0x20 MSTORE PUSH1 0x40 SWAP1 KECCAK256 SLOAD SWAP1 JUMP JUMPDEST PUSH2 0x2A1 PUSH2 0x55A CALLDATASIZE PUSH1 0x4 PUSH2 0x2835 JUMP JUMPDEST PUSH1 0x13 PUSH1 0x20 SWAP1 DUP2 MSTORE PUSH1 0x0 SWAP3 DUP4 MSTORE PUSH1 0x40 DUP1 DUP5 KECCAK256 SWAP1 SWAP2 MSTORE SWAP1 DUP3 MSTORE SWAP1 KECCAK256 SLOAD DUP2 JUMP JUMPDEST PUSH2 0x2FF PUSH2 0x12B6 JUMP JUMPDEST PUSH2 0x2EA PUSH2 0x58D CALLDATASIZE PUSH1 0x4 PUSH2 0x29B2 JUMP JUMPDEST PUSH2 0x12C3 JUMP JUMPDEST PUSH2 0x2C7 PUSH2 0x5A0 CALLDATASIZE PUSH1 0x4 PUSH2 0x2A97 JUMP JUMPDEST PUSH1 0xE PUSH1 0x20 MSTORE PUSH1 0x0 SWAP1 DUP2 MSTORE PUSH1 0x40 SWAP1 KECCAK256 SLOAD PUSH1 0xFF AND DUP2 JUMP JUMPDEST PUSH2 0x2EA PUSH2 0x5C3 CALLDATASIZE PUSH1 0x4 PUSH2 0x2835 JUMP JUMPDEST PUSH2 0x1333 JUMP JUMPDEST PUSH2 0x2EA PUSH2 0x5D6 CALLDATASIZE PUSH1 0x4 PUSH2 0x2AB2 JUMP JUMPDEST PUSH2 0x1358 JUMP JUMPDEST PUSH2 0x2C7 PUSH2 0x5E9 CALLDATASIZE PUSH1 0x4 PUSH2 0x2A97 JUMP JUMPDEST PUSH1 0xD PUSH1 0x20 MSTORE PUSH1 0x0 SWAP1 DUP2 MSTORE PUSH1 0x40 SWAP1 KECCAK256 SLOAD PUSH1 0xFF AND DUP2 JUMP JUMPDEST PUSH2 0x2C7 PUSH2 0x60C CALLDATASIZE PUSH1 0x4 PUSH2 0x2A97 JUMP JUMPDEST PUSH1 0xF PUSH1 0x20 MSTORE PUSH1 0x0 SWAP1 DUP2 MSTORE PUSH1 0x40 SWAP1 KECCAK256 SLOAD PUSH1 0xFF AND DUP2 JUMP JUMPDEST PUSH2 0x634 PUSH2 0x62F CALLDATASIZE PUSH1 0x4 PUSH2 0x25C9 JUMP JUMPDEST PUSH2 0x1462 JUMP JUMPDEST PUSH1 0x40 MLOAD PUSH2 0x2AB SWAP5 SWAP4 SWAP3 SWAP2 SWAP1 PUSH2 0x2B6C JUMP JUMPDEST PUSH2 0x2C7 PUSH2 0x652 CALLDATASIZE PUSH1 0x4 PUSH2 0x2B9D JUMP JUMPDEST PUSH2 0x1517 JUMP JUMPDEST PUSH2 0x2EA PUSH2 0x665 CALLDATASIZE PUSH1 0x4 PUSH2 0x2BC7 JUMP JUMPDEST PUSH2 0x1545 JUMP JUMPDEST PUSH2 0x2A1 PUSH2 0x678 CALLDATASIZE PUSH1 0x4 PUSH2 0x2C2B JUMP JUMPDEST PUSH2 0x15A4 JUMP JUMPDEST PUSH2 0x2A1 PUSH1 0x0 DUP1 MLOAD PUSH1 0x20 PUSH2 0x31B7 DUP4 CODECOPY DUP2 MLOAD SWAP2 MSTORE DUP2 JUMP JUMPDEST PUSH1 0x0 DUP2 DUP2 MSTORE PUSH1 0x20 DUP2 DUP2 MSTORE PUSH1 0x40 DUP1 DUP4 KECCAK256 PUSH1 0x1 PUSH1 0x1 PUSH1 0xA0 SHL SUB DUP7 AND DUP5 MSTORE SWAP1 SWAP2 MSTORE SWAP1 KECCAK256 SLOAD JUMPDEST SWAP3 SWAP2 POP POP JUMP JUMPDEST PUSH1 0x0 PUSH2 0x6B4 DUP3 PUSH2 0x16F8 JUMP JUMPDEST PUSH1 0x0 DUP1 MLOAD PUSH1 0x20 PUSH2 0x31B7 DUP4 CODECOPY DUP2 MLOAD SWAP2 MSTORE PUSH2 0x6DD DUP2 PUSH2 0x171D JUMP JUMPDEST PUSH1 0x0 DUP3 GT PUSH2 0x71D JUMPI PUSH1 0x40 MLOAD PUSH3 0x461BCD PUSH1 0xE5 SHL DUP2 MSTORE PUSH1 0x20 PUSH1 0x4 DUP3 ADD MSTORE PUSH1 0x8 PUSH1 0x24 DUP3 ADD MSTORE PUSH8 0x616D6F756E743D3 PUSH1 0xC4 SHL PUSH1 0x44 DUP3 ADD MSTORE PUSH1 0x64 ADD JUMPDEST PUSH1 0x40 MLOAD DUP1 SWAP2 SUB SWAP1 REVERT JUMPDEST PUSH1 0x0 DUP4 DUP2 MSTORE PUSH1 0x3 PUSH1 0x20 MSTORE PUSH1 0x40 DUP2 KECCAK256 SLOAD GT PUSH2 0x765 JUMPI PUSH1 0x40 MLOAD PUSH3 0x461BCD PUSH1 0xE5 SHL DUP2 MSTORE PUSH1 0x20 PUSH1 0x4 DUP3 ADD MSTORE PUSH1 0x9 PUSH1 0x24 DUP3 ADD MSTORE PUSH9 0x6E6F20737570706C79 PUSH1 0xB8 SHL PUSH1 0x44 DUP3 ADD MSTORE PUSH1 0x64 ADD PUSH2 0x714 JUMP JUMPDEST PUSH1 0x0 DUP4 DUP2 MSTORE PUSH1 0x11 PUSH1 0x20 MSTORE PUSH1 0x40 SWAP1 KECCAK256 DUP1 SLOAD PUSH2 0x77E SWAP1 PUSH2 0x2C7B JUMP JUMPDEST SWAP1 POP PUSH1 0x0 SUB PUSH2 0x79F JUMPI PUSH1 0x40 MLOAD PUSH3 0x461BCD PUSH1 0xE5 SHL DUP2 MSTORE PUSH1 0x4 ADD PUSH2 0x714 SWAP1 PUSH2 0x2CB5 JUMP JUMPDEST PUSH1 0xB SLOAD PUSH1 0x40 MLOAD PUSH4 0x23B872DD PUSH1 0xE0 SHL DUP2 MSTORE CALLER PUSH1 0x4 DUP3 ADD MSTORE ADDRESS PUSH1 0x24 DUP3 ADD MSTORE PUSH1 0x44 DUP2 ADD DUP5 SWAP1 MSTORE PUSH1 0x1 PUSH1 0x1 PUSH1 0xA0 SHL SUB SWAP1 SWAP2 AND SWAP1 PUSH4 0x23B872DD SWAP1 PUSH1 0x64 ADD PUSH1 0x20 PUSH1 0x40 MLOAD DUP1 DUP4 SUB DUP2 PUSH1 0x0 DUP8 GAS CALL ISZERO DUP1 ISZERO PUSH2 0x7F6 JUMPI RETURNDATASIZE PUSH1 0x0 DUP1 RETURNDATACOPY RETURNDATASIZE PUSH1 0x0 REVERT JUMPDEST POP POP POP POP PUSH1 0x40 MLOAD RETURNDATASIZE PUSH1 0x1F NOT PUSH1 0x1F DUP3 ADD AND DUP3 ADD DUP1 PUSH1 0x40 MSTORE POP DUP2 ADD SWAP1 PUSH2 0x81A SWAP2 SWAP1 PUSH2 0x2CDF JUMP JUMPDEST PUSH2 0x85C JUMPI PUSH1 0x40 MLOAD PUSH3 0x461BCD PUSH1 0xE5 SHL DUP2 MSTORE PUSH1 0x20 PUSH1 0x4 DUP3 ADD MSTORE PUSH1 0x13 PUSH1 0x24 DUP3 ADD MSTORE PUSH19 0x1D1C985B9CD9995C919C9BDB4819985A5B1959 PUSH1 0x6A SHL PUSH1 0x44 DUP3 ADD MSTORE PUSH1 0x64 ADD PUSH2 0x714 JUMP JUMPDEST PUSH1 0x0 DUP4 DUP2 MSTORE PUSH1 0x3 PUSH1 0x20 MSTORE PUSH1 0x40 DUP2 KECCAK256 SLOAD PUSH2 0x87D DUP5 PUSH8 0xDE0B6B3A7640000 PUSH2 0x2D12 JUMP JUMPDEST PUSH2 0x887 SWAP2 SWAP1 PUSH2 0x2D29 JUMP JUMPDEST SWAP1 POP DUP1 PUSH1 0x12 PUSH1 0x0 DUP7 DUP2 MSTORE PUSH1 0x20 ADD SWAP1 DUP2 MSTORE PUSH1 0x20 ADD PUSH1 0x0 KECCAK256 PUSH1 0x0 DUP3 DUP3 SLOAD PUSH2 0x8AC SWAP2 SWAP1 PUSH2 0x2D4B JUMP JUMPDEST SWAP1 SWAP2 SSTORE POP POP PUSH1 0x0 DUP5 DUP2 MSTORE PUSH1 0x12 PUSH1 0x20 SWAP1 DUP2 MSTORE PUSH1 0x40 SWAP2 DUP3 SWAP1 KECCAK256 SLOAD DUP3 MLOAD DUP7 DUP2 MSTORE SWAP2 DUP3 ADD MSTORE DUP6 SWAP2 PUSH32 0x271447A7FC6BD5726818CE06A9D9FFDECD61963481F678D3903CC5BACC523C86 SWAP2 ADD PUSH1 0x40 MLOAD DUP1 SWAP2 SUB SWAP1 LOG2 POP POP POP POP JUMP JUMPDEST PUSH1 0x60 PUSH1 0xC DUP1 SLOAD PUSH2 0x90F SWAP1 PUSH2 0x2C7B JUMP JUMPDEST SWAP1 POP PUSH1 0x0 SUB PUSH2 0x92C JUMPI POP POP PUSH1 0x40 DUP1 MLOAD PUSH1 0x20 DUP2 ADD SWAP1 SWAP2 MSTORE PUSH1 0x0 DUP2 MSTORE SWAP1 JUMP JUMPDEST PUSH1 0xC PUSH2 0x937 DUP4 PUSH2 0x1727 JUMP JUMPDEST PUSH1 0x40 MLOAD PUSH1 0x20 ADD PUSH2 0x948 SWAP3 SWAP2 SWAP1 PUSH2 0x2D5E JUMP JUMPDEST PUSH1 0x40 MLOAD PUSH1 0x20 DUP2 DUP4 SUB SUB DUP2 MSTORE SWAP1 PUSH1 0x40 MSTORE SWAP1 POP SWAP2 SWAP1 POP JUMP JUMPDEST PUSH1 0x9 DUP1 SLOAD PUSH2 0x96B SWAP1 PUSH2 0x2C7B JUMP JUMPDEST DUP1 PUSH1 0x1F ADD PUSH1 0x20 DUP1 SWAP2 DIV MUL PUSH1 0x20 ADD PUSH1 0x40 MLOAD SWAP1 DUP2 ADD PUSH1 0x40 MSTORE DUP1 SWAP3 SWAP2 SWAP1 DUP2 DUP2 MSTORE PUSH1 0x20 ADD DUP3 DUP1 SLOAD PUSH2 0x997 SWAP1 PUSH2 0x2C7B JUMP JUMPDEST DUP1 ISZERO PUSH2 0x9E4 JUMPI DUP1 PUSH1 0x1F LT PUSH2 0x9B9 JUMPI PUSH2 0x100 DUP1 DUP4 SLOAD DIV MUL DUP4 MSTORE SWAP2 PUSH1 0x20 ADD SWAP2 PUSH2 0x9E4 JUMP JUMPDEST DUP3 ADD SWAP2 SWAP1 PUSH1 0x0 MSTORE PUSH1 0x20 PUSH1 0x0 KECCAK256 SWAP1 JUMPDEST DUP2 SLOAD DUP2 MSTORE SWAP1 PUSH1 0x1 ADD SWAP1 PUSH1 0x20 ADD DUP1 DUP4 GT PUSH2 0x9C7 JUMPI DUP3 SWAP1 SUB PUSH1 0x1F AND DUP3 ADD SWAP2 JUMPDEST POP POP POP POP POP DUP2 JUMP JUMPDEST CALLER PUSH1 0x1 PUSH1 0x1 PUSH1 0xA0 SHL SUB DUP7 AND DUP2 EQ DUP1 ISZERO SWAP1 PUSH2 0xA0D JUMPI POP PUSH2 0xA0B DUP7 DUP3 PUSH2 0x1517 JUMP JUMPDEST ISZERO JUMPDEST ISZERO PUSH2 0xA3E JUMPI PUSH1 0x40 MLOAD PUSH4 0x711BEC91 PUSH1 0xE1 SHL DUP2 MSTORE PUSH1 0x1 PUSH1 0x1 PUSH1 0xA0 SHL SUB DUP1 DUP4 AND PUSH1 0x4 DUP4 ADD MSTORE DUP8 AND PUSH1 0x24 DUP3 ADD MSTORE PUSH1 0x44 ADD PUSH2 0x714 JUMP JUMPDEST PUSH2 0xA4B DUP7 DUP7 DUP7 DUP7 DUP7 PUSH2 0x17B9 JUMP JUMPDEST POP POP POP POP POP POP JUMP JUMPDEST PUSH1 0x0 DUP3 DUP2 MSTORE PUSH1 0x5 PUSH1 0x20 MSTORE PUSH1 0x40 SWAP1 KECCAK256 PUSH1 0x1 ADD SLOAD PUSH2 0xA6E DUP2 PUSH2 0x171D JUMP JUMPDEST PUSH2 0xA78 DUP4 DUP4 PUSH2 0x1820 JUMP JUMPDEST POP POP POP POP JUMP JUMPDEST PUSH1 0x1 PUSH1 0x1 PUSH1 0xA0 SHL SUB DUP2 AND CALLER EQ PUSH2 0xAA7 JUMPI PUSH1 0x40 MLOAD PUSH4 0x334BD919 PUSH1 0xE1 SHL DUP2 MSTORE PUSH1 0x4 ADD PUSH1 0x40 MLOAD DUP1 SWAP2 SUB SWAP1 REVERT JUMPDEST PUSH2 0xAB1 DUP3 DUP3 PUSH2 0x18B4 JUMP JUMPDEST POP POP POP JUMP JUMPDEST PUSH2 0xABE PUSH2 0x1921 JUMP JUMPDEST PUSH2 0xAC6 PUSH2 0x194B JUMP JUMPDEST PUSH2 0xACF CALLER PUSH2 0x1971 JUMP JUMPDEST PUSH2 0xAEB JUMPI PUSH1 0x40 MLOAD PUSH3 0x461BCD PUSH1 0xE5 SHL DUP2 MSTORE PUSH1 0x4 ADD PUSH2 0x714 SWAP1 PUSH2 0x2DE5 JUMP JUMPDEST PUSH1 0x0 PUSH2 0xAF7 DUP3 CALLER PUSH2 0x1184 JUMP JUMPDEST SWAP1 POP PUSH1 0x0 DUP2 GT PUSH2 0xB3C JUMPI PUSH1 0x40 MLOAD PUSH3 0x461BCD PUSH1 0xE5 SHL DUP2 MSTORE PUSH1 0x20 PUSH1 0x4 DUP3 ADD MSTORE PUSH1 0x10 PUSH1 0x24 DUP3 ADD MSTORE PUSH16 0x6E6F7468696E6720746F20636C61696D PUSH1 0x80 SHL PUSH1 0x44 DUP3 ADD MSTORE PUSH1 0x64 ADD PUSH2 0x714 JUMP JUMPDEST PUSH1 0x0 DUP3 DUP2 MSTORE PUSH1 0x14 PUSH1 0x20 SWAP1 DUP2 MSTORE PUSH1 0x40 DUP1 DUP4 KECCAK256 CALLER DUP1 DUP6 MSTORE SWAP1 DUP4 MSTORE DUP2 DUP5 KECCAK256 DUP5 SWAP1 SSTORE DUP6 DUP5 MSTORE PUSH1 0x12 DUP4 MSTORE DUP2 DUP5 KECCAK256 SLOAD PUSH1 0x13 DUP5 MSTORE DUP3 DUP6 KECCAK256 DUP3 DUP7 MSTORE SWAP1 SWAP4 MSTORE SWAP3 DUP2 SWAP1 KECCAK256 SWAP2 SWAP1 SWAP2 SSTORE PUSH1 0xB SLOAD SWAP1 MLOAD PUSH4 0xA9059CBB PUSH1 0xE0 SHL DUP2 MSTORE PUSH1 0x4 DUP2 ADD SWAP3 SWAP1 SWAP3 MSTORE PUSH1 0x24 DUP3 ADD DUP4 SWAP1 MSTORE PUSH1 0x1 PUSH1 0x1 PUSH1 0xA0 SHL SUB AND SWAP1 PUSH4 0xA9059CBB SWAP1 PUSH1 0x44 ADD PUSH1 0x20 PUSH1 0x40 MLOAD DUP1 DUP4 SUB DUP2 PUSH1 0x0 DUP8 GAS CALL ISZERO DUP1 ISZERO PUSH2 0xBCA JUMPI RETURNDATASIZE PUSH1 0x0 DUP1 RETURNDATACOPY RETURNDATASIZE PUSH1 0x0 REVERT JUMPDEST POP POP POP POP PUSH1 0x40 MLOAD RETURNDATASIZE PUSH1 0x1F NOT PUSH1 0x1F DUP3 ADD AND DUP3 ADD DUP1 PUSH1 0x40 MSTORE POP DUP2 ADD SWAP1 PUSH2 0xBEE SWAP2 SWAP1 PUSH2 0x2CDF JUMP JUMPDEST PUSH2 0xC2C JUMPI PUSH1 0x40 MLOAD PUSH3 0x461BCD PUSH1 0xE5 SHL DUP2 MSTORE PUSH1 0x20 PUSH1 0x4 DUP3 ADD MSTORE PUSH1 0xF PUSH1 0x24 DUP3 ADD MSTORE PUSH15 0x1D1C985B9CD9995C8819985A5B1959 PUSH1 0x8A SHL PUSH1 0x44 DUP3 ADD MSTORE PUSH1 0x64 ADD PUSH2 0x714 JUMP JUMPDEST PUSH1 0x40 MLOAD DUP2 DUP2 MSTORE CALLER SWAP1 DUP4 SWAP1 PUSH32 0xB9E8470097FAA00E83252475F2EE4B69007B0BB2405268EBEC248676998A21B3 SWAP1 PUSH1 0x20 ADD PUSH1 0x40 MLOAD DUP1 SWAP2 SUB SWAP1 LOG3 POP PUSH2 0xC6E PUSH1 0x1 PUSH1 0x7 SSTORE JUMP JUMPDEST POP JUMP JUMPDEST PUSH1 0x0 DUP1 MLOAD PUSH1 0x20 PUSH2 0x31B7 DUP4 CODECOPY DUP2 MLOAD SWAP2 MSTORE PUSH2 0xC89 DUP2 PUSH2 0x171D JUMP JUMPDEST PUSH2 0xC6E PUSH2 0x19F3 JUMP JUMPDEST PUSH1 0x0 DUP1 MLOAD PUSH1 0x20 PUSH2 0x3197 DUP4 CODECOPY DUP2 MLOAD SWAP2 MSTORE PUSH2 0xCA9 DUP2 PUSH2 0x171D JUMP JUMPDEST PUSH1 0x0 DUP5 DUP2 MSTORE PUSH1 0x11 PUSH1 0x20 MSTORE PUSH1 0x40 DUP1 DUP3 KECCAK256 DUP2 MLOAD PUSH1 0x80 DUP2 ADD SWAP1 SWAP3 MSTORE DUP1 SLOAD DUP3 SWAP1 DUP3 SWAP1 PUSH2 0xCD0 SWAP1 PUSH2 0x2C7B JUMP JUMPDEST DUP1 PUSH1 0x1F ADD PUSH1 0x20 DUP1 SWAP2 DIV MUL PUSH1 0x20 ADD PUSH1 0x40 MLOAD SWAP1 DUP2 ADD PUSH1 0x40 MSTORE DUP1 SWAP3 SWAP2 SWAP1 DUP2 DUP2 MSTORE PUSH1 0x20 ADD DUP3 DUP1 SLOAD PUSH2 0xCFC SWAP1 PUSH2 0x2C7B JUMP JUMPDEST DUP1 ISZERO PUSH2 0xD49 JUMPI DUP1 PUSH1 0x1F LT PUSH2 0xD1E JUMPI PUSH2 0x100 DUP1 DUP4 SLOAD DIV MUL DUP4 MSTORE SWAP2 PUSH1 0x20 ADD SWAP2 PUSH2 0xD49 JUMP JUMPDEST DUP3 ADD SWAP2 SWAP1 PUSH1 0x0 MSTORE PUSH1 0x20 PUSH1 0x0 KECCAK256 SWAP1 JUMPDEST DUP2 SLOAD DUP2 MSTORE SWAP1 PUSH1 0x1 ADD SWAP1 PUSH1 0x20 ADD DUP1 DUP4 GT PUSH2 0xD2C JUMPI DUP3 SWAP1 SUB PUSH1 0x1F AND DUP3 ADD SWAP2 JUMPDEST POP POP POP SWAP2 DUP4 MSTORE POP POP PUSH1 0x1 DUP3 ADD SLOAD PUSH1 0x20 DUP3 ADD MSTORE PUSH1 0x2 DUP3 ADD SLOAD PUSH1 0x40 DUP3 ADD MSTORE PUSH1 0x3 SWAP1 SWAP2 ADD SLOAD PUSH1 0xFF AND ISZERO ISZERO PUSH1 0x60 SWAP1 SWAP2 ADD MSTORE DUP1 MLOAD MLOAD SWAP1 SWAP2 POP PUSH1 0x0 SUB PUSH2 0xD9B JUMPI PUSH1 0x40 MLOAD PUSH3 0x461BCD PUSH1 0xE5 SHL DUP2 MSTORE PUSH1 0x4 ADD PUSH2 0x714 SWAP1 PUSH2 0x2CB5 JUMP JUMPDEST DUP1 PUSH1 0x60 ADD MLOAD PUSH2 0xDDE JUMPI PUSH1 0x40 MLOAD PUSH3 0x461BCD PUSH1 0xE5 SHL DUP2 MSTORE PUSH1 0x20 PUSH1 0x4 DUP3 ADD MSTORE PUSH1 0xF PUSH1 0x24 DUP3 ADD MSTORE PUSH15 0x73657269657320696E616374697665 PUSH1 0x88 SHL PUSH1 0x44 DUP3 ADD MSTORE PUSH1 0x64 ADD PUSH2 0x714 JUMP JUMPDEST DUP1 PUSH1 0x40 ADD MLOAD DUP4 PUSH2 0xDFA DUP8 PUSH1 0x0 SWAP1 DUP2 MSTORE PUSH1 0x3 PUSH1 0x20 MSTORE PUSH1 0x40 SWAP1 KECCAK256 SLOAD SWAP1 JUMP JUMPDEST PUSH2 0xE04 SWAP2 SWAP1 PUSH2 0x2D4B JUMP JUMPDEST GT ISZERO PUSH2 0xE46 JUMPI PUSH1 0x40 MLOAD PUSH3 0x461BCD PUSH1 0xE5 SHL DUP2 MSTORE PUSH1 0x20 PUSH1 0x4 DUP3 ADD MSTORE PUSH1 0x11 PUSH1 0x24 DUP3 ADD MSTORE PUSH17 0x65786365656473206D6178537570706C79 PUSH1 0x78 SHL PUSH1 0x44 DUP3 ADD MSTORE PUSH1 0x64 ADD PUSH2 0x714 JUMP JUMPDEST PUSH2 0xE4F DUP5 PUSH2 0x1A45 JUMP JUMPDEST PUSH2 0xE6B JUMPI PUSH1 0x40 MLOAD PUSH3 0x461BCD PUSH1 0xE5 SHL DUP2 MSTORE PUSH1 0x4 ADD PUSH2 0x714 SWAP1 PUSH2 0x2E11 JUMP JUMPDEST PUSH2 0xE86 DUP5 DUP7 DUP6 PUSH1 0x40 MLOAD DUP1 PUSH1 0x20 ADD PUSH1 0x40 MSTORE DUP1 PUSH1 0x0 DUP2 MSTORE POP PUSH2 0x1A50 JUMP JUMPDEST DUP4 PUSH1 0x1 PUSH1 0x1 PUSH1 0xA0 SHL SUB AND DUP6 PUSH32 0x317F5FCEBC6292737B7BF155C74847BFDE3FACFB62681E7B754C7EEDB9EEF875 DUP6 PUSH1 0x40 MLOAD PUSH2 0xEC2 SWAP2 DUP2 MSTORE PUSH1 0x20 ADD SWAP1 JUMP JUMPDEST PUSH1 0x40 MLOAD DUP1 SWAP2 SUB SWAP1 LOG3 POP POP POP POP POP JUMP JUMPDEST PUSH1 0x60 DUP2 MLOAD DUP4 MLOAD EQ PUSH2 0xF02 JUMPI DUP2 MLOAD DUP4 MLOAD PUSH1 0x40 MLOAD PUSH4 0x5B059991 PUSH1 0xE0 SHL DUP2 MSTORE PUSH1 0x4 DUP2 ADD SWAP3 SWAP1 SWAP3 MSTORE PUSH1 0x24 DUP3 ADD MSTORE PUSH1 0x44 ADD PUSH2 0x714 JUMP JUMPDEST PUSH1 0x0 DUP4 MLOAD PUSH1 0x1 PUSH1 0x1 PUSH1 0x40 SHL SUB DUP2 GT ISZERO PUSH2 0xF1D JUMPI PUSH2 0xF1D PUSH2 0x2645 JUMP JUMPDEST PUSH1 0x40 MLOAD SWAP1 DUP1 DUP3 MSTORE DUP1 PUSH1 0x20 MUL PUSH1 0x20 ADD DUP3 ADD PUSH1 0x40 MSTORE DUP1 ISZERO PUSH2 0xF46 JUMPI DUP2 PUSH1 0x20 ADD PUSH1 0x20 DUP3 MUL DUP1 CALLDATASIZE DUP4 CALLDATACOPY ADD SWAP1 POP JUMPDEST POP SWAP1 POP PUSH1 0x0 JUMPDEST DUP5 MLOAD DUP2 LT ISZERO PUSH2 0xF95 JUMPI PUSH1 0x20 DUP1 DUP3 MUL DUP7 ADD ADD MLOAD PUSH2 0xF70 SWAP1 PUSH1 0x20 DUP1 DUP5 MUL DUP8 ADD ADD MLOAD PUSH2 0x692 JUMP JUMPDEST DUP3 DUP3 DUP2 MLOAD DUP2 LT PUSH2 0xF82 JUMPI PUSH2 0xF82 PUSH2 0x2E3F JUMP JUMPDEST PUSH1 0x20 SWAP1 DUP2 MUL SWAP2 SWAP1 SWAP2 ADD ADD MSTORE PUSH1 0x1 ADD PUSH2 0xF4C JUMP JUMPDEST POP SWAP4 SWAP3 POP POP POP JUMP JUMPDEST PUSH1 0x0 DUP1 MLOAD PUSH1 0x20 PUSH2 0x31B7 DUP4 CODECOPY DUP2 MLOAD SWAP2 MSTORE PUSH2 0xFB5 DUP2 PUSH2 0x171D JUMP JUMPDEST PUSH1 0x1 PUSH1 0x1 PUSH1 0xA0 SHL SUB DUP4 AND PUSH1 0x0 DUP2 DUP2 MSTORE PUSH1 0xD PUSH1 0x20 SWAP1 DUP2 MSTORE PUSH1 0x40 SWAP2 DUP3 SWAP1 KECCAK256 DUP1 SLOAD PUSH1 0xFF NOT AND DUP7 ISZERO ISZERO SWAP1 DUP2 OR SWAP1 SWAP2 SSTORE SWAP2 MLOAD SWAP2 DUP3 MSTORE PUSH32 0xF93F9A76C1BF3444D22400A00CB9FE990E6ABE9DBB333FDA48859CFEE864543D SWAP2 ADD JUMPDEST PUSH1 0x40 MLOAD DUP1 SWAP2 SUB SWAP1 LOG2 POP POP POP JUMP JUMPDEST PUSH1 0x0 DUP1 MLOAD PUSH1 0x20 PUSH2 0x31B7 DUP4 CODECOPY DUP2 MLOAD SWAP2 MSTORE PUSH2 0x102E DUP2 PUSH2 0x171D JUMP JUMPDEST PUSH1 0xC PUSH2 0x103B DUP4 DUP6 DUP4 PUSH2 0x2E9D JUMP JUMPDEST POP PUSH32 0x6741B2FC379FAD678116FE3D4D4B9A1A184AB53BA36B86AD0FA66340B1AB41AD DUP4 DUP4 PUSH1 0x40 MLOAD PUSH2 0x106D SWAP3 SWAP2 SWAP1 PUSH2 0x2F85 JUMP JUMPDEST PUSH1 0x40 MLOAD DUP1 SWAP2 SUB SWAP1 LOG1 POP POP POP JUMP JUMPDEST PUSH1 0xA DUP1 SLOAD PUSH2 0x96B SWAP1 PUSH2 0x2C7B JUMP JUMPDEST PUSH1 0xC DUP1 SLOAD PUSH2 0x96B SWAP1 PUSH2 0x2C7B JUMP JUMPDEST PUSH1 0x0 DUP1 MLOAD PUSH1 0x20 PUSH2 0x31B7 DUP4 CODECOPY DUP2 MLOAD SWAP2 MSTORE PUSH2 0x10AC DUP2 PUSH2 0x171D JUMP JUMPDEST PUSH2 0xC6E PUSH2 0x1AAD JUMP JUMPDEST PUSH1 0x0 DUP1 MLOAD PUSH1 0x20 PUSH2 0x31B7 DUP4 CODECOPY DUP2 MLOAD SWAP2 MSTORE PUSH2 0x10CC DUP2 PUSH2 0x171D JUMP JUMPDEST PUSH1 0x0 DUP4 DUP2 MSTORE PUSH1 0x11 PUSH1 0x20 MSTORE PUSH1 0x40 SWAP1 KECCAK256 DUP1 SLOAD PUSH2 0x10E5 SWAP1 PUSH2 0x2C7B JUMP JUMPDEST SWAP1 POP PUSH1 0x0 SUB PUSH2 0x1106 JUMPI PUSH1 0x40 MLOAD PUSH3 0x461BCD PUSH1 0xE5 SHL DUP2 MSTORE PUSH1 0x4 ADD PUSH2 0x714 SWAP1 PUSH2 0x2CB5 JUMP JUMPDEST PUSH1 0x0 DUP4 DUP2 MSTORE PUSH1 0x11 PUSH1 0x20 SWAP1 DUP2 MSTORE PUSH1 0x40 SWAP2 DUP3 SWAP1 KECCAK256 PUSH1 0x3 ADD DUP1 SLOAD PUSH1 0xFF NOT AND DUP6 ISZERO ISZERO SWAP1 DUP2 OR SWAP1 SWAP2 SSTORE SWAP2 MLOAD SWAP2 DUP3 MSTORE DUP5 SWAP2 PUSH32 0xC28B90A416FF3B17C6686905293AE1F597BE96B9AD4488F3DCC48A7FE4043A73 SWAP2 ADD PUSH2 0x1009 JUMP JUMPDEST PUSH1 0x0 SWAP2 DUP3 MSTORE PUSH1 0x5 PUSH1 0x20 SWAP1 DUP2 MSTORE PUSH1 0x40 DUP1 DUP5 KECCAK256 PUSH1 0x1 PUSH1 0x1 PUSH1 0xA0 SHL SUB SWAP4 SWAP1 SWAP4 AND DUP5 MSTORE SWAP2 SWAP1 MSTORE SWAP1 KECCAK256 SLOAD PUSH1 0xFF AND SWAP1 JUMP JUMPDEST PUSH1 0x0 DUP1 PUSH2 0x1191 DUP4 DUP6 PUSH2 0x692 JUMP JUMPDEST PUSH1 0x0 DUP6 DUP2 MSTORE PUSH1 0x12 PUSH1 0x20 SWAP1 DUP2 MSTORE PUSH1 0x40 DUP1 DUP4 KECCAK256 SLOAD PUSH1 0x13 DUP4 MSTORE DUP2 DUP5 KECCAK256 PUSH1 0x1 PUSH1 0x1 PUSH1 0xA0 SHL SUB DUP10 AND DUP6 MSTORE SWAP1 SWAP3 MSTORE DUP3 KECCAK256 SLOAD SWAP3 SWAP4 POP SWAP2 SWAP1 DUP4 ISZERO DUP1 ISZERO SWAP1 PUSH2 0x11CF JUMPI POP DUP2 DUP4 GT JUMPDEST ISZERO PUSH2 0x11FE JUMPI PUSH8 0xDE0B6B3A7640000 PUSH2 0x11E7 DUP4 DUP6 PUSH2 0x2FA1 JUMP JUMPDEST PUSH2 0x11F1 SWAP1 DUP7 PUSH2 0x2D12 JUMP JUMPDEST PUSH2 0x11FB SWAP2 SWAP1 PUSH2 0x2D29 JUMP JUMPDEST SWAP1 POP JUMPDEST PUSH1 0x0 DUP8 DUP2 MSTORE PUSH1 0x14 PUSH1 0x20 SWAP1 DUP2 MSTORE PUSH1 0x40 DUP1 DUP4 KECCAK256 PUSH1 0x1 PUSH1 0x1 PUSH1 0xA0 SHL SUB DUP11 AND DUP5 MSTORE SWAP1 SWAP2 MSTORE SWAP1 KECCAK256 SLOAD PUSH2 0x122C SWAP1 DUP3 SWAP1 PUSH2 0x2D4B JUMP JUMPDEST SWAP8 SWAP7 POP POP POP POP POP POP POP JUMP JUMPDEST PUSH2 0x1242 CALLER DUP4 DUP4 PUSH2 0x1AEA JUMP JUMPDEST POP POP JUMP JUMPDEST PUSH1 0x0 DUP1 MLOAD PUSH1 0x20 PUSH2 0x31B7 DUP4 CODECOPY DUP2 MLOAD SWAP2 MSTORE PUSH2 0x125E DUP2 PUSH2 0x171D JUMP JUMPDEST PUSH1 0x1 PUSH1 0x1 PUSH1 0xA0 SHL SUB DUP4 AND PUSH1 0x0 DUP2 DUP2 MSTORE PUSH1 0xE PUSH1 0x20 SWAP1 DUP2 MSTORE PUSH1 0x40 SWAP2 DUP3 SWAP1 KECCAK256 DUP1 SLOAD PUSH1 0xFF NOT AND DUP7 ISZERO ISZERO SWAP1 DUP2 OR SWAP1 SWAP2 SSTORE SWAP2 MLOAD SWAP2 DUP3 MSTORE PUSH32 0x3FDF348E931ECA704DCFA3857F82AF4904EBC7A2898428F61B37252A2CC71D2A SWAP2 ADD PUSH2 0x1009 JUMP JUMPDEST PUSH1 0x8 DUP1 SLOAD PUSH2 0x96B SWAP1 PUSH2 0x2C7B JUMP JUMPDEST PUSH1 0x0 DUP1 MLOAD PUSH1 0x20 PUSH2 0x31B7 DUP4 CODECOPY DUP2 MLOAD SWAP2 MSTORE PUSH2 0x12DB DUP2 PUSH2 0x171D JUMP JUMPDEST PUSH1 0x1 PUSH1 0x1 PUSH1 0xA0 SHL SUB DUP4 AND PUSH1 0x0 DUP2 DUP2 MSTORE PUSH1 0xF PUSH1 0x20 SWAP1 DUP2 MSTORE PUSH1 0x40 SWAP2 DUP3 SWAP1 KECCAK256 DUP1 SLOAD PUSH1 0xFF NOT AND DUP7 ISZERO ISZERO SWAP1 DUP2 OR SWAP1 SWAP2 SSTORE SWAP2 MLOAD SWAP2 DUP3 MSTORE PUSH32 0x6A12B3DF6CBA4203BD7FD06B816789F87DE8C594299AED5717AE070FAC781BAC SWAP2 ADD PUSH2 0x1009 JUMP JUMPDEST PUSH1 0x0 DUP3 DUP2 MSTORE PUSH1 0x5 PUSH1 0x20 MSTORE PUSH1 0x40 SWAP1 KECCAK256 PUSH1 0x1 ADD SLOAD PUSH2 0x134E DUP2 PUSH2 0x171D JUMP JUMPDEST PUSH2 0xA78 DUP4 DUP4 PUSH2 0x18B4 JUMP JUMPDEST PUSH1 0x15 SLOAD PUSH1 0xFF AND ISZERO PUSH2 0x13A1 JUMPI PUSH1 0x40 MLOAD PUSH3 0x461BCD PUSH1 0xE5 SHL DUP2 MSTORE PUSH1 0x20 PUSH1 0x4 DUP3 ADD MSTORE PUSH1 0x13 PUSH1 0x24 DUP3 ADD MSTORE PUSH19 0x185B1C9958591E481A5B9A5D1A585B1A5E9959 PUSH1 0x6A SHL PUSH1 0x44 DUP3 ADD MSTORE PUSH1 0x64 ADD PUSH2 0x714 JUMP JUMPDEST PUSH1 0x15 DUP1 SLOAD PUSH1 0xFF NOT AND PUSH1 0x1 OR SWAP1 SSTORE PUSH1 0x8 PUSH2 0x13BB DUP9 DUP11 DUP4 PUSH2 0x2E9D JUMP JUMPDEST POP PUSH1 0x9 PUSH2 0x13C9 DUP7 DUP9 DUP4 PUSH2 0x2E9D JUMP JUMPDEST POP PUSH1 0xA PUSH2 0x13D7 DUP5 DUP7 DUP4 PUSH2 0x2E9D JUMP JUMPDEST POP PUSH1 0xB DUP1 SLOAD PUSH1 0x1 PUSH1 0x1 PUSH1 0xA0 SHL SUB NOT AND PUSH1 0x1 PUSH1 0x1 PUSH1 0xA0 SHL SUB DUP5 AND OR SWAP1 SSTORE PUSH2 0x13FE PUSH1 0x0 DUP3 PUSH2 0x1820 JUMP JUMPDEST POP PUSH2 0x1417 PUSH1 0x0 DUP1 MLOAD PUSH1 0x20 PUSH2 0x31B7 DUP4 CODECOPY DUP2 MLOAD SWAP2 MSTORE DUP3 PUSH2 0x1820 JUMP JUMPDEST POP PUSH2 0x1430 PUSH1 0x0 DUP1 MLOAD PUSH1 0x20 PUSH2 0x3197 DUP4 CODECOPY DUP2 MLOAD SWAP2 MSTORE DUP3 PUSH2 0x1820 JUMP JUMPDEST POP PUSH1 0x1 PUSH1 0x1 PUSH1 0xA0 SHL SUB AND PUSH1 0x0 SWAP1 DUP2 MSTORE PUSH1 0xD PUSH1 0x20 MSTORE PUSH1 0x40 SWAP1 KECCAK256 DUP1 SLOAD PUSH1 0xFF NOT AND PUSH1 0x1 SWAP1 DUP2 OR SWAP1 SWAP2 SSTORE PUSH1 0x10 SSTORE POP POP POP POP POP POP POP JUMP JUMPDEST PUSH1 0x11 PUSH1 0x20 MSTORE PUSH1 0x0 SWAP1 DUP2 MSTORE PUSH1 0x40 SWAP1 KECCAK256 DUP1 SLOAD DUP2 SWAP1 PUSH2 0x147D SWAP1 PUSH2 0x2C7B JUMP JUMPDEST DUP1 PUSH1 0x1F ADD PUSH1 0x20 DUP1 SWAP2 DIV MUL PUSH1 0x20 ADD PUSH1 0x40 MLOAD SWAP1 DUP2 ADD PUSH1 0x40 MSTORE DUP1 SWAP3 SWAP2 SWAP1 DUP2 DUP2 MSTORE PUSH1 0x20 ADD DUP3 DUP1 SLOAD PUSH2 0x14A9 SWAP1 PUSH2 0x2C7B JUMP JUMPDEST DUP1 ISZERO PUSH2 0x14F6 JUMPI DUP1 PUSH1 0x1F LT PUSH2 0x14CB JUMPI PUSH2 0x100 DUP1 DUP4 SLOAD DIV MUL DUP4 MSTORE SWAP2 PUSH1 0x20 ADD SWAP2 PUSH2 0x14F6 JUMP JUMPDEST DUP3 ADD SWAP2 SWAP1 PUSH1 0x0 MSTORE PUSH1 0x20 PUSH1 0x0 KECCAK256 SWAP1 JUMPDEST DUP2 SLOAD DUP2 MSTORE SWAP1 PUSH1 0x1 ADD SWAP1 PUSH1 0x20 ADD DUP1 DUP4 GT PUSH2 0x14D9 JUMPI DUP3 SWAP1 SUB PUSH1 0x1F AND DUP3 ADD SWAP2 JUMPDEST POP POP POP POP PUSH1 0x1 DUP4 ADD SLOAD PUSH1 0x2 DUP5 ADD SLOAD PUSH1 0x3 SWAP1 SWAP5 ADD SLOAD SWAP3 SWAP4 SWAP1 SWAP3 SWAP1 SWAP2 POP PUSH1 0xFF AND DUP5 JUMP JUMPDEST PUSH1 0x1 PUSH1 0x1 PUSH1 0xA0 SHL SUB SWAP2 DUP3 AND PUSH1 0x0 SWAP1 DUP2 MSTORE PUSH1 0x1 PUSH1 0x20 SWAP1 DUP2 MSTORE PUSH1 0x40 DUP1 DUP4 KECCAK256 SWAP4 SWAP1 SWAP5 AND DUP3 MSTORE SWAP2 SWAP1 SWAP2 MSTORE KECCAK256 SLOAD PUSH1 0xFF AND SWAP1 JUMP JUMPDEST CALLER PUSH1 0x1 PUSH1 0x1 PUSH1 0xA0 SHL SUB DUP7 AND DUP2 EQ DUP1 ISZERO SWAP1 PUSH2 0x1566 JUMPI POP PUSH2 0x1564 DUP7 DUP3 PUSH2 0x1517 JUMP JUMPDEST ISZERO JUMPDEST ISZERO PUSH2 0x1597 JUMPI PUSH1 0x40 MLOAD PUSH4 0x711BEC91 PUSH1 0xE1 SHL DUP2 MSTORE PUSH1 0x1 PUSH1 0x1 PUSH1 0xA0 SHL SUB DUP1 DUP4 AND PUSH1 0x4 DUP4 ADD MSTORE DUP8 AND PUSH1 0x24 DUP3 ADD MSTORE PUSH1 0x44 ADD PUSH2 0x714 JUMP JUMPDEST PUSH2 0xA4B DUP7 DUP7 DUP7 DUP7 DUP7 PUSH2 0x1B80 JUMP JUMPDEST PUSH1 0x0 PUSH1 0x0 DUP1 MLOAD PUSH1 0x20 PUSH2 0x3197 DUP4 CODECOPY DUP2 MLOAD SWAP2 MSTORE PUSH2 0x15BE DUP2 PUSH2 0x171D JUMP JUMPDEST PUSH1 0x0 DUP4 GT PUSH2 0x15FC JUMPI PUSH1 0x40 MLOAD PUSH3 0x461BCD PUSH1 0xE5 SHL DUP2 MSTORE PUSH1 0x20 PUSH1 0x4 DUP3 ADD MSTORE PUSH1 0xB PUSH1 0x24 DUP3 ADD MSTORE PUSH11 0x6D6178537570706C793D3 PUSH1 0xAC SHL PUSH1 0x44 DUP3 ADD MSTORE PUSH1 0x64 ADD PUSH2 0x714 JUMP JUMPDEST PUSH1 0x10 DUP1 SLOAD SWAP1 PUSH1 0x0 PUSH2 0x160C DUP4 PUSH2 0x2FB4 JUMP JUMPDEST SWAP1 SWAP2 SSTORE POP PUSH1 0x40 DUP1 MLOAD PUSH1 0xA0 PUSH1 0x20 PUSH1 0x1F DUP11 ADD DUP2 SWAP1 DIV MUL DUP3 ADD DUP2 ADD SWAP1 SWAP3 MSTORE PUSH1 0x80 DUP2 ADD DUP9 DUP2 MSTORE SWAP3 SWAP5 POP SWAP2 DUP3 SWAP2 DUP10 SWAP1 DUP10 SWAP1 DUP2 SWAP1 DUP6 ADD DUP4 DUP3 DUP1 DUP3 DUP5 CALLDATACOPY PUSH1 0x0 SWAP3 ADD DUP3 SWAP1 MSTORE POP SWAP4 DUP6 MSTORE POP POP POP PUSH1 0x20 DUP1 DUP4 ADD DUP9 SWAP1 MSTORE PUSH1 0x40 DUP1 DUP5 ADD DUP9 SWAP1 MSTORE PUSH1 0x1 PUSH1 0x60 SWAP1 SWAP5 ADD SWAP4 SWAP1 SWAP4 MSTORE DUP6 DUP3 MSTORE PUSH1 0x11 SWAP1 MSTORE KECCAK256 DUP2 MLOAD DUP2 SWAP1 PUSH2 0x1681 SWAP1 DUP3 PUSH2 0x2FCD JUMP JUMPDEST POP PUSH1 0x20 DUP3 ADD MLOAD PUSH1 0x1 DUP3 ADD SSTORE PUSH1 0x40 DUP1 DUP4 ADD MLOAD PUSH1 0x2 DUP4 ADD SSTORE PUSH1 0x60 SWAP1 SWAP3 ADD MLOAD PUSH1 0x3 SWAP1 SWAP2 ADD DUP1 SLOAD PUSH1 0xFF NOT AND SWAP2 ISZERO ISZERO SWAP2 SWAP1 SWAP2 OR SWAP1 SSTORE MLOAD DUP3 SWAP1 PUSH32 0xB0086EF6A899A5B335D43711CE99CD3531B617F30DB912AFE75841B84627A192 SWAP1 PUSH2 0x16E7 SWAP1 DUP10 SWAP1 DUP10 SWAP1 DUP10 SWAP1 DUP10 SWAP1 PUSH2 0x308C JUMP JUMPDEST PUSH1 0x40 MLOAD DUP1 SWAP2 SUB SWAP1 LOG2 POP SWAP5 SWAP4 POP POP POP POP JUMP JUMPDEST PUSH1 0x0 PUSH1 0x1 PUSH1 0x1 PUSH1 0xE0 SHL SUB NOT DUP3 AND PUSH4 0x7965DB0B PUSH1 0xE0 SHL EQ DUP1 PUSH2 0x6B4 JUMPI POP PUSH2 0x6B4 DUP3 PUSH2 0x1C0E JUMP JUMPDEST PUSH2 0xC6E DUP2 CALLER PUSH2 0x1C5E JUMP JUMPDEST PUSH1 0x60 PUSH1 0x0 PUSH2 0x1734 DUP4 PUSH2 0x1C97 JUMP JUMPDEST PUSH1 0x1 ADD SWAP1 POP PUSH1 0x0 DUP2 PUSH1 0x1 PUSH1 0x1 PUSH1 0x40 SHL SUB DUP2 GT ISZERO PUSH2 0x1753 JUMPI PUSH2 0x1753 PUSH2 0x2645 JUMP JUMPDEST PUSH1 0x40 MLOAD SWAP1 DUP1 DUP3 MSTORE DUP1 PUSH1 0x1F ADD PUSH1 0x1F NOT AND PUSH1 0x20 ADD DUP3 ADD PUSH1 0x40 MSTORE DUP1 ISZERO PUSH2 0x177D JUMPI PUSH1 0x20 DUP3 ADD DUP2 DUP1 CALLDATASIZE DUP4 CALLDATACOPY ADD SWAP1 POP JUMPDEST POP SWAP1 POP DUP2 DUP2 ADD PUSH1 0x20 ADD JUMPDEST PUSH1 0x0 NOT ADD PUSH16 0x181899199A1A9B1B9C1CB0B131B232B3 PUSH1 0x81 SHL PUSH1 0xA DUP7 MOD BYTE DUP2 MSTORE8 PUSH1 0xA DUP6 DIV SWAP5 POP DUP5 PUSH2 0x1787 JUMPI POP SWAP4 SWAP3 POP POP POP JUMP JUMPDEST PUSH1 0x1 PUSH1 0x1 PUSH1 0xA0 SHL SUB DUP5 AND PUSH2 0x17E3 JUMPI PUSH1 0x40 MLOAD PUSH4 0x2BFA23E7 PUSH1 0xE1 SHL DUP2 MSTORE PUSH1 0x0 PUSH1 0x4 DUP3 ADD MSTORE PUSH1 0x24 ADD PUSH2 0x714 JUMP JUMPDEST PUSH1 0x1 PUSH1 0x1 PUSH1 0xA0 SHL SUB DUP6 AND PUSH2 0x180C JUMPI PUSH1 0x40 MLOAD PUSH3 0x6A0D45 PUSH1 0xE2 SHL DUP2 MSTORE PUSH1 0x0 PUSH1 0x4 DUP3 ADD MSTORE PUSH1 0x24 ADD PUSH2 0x714 JUMP JUMPDEST PUSH2 0x1819 DUP6 DUP6 DUP6 DUP6 DUP6 PUSH2 0x1D6F JUMP JUMPDEST POP POP POP POP POP JUMP JUMPDEST PUSH1 0x0 PUSH2 0x182C DUP4 DUP4 PUSH2 0x1159 JUMP JUMPDEST PUSH2 0x18AC JUMPI PUSH1 0x0 DUP4 DUP2 MSTORE PUSH1 0x5 PUSH1 0x20 SWAP1 DUP2 MSTORE PUSH1 0x40 DUP1 DUP4 KECCAK256 PUSH1 0x1 PUSH1 0x1 PUSH1 0xA0 SHL SUB DUP7 AND DUP5 MSTORE SWAP1 SWAP2 MSTORE SWAP1 KECCAK256 DUP1 SLOAD PUSH1 0xFF NOT AND PUSH1 0x1 OR SWAP1 SSTORE PUSH2 0x1864 CALLER SWAP1 JUMP JUMPDEST PUSH1 0x1 PUSH1 0x1 PUSH1 0xA0 SHL SUB AND DUP3 PUSH1 0x1 PUSH1 0x1 PUSH1 0xA0 SHL SUB AND DUP5 PUSH32 0x2F8788117E7EFF1D82E926EC794901D17C78024A50270940304540A733656F0D PUSH1 0x40 MLOAD PUSH1 0x40 MLOAD DUP1 SWAP2 SUB SWAP1 LOG4 POP PUSH1 0x1 PUSH2 0x6B4 JUMP JUMPDEST POP PUSH1 0x0 PUSH2 0x6B4 JUMP JUMPDEST PUSH1 0x0 PUSH2 0x18C0 DUP4 DUP4 PUSH2 0x1159 JUMP JUMPDEST ISZERO PUSH2 0x18AC JUMPI PUSH1 0x0 DUP4 DUP2 MSTORE PUSH1 0x5 PUSH1 0x20 SWAP1 DUP2 MSTORE PUSH1 0x40 DUP1 DUP4 KECCAK256 PUSH1 0x1 PUSH1 0x1 PUSH1 0xA0 SHL SUB DUP7 AND DUP1 DUP6 MSTORE SWAP3 MSTORE DUP1 DUP4 KECCAK256 DUP1 SLOAD PUSH1 0xFF NOT AND SWAP1 SSTORE MLOAD CALLER SWAP3 DUP7 SWAP2 PUSH32 0xF6391F5C32D9C69D2A47EA670B442974B53935D1EDC7FD64EB21E047A839171B SWAP2 SWAP1 LOG4 POP PUSH1 0x1 PUSH2 0x6B4 JUMP JUMPDEST PUSH1 0x2 PUSH1 0x7 SLOAD SUB PUSH2 0x1944 JUMPI PUSH1 0x40 MLOAD PUSH4 0x3EE5AEB5 PUSH1 0xE0 SHL DUP2 MSTORE PUSH1 0x4 ADD PUSH1 0x40 MLOAD DUP1 SWAP2 SUB SWAP1 REVERT JUMPDEST PUSH1 0x2 PUSH1 0x7 SSTORE JUMP JUMPDEST PUSH1 0x6 SLOAD PUSH1 0xFF AND ISZERO PUSH2 0x196F JUMPI PUSH1 0x40 MLOAD PUSH4 0xD93C0665 PUSH1 0xE0 SHL DUP2 MSTORE PUSH1 0x4 ADD PUSH1 0x40 MLOAD DUP1 SWAP2 SUB SWAP1 REVERT JUMPDEST JUMP JUMPDEST PUSH1 0x1 PUSH1 0x1 PUSH1 0xA0 SHL SUB DUP2 AND PUSH1 0x0 SWAP1 DUP2 MSTORE PUSH1 0xF PUSH1 0x20 MSTORE PUSH1 0x40 DUP2 KECCAK256 SLOAD PUSH1 0xFF AND ISZERO PUSH2 0x199A JUMPI POP PUSH1 0x0 SWAP2 SWAP1 POP JUMP JUMPDEST PUSH1 0x1 PUSH1 0x1 PUSH1 0xA0 SHL SUB DUP3 AND PUSH1 0x0 SWAP1 DUP2 MSTORE PUSH1 0xE PUSH1 0x20 MSTORE PUSH1 0x40 SWAP1 KECCAK256 SLOAD PUSH1 0xFF AND ISZERO PUSH2 0x19C3 JUMPI POP PUSH1 0x0 SWAP2 SWAP1 POP JUMP JUMPDEST PUSH1 0x1 PUSH1 0x1 PUSH1 0xA0 SHL SUB DUP3 AND PUSH1 0x0 SWAP1 DUP2 MSTORE PUSH1 0xD PUSH1 0x20 MSTORE PUSH1 0x40 SWAP1 KECCAK256 SLOAD PUSH1 0xFF AND PUSH2 0x19EB JUMPI POP PUSH1 0x0 SWAP2 SWAP1 POP JUMP JUMPDEST POP PUSH1 0x1 SWAP2 SWAP1 POP JUMP JUMPDEST PUSH2 0x19FB PUSH2 0x1DC2 JUMP JUMPDEST PUSH1 0x6 DUP1 SLOAD PUSH1 0xFF NOT AND SWAP1 SSTORE PUSH32 0x5DB9EE0A495BF2E6FF9C91A7834C1BA4FDD244A5E8AA4E537BD38AEAE4B073AA CALLER JUMPDEST PUSH1 0x40 MLOAD PUSH1 0x1 PUSH1 0x1 PUSH1 0xA0 SHL SUB SWAP1 SWAP2 AND DUP2 MSTORE PUSH1 0x20 ADD PUSH1 0x40 MLOAD DUP1 SWAP2 SUB SWAP1 LOG1 JUMP JUMPDEST PUSH1 0x0 PUSH2 0x6B4 DUP3 PUSH2 0x1971 JUMP JUMPDEST PUSH1 0x1 PUSH1 0x1 PUSH1 0xA0 SHL SUB DUP5 AND PUSH2 0x1A7A JUMPI PUSH1 0x40 MLOAD PUSH4 0x2BFA23E7 PUSH1 0xE1 SHL DUP2 MSTORE PUSH1 0x0 PUSH1 0x4 DUP3 ADD MSTORE PUSH1 0x24 ADD PUSH2 0x714 JUMP JUMPDEST PUSH1 0x40 DUP1 MLOAD PUSH1 0x1 DUP1 DUP3 MSTORE PUSH1 0x20 DUP3 ADD DUP7 SWAP1 MSTORE DUP2 DUP4 ADD SWAP1 DUP2 MSTORE PUSH1 0x60 DUP3 ADD DUP6 SWAP1 MSTORE PUSH1 0x80 DUP3 ADD SWAP1 SWAP3 MSTORE SWAP1 PUSH2 0xA4B PUSH1 0x0 DUP8 DUP5 DUP5 DUP8 PUSH2 0x1D6F JUMP JUMPDEST PUSH2 0x1AB5 PUSH2 0x194B JUMP JUMPDEST PUSH1 0x6 DUP1 SLOAD PUSH1 0xFF NOT AND PUSH1 0x1 OR SWAP1 SSTORE PUSH32 0x62E78CEA01BEE320CD4E420270B5EA74000D11B0C9F74754EBDBFC544B05A258 PUSH2 0x1A28 CALLER SWAP1 JUMP JUMPDEST PUSH1 0x1 PUSH1 0x1 PUSH1 0xA0 SHL SUB DUP3 AND PUSH2 0x1B13 JUMPI PUSH1 0x40 MLOAD PUSH3 0xCED3E1 PUSH1 0xE8 SHL DUP2 MSTORE PUSH1 0x0 PUSH1 0x4 DUP3 ADD MSTORE PUSH1 0x24 ADD PUSH2 0x714 JUMP JUMPDEST PUSH1 0x1 PUSH1 0x1 PUSH1 0xA0 SHL SUB DUP4 DUP2 AND PUSH1 0x0 DUP2 DUP2 MSTORE PUSH1 0x1 PUSH1 0x20 SWAP1 DUP2 MSTORE PUSH1 0x40 DUP1 DUP4 KECCAK256 SWAP5 DUP8 AND DUP1 DUP5 MSTORE SWAP5 DUP3 MSTORE SWAP2 DUP3 SWAP1 KECCAK256 DUP1 SLOAD PUSH1 0xFF NOT AND DUP7 ISZERO ISZERO SWAP1 DUP2 OR SWAP1 SWAP2 SSTORE SWAP2 MLOAD SWAP2 DUP3 MSTORE PUSH32 0x17307EAB39AB6107E8899845AD3D59BD9653F200F220920489CA2B5937696C31 SWAP2 ADD PUSH1 0x40 MLOAD DUP1 SWAP2 SUB SWAP1 LOG3 POP POP POP JUMP JUMPDEST PUSH1 0x1 PUSH1 0x1 PUSH1 0xA0 SHL SUB DUP5 AND PUSH2 0x1BAA JUMPI PUSH1 0x40 MLOAD PUSH4 0x2BFA23E7 PUSH1 0xE1 SHL DUP2 MSTORE PUSH1 0x0 PUSH1 0x4 DUP3 ADD MSTORE PUSH1 0x24 ADD PUSH2 0x714 JUMP JUMPDEST PUSH1 0x1 PUSH1 0x1 PUSH1 0xA0 SHL SUB DUP6 AND PUSH2 0x1BD3 JUMPI PUSH1 0x40 MLOAD PUSH3 0x6A0D45 PUSH1 0xE2 SHL DUP2 MSTORE PUSH1 0x0 PUSH1 0x4 DUP3 ADD MSTORE PUSH1 0x24 ADD PUSH2 0x714 JUMP JUMPDEST PUSH1 0x40 DUP1 MLOAD PUSH1 0x1 DUP1 DUP3 MSTORE PUSH1 0x20 DUP3 ADD DUP7 SWAP1 MSTORE DUP2 DUP4 ADD SWAP1 DUP2 MSTORE PUSH1 0x60 DUP3 ADD DUP6 SWAP1 MSTORE PUSH1 0x80 DUP3 ADD SWAP1 SWAP3 MSTORE SWAP1 PUSH2 0x1C05 DUP8 DUP8 DUP5 DUP5 DUP8 PUSH2 0x1D6F JUMP JUMPDEST POP POP POP POP POP POP POP JUMP JUMPDEST PUSH1 0x0 PUSH1 0x1 PUSH1 0x1 PUSH1 0xE0 SHL SUB NOT DUP3 AND PUSH4 0x6CDB3D13 PUSH1 0xE1 SHL EQ DUP1 PUSH2 0x1C3F JUMPI POP PUSH1 0x1 PUSH1 0x1 PUSH1 0xE0 SHL SUB NOT DUP3 AND PUSH4 0x3A24D07 PUSH1 0xE2 SHL EQ JUMPDEST DUP1 PUSH2 0x6B4 JUMPI POP PUSH4 0x1FFC9A7 PUSH1 0xE0 SHL PUSH1 0x1 PUSH1 0x1 PUSH1 0xE0 SHL SUB NOT DUP4 AND EQ PUSH2 0x6B4 JUMP JUMPDEST PUSH2 0x1C68 DUP3 DUP3 PUSH2 0x1159 JUMP JUMPDEST PUSH2 0x1242 JUMPI PUSH1 0x40 MLOAD PUSH4 0xE2517D3F PUSH1 0xE0 SHL DUP2 MSTORE PUSH1 0x1 PUSH1 0x1 PUSH1 0xA0 SHL SUB DUP3 AND PUSH1 0x4 DUP3 ADD MSTORE PUSH1 0x24 DUP2 ADD DUP4 SWAP1 MSTORE PUSH1 0x44 ADD PUSH2 0x714 JUMP JUMPDEST PUSH1 0x0 DUP1 PUSH19 0x184F03E93FF9F4DAA797ED6E38ED64BF6A1F01 PUSH1 0x40 SHL DUP4 LT PUSH2 0x1CD6 JUMPI PUSH19 0x184F03E93FF9F4DAA797ED6E38ED64BF6A1F01 PUSH1 0x40 SHL DUP4 DIV SWAP3 POP PUSH1 0x40 ADD JUMPDEST PUSH14 0x4EE2D6D415B85ACEF8100000000 DUP4 LT PUSH2 0x1D02 JUMPI PUSH14 0x4EE2D6D415B85ACEF8100000000 DUP4 DIV SWAP3 POP PUSH1 0x20 ADD JUMPDEST PUSH7 0x2386F26FC10000 DUP4 LT PUSH2 0x1D20 JUMPI PUSH7 0x2386F26FC10000 DUP4 DIV SWAP3 POP PUSH1 0x10 ADD JUMPDEST PUSH4 0x5F5E100 DUP4 LT PUSH2 0x1D38 JUMPI PUSH4 0x5F5E100 DUP4 DIV SWAP3 POP PUSH1 0x8 ADD JUMPDEST PUSH2 0x2710 DUP4 LT PUSH2 0x1D4C JUMPI PUSH2 0x2710 DUP4 DIV SWAP3 POP PUSH1 0x4 ADD JUMPDEST PUSH1 0x64 DUP4 LT PUSH2 0x1D5E JUMPI PUSH1 0x64 DUP4 DIV SWAP3 POP PUSH1 0x2 ADD JUMPDEST PUSH1 0xA DUP4 LT PUSH2 0x6B4 JUMPI PUSH1 0x1 ADD SWAP3 SWAP2 POP POP JUMP JUMPDEST PUSH2 0x1D7B DUP6 DUP6 DUP6 DUP6 PUSH2 0x1DE5 JUMP JUMPDEST PUSH1 0x1 PUSH1 0x1 PUSH1 0xA0 SHL SUB DUP5 AND ISZERO PUSH2 0x1819 JUMPI DUP3 MLOAD CALLER SWAP1 PUSH1 0x1 SUB PUSH2 0x1DB4 JUMPI PUSH1 0x20 DUP5 DUP2 ADD MLOAD SWAP1 DUP5 ADD MLOAD PUSH2 0x1DAD DUP4 DUP10 DUP10 DUP6 DUP6 DUP10 PUSH2 0x1F2B JUMP JUMPDEST POP POP PUSH2 0xA4B JUMP JUMPDEST PUSH2 0xA4B DUP2 DUP8 DUP8 DUP8 DUP8 DUP8 PUSH2 0x204F JUMP JUMPDEST PUSH1 0x6 SLOAD PUSH1 0xFF AND PUSH2 0x196F JUMPI PUSH1 0x40 MLOAD PUSH4 0x8DFC202B PUSH1 0xE0 SHL DUP2 MSTORE PUSH1 0x4 ADD PUSH1 0x40 MLOAD DUP1 SWAP2 SUB SWAP1 REVERT JUMPDEST PUSH2 0x1DED PUSH2 0x194B JUMP JUMPDEST PUSH1 0x0 JUMPDEST DUP3 MLOAD DUP2 LT ISZERO PUSH2 0x1E5D JUMPI PUSH1 0x0 DUP4 DUP3 DUP2 MLOAD DUP2 LT PUSH2 0x1E0D JUMPI PUSH2 0x1E0D PUSH2 0x2E3F JUMP JUMPDEST PUSH1 0x20 MUL PUSH1 0x20 ADD ADD MLOAD SWAP1 POP PUSH1 0x0 PUSH1 0x1 PUSH1 0x1 PUSH1 0xA0 SHL SUB AND DUP7 PUSH1 0x1 PUSH1 0x1 PUSH1 0xA0 SHL SUB AND EQ PUSH2 0x1E3B JUMPI PUSH2 0x1E3B DUP2 DUP8 PUSH2 0x2138 JUMP JUMPDEST PUSH1 0x1 PUSH1 0x1 PUSH1 0xA0 SHL SUB DUP6 AND ISZERO PUSH2 0x1E54 JUMPI PUSH2 0x1E54 DUP2 DUP7 PUSH2 0x2138 JUMP JUMPDEST POP PUSH1 0x1 ADD PUSH2 0x1DF0 JUMP JUMPDEST POP PUSH1 0x1 PUSH1 0x1 PUSH1 0xA0 SHL SUB DUP5 AND PUSH2 0x1EA2 JUMPI PUSH2 0x1E75 DUP4 PUSH2 0x1A45 JUMP JUMPDEST PUSH2 0x1E91 JUMPI PUSH1 0x40 MLOAD PUSH3 0x461BCD PUSH1 0xE5 SHL DUP2 MSTORE PUSH1 0x4 ADD PUSH2 0x714 SWAP1 PUSH2 0x2E11 JUMP JUMPDEST PUSH2 0x1E9D DUP5 DUP5 DUP5 DUP5 PUSH2 0x2227 JUMP JUMPDEST PUSH2 0xA78 JUMP JUMPDEST PUSH1 0x1 PUSH1 0x1 PUSH1 0xA0 SHL SUB DUP4 AND PUSH2 0x1ED5 JUMPI PUSH2 0x1EB9 DUP5 PUSH2 0x1971 JUMP JUMPDEST PUSH2 0x1E91 JUMPI PUSH1 0x40 MLOAD PUSH3 0x461BCD PUSH1 0xE5 SHL DUP2 MSTORE PUSH1 0x4 ADD PUSH2 0x714 SWAP1 PUSH2 0x2DE5 JUMP JUMPDEST PUSH2 0x1EDE DUP5 PUSH2 0x1971 JUMP JUMPDEST PUSH2 0x1EFA JUMPI PUSH1 0x40 MLOAD PUSH3 0x461BCD PUSH1 0xE5 SHL DUP2 MSTORE PUSH1 0x4 ADD PUSH2 0x714 SWAP1 PUSH2 0x2DE5 JUMP JUMPDEST PUSH2 0x1F03 DUP4 PUSH2 0x1A45 JUMP JUMPDEST PUSH2 0x1F1F JUMPI PUSH1 0x40 MLOAD PUSH3 0x461BCD PUSH1 0xE5 SHL DUP2 MSTORE PUSH1 0x4 ADD PUSH2 0x714 SWAP1 PUSH2 0x2E11 JUMP JUMPDEST PUSH2 0xA78 DUP5 DUP5 DUP5 DUP5 PUSH2 0x2227 JUMP JUMPDEST PUSH1 0x1 PUSH1 0x1 PUSH1 0xA0 SHL SUB DUP5 AND EXTCODESIZE ISZERO PUSH2 0xA4B JUMPI PUSH1 0x40 MLOAD PUSH4 0xF23A6E61 PUSH1 0xE0 SHL DUP2 MSTORE PUSH1 0x1 PUSH1 0x1 PUSH1 0xA0 SHL SUB DUP6 AND SWAP1 PUSH4 0xF23A6E61 SWAP1 PUSH2 0x1F6F SWAP1 DUP10 SWAP1 DUP10 SWAP1 DUP9 SWAP1 DUP9 SWAP1 DUP9 SWAP1 PUSH1 0x4 ADD PUSH2 0x30B3 JUMP JUMPDEST PUSH1 0x20 PUSH1 0x40 MLOAD DUP1 DUP4 SUB DUP2 PUSH1 0x0 DUP8 GAS CALL SWAP3 POP POP POP DUP1 ISZERO PUSH2 0x1FAA JUMPI POP PUSH1 0x40 DUP1 MLOAD PUSH1 0x1F RETURNDATASIZE SWAP1 DUP2 ADD PUSH1 0x1F NOT AND DUP3 ADD SWAP1 SWAP3 MSTORE PUSH2 0x1FA7 SWAP2 DUP2 ADD SWAP1 PUSH2 0x30ED JUMP JUMPDEST PUSH1 0x1 JUMPDEST PUSH2 0x2013 JUMPI RETURNDATASIZE DUP1 DUP1 ISZERO PUSH2 0x1FD8 JUMPI PUSH1 0x40 MLOAD SWAP2 POP PUSH1 0x1F NOT PUSH1 0x3F RETURNDATASIZE ADD AND DUP3 ADD PUSH1 0x40 MSTORE RETURNDATASIZE DUP3 MSTORE RETURNDATASIZE PUSH1 0x0 PUSH1 0x20 DUP5 ADD RETURNDATACOPY PUSH2 0x1FDD JUMP JUMPDEST PUSH1 0x60 SWAP2 POP JUMPDEST POP DUP1 MLOAD PUSH1 0x0 SUB PUSH2 0x200B JUMPI PUSH1 0x40 MLOAD PUSH4 0x2BFA23E7 PUSH1 0xE1 SHL DUP2 MSTORE PUSH1 0x1 PUSH1 0x1 PUSH1 0xA0 SHL SUB DUP7 AND PUSH1 0x4 DUP3 ADD MSTORE PUSH1 0x24 ADD PUSH2 0x714 JUMP JUMPDEST DUP1 MLOAD PUSH1 0x20 DUP3 ADD REVERT JUMPDEST PUSH1 0x1 PUSH1 0x1 PUSH1 0xE0 SHL SUB NOT DUP2 AND PUSH4 0xF23A6E61 PUSH1 0xE0 SHL EQ PUSH2 0x1C05 JUMPI PUSH1 0x40 MLOAD PUSH4 0x2BFA23E7 PUSH1 0xE1 SHL DUP2 MSTORE PUSH1 0x1 PUSH1 0x1 PUSH1 0xA0 SHL SUB DUP7 AND PUSH1 0x4 DUP3 ADD MSTORE PUSH1 0x24 ADD PUSH2 0x714 JUMP JUMPDEST PUSH1 0x1 PUSH1 0x1 PUSH1 0xA0 SHL SUB DUP5 AND EXTCODESIZE ISZERO PUSH2 0xA4B JUMPI PUSH1 0x40 MLOAD PUSH4 0xBC197C81 PUSH1 0xE0 SHL DUP2 MSTORE PUSH1 0x1 PUSH1 0x1 PUSH1 0xA0 SHL SUB DUP6 AND SWAP1 PUSH4 0xBC197C81 SWAP1 PUSH2 0x2093 SWAP1 DUP10 SWAP1 DUP10 SWAP1 DUP9 SWAP1 DUP9 SWAP1 DUP9 SWAP1 PUSH1 0x4 ADD PUSH2 0x310A JUMP JUMPDEST PUSH1 0x20 PUSH1 0x40 MLOAD DUP1 DUP4 SUB DUP2 PUSH1 0x0 DUP8 GAS CALL SWAP3 POP POP POP DUP1 ISZERO PUSH2 0x20CE JUMPI POP PUSH1 0x40 DUP1 MLOAD PUSH1 0x1F RETURNDATASIZE SWAP1 DUP2 ADD PUSH1 0x1F NOT AND DUP3 ADD SWAP1 SWAP3 MSTORE PUSH2 0x20CB SWAP2 DUP2 ADD SWAP1 PUSH2 0x30ED JUMP JUMPDEST PUSH1 0x1 JUMPDEST PUSH2 0x20FC JUMPI RETURNDATASIZE DUP1 DUP1 ISZERO PUSH2 0x1FD8 JUMPI PUSH1 0x40 MLOAD SWAP2 POP PUSH1 0x1F NOT PUSH1 0x3F RETURNDATASIZE ADD AND DUP3 ADD PUSH1 0x40 MSTORE RETURNDATASIZE DUP3 MSTORE RETURNDATASIZE PUSH1 0x0 PUSH1 0x20 DUP5 ADD RETURNDATACOPY PUSH2 0x1FDD JUMP JUMPDEST PUSH1 0x1 PUSH1 0x1 PUSH1 0xE0 SHL SUB NOT DUP2 AND PUSH4 0xBC197C81 PUSH1 0xE0 SHL EQ PUSH2 0x1C05 JUMPI PUSH1 0x40 MLOAD PUSH4 0x2BFA23E7 PUSH1 0xE1 SHL DUP2 MSTORE PUSH1 0x1 PUSH1 0x1 PUSH1 0xA0 SHL SUB DUP7 AND PUSH1 0x4 DUP3 ADD MSTORE PUSH1 0x24 ADD PUSH2 0x714 JUMP JUMPDEST PUSH1 0x1 PUSH1 0x1 PUSH1 0xA0 SHL SUB DUP2 AND PUSH2 0x214A JUMPI POP POP JUMP JUMPDEST PUSH1 0x0 PUSH2 0x2156 DUP3 DUP5 PUSH2 0x692 JUMP JUMPDEST PUSH1 0x0 DUP5 DUP2 MSTORE PUSH1 0x12 PUSH1 0x20 SWAP1 DUP2 MSTORE PUSH1 0x40 DUP1 DUP4 KECCAK256 SLOAD PUSH1 0x13 DUP4 MSTORE DUP2 DUP5 KECCAK256 PUSH1 0x1 PUSH1 0x1 PUSH1 0xA0 SHL SUB DUP9 AND DUP6 MSTORE SWAP1 SWAP3 MSTORE SWAP1 SWAP2 KECCAK256 SLOAD SWAP2 SWAP3 POP SWAP1 DUP3 ISZERO DUP1 ISZERO SWAP1 PUSH2 0x2194 JUMPI POP DUP1 DUP3 GT JUMPDEST ISZERO PUSH2 0x21FD JUMPI PUSH1 0x0 PUSH2 0x21A5 DUP3 DUP5 PUSH2 0x2FA1 JUMP JUMPDEST SWAP1 POP PUSH8 0xDE0B6B3A7640000 PUSH2 0x21BA DUP3 DUP7 PUSH2 0x2D12 JUMP JUMPDEST PUSH2 0x21C4 SWAP2 SWAP1 PUSH2 0x2D29 JUMP JUMPDEST PUSH1 0x0 DUP8 DUP2 MSTORE PUSH1 0x14 PUSH1 0x20 SWAP1 DUP2 MSTORE PUSH1 0x40 DUP1 DUP4 KECCAK256 PUSH1 0x1 PUSH1 0x1 PUSH1 0xA0 SHL SUB DUP11 AND DUP5 MSTORE SWAP1 SWAP2 MSTORE DUP2 KECCAK256 DUP1 SLOAD SWAP1 SWAP2 SWAP1 PUSH2 0x21F6 SWAP1 DUP5 SWAP1 PUSH2 0x2D4B JUMP JUMPDEST SWAP1 SWAP2 SSTORE POP POP POP JUMPDEST POP PUSH1 0x0 SWAP4 DUP5 MSTORE PUSH1 0x13 PUSH1 0x20 SWAP1 DUP2 MSTORE PUSH1 0x40 DUP1 DUP7 KECCAK256 PUSH1 0x1 PUSH1 0x1 PUSH1 0xA0 SHL SUB SWAP1 SWAP6 AND DUP7 MSTORE SWAP4 SWAP1 MSTORE SWAP2 SWAP1 SWAP3 KECCAK256 SSTORE POP JUMP JUMPDEST PUSH2 0x2233 DUP5 DUP5 DUP5 DUP5 PUSH2 0x2313 JUMP JUMPDEST PUSH1 0x1 PUSH1 0x1 PUSH1 0xA0 SHL SUB DUP5 AND PUSH2 0x22B3 JUMPI PUSH1 0x0 DUP1 JUMPDEST DUP4 MLOAD DUP2 LT ISZERO PUSH2 0x2299 JUMPI PUSH1 0x20 DUP2 DUP2 MUL DUP5 DUP2 ADD DUP3 ADD MLOAD SWAP1 DUP7 ADD DUP3 ADD MLOAD PUSH1 0x0 SWAP1 DUP2 MSTORE PUSH1 0x3 SWAP1 SWAP3 MSTORE PUSH1 0x40 DUP3 KECCAK256 DUP1 SLOAD SWAP2 SWAP3 DUP4 SWAP3 PUSH2 0x227E SWAP1 DUP5 SWAP1 PUSH2 0x2D4B JUMP JUMPDEST SWAP1 SWAP2 SSTORE POP PUSH2 0x228E SWAP1 POP DUP2 DUP5 PUSH2 0x2D4B JUMP JUMPDEST SWAP3 POP POP PUSH1 0x1 ADD PUSH2 0x2245 JUMP JUMPDEST POP DUP1 PUSH1 0x4 PUSH1 0x0 DUP3 DUP3 SLOAD PUSH2 0x22AC SWAP2 SWAP1 PUSH2 0x2D4B JUMP JUMPDEST SWAP1 SWAP2 SSTORE POP POP POP JUMPDEST PUSH1 0x1 PUSH1 0x1 PUSH1 0xA0 SHL SUB DUP4 AND PUSH2 0xA78 JUMPI PUSH1 0x0 DUP1 JUMPDEST DUP4 MLOAD DUP2 LT ISZERO PUSH2 0x2302 JUMPI PUSH1 0x20 DUP2 DUP2 MUL DUP5 DUP2 ADD DUP3 ADD MLOAD SWAP1 DUP7 ADD DUP3 ADD MLOAD PUSH1 0x0 SWAP1 DUP2 MSTORE PUSH1 0x3 SWAP1 SWAP3 MSTORE PUSH1 0x40 SWAP1 SWAP2 KECCAK256 DUP1 SLOAD DUP3 SWAP1 SUB SWAP1 SSTORE SWAP2 SWAP1 SWAP2 ADD SWAP1 PUSH1 0x1 ADD PUSH2 0x22C5 JUMP JUMPDEST POP PUSH1 0x4 DUP1 SLOAD SWAP2 SWAP1 SWAP2 SUB SWAP1 SSTORE POP POP POP POP JUMP JUMPDEST DUP1 MLOAD DUP3 MLOAD EQ PUSH2 0x2342 JUMPI DUP2 MLOAD DUP2 MLOAD PUSH1 0x40 MLOAD PUSH4 0x5B059991 PUSH1 0xE0 SHL DUP2 MSTORE PUSH1 0x4 DUP2 ADD SWAP3 SWAP1 SWAP3 MSTORE PUSH1 0x24 DUP3 ADD MSTORE PUSH1 0x44 ADD PUSH2 0x714 JUMP JUMPDEST CALLER PUSH1 0x0 JUMPDEST DUP4 MLOAD DUP2 LT ISZERO PUSH2 0x2448 JUMPI PUSH1 0x20 DUP2 DUP2 MUL DUP6 DUP2 ADD DUP3 ADD MLOAD SWAP1 DUP6 ADD SWAP1 SWAP2 ADD MLOAD PUSH1 0x1 PUSH1 0x1 PUSH1 0xA0 SHL SUB DUP9 AND ISZERO PUSH2 0x23F9 JUMPI PUSH1 0x0 DUP3 DUP2 MSTORE PUSH1 0x20 DUP2 DUP2 MSTORE PUSH1 0x40 DUP1 DUP4 KECCAK256 PUSH1 0x1 PUSH1 0x1 PUSH1 0xA0 SHL SUB DUP13 AND DUP5 MSTORE SWAP1 SWAP2 MSTORE SWAP1 KECCAK256 SLOAD DUP2 DUP2 LT ISZERO PUSH2 0x23D2 JUMPI PUSH1 0x40 MLOAD PUSH4 0x3DEE4C5 PUSH1 0xE0 SHL DUP2 MSTORE PUSH1 0x1 PUSH1 0x1 PUSH1 0xA0 SHL SUB DUP11 AND PUSH1 0x4 DUP3 ADD MSTORE PUSH1 0x24 DUP2 ADD DUP3 SWAP1 MSTORE PUSH1 0x44 DUP2 ADD DUP4 SWAP1 MSTORE PUSH1 0x64 DUP2 ADD DUP5 SWAP1 MSTORE PUSH1 0x84 ADD PUSH2 0x714 JUMP JUMPDEST PUSH1 0x0 DUP4 DUP2 MSTORE PUSH1 0x20 DUP2 DUP2 MSTORE PUSH1 0x40 DUP1 DUP4 KECCAK256 PUSH1 0x1 PUSH1 0x1 PUSH1 0xA0 SHL SUB DUP14 AND DUP5 MSTORE SWAP1 SWAP2 MSTORE SWAP1 KECCAK256 SWAP1 DUP3 SWAP1 SUB SWAP1 SSTORE JUMPDEST PUSH1 0x1 PUSH1 0x1 PUSH1 0xA0 SHL SUB DUP8 AND ISZERO PUSH2 0x243E JUMPI PUSH1 0x0 DUP3 DUP2 MSTORE PUSH1 0x20 DUP2 DUP2 MSTORE PUSH1 0x40 DUP1 DUP4 KECCAK256 PUSH1 0x1 PUSH1 0x1 PUSH1 0xA0 SHL SUB DUP12 AND DUP5 MSTORE SWAP1 SWAP2 MSTORE DUP2 KECCAK256 DUP1 SLOAD DUP4 SWAP3 SWAP1 PUSH2 0x2438 SWAP1 DUP5 SWAP1 PUSH2 0x2D4B JUMP JUMPDEST SWAP1 SWAP2 SSTORE POP POP JUMPDEST POP POP PUSH1 0x1 ADD PUSH2 0x2346 JUMP JUMPDEST POP DUP3 MLOAD PUSH1 0x1 SUB PUSH2 0x24C9 JUMPI PUSH1 0x20 DUP4 ADD MLOAD PUSH1 0x0 SWAP1 PUSH1 0x20 DUP5 ADD MLOAD SWAP1 SWAP2 POP DUP6 PUSH1 0x1 PUSH1 0x1 PUSH1 0xA0 SHL SUB AND DUP8 PUSH1 0x1 PUSH1 0x1 PUSH1 0xA0 SHL SUB AND DUP5 PUSH1 0x1 PUSH1 0x1 PUSH1 0xA0 SHL SUB AND PUSH32 0xC3D58168C5AE7397731D063D5BBF3D657854427343F4C083240F7AACAA2D0F62 DUP6 DUP6 PUSH1 0x40 MLOAD PUSH2 0x24BA SWAP3 SWAP2 SWAP1 SWAP2 DUP3 MSTORE PUSH1 0x20 DUP3 ADD MSTORE PUSH1 0x40 ADD SWAP1 JUMP JUMPDEST PUSH1 0x40 MLOAD DUP1 SWAP2 SUB SWAP1 LOG4 POP POP PUSH2 0x1819 JUMP JUMPDEST DUP4 PUSH1 0x1 PUSH1 0x1 PUSH1 0xA0 SHL SUB AND DUP6 PUSH1 0x1 PUSH1 0x1 PUSH1 0xA0 SHL SUB AND DUP3 PUSH1 0x1 PUSH1 0x1 PUSH1 0xA0 SHL SUB AND PUSH32 0x4A39DC06D4C0DBC64B70AF90FD698A233A518AA5D07E595D983B8C0526C8F7FB DUP7 DUP7 PUSH1 0x40 MLOAD PUSH2 0x2518 SWAP3 SWAP2 SWAP1 PUSH2 0x3168 JUMP JUMPDEST PUSH1 0x40 MLOAD DUP1 SWAP2 SUB SWAP1 LOG4 POP POP POP POP POP JUMP JUMPDEST DUP1 CALLDATALOAD PUSH1 0x1 PUSH1 0x1 PUSH1 0xA0 SHL SUB DUP2 AND DUP2 EQ PUSH2 0x253E JUMPI PUSH1 0x0 DUP1 REVERT JUMPDEST SWAP2 SWAP1 POP JUMP JUMPDEST PUSH1 0x0 DUP1 PUSH1 0x40 DUP4 DUP6 SUB SLT ISZERO PUSH2 0x2556 JUMPI PUSH1 0x0 DUP1 REVERT JUMPDEST PUSH2 0x255F DUP4 PUSH2 0x2527 JUMP JUMPDEST SWAP5 PUSH1 0x20 SWAP4 SWAP1 SWAP4 ADD CALLDATALOAD SWAP4 POP POP POP JUMP JUMPDEST PUSH1 0x1 PUSH1 0x1 PUSH1 0xE0 SHL SUB NOT DUP2 AND DUP2 EQ PUSH2 0xC6E JUMPI PUSH1 0x0 DUP1 REVERT JUMPDEST PUSH1 0x0 PUSH1 0x20 DUP3 DUP5 SUB SLT ISZERO PUSH2 0x2595 JUMPI PUSH1 0x0 DUP1 REVERT JUMPDEST DUP2 CALLDATALOAD PUSH2 0x25A0 DUP2 PUSH2 0x256D JUMP JUMPDEST SWAP4 SWAP3 POP POP POP JUMP JUMPDEST PUSH1 0x0 DUP1 PUSH1 0x40 DUP4 DUP6 SUB SLT ISZERO PUSH2 0x25BA JUMPI PUSH1 0x0 DUP1 REVERT JUMPDEST POP POP DUP1 CALLDATALOAD SWAP3 PUSH1 0x20 SWAP1 SWAP2 ADD CALLDATALOAD SWAP2 POP JUMP JUMPDEST PUSH1 0x0 PUSH1 0x20 DUP3 DUP5 SUB SLT ISZERO PUSH2 0x25DB JUMPI PUSH1 0x0 DUP1 REVERT JUMPDEST POP CALLDATALOAD SWAP2 SWAP1 POP JUMP JUMPDEST PUSH1 0x0 JUMPDEST DUP4 DUP2 LT ISZERO PUSH2 0x25FD JUMPI DUP2 DUP2 ADD MLOAD DUP4 DUP3 ADD MSTORE PUSH1 0x20 ADD PUSH2 0x25E5 JUMP JUMPDEST POP POP PUSH1 0x0 SWAP2 ADD MSTORE JUMP JUMPDEST PUSH1 0x0 DUP2 MLOAD DUP1 DUP5 MSTORE PUSH2 0x261E DUP2 PUSH1 0x20 DUP7 ADD PUSH1 0x20 DUP7 ADD PUSH2 0x25E2 JUMP JUMPDEST PUSH1 0x1F ADD PUSH1 0x1F NOT AND SWAP3 SWAP1 SWAP3 ADD PUSH1 0x20 ADD SWAP3 SWAP2 POP POP JUMP JUMPDEST PUSH1 0x20 DUP2 MSTORE PUSH1 0x0 PUSH2 0x25A0 PUSH1 0x20 DUP4 ADD DUP5 PUSH2 0x2606 JUMP JUMPDEST PUSH4 0x4E487B71 PUSH1 0xE0 SHL PUSH1 0x0 MSTORE PUSH1 0x41 PUSH1 0x4 MSTORE PUSH1 0x24 PUSH1 0x0 REVERT JUMPDEST PUSH1 0x40 MLOAD PUSH1 0x1F DUP3 ADD PUSH1 0x1F NOT AND DUP2 ADD PUSH1 0x1 PUSH1 0x1 PUSH1 0x40 SHL SUB DUP2 GT DUP3 DUP3 LT OR ISZERO PUSH2 0x2683 JUMPI PUSH2 0x2683 PUSH2 0x2645 JUMP JUMPDEST PUSH1 0x40 MSTORE SWAP2 SWAP1 POP JUMP JUMPDEST PUSH1 0x0 PUSH1 0x1 PUSH1 0x1 PUSH1 0x40 SHL SUB DUP3 GT ISZERO PUSH2 0x26A4 JUMPI PUSH2 0x26A4 PUSH2 0x2645 JUMP JUMPDEST POP PUSH1 0x5 SHL PUSH1 0x20 ADD SWAP1 JUMP JUMPDEST PUSH1 0x0 DUP3 PUSH1 0x1F DUP4 ADD SLT PUSH2 0x26BF JUMPI PUSH1 0x0 DUP1 REVERT JUMPDEST DUP2 CALLDATALOAD PUSH1 0x20 PUSH2 0x26D4 PUSH2 0x26CF DUP4 PUSH2 0x268B JUMP JUMPDEST PUSH2 0x265B JUMP JUMPDEST DUP1 DUP4 DUP3 MSTORE PUSH1 0x20 DUP3 ADD SWAP2 POP PUSH1 0x20 DUP5 PUSH1 0x5 SHL DUP8 ADD ADD SWAP4 POP DUP7 DUP5 GT ISZERO PUSH2 0x26F6 JUMPI PUSH1 0x0 DUP1 REVERT JUMPDEST PUSH1 0x20 DUP7 ADD JUMPDEST DUP5 DUP2 LT ISZERO PUSH2 0x2712 JUMPI DUP1 CALLDATALOAD DUP4 MSTORE SWAP2 DUP4 ADD SWAP2 DUP4 ADD PUSH2 0x26FB JUMP JUMPDEST POP SWAP7 SWAP6 POP POP POP POP POP POP JUMP JUMPDEST PUSH1 0x0 DUP3 PUSH1 0x1F DUP4 ADD SLT PUSH2 0x272E JUMPI PUSH1 0x0 DUP1 REVERT JUMPDEST DUP2 CALLDATALOAD PUSH1 0x1 PUSH1 0x1 PUSH1 0x40 SHL SUB DUP2 GT ISZERO PUSH2 0x2747 JUMPI PUSH2 0x2747 PUSH2 0x2645 JUMP JUMPDEST PUSH2 0x275A PUSH1 0x1F DUP3 ADD PUSH1 0x1F NOT AND PUSH1 0x20 ADD PUSH2 0x265B JUMP JUMPDEST DUP2 DUP2 MSTORE DUP5 PUSH1 0x20 DUP4 DUP7 ADD ADD GT ISZERO PUSH2 0x276F JUMPI PUSH1 0x0 DUP1 REVERT JUMPDEST DUP2 PUSH1 0x20 DUP6 ADD PUSH1 0x20 DUP4 ADD CALLDATACOPY PUSH1 0x0 SWAP2 DUP2 ADD PUSH1 0x20 ADD SWAP2 SWAP1 SWAP2 MSTORE SWAP4 SWAP3 POP POP POP JUMP JUMPDEST PUSH1 0x0 DUP1 PUSH1 0x0 DUP1 PUSH1 0x0 PUSH1 0xA0 DUP7 DUP9 SUB SLT ISZERO PUSH2 0x27A4 JUMPI PUSH1 0x0 DUP1 REVERT JUMPDEST PUSH2 0x27AD DUP7 PUSH2 0x2527 JUMP JUMPDEST SWAP5 POP PUSH2 0x27BB PUSH1 0x20 DUP8 ADD PUSH2 0x2527 JUMP JUMPDEST SWAP4 POP PUSH1 0x40 DUP7 ADD CALLDATALOAD PUSH1 0x1 PUSH1 0x1 PUSH1 0x40 SHL SUB DUP1 DUP3 GT ISZERO PUSH2 0x27D7 JUMPI PUSH1 0x0 DUP1 REVERT JUMPDEST PUSH2 0x27E3 DUP10 DUP4 DUP11 ADD PUSH2 0x26AE JUMP JUMPDEST SWAP5 POP PUSH1 0x60 DUP9 ADD CALLDATALOAD SWAP2 POP DUP1 DUP3 GT ISZERO PUSH2 0x27F9 JUMPI PUSH1 0x0 DUP1 REVERT JUMPDEST PUSH2 0x2805 DUP10 DUP4 DUP11 ADD PUSH2 0x26AE JUMP JUMPDEST SWAP4 POP PUSH1 0x80 DUP9 ADD CALLDATALOAD SWAP2 POP DUP1 DUP3 GT ISZERO PUSH2 0x281B JUMPI PUSH1 0x0 DUP1 REVERT JUMPDEST POP PUSH2 0x2828 DUP9 DUP3 DUP10 ADD PUSH2 0x271D JUMP JUMPDEST SWAP2 POP POP SWAP3 SWAP6 POP SWAP3 SWAP6 SWAP1 SWAP4 POP JUMP JUMPDEST PUSH1 0x0 DUP1 PUSH1 0x40 DUP4 DUP6 SUB SLT ISZERO PUSH2 0x2848 JUMPI PUSH1 0x0 DUP1 REVERT JUMPDEST DUP3 CALLDATALOAD SWAP2 POP PUSH2 0x2858 PUSH1 0x20 DUP5 ADD PUSH2 0x2527 JUMP JUMPDEST SWAP1 POP SWAP3 POP SWAP3 SWAP1 POP JUMP JUMPDEST PUSH1 0x0 DUP1 PUSH1 0x0 PUSH1 0x60 DUP5 DUP7 SUB SLT ISZERO PUSH2 0x2876 JUMPI PUSH1 0x0 DUP1 REVERT JUMPDEST DUP4 CALLDATALOAD SWAP3 POP PUSH2 0x2886 PUSH1 0x20 DUP6 ADD PUSH2 0x2527 JUMP JUMPDEST SWAP2 POP PUSH1 0x40 DUP5 ADD CALLDATALOAD SWAP1 POP SWAP3 POP SWAP3 POP SWAP3 JUMP JUMPDEST PUSH1 0x0 DUP1 PUSH1 0x40 DUP4 DUP6 SUB SLT ISZERO PUSH2 0x28A9 JUMPI PUSH1 0x0 DUP1 REVERT JUMPDEST DUP3 CALLDATALOAD PUSH1 0x1 PUSH1 0x1 PUSH1 0x40 SHL SUB DUP1 DUP3 GT ISZERO PUSH2 0x28C0 JUMPI PUSH1 0x0 DUP1 REVERT JUMPDEST DUP2 DUP6 ADD SWAP2 POP DUP6 PUSH1 0x1F DUP4 ADD SLT PUSH2 0x28D4 JUMPI PUSH1 0x0 DUP1 REVERT JUMPDEST DUP2 CALLDATALOAD PUSH1 0x20 PUSH2 0x28E4 PUSH2 0x26CF DUP4 PUSH2 0x268B JUMP JUMPDEST DUP3 DUP2 MSTORE PUSH1 0x5 SWAP3 SWAP1 SWAP3 SHL DUP5 ADD DUP2 ADD SWAP2 DUP2 DUP2 ADD SWAP1 DUP10 DUP5 GT ISZERO PUSH2 0x2903 JUMPI PUSH1 0x0 DUP1 REVERT JUMPDEST SWAP5 DUP3 ADD SWAP5 JUMPDEST DUP4 DUP7 LT ISZERO PUSH2 0x2928 JUMPI PUSH2 0x2919 DUP7 PUSH2 0x2527 JUMP JUMPDEST DUP3 MSTORE SWAP5 DUP3 ADD SWAP5 SWAP1 DUP3 ADD SWAP1 PUSH2 0x2908 JUMP JUMPDEST SWAP7 POP POP DUP7 ADD CALLDATALOAD SWAP3 POP POP DUP1 DUP3 GT ISZERO PUSH2 0x293E JUMPI PUSH1 0x0 DUP1 REVERT JUMPDEST POP PUSH2 0x294B DUP6 DUP3 DUP7 ADD PUSH2 0x26AE JUMP JUMPDEST SWAP2 POP POP SWAP3 POP SWAP3 SWAP1 POP JUMP JUMPDEST PUSH1 0x0 DUP2 MLOAD DUP1 DUP5 MSTORE PUSH1 0x20 DUP1 DUP6 ADD SWAP5 POP PUSH1 0x20 DUP5 ADD PUSH1 0x0 JUMPDEST DUP4 DUP2 LT ISZERO PUSH2 0x2986 JUMPI DUP2 MLOAD DUP8 MSTORE SWAP6 DUP3 ADD SWAP6 SWAP1 DUP3 ADD SWAP1 PUSH1 0x1 ADD PUSH2 0x296A JUMP JUMPDEST POP SWAP5 SWAP6 SWAP5 POP POP POP POP POP JUMP JUMPDEST PUSH1 0x20 DUP2 MSTORE PUSH1 0x0 PUSH2 0x25A0 PUSH1 0x20 DUP4 ADD DUP5 PUSH2 0x2955 JUMP JUMPDEST DUP1 ISZERO ISZERO DUP2 EQ PUSH2 0xC6E JUMPI PUSH1 0x0 DUP1 REVERT JUMPDEST PUSH1 0x0 DUP1 PUSH1 0x40 DUP4 DUP6 SUB SLT ISZERO PUSH2 0x29C5 JUMPI PUSH1 0x0 DUP1 REVERT JUMPDEST PUSH2 0x29CE DUP4 PUSH2 0x2527 JUMP JUMPDEST SWAP2 POP PUSH1 0x20 DUP4 ADD CALLDATALOAD PUSH2 0x29DE DUP2 PUSH2 0x29A4 JUMP JUMPDEST DUP1 SWAP2 POP POP SWAP3 POP SWAP3 SWAP1 POP JUMP JUMPDEST PUSH1 0x0 DUP1 DUP4 PUSH1 0x1F DUP5 ADD SLT PUSH2 0x29FB JUMPI PUSH1 0x0 DUP1 REVERT JUMPDEST POP DUP2 CALLDATALOAD PUSH1 0x1 PUSH1 0x1 PUSH1 0x40 SHL SUB DUP2 GT ISZERO PUSH2 0x2A12 JUMPI PUSH1 0x0 DUP1 REVERT JUMPDEST PUSH1 0x20 DUP4 ADD SWAP2 POP DUP4 PUSH1 0x20 DUP3 DUP6 ADD ADD GT ISZERO PUSH2 0x2A2A JUMPI PUSH1 0x0 DUP1 REVERT JUMPDEST SWAP3 POP SWAP3 SWAP1 POP JUMP JUMPDEST PUSH1 0x0 DUP1 PUSH1 0x20 DUP4 DUP6 SUB SLT ISZERO PUSH2 0x2A44 JUMPI PUSH1 0x0 DUP1 REVERT JUMPDEST DUP3 CALLDATALOAD PUSH1 0x1 PUSH1 0x1 PUSH1 0x40 SHL SUB DUP2 GT ISZERO PUSH2 0x2A5A JUMPI PUSH1 0x0 DUP1 REVERT JUMPDEST PUSH2 0x2A66 DUP6 DUP3 DUP7 ADD PUSH2 0x29E9 JUMP JUMPDEST SWAP1 SWAP7 SWAP1 SWAP6 POP SWAP4 POP POP POP POP JUMP JUMPDEST PUSH1 0x0 DUP1 PUSH1 0x40 DUP4 DUP6 SUB SLT ISZERO PUSH2 0x2A85 JUMPI PUSH1 0x0 DUP1 REVERT JUMPDEST DUP3 CALLDATALOAD SWAP2 POP PUSH1 0x20 DUP4 ADD CALLDATALOAD PUSH2 0x29DE DUP2 PUSH2 0x29A4 JUMP JUMPDEST PUSH1 0x0 PUSH1 0x20 DUP3 DUP5 SUB SLT ISZERO PUSH2 0x2AA9 JUMPI PUSH1 0x0 DUP1 REVERT JUMPDEST PUSH2 0x25A0 DUP3 PUSH2 0x2527 JUMP JUMPDEST PUSH1 0x0 DUP1 PUSH1 0x0 DUP1 PUSH1 0x0 DUP1 PUSH1 0x0 DUP1 PUSH1 0xA0 DUP10 DUP12 SUB SLT ISZERO PUSH2 0x2ACE JUMPI PUSH1 0x0 DUP1 REVERT JUMPDEST DUP9 CALLDATALOAD PUSH1 0x1 PUSH1 0x1 PUSH1 0x40 SHL SUB DUP1 DUP3 GT ISZERO PUSH2 0x2AE5 JUMPI PUSH1 0x0 DUP1 REVERT JUMPDEST PUSH2 0x2AF1 DUP13 DUP4 DUP14 ADD PUSH2 0x29E9 JUMP JUMPDEST SWAP1 SWAP11 POP SWAP9 POP PUSH1 0x20 DUP12 ADD CALLDATALOAD SWAP2 POP DUP1 DUP3 GT ISZERO PUSH2 0x2B0A JUMPI PUSH1 0x0 DUP1 REVERT JUMPDEST PUSH2 0x2B16 DUP13 DUP4 DUP14 ADD PUSH2 0x29E9 JUMP JUMPDEST SWAP1 SWAP9 POP SWAP7 POP PUSH1 0x40 DUP12 ADD CALLDATALOAD SWAP2 POP DUP1 DUP3 GT ISZERO PUSH2 0x2B2F JUMPI PUSH1 0x0 DUP1 REVERT JUMPDEST POP PUSH2 0x2B3C DUP12 DUP3 DUP13 ADD PUSH2 0x29E9 JUMP JUMPDEST SWAP1 SWAP6 POP SWAP4 POP PUSH2 0x2B4F SWAP1 POP PUSH1 0x60 DUP11 ADD PUSH2 0x2527 JUMP JUMPDEST SWAP2 POP PUSH2 0x2B5D PUSH1 0x80 DUP11 ADD PUSH2 0x2527 JUMP JUMPDEST SWAP1 POP SWAP3 SWAP6 SWAP9 POP SWAP3 SWAP6 SWAP9 SWAP1 SWAP4 SWAP7 POP JUMP JUMPDEST PUSH1 0x80 DUP2 MSTORE PUSH1 0x0 PUSH2 0x2B7F PUSH1 0x80 DUP4 ADD DUP8 PUSH2 0x2606 JUMP JUMPDEST PUSH1 0x20 DUP4 ADD SWAP6 SWAP1 SWAP6 MSTORE POP PUSH1 0x40 DUP2 ADD SWAP3 SWAP1 SWAP3 MSTORE ISZERO ISZERO PUSH1 0x60 SWAP1 SWAP2 ADD MSTORE SWAP2 SWAP1 POP JUMP JUMPDEST PUSH1 0x0 DUP1 PUSH1 0x40 DUP4 DUP6 SUB SLT ISZERO PUSH2 0x2BB0 JUMPI PUSH1 0x0 DUP1 REVERT JUMPDEST PUSH2 0x2BB9 DUP4 PUSH2 0x2527 JUMP JUMPDEST SWAP2 POP PUSH2 0x2858 PUSH1 0x20 DUP5 ADD PUSH2 0x2527 JUMP JUMPDEST PUSH1 0x0 DUP1 PUSH1 0x0 DUP1 PUSH1 0x0 PUSH1 0xA0 DUP7 DUP9 SUB SLT ISZERO PUSH2 0x2BDF JUMPI PUSH1 0x0 DUP1 REVERT JUMPDEST PUSH2 0x2BE8 DUP7 PUSH2 0x2527 JUMP JUMPDEST SWAP5 POP PUSH2 0x2BF6 PUSH1 0x20 DUP8 ADD PUSH2 0x2527 JUMP JUMPDEST SWAP4 POP PUSH1 0x40 DUP7 ADD CALLDATALOAD SWAP3 POP PUSH1 0x60 DUP7 ADD CALLDATALOAD SWAP2 POP PUSH1 0x80 DUP7 ADD CALLDATALOAD PUSH1 0x1 PUSH1 0x1 PUSH1 0x40 SHL SUB DUP2 GT ISZERO PUSH2 0x2C1F JUMPI PUSH1 0x0 DUP1 REVERT JUMPDEST PUSH2 0x2828 DUP9 DUP3 DUP10 ADD PUSH2 0x271D JUMP JUMPDEST PUSH1 0x0 DUP1 PUSH1 0x0 DUP1 PUSH1 0x60 DUP6 DUP8 SUB SLT ISZERO PUSH2 0x2C41 JUMPI PUSH1 0x0 DUP1 REVERT JUMPDEST DUP5 CALLDATALOAD PUSH1 0x1 PUSH1 0x1 PUSH1 0x40 SHL SUB DUP2 GT ISZERO PUSH2 0x2C57 JUMPI PUSH1 0x0 DUP1 REVERT JUMPDEST PUSH2 0x2C63 DUP8 DUP3 DUP9 ADD PUSH2 0x29E9 JUMP JUMPDEST SWAP1 SWAP9 SWAP1 SWAP8 POP PUSH1 0x20 DUP8 ADD CALLDATALOAD SWAP7 PUSH1 0x40 ADD CALLDATALOAD SWAP6 POP SWAP4 POP POP POP POP JUMP JUMPDEST PUSH1 0x1 DUP2 DUP2 SHR SWAP1 DUP3 AND DUP1 PUSH2 0x2C8F JUMPI PUSH1 0x7F DUP3 AND SWAP2 POP JUMPDEST PUSH1 0x20 DUP3 LT DUP2 SUB PUSH2 0x2CAF JUMPI PUSH4 0x4E487B71 PUSH1 0xE0 SHL PUSH1 0x0 MSTORE PUSH1 0x22 PUSH1 0x4 MSTORE PUSH1 0x24 PUSH1 0x0 REVERT JUMPDEST POP SWAP2 SWAP1 POP JUMP JUMPDEST PUSH1 0x20 DUP1 DUP3 MSTORE PUSH1 0x10 SWAP1 DUP3 ADD MSTORE PUSH16 0x1CD95C9A595CC81B9BDD08199BDD5B99 PUSH1 0x82 SHL PUSH1 0x40 DUP3 ADD MSTORE PUSH1 0x60 ADD SWAP1 JUMP JUMPDEST PUSH1 0x0 PUSH1 0x20 DUP3 DUP5 SUB SLT ISZERO PUSH2 0x2CF1 JUMPI PUSH1 0x0 DUP1 REVERT JUMPDEST DUP2 MLOAD PUSH2 0x25A0 DUP2 PUSH2 0x29A4 JUMP JUMPDEST PUSH4 0x4E487B71 PUSH1 0xE0 SHL PUSH1 0x0 MSTORE PUSH1 0x11 PUSH1 0x4 MSTORE PUSH1 0x24 PUSH1 0x0 REVERT JUMPDEST DUP1 DUP3 MUL DUP2 ISZERO DUP3 DUP3 DIV DUP5 EQ OR PUSH2 0x6B4 JUMPI PUSH2 0x6B4 PUSH2 0x2CFC JUMP JUMPDEST PUSH1 0x0 DUP3 PUSH2 0x2D46 JUMPI PUSH4 0x4E487B71 PUSH1 0xE0 SHL PUSH1 0x0 MSTORE PUSH1 0x12 PUSH1 0x4 MSTORE PUSH1 0x24 PUSH1 0x0 REVERT JUMPDEST POP DIV SWAP1 JUMP JUMPDEST DUP1 DUP3 ADD DUP1 DUP3 GT ISZERO PUSH2 0x6B4 JUMPI PUSH2 0x6B4 PUSH2 0x2CFC JUMP JUMPDEST PUSH1 0x0 DUP1 DUP5 SLOAD PUSH2 0x2D6C DUP2 PUSH2 0x2C7B JUMP JUMPDEST PUSH1 0x1 DUP3 DUP2 AND DUP1 ISZERO PUSH2 0x2D84 JUMPI PUSH1 0x1 DUP2 EQ PUSH2 0x2D99 JUMPI PUSH2 0x2DC8 JUMP JUMPDEST PUSH1 0xFF NOT DUP5 AND DUP8 MSTORE DUP3 ISZERO ISZERO DUP4 MUL DUP8 ADD SWAP5 POP PUSH2 0x2DC8 JUMP JUMPDEST DUP9 PUSH1 0x0 MSTORE PUSH1 0x20 DUP1 PUSH1 0x0 KECCAK256 PUSH1 0x0 JUMPDEST DUP6 DUP2 LT ISZERO PUSH2 0x2DBF JUMPI DUP2 SLOAD DUP11 DUP3 ADD MSTORE SWAP1 DUP5 ADD SWAP1 DUP3 ADD PUSH2 0x2DA6 JUMP JUMPDEST POP POP POP DUP3 DUP8 ADD SWAP5 POP JUMPDEST POP POP POP POP DUP4 MLOAD PUSH2 0x2DDC DUP2 DUP4 PUSH1 0x20 DUP9 ADD PUSH2 0x25E2 JUMP JUMPDEST ADD SWAP5 SWAP4 POP POP POP POP JUMP JUMPDEST PUSH1 0x20 DUP1 DUP3 MSTORE PUSH1 0x12 SWAP1 DUP3 ADD MSTORE PUSH18 0x1CD95B99195C881B9BDD08185B1B1BDDD959 PUSH1 0x72 SHL PUSH1 0x40 DUP3 ADD MSTORE PUSH1 0x60 ADD SWAP1 JUMP JUMPDEST PUSH1 0x20 DUP1 DUP3 MSTORE PUSH1 0x14 SWAP1 DUP3 ADD MSTORE PUSH20 0x1C9958D95A5D995C881B9BDD08185B1B1BDDD959 PUSH1 0x62 SHL PUSH1 0x40 DUP3 ADD MSTORE PUSH1 0x60 ADD SWAP1 JUMP JUMPDEST PUSH4 0x4E487B71 PUSH1 0xE0 SHL PUSH1 0x0 MSTORE PUSH1 0x32 PUSH1 0x4 MSTORE PUSH1 0x24 PUSH1 0x0 REVERT JUMPDEST PUSH1 0x1F DUP3 GT ISZERO PUSH2 0xAB1 JUMPI PUSH1 0x0 DUP2 PUSH1 0x0 MSTORE PUSH1 0x20 PUSH1 0x0 KECCAK256 PUSH1 0x1F DUP6 ADD PUSH1 0x5 SHR DUP2 ADD PUSH1 0x20 DUP7 LT ISZERO PUSH2 0x2E7E JUMPI POP DUP1 JUMPDEST PUSH1 0x1F DUP6 ADD PUSH1 0x5 SHR DUP3 ADD SWAP2 POP JUMPDEST DUP2 DUP2 LT ISZERO PUSH2 0xA4B JUMPI DUP3 DUP2 SSTORE PUSH1 0x1 ADD PUSH2 0x2E8A JUMP JUMPDEST PUSH1 0x1 PUSH1 0x1 PUSH1 0x40 SHL SUB DUP4 GT ISZERO PUSH2 0x2EB4 JUMPI PUSH2 0x2EB4 PUSH2 0x2645 JUMP JUMPDEST PUSH2 0x2EC8 DUP4 PUSH2 0x2EC2 DUP4 SLOAD PUSH2 0x2C7B JUMP JUMPDEST DUP4 PUSH2 0x2E55 JUMP JUMPDEST PUSH1 0x0 PUSH1 0x1F DUP5 GT PUSH1 0x1 DUP2 EQ PUSH2 0x2EFC JUMPI PUSH1 0x0 DUP6 ISZERO PUSH2 0x2EE4 JUMPI POP DUP4 DUP3 ADD CALLDATALOAD JUMPDEST PUSH1 0x0 NOT PUSH1 0x3 DUP8 SWAP1 SHL SHR NOT AND PUSH1 0x1 DUP7 SWAP1 SHL OR DUP4 SSTORE PUSH2 0x1819 JUMP JUMPDEST PUSH1 0x0 DUP4 DUP2 MSTORE PUSH1 0x20 SWAP1 KECCAK256 PUSH1 0x1F NOT DUP7 AND SWAP1 DUP4 JUMPDEST DUP3 DUP2 LT ISZERO PUSH2 0x2F2D JUMPI DUP7 DUP6 ADD CALLDATALOAD DUP3 SSTORE PUSH1 0x20 SWAP5 DUP6 ADD SWAP5 PUSH1 0x1 SWAP1 SWAP3 ADD SWAP2 ADD PUSH2 0x2F0D JUMP JUMPDEST POP DUP7 DUP3 LT ISZERO PUSH2 0x2F4A JUMPI PUSH1 0x0 NOT PUSH1 0xF8 DUP9 PUSH1 0x3 SHL AND SHR NOT DUP5 DUP8 ADD CALLDATALOAD AND DUP2 SSTORE JUMPDEST POP POP PUSH1 0x1 DUP6 PUSH1 0x1 SHL ADD DUP4 SSTORE POP POP POP POP POP JUMP JUMPDEST DUP2 DUP4 MSTORE DUP2 DUP2 PUSH1 0x20 DUP6 ADD CALLDATACOPY POP PUSH1 0x0 DUP3 DUP3 ADD PUSH1 0x20 SWAP1 DUP2 ADD SWAP2 SWAP1 SWAP2 MSTORE PUSH1 0x1F SWAP1 SWAP2 ADD PUSH1 0x1F NOT AND SWAP1 SWAP2 ADD ADD SWAP1 JUMP JUMPDEST PUSH1 0x20 DUP2 MSTORE PUSH1 0x0 PUSH2 0x2F99 PUSH1 0x20 DUP4 ADD DUP5 DUP7 PUSH2 0x2F5C JUMP JUMPDEST SWAP5 SWAP4 POP POP POP POP JUMP JUMPDEST DUP2 DUP2 SUB DUP2 DUP2 GT ISZERO PUSH2 0x6B4 JUMPI PUSH2 0x6B4 PUSH2 0x2CFC JUMP JUMPDEST PUSH1 0x0 PUSH1 0x1 DUP3 ADD PUSH2 0x2FC6 JUMPI PUSH2 0x2FC6 PUSH2 0x2CFC JUMP JUMPDEST POP PUSH1 0x1 ADD SWAP1 JUMP JUMPDEST DUP2 MLOAD PUSH1 0x1 PUSH1 0x1 PUSH1 0x40 SHL SUB DUP2 GT ISZERO PUSH2 0x2FE6 JUMPI PUSH2 0x2FE6 PUSH2 0x2645 JUMP JUMPDEST PUSH2 0x2FFA DUP2 PUSH2 0x2FF4 DUP5 SLOAD PUSH2 0x2C7B JUMP JUMPDEST DUP5 PUSH2 0x2E55 JUMP JUMPDEST PUSH1 0x20 DUP1 PUSH1 0x1F DUP4 GT PUSH1 0x1 DUP2 EQ PUSH2 0x302F JUMPI PUSH1 0x0 DUP5 ISZERO PUSH2 0x3017 JUMPI POP DUP6 DUP4 ADD MLOAD JUMPDEST PUSH1 0x0 NOT PUSH1 0x3 DUP7 SWAP1 SHL SHR NOT AND PUSH1 0x1 DUP6 SWAP1 SHL OR DUP6 SSTORE PUSH2 0xA4B JUMP JUMPDEST PUSH1 0x0 DUP6 DUP2 MSTORE PUSH1 0x20 DUP2 KECCAK256 PUSH1 0x1F NOT DUP7 AND SWAP2 JUMPDEST DUP3 DUP2 LT ISZERO PUSH2 0x305E JUMPI DUP9 DUP7 ADD MLOAD DUP3 SSTORE SWAP5 DUP5 ADD SWAP5 PUSH1 0x1 SWAP1 SWAP2 ADD SWAP1 DUP5 ADD PUSH2 0x303F JUMP JUMPDEST POP DUP6 DUP3 LT ISZERO PUSH2 0x307C JUMPI DUP8 DUP6 ADD MLOAD PUSH1 0x0 NOT PUSH1 0x3 DUP9 SWAP1 SHL PUSH1 0xF8 AND SHR NOT AND DUP2 SSTORE JUMPDEST POP POP POP POP POP PUSH1 0x1 SWAP1 DUP2 SHL ADD SWAP1 SSTORE POP JUMP JUMPDEST PUSH1 0x60 DUP2 MSTORE PUSH1 0x0 PUSH2 0x30A0 PUSH1 0x60 DUP4 ADD DUP7 DUP9 PUSH2 0x2F5C JUMP JUMPDEST PUSH1 0x20 DUP4 ADD SWAP5 SWAP1 SWAP5 MSTORE POP PUSH1 0x40 ADD MSTORE SWAP3 SWAP2 POP POP JUMP JUMPDEST PUSH1 0x1 PUSH1 0x1 PUSH1 0xA0 SHL SUB DUP7 DUP2 AND DUP3 MSTORE DUP6 AND PUSH1 0x20 DUP3 ADD MSTORE PUSH1 0x40 DUP2 ADD DUP5 SWAP1 MSTORE PUSH1 0x60 DUP2 ADD DUP4 SWAP1 MSTORE PUSH1 0xA0 PUSH1 0x80 DUP3 ADD DUP2 SWAP1 MSTORE PUSH1 0x0 SWAP1 PUSH2 0x122C SWAP1 DUP4 ADD DUP5 PUSH2 0x2606 JUMP JUMPDEST PUSH1 0x0 PUSH1 0x20 DUP3 DUP5 SUB SLT ISZERO PUSH2 0x30FF JUMPI PUSH1 0x0 DUP1 REVERT JUMPDEST DUP2 MLOAD PUSH2 0x25A0 DUP2 PUSH2 0x256D JUMP JUMPDEST PUSH1 0x1 PUSH1 0x1 PUSH1 0xA0 SHL SUB DUP7 DUP2 AND DUP3 MSTORE DUP6 AND PUSH1 0x20 DUP3 ADD MSTORE PUSH1 0xA0 PUSH1 0x40 DUP3 ADD DUP2 SWAP1 MSTORE PUSH1 0x0 SWAP1 PUSH2 0x3136 SWAP1 DUP4 ADD DUP7 PUSH2 0x2955 JUMP JUMPDEST DUP3 DUP2 SUB PUSH1 0x60 DUP5 ADD MSTORE PUSH2 0x3148 DUP2 DUP7 PUSH2 0x2955 JUMP JUMPDEST SWAP1 POP DUP3 DUP2 SUB PUSH1 0x80 DUP5 ADD MSTORE PUSH2 0x315C DUP2 DUP6 PUSH2 0x2606 JUMP JUMPDEST SWAP9 SWAP8 POP POP POP POP POP POP POP POP JUMP JUMPDEST PUSH1 0x40 DUP2 MSTORE PUSH1 0x0 PUSH2 0x317B PUSH1 0x40 DUP4 ADD DUP6 PUSH2 0x2955 JUMP JUMPDEST DUP3 DUP2 SUB PUSH1 0x20 DUP5 ADD MSTORE PUSH2 0x318D DUP2 DUP6 PUSH2 0x2955 JUMP JUMPDEST SWAP6 SWAP5 POP POP POP POP POP JUMP INVALID GT 0x4E PUSH21 0xF6EA3BD819998F78687BFCB11B140DA08E9B7D222F 0xA9 0xC1 CALL 0xBA 0x1F 0x2A LOG1 0x22 SWAP8 PUSH7 0x7070C54EF182B0 CREATE2 DUP6 DUP12 SUB 0x4B 0xEA 0xC1 0xB6 RETURN ADDMOD SWAP11 LOG2 0xD3 XOR DUP12 0xB1 0xE8 SWAP3 SWAP16 0x4F 0xA9 0xB9 0x29 LOG2 PUSH5 0x6970667358 0x22 SLT KECCAK256 DUP7 SWAP7 0x2E 0xBE BLOBHASH 0xE 0x2B 0x2D PUSH26 0x17EB816EC69FAA4CA47D59E1915CBE7BF8FCC11F88172C64736F PUSH13 0x63430008180033000000000000 "},"methodIdentifiers":{"DEFAULT_ADMIN_ROLE()":"a217fddf","ISSUER_ROLE()":"82aefa24","OPERATOR_ROLE()":"f5b541a6","assetLabel()":"5b2e374f","assetName()":"c9230c5d","assetSymbol()":"176de7a8","balanceOf(address,uint256)":"00fdd58e","balanceOfBatch(address[],uint256[])":"4e1273f4","baseURI()":"6c0360eb","blacklisted(address)":"dbac26e9","claim(uint256)":"379607f5","claimable(uint256,address)":"a0c7f71c","createSeries(string,uint256,uint256)":"f38dab60","cumulativeRevenuePerToken(uint256)":"945a3bad","depositRevenue(uint256,uint256)":"0cae7afc","exists(uint256)":"4f558e79","frozen(address)":"d0516650","getRoleAdmin(bytes32)":"248a9ca3","grantRole(bytes32,address)":"2f2ff15d","hasRole(bytes32,address)":"91d14854","initialize(string,string,string,address,address)":"d6d0faee","isApprovedForAll(address,address)":"e985e9c5","issue(uint256,address,uint256)":"3ffa884c","nextSeriesId()":"6ed3e3e3","pause()":"8456cb59","paused()":"5c975abb","pendingRevenue(uint256,address)":"bb0bc514","renounceRole(bytes32,address)":"36568abe","revokeRole(bytes32,address)":"d547741f","safeBatchTransferFrom(address,address,uint256[],uint256[],bytes)":"2eb2c2d6","safeTransferFrom(address,address,uint256,uint256,bytes)":"f242432a","series(uint256)":"dc22cb6a","setApprovalForAll(address,bool)":"a22cb465","setBaseURI(string)":"55f804b3","setBlacklisted(address,bool)":"d01dd6d2","setFrozen(address,bool)":"ac869cd8","setSeriesActive(uint256,bool)":"8baeb23d","setWhitelist(address,bool)":"53d6fd59","settlementToken()":"7b9e618d","supportsInterface(bytes4)":"01ffc9a7","totalSupply()":"18160ddd","totalSupply(uint256)":"bd85b039","unpause()":"3f4ba83a","uri(uint256)":"0e89341c","userRevenueCredited(uint256,address)":"c4f0da7b","whitelisted(address)":"d936547e"}},"storageLayout":{"storage":[{"astId":1047,"contract":"contracts/rbt/RBTPropertyToken.sol:RBTPropertyToken","label":"_balances","offset":0,"slot":"0","type":"t_mapping(t_uint256,t_mapping(t_address,t_uint256))"},{"astId":1053,"contract":"contracts/rbt/RBTPropertyToken.sol:RBTPropertyToken","label":"_operatorApprovals","offset":0,"slot":"1","type":"t_mapping(t_address,t_mapping(t_address,t_bool))"},{"astId":1055,"contract":"contracts/rbt/RBTPropertyToken.sol:RBTPropertyToken","label":"_uri","offset":0,"slot":"2","type":"t_string_storage"},{"astId":2104,"contract":"contracts/rbt/RBTPropertyToken.sol:RBTPropertyToken","label":"_totalSupply","offset":0,"slot":"3","type":"t_mapping(t_uint256,t_uint256)"},{"astId":2106,"contract":"contracts/rbt/RBTPropertyToken.sol:RBTPropertyToken","label":"_totalSupplyAll","offset":0,"slot":"4","type":"t_uint256"},{"astId":27,"contract":"contracts/rbt/RBTPropertyToken.sol:RBTPropertyToken","label":"_roles","offset":0,"slot":"5","type":"t_mapping(t_bytes32,t_struct(RoleData)22_storage)"},{"astId":4203,"contract":"contracts/rbt/RBTPropertyToken.sol:RBTPropertyToken","label":"_paused","offset":0,"slot":"6","type":"t_bool"},{"astId":4313,"contract":"contracts/rbt/RBTPropertyToken.sol:RBTPropertyToken","label":"_status","offset":0,"slot":"7","type":"t_uint256"},{"astId":10241,"contract":"contracts/rbt/RBTPropertyToken.sol:RBTPropertyToken","label":"assetName","offset":0,"slot":"8","type":"t_string_storage"},{"astId":10243,"contract":"contracts/rbt/RBTPropertyToken.sol:RBTPropertyToken","label":"assetSymbol","offset":0,"slot":"9","type":"t_string_storage"},{"astId":10245,"contract":"contracts/rbt/RBTPropertyToken.sol:RBTPropertyToken","label":"assetLabel","offset":0,"slot":"10","type":"t_string_storage"},{"astId":10248,"contract":"contracts/rbt/RBTPropertyToken.sol:RBTPropertyToken","label":"settlementToken","offset":0,"slot":"11","type":"t_contract(IERC20)2517"},{"astId":10250,"contract":"contracts/rbt/RBTPropertyToken.sol:RBTPropertyToken","label":"baseURI","offset":0,"slot":"12","type":"t_string_storage"},{"astId":10254,"contract":"contracts/rbt/RBTPropertyToken.sol:RBTPropertyToken","label":"whitelisted","offset":0,"slot":"13","type":"t_mapping(t_address,t_bool)"},{"astId":10258,"contract":"contracts/rbt/RBTPropertyToken.sol:RBTPropertyToken","label":"frozen","offset":0,"slot":"14","type":"t_mapping(t_address,t_bool)"},{"astId":10262,"contract":"contracts/rbt/RBTPropertyToken.sol:RBTPropertyToken","label":"blacklisted","offset":0,"slot":"15","type":"t_mapping(t_address,t_bool)"},{"astId":10273,"contract":"contracts/rbt/RBTPropertyToken.sol:RBTPropertyToken","label":"nextSeriesId","offset":0,"slot":"16","type":"t_uint256"},{"astId":10278,"contract":"contracts/rbt/RBTPropertyToken.sol:RBTPropertyToken","label":"series","offset":0,"slot":"17","type":"t_mapping(t_uint256,t_struct(Series)10271_storage)"},{"astId":10282,"contract":"contracts/rbt/RBTPropertyToken.sol:RBTPropertyToken","label":"cumulativeRevenuePerToken","offset":0,"slot":"18","type":"t_mapping(t_uint256,t_uint256)"},{"astId":10288,"contract":"contracts/rbt/RBTPropertyToken.sol:RBTPropertyToken","label":"userRevenueCredited","offset":0,"slot":"19","type":"t_mapping(t_uint256,t_mapping(t_address,t_uint256))"},{"astId":10294,"contract":"contracts/rbt/RBTPropertyToken.sol:RBTPropertyToken","label":"pendingRevenue","offset":0,"slot":"20","type":"t_mapping(t_uint256,t_mapping(t_address,t_uint256))"},{"astId":10358,"contract":"contracts/rbt/RBTPropertyToken.sol:RBTPropertyToken","label":"_initialized","offset":0,"slot":"21","type":"t_bool"}],"types":{"t_address":{"encoding":"inplace","label":"address","numberOfBytes":"20"},"t_bool":{"encoding":"inplace","label":"bool","numberOfBytes":"1"},"t_bytes32":{"encoding":"inplace","label":"bytes32","numberOfBytes":"32"},"t_contract(IERC20)2517":{"encoding":"inplace","label":"contract IERC20","numberOfBytes":"20"},"t_mapping(t_address,t_bool)":{"encoding":"mapping","key":"t_address","label":"mapping(address => bool)","numberOfBytes":"32","value":"t_bool"},"t_mapping(t_address,t_mapping(t_address,t_bool))":{"encoding":"mapping","key":"t_address","label":"mapping(address => mapping(address => bool))","numberOfBytes":"32","value":"t_mapping(t_address,t_bool)"},"t_mapping(t_address,t_uint256)":{"encoding":"mapping","key":"t_address","label":"mapping(address => uint256)","numberOfBytes":"32","value":"t_uint256"},"t_mapping(t_bytes32,t_struct(RoleData)22_storage)":{"encoding":"mapping","key":"t_bytes32","label":"mapping(bytes32 => struct AccessControl.RoleData)","numberOfBytes":"32","value":"t_struct(RoleData)22_storage"},"t_mapping(t_uint256,t_mapping(t_address,t_uint256))":{"encoding":"mapping","key":"t_uint256","label":"mapping(uint256 => mapping(address => uint256))","numberOfBytes":"32","value":"t_mapping(t_address,t_uint256)"},"t_mapping(t_uint256,t_struct(Series)10271_storage)":{"encoding":"mapping","key":"t_uint256","label":"mapping(uint256 => struct RBTPropertyToken.Series)","numberOfBytes":"32","value":"t_struct(Series)10271_storage"},"t_mapping(t_uint256,t_uint256)":{"encoding":"mapping","key":"t_uint256","label":"mapping(uint256 => uint256)","numberOfBytes":"32","value":"t_uint256"},"t_string_storage":{"encoding":"bytes","label":"string","numberOfBytes":"32"},"t_struct(RoleData)22_storage":{"encoding":"inplace","label":"struct AccessControl.RoleData","members":[{"astId":19,"contract":"contracts/rbt/RBTPropertyToken.sol:RBTPropertyToken","label":"hasRole","offset":0,"slot":"0","type":"t_mapping(t_address,t_bool)"},{"astId":21,"contract":"contracts/rbt/RBTPropertyToken.sol:RBTPropertyToken","label":"adminRole","offset":0,"slot":"1","type":"t_bytes32"}],"numberOfBytes":"64"},"t_struct(Series)10271_storage":{"encoding":"inplace","label":"struct RBTPropertyToken.Series","members":[{"astId":10264,"contract":"contracts/rbt/RBTPropertyToken.sol:RBTPropertyToken","label":"label","offset":0,"slot":"0","type":"t_string_storage"},{"astId":10266,"contract":"contracts/rbt/RBTPropertyToken.sol:RBTPropertyToken","label":"unitPrice","offset":0,"slot":"1","type":"t_uint256"},{"astId":10268,"contract":"contracts/rbt/RBTPropertyToken.sol:RBTPropertyToken","label":"maxSupply","offset":0,"slot":"2","type":"t_uint256"},{"astId":10270,"contract":"contracts/rbt/RBTPropertyToken.sol:RBTPropertyToken","label":"active","offset":0,"slot":"3","type":"t_bool"}],"numberOfBytes":"128"},"t_uint256":{"encoding":"inplace","label":"uint256","numberOfBytes":"32"}}}}}}