{
  "_format": "hh-sol-artifact-1",
  "contractName": "USDT",
  "sourceName": "contracts/USDT.sol",
  "abi": [
    {
      "inputs": [
        {
          "internalType": "string",
          "name": "name_",
          "type": "string"
        },
        {
          "internalType": "string",
          "name": "symbol_",
          "type": "string"
        },
        {
          "internalType": "uint256",
          "name": "initialSupply_",
          "type": "uint256"
        },
        {
          "internalType": "address",
          "name": "admin_",
          "type": "address"
        }
      ],
      "stateMutability": "nonpayable",
      "type": "constructor"
    },
    {
      "inputs": [],
      "name": "AccessControlBadConfirmation",
      "type": "error"
    },
    {
      "inputs": [
        {
          "internalType": "address",
          "name": "account",
          "type": "address"
        },
        {
          "internalType": "bytes32",
          "name": "neededRole",
          "type": "bytes32"
        }
      ],
      "name": "AccessControlUnauthorizedAccount",
      "type": "error"
    },
    {
      "inputs": [],
      "name": "ECDSAInvalidSignature",
      "type": "error"
    },
    {
      "inputs": [
        {
          "internalType": "uint256",
          "name": "length",
          "type": "uint256"
        }
      ],
      "name": "ECDSAInvalidSignatureLength",
      "type": "error"
    },
    {
      "inputs": [
        {
          "internalType": "bytes32",
          "name": "s",
          "type": "bytes32"
        }
      ],
      "name": "ECDSAInvalidSignatureS",
      "type": "error"
    },
    {
      "inputs": [
        {
          "internalType": "address",
          "name": "spender",
          "type": "address"
        },
        {
          "internalType": "uint256",
          "name": "allowance",
          "type": "uint256"
        },
        {
          "internalType": "uint256",
          "name": "needed",
          "type": "uint256"
        }
      ],
      "name": "ERC20InsufficientAllowance",
      "type": "error"
    },
    {
      "inputs": [
        {
          "internalType": "address",
          "name": "sender",
          "type": "address"
        },
        {
          "internalType": "uint256",
          "name": "balance",
          "type": "uint256"
        },
        {
          "internalType": "uint256",
          "name": "needed",
          "type": "uint256"
        }
      ],
      "name": "ERC20InsufficientBalance",
      "type": "error"
    },
    {
      "inputs": [
        {
          "internalType": "address",
          "name": "approver",
          "type": "address"
        }
      ],
      "name": "ERC20InvalidApprover",
      "type": "error"
    },
    {
      "inputs": [
        {
          "internalType": "address",
          "name": "receiver",
          "type": "address"
        }
      ],
      "name": "ERC20InvalidReceiver",
      "type": "error"
    },
    {
      "inputs": [
        {
          "internalType": "address",
          "name": "sender",
          "type": "address"
        }
      ],
      "name": "ERC20InvalidSender",
      "type": "error"
    },
    {
      "inputs": [
        {
          "internalType": "address",
          "name": "spender",
          "type": "address"
        }
      ],
      "name": "ERC20InvalidSpender",
      "type": "error"
    },
    {
      "inputs": [
        {
          "internalType": "uint256",
          "name": "deadline",
          "type": "uint256"
        }
      ],
      "name": "ERC2612ExpiredSignature",
      "type": "error"
    },
    {
      "inputs": [
        {
          "internalType": "address",
          "name": "signer",
          "type": "address"
        },
        {
          "internalType": "address",
          "name": "owner",
          "type": "address"
        }
      ],
      "name": "ERC2612InvalidSigner",
      "type": "error"
    },
    {
      "inputs": [],
      "name": "EnforcedPause",
      "type": "error"
    },
    {
      "inputs": [],
      "name": "ExpectedPause",
      "type": "error"
    },
    {
      "inputs": [
        {
          "internalType": "address",
          "name": "account",
          "type": "address"
        },
        {
          "internalType": "uint256",
          "name": "currentNonce",
          "type": "uint256"
        }
      ],
      "name": "InvalidAccountNonce",
      "type": "error"
    },
    {
      "inputs": [],
      "name": "InvalidShortString",
      "type": "error"
    },
    {
      "inputs": [
        {
          "internalType": "string",
          "name": "str",
          "type": "string"
        }
      ],
      "name": "StringTooLong",
      "type": "error"
    },
    {
      "anonymous": false,
      "inputs": [
        {
          "indexed": true,
          "internalType": "address",
          "name": "owner",
          "type": "address"
        },
        {
          "indexed": true,
          "internalType": "address",
          "name": "spender",
          "type": "address"
        },
        {
          "indexed": false,
          "internalType": "uint256",
          "name": "value",
          "type": "uint256"
        }
      ],
      "name": "Approval",
      "type": "event"
    },
    {
      "anonymous": false,
      "inputs": [],
      "name": "EIP712DomainChanged",
      "type": "event"
    },
    {
      "anonymous": false,
      "inputs": [
        {
          "indexed": false,
          "internalType": "address",
          "name": "account",
          "type": "address"
        }
      ],
      "name": "Paused",
      "type": "event"
    },
    {
      "anonymous": false,
      "inputs": [
        {
          "indexed": true,
          "internalType": "bytes32",
          "name": "role",
          "type": "bytes32"
        },
        {
          "indexed": true,
          "internalType": "bytes32",
          "name": "previousAdminRole",
          "type": "bytes32"
        },
        {
          "indexed": true,
          "internalType": "bytes32",
          "name": "newAdminRole",
          "type": "bytes32"
        }
      ],
      "name": "RoleAdminChanged",
      "type": "event"
    },
    {
      "anonymous": false,
      "inputs": [
        {
          "indexed": true,
          "internalType": "bytes32",
          "name": "role",
          "type": "bytes32"
        },
        {
          "indexed": true,
          "internalType": "address",
          "name": "account",
          "type": "address"
        },
        {
          "indexed": true,
          "internalType": "address",
          "name": "sender",
          "type": "address"
        }
      ],
      "name": "RoleGranted",
      "type": "event"
    },
    {
      "anonymous": false,
      "inputs": [
        {
          "indexed": true,
          "internalType": "bytes32",
          "name": "role",
          "type": "bytes32"
        },
        {
          "indexed": true,
          "internalType": "address",
          "name": "account",
          "type": "address"
        },
        {
          "indexed": true,
          "internalType": "address",
          "name": "sender",
          "type": "address"
        }
      ],
      "name": "RoleRevoked",
      "type": "event"
    },
    {
      "anonymous": false,
      "inputs": [
        {
          "indexed": true,
          "internalType": "address",
          "name": "from",
          "type": "address"
        },
        {
          "indexed": true,
          "internalType": "address",
          "name": "to",
          "type": "address"
        },
        {
          "indexed": false,
          "internalType": "uint256",
          "name": "value",
          "type": "uint256"
        }
      ],
      "name": "Transfer",
      "type": "event"
    },
    {
      "anonymous": false,
      "inputs": [
        {
          "indexed": false,
          "internalType": "address",
          "name": "account",
          "type": "address"
        }
      ],
      "name": "Unpaused",
      "type": "event"
    },
    {
      "inputs": [],
      "name": "DEFAULT_ADMIN_ROLE",
      "outputs": [
        {
          "internalType": "bytes32",
          "name": "",
          "type": "bytes32"
        }
      ],
      "stateMutability": "view",
      "type": "function"
    },
    {
      "inputs": [],
      "name": "DOMAIN_SEPARATOR",
      "outputs": [
        {
          "internalType": "bytes32",
          "name": "",
          "type": "bytes32"
        }
      ],
      "stateMutability": "view",
      "type": "function"
    },
    {
      "inputs": [],
      "name": "MINTER_ROLE",
      "outputs": [
        {
          "internalType": "bytes32",
          "name": "",
          "type": "bytes32"
        }
      ],
      "stateMutability": "view",
      "type": "function"
    },
    {
      "inputs": [],
      "name": "PAUSER_ROLE",
      "outputs": [
        {
          "internalType": "bytes32",
          "name": "",
          "type": "bytes32"
        }
      ],
      "stateMutability": "view",
      "type": "function"
    },
    {
      "inputs": [
        {
          "internalType": "address",
          "name": "owner",
          "type": "address"
        },
        {
          "internalType": "address",
          "name": "spender",
          "type": "address"
        }
      ],
      "name": "allowance",
      "outputs": [
        {
          "internalType": "uint256",
          "name": "",
          "type": "uint256"
        }
      ],
      "stateMutability": "view",
      "type": "function"
    },
    {
      "inputs": [
        {
          "internalType": "address",
          "name": "spender",
          "type": "address"
        },
        {
          "internalType": "uint256",
          "name": "value",
          "type": "uint256"
        }
      ],
      "name": "approve",
      "outputs": [
        {
          "internalType": "bool",
          "name": "",
          "type": "bool"
        }
      ],
      "stateMutability": "nonpayable",
      "type": "function"
    },
    {
      "inputs": [
        {
          "internalType": "address",
          "name": "account",
          "type": "address"
        }
      ],
      "name": "balanceOf",
      "outputs": [
        {
          "internalType": "uint256",
          "name": "",
          "type": "uint256"
        }
      ],
      "stateMutability": "view",
      "type": "function"
    },
    {
      "inputs": [
        {
          "internalType": "uint256",
          "name": "value",
          "type": "uint256"
        }
      ],
      "name": "burn",
      "outputs": [],
      "stateMutability": "nonpayable",
      "type": "function"
    },
    {
      "inputs": [
        {
          "internalType": "address",
          "name": "account",
          "type": "address"
        },
        {
          "internalType": "uint256",
          "name": "value",
          "type": "uint256"
        }
      ],
      "name": "burnFrom",
      "outputs": [],
      "stateMutability": "nonpayable",
      "type": "function"
    },
    {
      "inputs": [],
      "name": "decimals",
      "outputs": [
        {
          "internalType": "uint8",
          "name": "",
          "type": "uint8"
        }
      ],
      "stateMutability": "pure",
      "type": "function"
    },
    {
      "inputs": [],
      "name": "eip712Domain",
      "outputs": [
        {
          "internalType": "bytes1",
          "name": "fields",
          "type": "bytes1"
        },
        {
          "internalType": "string",
          "name": "name",
          "type": "string"
        },
        {
          "internalType": "string",
          "name": "version",
          "type": "string"
        },
        {
          "internalType": "uint256",
          "name": "chainId",
          "type": "uint256"
        },
        {
          "internalType": "address",
          "name": "verifyingContract",
          "type": "address"
        },
        {
          "internalType": "bytes32",
          "name": "salt",
          "type": "bytes32"
        },
        {
          "internalType": "uint256[]",
          "name": "extensions",
          "type": "uint256[]"
        }
      ],
      "stateMutability": "view",
      "type": "function"
    },
    {
      "inputs": [
        {
          "internalType": "bytes32",
          "name": "role",
          "type": "bytes32"
        }
      ],
      "name": "getRoleAdmin",
      "outputs": [
        {
          "internalType": "bytes32",
          "name": "",
          "type": "bytes32"
        }
      ],
      "stateMutability": "view",
      "type": "function"
    },
    {
      "inputs": [
        {
          "internalType": "bytes32",
          "name": "role",
          "type": "bytes32"
        },
        {
          "internalType": "address",
          "name": "account",
          "type": "address"
        }
      ],
      "name": "grantRole",
      "outputs": [],
      "stateMutability": "nonpayable",
      "type": "function"
    },
    {
      "inputs": [
        {
          "internalType": "bytes32",
          "name": "role",
          "type": "bytes32"
        },
        {
          "internalType": "address",
          "name": "account",
          "type": "address"
        }
      ],
      "name": "hasRole",
      "outputs": [
        {
          "internalType": "bool",
          "name": "",
          "type": "bool"
        }
      ],
      "stateMutability": "view",
      "type": "function"
    },
    {
      "inputs": [
        {
          "internalType": "address",
          "name": "to",
          "type": "address"
        },
        {
          "internalType": "uint256",
          "name": "amount",
          "type": "uint256"
        }
      ],
      "name": "mint",
      "outputs": [],
      "stateMutability": "nonpayable",
      "type": "function"
    },
    {
      "inputs": [],
      "name": "name",
      "outputs": [
        {
          "internalType": "string",
          "name": "",
          "type": "string"
        }
      ],
      "stateMutability": "view",
      "type": "function"
    },
    {
      "inputs": [
        {
          "internalType": "address",
          "name": "owner",
          "type": "address"
        }
      ],
      "name": "nonces",
      "outputs": [
        {
          "internalType": "uint256",
          "name": "",
          "type": "uint256"
        }
      ],
      "stateMutability": "view",
      "type": "function"
    },
    {
      "inputs": [],
      "name": "pause",
      "outputs": [],
      "stateMutability": "nonpayable",
      "type": "function"
    },
    {
      "inputs": [],
      "name": "paused",
      "outputs": [
        {
          "internalType": "bool",
          "name": "",
          "type": "bool"
        }
      ],
      "stateMutability": "view",
      "type": "function"
    },
    {
      "inputs": [
        {
          "internalType": "address",
          "name": "owner",
          "type": "address"
        },
        {
          "internalType": "address",
          "name": "spender",
          "type": "address"
        },
        {
          "internalType": "uint256",
          "name": "value",
          "type": "uint256"
        },
        {
          "internalType": "uint256",
          "name": "deadline",
          "type": "uint256"
        },
        {
          "internalType": "uint8",
          "name": "v",
          "type": "uint8"
        },
        {
          "internalType": "bytes32",
          "name": "r",
          "type": "bytes32"
        },
        {
          "internalType": "bytes32",
          "name": "s",
          "type": "bytes32"
        }
      ],
      "name": "permit",
      "outputs": [],
      "stateMutability": "nonpayable",
      "type": "function"
    },
    {
      "inputs": [
        {
          "internalType": "bytes32",
          "name": "role",
          "type": "bytes32"
        },
        {
          "internalType": "address",
          "name": "callerConfirmation",
          "type": "address"
        }
      ],
      "name": "renounceRole",
      "outputs": [],
      "stateMutability": "nonpayable",
      "type": "function"
    },
    {
      "inputs": [
        {
          "internalType": "bytes32",
          "name": "role",
          "type": "bytes32"
        },
        {
          "internalType": "address",
          "name": "account",
          "type": "address"
        }
      ],
      "name": "revokeRole",
      "outputs": [],
      "stateMutability": "nonpayable",
      "type": "function"
    },
    {
      "inputs": [
        {
          "internalType": "bytes4",
          "name": "interfaceId",
          "type": "bytes4"
        }
      ],
      "name": "supportsInterface",
      "outputs": [
        {
          "internalType": "bool",
          "name": "",
          "type": "bool"
        }
      ],
      "stateMutability": "view",
      "type": "function"
    },
    {
      "inputs": [],
      "name": "symbol",
      "outputs": [
        {
          "internalType": "string",
          "name": "",
          "type": "string"
        }
      ],
      "stateMutability": "view",
      "type": "function"
    },
    {
      "inputs": [],
      "name": "totalSupply",
      "outputs": [
        {
          "internalType": "uint256",
          "name": "",
          "type": "uint256"
        }
      ],
      "stateMutability": "view",
      "type": "function"
    },
    {
      "inputs": [
        {
          "internalType": "address",
          "name": "to",
          "type": "address"
        },
        {
          "internalType": "uint256",
          "name": "value",
          "type": "uint256"
        }
      ],
      "name": "transfer",
      "outputs": [
        {
          "internalType": "bool",
          "name": "",
          "type": "bool"
        }
      ],
      "stateMutability": "nonpayable",
      "type": "function"
    },
    {
      "inputs": [
        {
          "internalType": "address",
          "name": "from",
          "type": "address"
        },
        {
          "internalType": "address",
          "name": "to",
          "type": "address"
        },
        {
          "internalType": "uint256",
          "name": "value",
          "type": "uint256"
        }
      ],
      "name": "transferFrom",
      "outputs": [
        {
          "internalType": "bool",
          "name": "",
          "type": "bool"
        }
      ],
      "stateMutability": "nonpayable",
      "type": "function"
    },
    {
      "inputs": [],
      "name": "unpause",
      "outputs": [],
      "stateMutability": "nonpayable",
      "type": "function"
    }
  ],
  "bytecode": "0x6101606040523480156200001257600080fd5b5060405162001e5438038062001e548339810160408190526200003591620005d2565b6040805180820190915260018152603160f81b60208201528490819081866003620000618382620006f5565b506004620000708282620006f5565b50620000829150839050600562000216565b610120526200009381600662000216565b61014052815160208084019190912060e052815190820120610100524660a0526200012160e05161010051604080517f8b73c3c69bb8fe3d512ecc4cf759cc79239f7b179b0ffacaa9a75d522b39400f60208201529081019290925260608201524660808201523060a082015260009060c00160405160208183030381529060405280519060200120905090565b60805250503060c052506008805460ff191690556001600160a01b038116620001915760405162461bcd60e51b815260206004820152601460248201527f61646d696e2063616e6e6f74206265207a65726f00000000000000000000000060448201526064015b60405180910390fd5b6200019e6000826200024f565b50620001cb7f9f2df0fed2c77648de5860a4cc508cd0818c85b8b8a1ab4ceeef8d981c8956a6826200024f565b50620001f87f65d7a28e3265b37a6474929f336521b332c1681b933f6cb9f3376673440d862a826200024f565b5081156200020c576200020c818362000301565b505050506200083d565b600060208351101562000236576200022e836200033f565b905062000249565b81620002438482620006f5565b5060ff90505b92915050565b60008281526009602090815260408083206001600160a01b038516845290915281205460ff16620002f85760008381526009602090815260408083206001600160a01b03861684529091529020805460ff19166001179055620002af3390565b6001600160a01b0316826001600160a01b0316847f2f8788117e7eff1d82e926ec794901d17c78024a50270940304540a733656f0d60405160405180910390a450600162000249565b50600062000249565b6001600160a01b0382166200032d5760405163ec442f0560e01b81526000600482015260240162000188565b6200033b6000838362000382565b5050565b600080829050601f815111156200036d578260405163305a27a960e01b8152600401620001889190620007c1565b80516200037a82620007f6565b179392505050565b6200038f83838362000394565b505050565b6200039e620003ab565b6200038f838383620003d2565b60085460ff1615620003d05760405163d93c066560e01b815260040160405180910390fd5b565b6001600160a01b03831662000401578060026000828254620003f591906200081b565b90915550620004759050565b6001600160a01b03831660009081526020819052604090205481811015620004565760405163391434e360e21b81526001600160a01b0385166004820152602481018290526044810183905260640162000188565b6001600160a01b03841660009081526020819052604090209082900390555b6001600160a01b0382166200049357600280548290039055620004b2565b6001600160a01b03821660009081526020819052604090208054820190555b816001600160a01b0316836001600160a01b03167fddf252ad1be2c89b69c2b068fc378daa952ba7f163c4a11628f55a4df523b3ef83604051620004f891815260200190565b60405180910390a3505050565b634e487b7160e01b600052604160045260246000fd5b60005b83811015620005385781810151838201526020016200051e565b50506000910152565b600082601f8301126200055357600080fd5b81516001600160401b038082111562000570576200057062000505565b604051601f8301601f19908116603f011681019082821181831017156200059b576200059b62000505565b81604052838152866020858801011115620005b557600080fd5b620005c88460208301602089016200051b565b9695505050505050565b60008060008060808587031215620005e957600080fd5b84516001600160401b03808211156200060157600080fd5b6200060f8883890162000541565b955060208701519150808211156200062657600080fd5b50620006358782880162000541565b60408701516060880151919550935090506001600160a01b03811681146200065c57600080fd5b939692955090935050565b600181811c908216806200067c57607f821691505b6020821081036200069d57634e487b7160e01b600052602260045260246000fd5b50919050565b601f8211156200038f57600081815260208120601f850160051c81016020861015620006cc5750805b601f850160051c820191505b81811015620006ed57828155600101620006d8565b505050505050565b81516001600160401b0381111562000711576200071162000505565b620007298162000722845462000667565b84620006a3565b602080601f831160018114620007615760008415620007485750858301515b600019600386901b1c1916600185901b178555620006ed565b600085815260208120601f198616915b82811015620007925788860151825594840194600190910190840162000771565b5085821015620007b15787850151600019600388901b60f8161c191681555b5050505050600190811b01905550565b6020815260008251806020840152620007e28160408501602087016200051b565b601f01601f19169190910160400192915050565b805160208083015191908110156200069d5760001960209190910360031b1b16919050565b808201808211156200024957634e487b7160e01b600052601160045260246000fd5b60805160a05160c05160e0516101005161012051610140516115bc620008986000396000610cbc01526000610c8f01526000610acf01526000610aa701526000610a0201526000610a2c01526000610a5601526115bc6000f3fe608060405234801561001057600080fd5b50600436106101c45760003560e01c806370a08231116100f9578063a217fddf11610097578063d539139311610071578063d539139314610394578063d547741f146103bb578063dd62ed3e146103ce578063e63ab1e91461040757600080fd5b8063a217fddf14610366578063a9059cbb1461036e578063d505accf1461038157600080fd5b80638456cb59116100d35780638456cb591461032857806384b0196e1461033057806391d148541461034b57806395d89b411461035e57600080fd5b806370a08231146102d957806379cc6790146103025780637ecebe001461031557600080fd5b8063313ce567116101665780633f4ba83a116101405780633f4ba83a146102a057806340c10f19146102a857806342966c68146102bb5780635c975abb146102ce57600080fd5b8063313ce567146102765780633644e5151461028557806336568abe1461028d57600080fd5b806318160ddd116101a257806318160ddd1461021957806323b872dd1461022b578063248a9ca31461023e5780632f2ff15d1461026157600080fd5b806301ffc9a7146101c957806306fdde03146101f1578063095ea7b314610206575b600080fd5b6101dc6101d7366004611276565b61042e565b60405190151581526020015b60405180910390f35b6101f9610465565b6040516101e891906112ed565b6101dc61021436600461131c565b6104f7565b6002545b6040519081526020016101e8565b6101dc610239366004611346565b61050f565b61021d61024c366004611382565b60009081526009602052604090206001015490565b61027461026f36600461139b565b610533565b005b604051600681526020016101e8565b61021d61055e565b61027461029b36600461139b565b61056d565b6102746105a5565b6102746102b636600461131c565b6105da565b6102746102c9366004611382565b61060e565b60085460ff166101dc565b61021d6102e73660046113c7565b6001600160a01b031660009081526020819052604090205490565b61027461031036600461131c565b610618565b61021d6103233660046113c7565b610631565b61027461064f565b610338610681565b6040516101e897969594939291906113e2565b6101dc61035936600461139b565b6106c7565b6101f96106f2565b61021d600081565b6101dc61037c36600461131c565b610701565b61027461038f366004611478565b61070f565b61021d7f9f2df0fed2c77648de5860a4cc508cd0818c85b8b8a1ab4ceeef8d981c8956a681565b6102746103c936600461139b565b61084e565b61021d6103dc3660046114eb565b6001600160a01b03918216600090815260016020908152604080832093909416825291909152205490565b61021d7f65d7a28e3265b37a6474929f336521b332c1681b933f6cb9f3376673440d862a81565b60006001600160e01b03198216637965db0b60e01b148061045f57506301ffc9a760e01b6001600160e01b03198316145b92915050565b60606003805461047490611515565b80601f01602080910402602001604051908101604052809291908181526020018280546104a090611515565b80156104ed5780601f106104c2576101008083540402835291602001916104ed565b820191906000526020600020905b8154815290600101906020018083116104d057829003601f168201915b5050505050905090565b600033610505818585610873565b5060019392505050565b60003361051d858285610880565b6105288585856108f8565b506001949350505050565b60008281526009602052604090206001015461054e81610957565b6105588383610961565b50505050565b60006105686109f5565b905090565b6001600160a01b03811633146105965760405163334bd91960e11b815260040160405180910390fd5b6105a08282610b20565b505050565b7f65d7a28e3265b37a6474929f336521b332c1681b933f6cb9f3376673440d862a6105cf81610957565b6105d7610b8d565b50565b7f9f2df0fed2c77648de5860a4cc508cd0818c85b8b8a1ab4ceeef8d981c8956a661060481610957565b6105a08383610bdf565b6105d73382610c15565b610623823383610880565b61062d8282610c15565b5050565b6001600160a01b03811660009081526007602052604081205461045f565b7f65d7a28e3265b37a6474929f336521b332c1681b933f6cb9f3376673440d862a61067981610957565b6105d7610c4b565b600060608060008060006060610695610c88565b61069d610cb5565b60408051600080825260208201909252600f60f81b9b939a50919850469750309650945092509050565b60009182526009602090815260408084206001600160a01b0393909316845291905290205460ff1690565b60606004805461047490611515565b6000336105058185856108f8565b834211156107385760405163313c898160e11b8152600481018590526024015b60405180910390fd5b60007f6e71edae12b1b97f4d1f60370fef10105fa2faae0126114a169c64845d6126c98888886107858c6001600160a01b0316600090815260076020526040902080546001810190915590565b6040805160208101969096526001600160a01b0394851690860152929091166060840152608083015260a082015260c0810186905260e00160405160208183030381529060405280519060200120905060006107e082610ce2565b905060006107f082878787610d0f565b9050896001600160a01b0316816001600160a01b031614610837576040516325c0072360e11b81526001600160a01b0380831660048301528b16602482015260440161072f565b6108428a8a8a610873565b50505050505050505050565b60008281526009602052604090206001015461086981610957565b6105588383610b20565b6105a08383836001610d3d565b6001600160a01b03838116600090815260016020908152604080832093861683529290522054600019811461055857818110156108e957604051637dc7a0d960e11b81526001600160a01b0384166004820152602481018290526044810183905260640161072f565b61055884848484036000610d3d565b6001600160a01b03831661092257604051634b637e8f60e11b81526000600482015260240161072f565b6001600160a01b03821661094c5760405163ec442f0560e01b81526000600482015260240161072f565b6105a0838383610e12565b6105d78133610e1d565b600061096d83836106c7565b6109ed5760008381526009602090815260408083206001600160a01b03861684529091529020805460ff191660011790556109a53390565b6001600160a01b0316826001600160a01b0316847f2f8788117e7eff1d82e926ec794901d17c78024a50270940304540a733656f0d60405160405180910390a450600161045f565b50600061045f565b6000306001600160a01b037f000000000000000000000000000000000000000000000000000000000000000016148015610a4e57507f000000000000000000000000000000000000000000000000000000000000000046145b15610a7857507f000000000000000000000000000000000000000000000000000000000000000090565b610568604080517f8b73c3c69bb8fe3d512ecc4cf759cc79239f7b179b0ffacaa9a75d522b39400f60208201527f0000000000000000000000000000000000000000000000000000000000000000918101919091527f000000000000000000000000000000000000000000000000000000000000000060608201524660808201523060a082015260009060c00160405160208183030381529060405280519060200120905090565b6000610b2c83836106c7565b156109ed5760008381526009602090815260408083206001600160a01b0386168085529252808320805460ff1916905551339286917ff6391f5c32d9c69d2a47ea670b442974b53935d1edc7fd64eb21e047a839171b9190a450600161045f565b610b95610e56565b6008805460ff191690557f5db9ee0a495bf2e6ff9c91a7834c1ba4fdd244a5e8aa4e537bd38aeae4b073aa335b6040516001600160a01b03909116815260200160405180910390a1565b6001600160a01b038216610c095760405163ec442f0560e01b81526000600482015260240161072f565b61062d60008383610e12565b6001600160a01b038216610c3f57604051634b637e8f60e11b81526000600482015260240161072f565b61062d82600083610e12565b610c53610e7b565b6008805460ff191660011790557f62e78cea01bee320cd4e420270b5ea74000d11b0c9f74754ebdbfc544b05a258610bc23390565b60606105687f00000000000000000000000000000000000000000000000000000000000000006005610e9f565b60606105687f00000000000000000000000000000000000000000000000000000000000000006006610e9f565b600061045f610cef6109f5565b8360405161190160f01b8152600281019290925260228201526042902090565b600080600080610d2188888888610f4a565b925092509250610d318282611019565b50909695505050505050565b6001600160a01b038416610d675760405163e602df0560e01b81526000600482015260240161072f565b6001600160a01b038316610d9157604051634a1406b160e11b81526000600482015260240161072f565b6001600160a01b038085166000908152600160209081526040808320938716835292905220829055801561055857826001600160a01b0316846001600160a01b03167f8c5be1e5ebec7d5bd14f71427d1e84f3dd0314c0f7b2291e5b200ac8c7c3b92584604051610e0491815260200190565b60405180910390a350505050565b6105a08383836110d2565b610e2782826106c7565b61062d5760405163e2517d3f60e01b81526001600160a01b03821660048201526024810183905260440161072f565b60085460ff16610e7957604051638dfc202b60e01b815260040160405180910390fd5b565b60085460ff1615610e795760405163d93c066560e01b815260040160405180910390fd5b606060ff8314610eb957610eb2836110e5565b905061045f565b818054610ec590611515565b80601f0160208091040260200160405190810160405280929190818152602001828054610ef190611515565b8015610f3e5780601f10610f1357610100808354040283529160200191610f3e565b820191906000526020600020905b815481529060010190602001808311610f2157829003601f168201915b5050505050905061045f565b600080807f7fffffffffffffffffffffffffffffff5d576e7357a4501ddfe92f46681b20a0841115610f85575060009150600390508261100f565b604080516000808252602082018084528a905260ff891692820192909252606081018790526080810186905260019060a0016020604051602081039080840390855afa158015610fd9573d6000803e3d6000fd5b5050604051601f1901519150506001600160a01b0381166110055750600092506001915082905061100f565b9250600091508190505b9450945094915050565b600082600381111561102d5761102d61154f565b03611036575050565b600182600381111561104a5761104a61154f565b036110685760405163f645eedf60e01b815260040160405180910390fd5b600282600381111561107c5761107c61154f565b0361109d5760405163fce698f760e01b81526004810182905260240161072f565b60038260038111156110b1576110b161154f565b0361062d576040516335e2f38360e21b81526004810182905260240161072f565b6110da610e7b565b6105a0838383611124565b606060006110f28361124e565b604080516020808252818301909252919250600091906020820181803683375050509182525060208101929092525090565b6001600160a01b03831661114f5780600260008282546111449190611565565b909155506111c19050565b6001600160a01b038316600090815260208190526040902054818110156111a25760405163391434e360e21b81526001600160a01b0385166004820152602481018290526044810183905260640161072f565b6001600160a01b03841660009081526020819052604090209082900390555b6001600160a01b0382166111dd576002805482900390556111fc565b6001600160a01b03821660009081526020819052604090208054820190555b816001600160a01b0316836001600160a01b03167fddf252ad1be2c89b69c2b068fc378daa952ba7f163c4a11628f55a4df523b3ef8360405161124191815260200190565b60405180910390a3505050565b600060ff8216601f81111561045f57604051632cd44ac360e21b815260040160405180910390fd5b60006020828403121561128857600080fd5b81356001600160e01b0319811681146112a057600080fd5b9392505050565b6000815180845260005b818110156112cd576020818501810151868301820152016112b1565b506000602082860101526020601f19601f83011685010191505092915050565b6020815260006112a060208301846112a7565b80356001600160a01b038116811461131757600080fd5b919050565b6000806040838503121561132f57600080fd5b61133883611300565b946020939093013593505050565b60008060006060848603121561135b57600080fd5b61136484611300565b925061137260208501611300565b9150604084013590509250925092565b60006020828403121561139457600080fd5b5035919050565b600080604083850312156113ae57600080fd5b823591506113be60208401611300565b90509250929050565b6000602082840312156113d957600080fd5b6112a082611300565b60ff60f81b881681526000602060e08184015261140260e084018a6112a7565b8381036040850152611414818a6112a7565b606085018990526001600160a01b038816608086015260a0850187905284810360c0860152855180825283870192509083019060005b818110156114665783518352928401929184019160010161144a565b50909c9b505050505050505050505050565b600080600080600080600060e0888a03121561149357600080fd5b61149c88611300565b96506114aa60208901611300565b95506040880135945060608801359350608088013560ff811681146114ce57600080fd5b9699959850939692959460a0840135945060c09093013592915050565b600080604083850312156114fe57600080fd5b61150783611300565b91506113be60208401611300565b600181811c9082168061152957607f821691505b60208210810361154957634e487b7160e01b600052602260045260246000fd5b50919050565b634e487b7160e01b600052602160045260246000fd5b8082018082111561045f57634e487b7160e01b600052601160045260246000fdfea2646970667358221220d3f44b530cc11919f462813a0c2f6af95e630306d4d518a0e80d9ad60163013d64736f6c63430008140033",
  "linkReferences": {},
  "deployedLinkReferences": {}
}