{
  "_format": "hh-sol-artifact-1",
  "contractName": "RBT",
  "sourceName": "contracts/outdate/RBT.sol",
  "abi": [
    {
      "inputs": [
        {
          "internalType": "string",
          "name": "name_",
          "type": "string"
        },
        {
          "internalType": "string",
          "name": "symbol_",
          "type": "string"
        },
        {
          "internalType": "uint256",
          "name": "initialSupply_",
          "type": "uint256"
        },
        {
          "internalType": "address",
          "name": "admin_",
          "type": "address"
        }
      ],
      "stateMutability": "nonpayable",
      "type": "constructor"
    },
    {
      "inputs": [],
      "name": "AccessControlBadConfirmation",
      "type": "error"
    },
    {
      "inputs": [
        {
          "internalType": "address",
          "name": "account",
          "type": "address"
        },
        {
          "internalType": "bytes32",
          "name": "neededRole",
          "type": "bytes32"
        }
      ],
      "name": "AccessControlUnauthorizedAccount",
      "type": "error"
    },
    {
      "inputs": [],
      "name": "ECDSAInvalidSignature",
      "type": "error"
    },
    {
      "inputs": [
        {
          "internalType": "uint256",
          "name": "length",
          "type": "uint256"
        }
      ],
      "name": "ECDSAInvalidSignatureLength",
      "type": "error"
    },
    {
      "inputs": [
        {
          "internalType": "bytes32",
          "name": "s",
          "type": "bytes32"
        }
      ],
      "name": "ECDSAInvalidSignatureS",
      "type": "error"
    },
    {
      "inputs": [
        {
          "internalType": "address",
          "name": "spender",
          "type": "address"
        },
        {
          "internalType": "uint256",
          "name": "allowance",
          "type": "uint256"
        },
        {
          "internalType": "uint256",
          "name": "needed",
          "type": "uint256"
        }
      ],
      "name": "ERC20InsufficientAllowance",
      "type": "error"
    },
    {
      "inputs": [
        {
          "internalType": "address",
          "name": "sender",
          "type": "address"
        },
        {
          "internalType": "uint256",
          "name": "balance",
          "type": "uint256"
        },
        {
          "internalType": "uint256",
          "name": "needed",
          "type": "uint256"
        }
      ],
      "name": "ERC20InsufficientBalance",
      "type": "error"
    },
    {
      "inputs": [
        {
          "internalType": "address",
          "name": "approver",
          "type": "address"
        }
      ],
      "name": "ERC20InvalidApprover",
      "type": "error"
    },
    {
      "inputs": [
        {
          "internalType": "address",
          "name": "receiver",
          "type": "address"
        }
      ],
      "name": "ERC20InvalidReceiver",
      "type": "error"
    },
    {
      "inputs": [
        {
          "internalType": "address",
          "name": "sender",
          "type": "address"
        }
      ],
      "name": "ERC20InvalidSender",
      "type": "error"
    },
    {
      "inputs": [
        {
          "internalType": "address",
          "name": "spender",
          "type": "address"
        }
      ],
      "name": "ERC20InvalidSpender",
      "type": "error"
    },
    {
      "inputs": [
        {
          "internalType": "uint256",
          "name": "deadline",
          "type": "uint256"
        }
      ],
      "name": "ERC2612ExpiredSignature",
      "type": "error"
    },
    {
      "inputs": [
        {
          "internalType": "address",
          "name": "signer",
          "type": "address"
        },
        {
          "internalType": "address",
          "name": "owner",
          "type": "address"
        }
      ],
      "name": "ERC2612InvalidSigner",
      "type": "error"
    },
    {
      "inputs": [],
      "name": "EnforcedPause",
      "type": "error"
    },
    {
      "inputs": [],
      "name": "ExpectedPause",
      "type": "error"
    },
    {
      "inputs": [
        {
          "internalType": "address",
          "name": "account",
          "type": "address"
        },
        {
          "internalType": "uint256",
          "name": "currentNonce",
          "type": "uint256"
        }
      ],
      "name": "InvalidAccountNonce",
      "type": "error"
    },
    {
      "inputs": [],
      "name": "InvalidShortString",
      "type": "error"
    },
    {
      "inputs": [
        {
          "internalType": "string",
          "name": "str",
          "type": "string"
        }
      ],
      "name": "StringTooLong",
      "type": "error"
    },
    {
      "anonymous": false,
      "inputs": [
        {
          "indexed": true,
          "internalType": "address",
          "name": "owner",
          "type": "address"
        },
        {
          "indexed": true,
          "internalType": "address",
          "name": "spender",
          "type": "address"
        },
        {
          "indexed": false,
          "internalType": "uint256",
          "name": "value",
          "type": "uint256"
        }
      ],
      "name": "Approval",
      "type": "event"
    },
    {
      "anonymous": false,
      "inputs": [],
      "name": "EIP712DomainChanged",
      "type": "event"
    },
    {
      "anonymous": false,
      "inputs": [
        {
          "indexed": false,
          "internalType": "address",
          "name": "account",
          "type": "address"
        }
      ],
      "name": "Paused",
      "type": "event"
    },
    {
      "anonymous": false,
      "inputs": [
        {
          "indexed": true,
          "internalType": "bytes32",
          "name": "role",
          "type": "bytes32"
        },
        {
          "indexed": true,
          "internalType": "bytes32",
          "name": "previousAdminRole",
          "type": "bytes32"
        },
        {
          "indexed": true,
          "internalType": "bytes32",
          "name": "newAdminRole",
          "type": "bytes32"
        }
      ],
      "name": "RoleAdminChanged",
      "type": "event"
    },
    {
      "anonymous": false,
      "inputs": [
        {
          "indexed": true,
          "internalType": "bytes32",
          "name": "role",
          "type": "bytes32"
        },
        {
          "indexed": true,
          "internalType": "address",
          "name": "account",
          "type": "address"
        },
        {
          "indexed": true,
          "internalType": "address",
          "name": "sender",
          "type": "address"
        }
      ],
      "name": "RoleGranted",
      "type": "event"
    },
    {
      "anonymous": false,
      "inputs": [
        {
          "indexed": true,
          "internalType": "bytes32",
          "name": "role",
          "type": "bytes32"
        },
        {
          "indexed": true,
          "internalType": "address",
          "name": "account",
          "type": "address"
        },
        {
          "indexed": true,
          "internalType": "address",
          "name": "sender",
          "type": "address"
        }
      ],
      "name": "RoleRevoked",
      "type": "event"
    },
    {
      "anonymous": false,
      "inputs": [
        {
          "indexed": true,
          "internalType": "address",
          "name": "from",
          "type": "address"
        },
        {
          "indexed": true,
          "internalType": "address",
          "name": "to",
          "type": "address"
        },
        {
          "indexed": false,
          "internalType": "uint256",
          "name": "value",
          "type": "uint256"
        }
      ],
      "name": "Transfer",
      "type": "event"
    },
    {
      "anonymous": false,
      "inputs": [
        {
          "indexed": false,
          "internalType": "address",
          "name": "account",
          "type": "address"
        }
      ],
      "name": "Unpaused",
      "type": "event"
    },
    {
      "anonymous": false,
      "inputs": [
        {
          "indexed": false,
          "internalType": "bool",
          "name": "enabled",
          "type": "bool"
        }
      ],
      "name": "WhitelistEnabled",
      "type": "event"
    },
    {
      "anonymous": false,
      "inputs": [
        {
          "indexed": true,
          "internalType": "address",
          "name": "account",
          "type": "address"
        },
        {
          "indexed": false,
          "internalType": "bool",
          "name": "allowed",
          "type": "bool"
        }
      ],
      "name": "WhitelistSet",
      "type": "event"
    },
    {
      "inputs": [],
      "name": "COMPLIANCE_ROLE",
      "outputs": [
        {
          "internalType": "bytes32",
          "name": "",
          "type": "bytes32"
        }
      ],
      "stateMutability": "view",
      "type": "function"
    },
    {
      "inputs": [],
      "name": "DEFAULT_ADMIN_ROLE",
      "outputs": [
        {
          "internalType": "bytes32",
          "name": "",
          "type": "bytes32"
        }
      ],
      "stateMutability": "view",
      "type": "function"
    },
    {
      "inputs": [],
      "name": "DOMAIN_SEPARATOR",
      "outputs": [
        {
          "internalType": "bytes32",
          "name": "",
          "type": "bytes32"
        }
      ],
      "stateMutability": "view",
      "type": "function"
    },
    {
      "inputs": [],
      "name": "MINTER_ROLE",
      "outputs": [
        {
          "internalType": "bytes32",
          "name": "",
          "type": "bytes32"
        }
      ],
      "stateMutability": "view",
      "type": "function"
    },
    {
      "inputs": [],
      "name": "PAUSER_ROLE",
      "outputs": [
        {
          "internalType": "bytes32",
          "name": "",
          "type": "bytes32"
        }
      ],
      "stateMutability": "view",
      "type": "function"
    },
    {
      "inputs": [
        {
          "internalType": "address",
          "name": "owner",
          "type": "address"
        },
        {
          "internalType": "address",
          "name": "spender",
          "type": "address"
        }
      ],
      "name": "allowance",
      "outputs": [
        {
          "internalType": "uint256",
          "name": "",
          "type": "uint256"
        }
      ],
      "stateMutability": "view",
      "type": "function"
    },
    {
      "inputs": [
        {
          "internalType": "address",
          "name": "spender",
          "type": "address"
        },
        {
          "internalType": "uint256",
          "name": "value",
          "type": "uint256"
        }
      ],
      "name": "approve",
      "outputs": [
        {
          "internalType": "bool",
          "name": "",
          "type": "bool"
        }
      ],
      "stateMutability": "nonpayable",
      "type": "function"
    },
    {
      "inputs": [
        {
          "internalType": "address",
          "name": "account",
          "type": "address"
        }
      ],
      "name": "balanceOf",
      "outputs": [
        {
          "internalType": "uint256",
          "name": "",
          "type": "uint256"
        }
      ],
      "stateMutability": "view",
      "type": "function"
    },
    {
      "inputs": [
        {
          "internalType": "address[]",
          "name": "accounts",
          "type": "address[]"
        },
        {
          "internalType": "bool",
          "name": "allowed",
          "type": "bool"
        }
      ],
      "name": "batchSetWhitelist",
      "outputs": [],
      "stateMutability": "nonpayable",
      "type": "function"
    },
    {
      "inputs": [
        {
          "internalType": "uint256",
          "name": "value",
          "type": "uint256"
        }
      ],
      "name": "burn",
      "outputs": [],
      "stateMutability": "nonpayable",
      "type": "function"
    },
    {
      "inputs": [
        {
          "internalType": "address",
          "name": "account",
          "type": "address"
        },
        {
          "internalType": "uint256",
          "name": "value",
          "type": "uint256"
        }
      ],
      "name": "burnFrom",
      "outputs": [],
      "stateMutability": "nonpayable",
      "type": "function"
    },
    {
      "inputs": [],
      "name": "decimals",
      "outputs": [
        {
          "internalType": "uint8",
          "name": "",
          "type": "uint8"
        }
      ],
      "stateMutability": "view",
      "type": "function"
    },
    {
      "inputs": [],
      "name": "eip712Domain",
      "outputs": [
        {
          "internalType": "bytes1",
          "name": "fields",
          "type": "bytes1"
        },
        {
          "internalType": "string",
          "name": "name",
          "type": "string"
        },
        {
          "internalType": "string",
          "name": "version",
          "type": "string"
        },
        {
          "internalType": "uint256",
          "name": "chainId",
          "type": "uint256"
        },
        {
          "internalType": "address",
          "name": "verifyingContract",
          "type": "address"
        },
        {
          "internalType": "bytes32",
          "name": "salt",
          "type": "bytes32"
        },
        {
          "internalType": "uint256[]",
          "name": "extensions",
          "type": "uint256[]"
        }
      ],
      "stateMutability": "view",
      "type": "function"
    },
    {
      "inputs": [
        {
          "internalType": "bytes32",
          "name": "role",
          "type": "bytes32"
        }
      ],
      "name": "getRoleAdmin",
      "outputs": [
        {
          "internalType": "bytes32",
          "name": "",
          "type": "bytes32"
        }
      ],
      "stateMutability": "view",
      "type": "function"
    },
    {
      "inputs": [
        {
          "internalType": "bytes32",
          "name": "role",
          "type": "bytes32"
        },
        {
          "internalType": "address",
          "name": "account",
          "type": "address"
        }
      ],
      "name": "grantRole",
      "outputs": [],
      "stateMutability": "nonpayable",
      "type": "function"
    },
    {
      "inputs": [
        {
          "internalType": "bytes32",
          "name": "role",
          "type": "bytes32"
        },
        {
          "internalType": "address",
          "name": "account",
          "type": "address"
        }
      ],
      "name": "hasRole",
      "outputs": [
        {
          "internalType": "bool",
          "name": "",
          "type": "bool"
        }
      ],
      "stateMutability": "view",
      "type": "function"
    },
    {
      "inputs": [
        {
          "internalType": "address",
          "name": "account",
          "type": "address"
        }
      ],
      "name": "isWhitelisted",
      "outputs": [
        {
          "internalType": "bool",
          "name": "",
          "type": "bool"
        }
      ],
      "stateMutability": "view",
      "type": "function"
    },
    {
      "inputs": [
        {
          "internalType": "address",
          "name": "to",
          "type": "address"
        },
        {
          "internalType": "uint256",
          "name": "amount",
          "type": "uint256"
        }
      ],
      "name": "mint",
      "outputs": [],
      "stateMutability": "nonpayable",
      "type": "function"
    },
    {
      "inputs": [],
      "name": "name",
      "outputs": [
        {
          "internalType": "string",
          "name": "",
          "type": "string"
        }
      ],
      "stateMutability": "view",
      "type": "function"
    },
    {
      "inputs": [
        {
          "internalType": "address",
          "name": "owner",
          "type": "address"
        }
      ],
      "name": "nonces",
      "outputs": [
        {
          "internalType": "uint256",
          "name": "",
          "type": "uint256"
        }
      ],
      "stateMutability": "view",
      "type": "function"
    },
    {
      "inputs": [],
      "name": "pause",
      "outputs": [],
      "stateMutability": "nonpayable",
      "type": "function"
    },
    {
      "inputs": [],
      "name": "paused",
      "outputs": [
        {
          "internalType": "bool",
          "name": "",
          "type": "bool"
        }
      ],
      "stateMutability": "view",
      "type": "function"
    },
    {
      "inputs": [
        {
          "internalType": "address",
          "name": "owner",
          "type": "address"
        },
        {
          "internalType": "address",
          "name": "spender",
          "type": "address"
        },
        {
          "internalType": "uint256",
          "name": "value",
          "type": "uint256"
        },
        {
          "internalType": "uint256",
          "name": "deadline",
          "type": "uint256"
        },
        {
          "internalType": "uint8",
          "name": "v",
          "type": "uint8"
        },
        {
          "internalType": "bytes32",
          "name": "r",
          "type": "bytes32"
        },
        {
          "internalType": "bytes32",
          "name": "s",
          "type": "bytes32"
        }
      ],
      "name": "permit",
      "outputs": [],
      "stateMutability": "nonpayable",
      "type": "function"
    },
    {
      "inputs": [
        {
          "internalType": "bytes32",
          "name": "role",
          "type": "bytes32"
        },
        {
          "internalType": "address",
          "name": "callerConfirmation",
          "type": "address"
        }
      ],
      "name": "renounceRole",
      "outputs": [],
      "stateMutability": "nonpayable",
      "type": "function"
    },
    {
      "inputs": [
        {
          "internalType": "bytes32",
          "name": "role",
          "type": "bytes32"
        },
        {
          "internalType": "address",
          "name": "account",
          "type": "address"
        }
      ],
      "name": "revokeRole",
      "outputs": [],
      "stateMutability": "nonpayable",
      "type": "function"
    },
    {
      "inputs": [
        {
          "internalType": "address",
          "name": "account",
          "type": "address"
        },
        {
          "internalType": "bool",
          "name": "allowed",
          "type": "bool"
        }
      ],
      "name": "setWhitelist",
      "outputs": [],
      "stateMutability": "nonpayable",
      "type": "function"
    },
    {
      "inputs": [
        {
          "internalType": "bool",
          "name": "enabled",
          "type": "bool"
        }
      ],
      "name": "setWhitelistEnabled",
      "outputs": [],
      "stateMutability": "nonpayable",
      "type": "function"
    },
    {
      "inputs": [
        {
          "internalType": "bytes4",
          "name": "interfaceId",
          "type": "bytes4"
        }
      ],
      "name": "supportsInterface",
      "outputs": [
        {
          "internalType": "bool",
          "name": "",
          "type": "bool"
        }
      ],
      "stateMutability": "view",
      "type": "function"
    },
    {
      "inputs": [],
      "name": "symbol",
      "outputs": [
        {
          "internalType": "string",
          "name": "",
          "type": "string"
        }
      ],
      "stateMutability": "view",
      "type": "function"
    },
    {
      "inputs": [],
      "name": "totalSupply",
      "outputs": [
        {
          "internalType": "uint256",
          "name": "",
          "type": "uint256"
        }
      ],
      "stateMutability": "view",
      "type": "function"
    },
    {
      "inputs": [
        {
          "internalType": "address",
          "name": "to",
          "type": "address"
        },
        {
          "internalType": "uint256",
          "name": "value",
          "type": "uint256"
        }
      ],
      "name": "transfer",
      "outputs": [
        {
          "internalType": "bool",
          "name": "",
          "type": "bool"
        }
      ],
      "stateMutability": "nonpayable",
      "type": "function"
    },
    {
      "inputs": [
        {
          "internalType": "address",
          "name": "from",
          "type": "address"
        },
        {
          "internalType": "address",
          "name": "to",
          "type": "address"
        },
        {
          "internalType": "uint256",
          "name": "value",
          "type": "uint256"
        }
      ],
      "name": "transferFrom",
      "outputs": [
        {
          "internalType": "bool",
          "name": "",
          "type": "bool"
        }
      ],
      "stateMutability": "nonpayable",
      "type": "function"
    },
    {
      "inputs": [],
      "name": "unpause",
      "outputs": [],
      "stateMutability": "nonpayable",
      "type": "function"
    },
    {
      "inputs": [],
      "name": "whitelistEnabled",
      "outputs": [
        {
          "internalType": "bool",
          "name": "",
          "type": "bool"
        }
      ],
      "stateMutability": "view",
      "type": "function"
    }
  ],
  "bytecode": "0x6101606040523480156200001257600080fd5b506040516200241b3803806200241b8339810160408190526200003591620006f5565b6040805180820190915260018152603160f81b602082015284908190818660036200006183826200081a565b5060046200007082826200081a565b50620000829150839050600562000239565b610120526200009381600662000239565b61014052815160208084019190912060e052815190820120610100524660a0526200012160e05161010051604080517f8b73c3c69bb8fe3d512ecc4cf759cc79239f7b179b0ffacaa9a75d522b39400f60208201529081019290925260608201524660808201523060a082015260009060c00160405160208183030381529060405280519060200120905090565b60805250503060c052506001600160a01b038116620001875760405162461bcd60e51b815260206004820152601460248201527f61646d696e2063616e6e6f74206265207a65726f00000000000000000000000060448201526064015b60405180910390fd5b6200019460008262000272565b50620001c17f9f2df0fed2c77648de5860a4cc508cd0818c85b8b8a1ab4ceeef8d981c8956a68262000272565b50620001ee7f65d7a28e3265b37a6474929f336521b332c1681b933f6cb9f3376673440d862a8262000272565b506200021b7f442a94f1a1fac79af32856af2a64f63648cfa2ef3b98610a5bb7cbec4cee69858262000272565b5081156200022f576200022f818362000324565b5050505062000962565b60006020835110156200025957620002518362000362565b90506200026c565b816200026684826200081a565b5060ff90505b92915050565b60008281526009602090815260408083206001600160a01b038516845290915281205460ff166200031b5760008381526009602090815260408083206001600160a01b03861684529091529020805460ff19166001179055620002d23390565b6001600160a01b0316826001600160a01b0316847f2f8788117e7eff1d82e926ec794901d17c78024a50270940304540a733656f0d60405160405180910390a45060016200026c565b5060006200026c565b6001600160a01b038216620003505760405163ec442f0560e01b8152600060048201526024016200017e565b6200035e60008383620003a5565b5050565b600080829050601f8151111562000390578260405163305a27a960e01b81526004016200017e9190620008e6565b80516200039d826200091b565b179392505050565b600a5460ff1615620004a5576001600160a01b038316156200042b576001600160a01b0383166000908152600b602052604090205460ff166200042b5760405162461bcd60e51b815260206004820152601b60248201527f5242543a2073656e646572206e6f742077686974656c6973746564000000000060448201526064016200017e565b6001600160a01b03821615620004a5576001600160a01b0382166000908152600b602052604090205460ff16620004a55760405162461bcd60e51b815260206004820152601e60248201527f5242543a20726563697069656e74206e6f742077686974656c6973746564000060448201526064016200017e565b620004b2838383620004b7565b505050565b620004c1620004ce565b620004b2838383620004f5565b60085460ff1615620004f35760405163d93c066560e01b815260040160405180910390fd5b565b6001600160a01b0383166200052457806002600082825462000518919062000940565b90915550620005989050565b6001600160a01b03831660009081526020819052604090205481811015620005795760405163391434e360e21b81526001600160a01b038516600482015260248101829052604481018390526064016200017e565b6001600160a01b03841660009081526020819052604090209082900390555b6001600160a01b038216620005b657600280548290039055620005d5565b6001600160a01b03821660009081526020819052604090208054820190555b816001600160a01b0316836001600160a01b03167fddf252ad1be2c89b69c2b068fc378daa952ba7f163c4a11628f55a4df523b3ef836040516200061b91815260200190565b60405180910390a3505050565b634e487b7160e01b600052604160045260246000fd5b60005b838110156200065b57818101518382015260200162000641565b50506000910152565b600082601f8301126200067657600080fd5b81516001600160401b038082111562000693576200069362000628565b604051601f8301601f19908116603f01168101908282118183101715620006be57620006be62000628565b81604052838152866020858801011115620006d857600080fd5b620006eb8460208301602089016200063e565b9695505050505050565b600080600080608085870312156200070c57600080fd5b84516001600160401b03808211156200072457600080fd5b620007328883890162000664565b955060208701519150808211156200074957600080fd5b50620007588782880162000664565b60408701516060880151919550935090506001600160a01b03811681146200077f57600080fd5b939692955090935050565b600181811c908216806200079f57607f821691505b602082108103620007c057634e487b7160e01b600052602260045260246000fd5b50919050565b601f821115620004b2576000816000526020600020601f850160051c81016020861015620007f15750805b601f850160051c820191505b818110156200081257828155600101620007fd565b505050505050565b81516001600160401b0381111562000836576200083662000628565b6200084e816200084784546200078a565b84620007c6565b602080601f8311600181146200088657600084156200086d5750858301515b600019600386901b1c1916600185901b17855562000812565b600085815260208120601f198616915b82811015620008b75788860151825594840194600190910190840162000896565b5085821015620008d65787850151600019600388901b60f8161c191681555b5050505050600190811b01905550565b6020815260008251806020840152620009078160408501602087016200063e565b601f01601f19169190910160400192915050565b80516020808301519190811015620007c05760001960209190910360031b1b16919050565b808201808211156200026c57634e487b7160e01b600052601160045260246000fd5b60805160a05160c05160e051610100516101205161014051611a5e620009bd6000396000610f5301526000610f2601526000610d6601526000610d3e01526000610c9901526000610cc301526000610ced0152611a5e6000f3fe608060405234801561001057600080fd5b50600436106102065760003560e01c806353d6fd591161011a57806395d89b41116100ad578063d505accf1161007c578063d505accf1461044e578063d539139314610461578063d547741f14610488578063dd62ed3e1461049b578063e63ab1e9146104d457600080fd5b806395d89b4114610418578063a095e8f914610420578063a217fddf14610433578063a9059cbb1461043b57600080fd5b80637ecebe00116100e95780637ecebe00146103cf5780638456cb59146103e257806384b0196e146103ea57806391d148541461040557600080fd5b806353d6fd59146103755780635c975abb1461038857806370a082311461039357806379cc6790146103bc57600080fd5b80632f2ff15d1161019d5780633af32abf1161016c5780633af32abf1461030e5780633f4ba83a1461033a57806340c10f191461034257806342966c681461035557806351fb012d1461036857600080fd5b80632f2ff15d146102d1578063313ce567146102e45780633644e515146102f357806336568abe146102fb57600080fd5b8063095ea7b3116101d9578063095ea7b31461028057806318160ddd1461029357806323b872dd1461029b578063248a9ca3146102ae57600080fd5b806301ffc9a71461020b578063052d9e7e14610233578063062d3bd71461024857806306fdde031461026b575b600080fd5b61021e610219366004611606565b6104fb565b60405190151581526020015b60405180910390f35b61024661024136600461164c565b610532565b005b61025d600080516020611a0983398151915281565b60405190815260200161022a565b610273610592565b60405161022a91906116ad565b61021e61028e3660046116d7565b610624565b60025461025d565b61021e6102a9366004611701565b61063c565b61025d6102bc36600461173d565b60009081526009602052604090206001015490565b6102466102df366004611756565b610660565b6040516012815260200161022a565b61025d61068b565b610246610309366004611756565b61069a565b61021e61031c366004611782565b6001600160a01b03166000908152600b602052604090205460ff1690565b6102466106d2565b6102466103503660046116d7565b610707565b61024661036336600461173d565b61073b565b600a5461021e9060ff1681565b61024661038336600461179d565b610745565b60085460ff1661021e565b61025d6103a1366004611782565b6001600160a01b031660009081526020819052604090205490565b6102466103ca3660046116d7565b6107bd565b61025d6103dd366004611782565b6107d6565b6102466107f4565b6103f2610826565b60405161022a97969594939291906117c7565b61021e610413366004611756565b61086c565b610273610897565b61024661042e366004611860565b6108a6565b61025d600081565b61021e6104493660046116d7565b610997565b61024661045c3660046118e4565b6109a5565b61025d7f9f2df0fed2c77648de5860a4cc508cd0818c85b8b8a1ab4ceeef8d981c8956a681565b610246610496366004611756565b610ae4565b61025d6104a9366004611957565b6001600160a01b03918216600090815260016020908152604080832093909416825291909152205490565b61025d7f65d7a28e3265b37a6474929f336521b332c1681b933f6cb9f3376673440d862a81565b60006001600160e01b03198216637965db0b60e01b148061052c57506301ffc9a760e01b6001600160e01b03198316145b92915050565b600080516020611a0983398151915261054a81610b09565b600a805460ff19168315159081179091556040519081527f9bea0dd3cae4438dc4c54c3110002aedc380f4075b6edae73ae0536105a2008a9060200160405180910390a15050565b6060600380546105a190611981565b80601f01602080910402602001604051908101604052809291908181526020018280546105cd90611981565b801561061a5780601f106105ef5761010080835404028352916020019161061a565b820191906000526020600020905b8154815290600101906020018083116105fd57829003601f168201915b5050505050905090565b600033610632818585610b13565b5060019392505050565b60003361064a858285610b20565b610655858585610b99565b506001949350505050565b60008281526009602052604090206001015461067b81610b09565b6106858383610bf8565b50505050565b6000610695610c8c565b905090565b6001600160a01b03811633146106c35760405163334bd91960e11b815260040160405180910390fd5b6106cd8282610db7565b505050565b7f65d7a28e3265b37a6474929f336521b332c1681b933f6cb9f3376673440d862a6106fc81610b09565b610704610e24565b50565b7f9f2df0fed2c77648de5860a4cc508cd0818c85b8b8a1ab4ceeef8d981c8956a661073181610b09565b6106cd8383610e76565b6107043382610eac565b600080516020611a0983398151915261075d81610b09565b6001600160a01b0383166000818152600b6020908152604091829020805460ff191686151590811790915591519182527f0aa5ec5ffdc7f6f9c4d0dded489d7450297155cb2f71cb771e02427f7dff4f51910160405180910390a2505050565b6107c8823383610b20565b6107d28282610eac565b5050565b6001600160a01b03811660009081526007602052604081205461052c565b7f65d7a28e3265b37a6474929f336521b332c1681b933f6cb9f3376673440d862a61081e81610b09565b610704610ee2565b60006060806000806000606061083a610f1f565b610842610f4c565b60408051600080825260208201909252600f60f81b9b939a50919850469750309650945092509050565b60009182526009602090815260408084206001600160a01b0393909316845291905290205460ff1690565b6060600480546105a190611981565b600080516020611a098339815191526108be81610b09565b60005b838110156109905782600b60008787858181106108e0576108e06119bb565b90506020020160208101906108f59190611782565b6001600160a01b031681526020810191909152604001600020805460ff191691151591909117905584848281811061092f5761092f6119bb565b90506020020160208101906109449190611782565b6001600160a01b03167f0aa5ec5ffdc7f6f9c4d0dded489d7450297155cb2f71cb771e02427f7dff4f5184604051610980911515815260200190565b60405180910390a26001016108c1565b5050505050565b600033610632818585610b99565b834211156109ce5760405163313c898160e11b8152600481018590526024015b60405180910390fd5b60007f6e71edae12b1b97f4d1f60370fef10105fa2faae0126114a169c64845d6126c9888888610a1b8c6001600160a01b0316600090815260076020526040902080546001810190915590565b6040805160208101969096526001600160a01b0394851690860152929091166060840152608083015260a082015260c0810186905260e0016040516020818303038152906040528051906020012090506000610a7682610f79565b90506000610a8682878787610fa6565b9050896001600160a01b0316816001600160a01b031614610acd576040516325c0072360e11b81526001600160a01b0380831660048301528b1660248201526044016109c5565b610ad88a8a8a610b13565b50505050505050505050565b600082815260096020526040902060010154610aff81610b09565b6106858383610db7565b6107048133610fd4565b6106cd838383600161100d565b6001600160a01b038381166000908152600160209081526040808320938616835292905220546000198110156106855781811015610b8a57604051637dc7a0d960e11b81526001600160a01b038416600482015260248101829052604481018390526064016109c5565b6106858484848403600061100d565b6001600160a01b038316610bc357604051634b637e8f60e11b8152600060048201526024016109c5565b6001600160a01b038216610bed5760405163ec442f0560e01b8152600060048201526024016109c5565b6106cd8383836110e2565b6000610c04838361086c565b610c845760008381526009602090815260408083206001600160a01b03861684529091529020805460ff19166001179055610c3c3390565b6001600160a01b0316826001600160a01b0316847f2f8788117e7eff1d82e926ec794901d17c78024a50270940304540a733656f0d60405160405180910390a450600161052c565b50600061052c565b6000306001600160a01b037f000000000000000000000000000000000000000000000000000000000000000016148015610ce557507f000000000000000000000000000000000000000000000000000000000000000046145b15610d0f57507f000000000000000000000000000000000000000000000000000000000000000090565b610695604080517f8b73c3c69bb8fe3d512ecc4cf759cc79239f7b179b0ffacaa9a75d522b39400f60208201527f0000000000000000000000000000000000000000000000000000000000000000918101919091527f000000000000000000000000000000000000000000000000000000000000000060608201524660808201523060a082015260009060c00160405160208183030381529060405280519060200120905090565b6000610dc3838361086c565b15610c845760008381526009602090815260408083206001600160a01b0386168085529252808320805460ff1916905551339286917ff6391f5c32d9c69d2a47ea670b442974b53935d1edc7fd64eb21e047a839171b9190a450600161052c565b610e2c6111e6565b6008805460ff191690557f5db9ee0a495bf2e6ff9c91a7834c1ba4fdd244a5e8aa4e537bd38aeae4b073aa335b6040516001600160a01b03909116815260200160405180910390a1565b6001600160a01b038216610ea05760405163ec442f0560e01b8152600060048201526024016109c5565b6107d2600083836110e2565b6001600160a01b038216610ed657604051634b637e8f60e11b8152600060048201526024016109c5565b6107d2826000836110e2565b610eea61120b565b6008805460ff191660011790557f62e78cea01bee320cd4e420270b5ea74000d11b0c9f74754ebdbfc544b05a258610e593390565b60606106957f0000000000000000000000000000000000000000000000000000000000000000600561122f565b60606106957f0000000000000000000000000000000000000000000000000000000000000000600661122f565b600061052c610f86610c8c565b8360405161190160f01b8152600281019290925260228201526042902090565b600080600080610fb8888888886112da565b925092509250610fc882826113a9565b50909695505050505050565b610fde828261086c565b6107d25760405163e2517d3f60e01b81526001600160a01b0382166004820152602481018390526044016109c5565b6001600160a01b0384166110375760405163e602df0560e01b8152600060048201526024016109c5565b6001600160a01b03831661106157604051634a1406b160e11b8152600060048201526024016109c5565b6001600160a01b038085166000908152600160209081526040808320938716835292905220829055801561068557826001600160a01b0316846001600160a01b03167f8c5be1e5ebec7d5bd14f71427d1e84f3dd0314c0f7b2291e5b200ac8c7c3b925846040516110d491815260200190565b60405180910390a350505050565b600a5460ff16156111db576001600160a01b03831615611164576001600160a01b0383166000908152600b602052604090205460ff166111645760405162461bcd60e51b815260206004820152601b60248201527f5242543a2073656e646572206e6f742077686974656c6973746564000000000060448201526064016109c5565b6001600160a01b038216156111db576001600160a01b0382166000908152600b602052604090205460ff166111db5760405162461bcd60e51b815260206004820152601e60248201527f5242543a20726563697069656e74206e6f742077686974656c6973746564000060448201526064016109c5565b6106cd838383611462565b60085460ff1661120957604051638dfc202b60e01b815260040160405180910390fd5b565b60085460ff16156112095760405163d93c066560e01b815260040160405180910390fd5b606060ff83146112495761124283611475565b905061052c565b81805461125590611981565b80601f016020809104026020016040519081016040528092919081815260200182805461128190611981565b80156112ce5780601f106112a3576101008083540402835291602001916112ce565b820191906000526020600020905b8154815290600101906020018083116112b157829003601f168201915b5050505050905061052c565b600080807f7fffffffffffffffffffffffffffffff5d576e7357a4501ddfe92f46681b20a0841115611315575060009150600390508261139f565b604080516000808252602082018084528a905260ff891692820192909252606081018790526080810186905260019060a0016020604051602081039080840390855afa158015611369573d6000803e3d6000fd5b5050604051601f1901519150506001600160a01b0381166113955750600092506001915082905061139f565b9250600091508190505b9450945094915050565b60008260038111156113bd576113bd6119d1565b036113c6575050565b60018260038111156113da576113da6119d1565b036113f85760405163f645eedf60e01b815260040160405180910390fd5b600282600381111561140c5761140c6119d1565b0361142d5760405163fce698f760e01b8152600481018290526024016109c5565b6003826003811115611441576114416119d1565b036107d2576040516335e2f38360e21b8152600481018290526024016109c5565b61146a61120b565b6106cd8383836114b4565b60606000611482836115de565b604080516020808252818301909252919250600091906020820181803683375050509182525060208101929092525090565b6001600160a01b0383166114df5780600260008282546114d491906119e7565b909155506115519050565b6001600160a01b038316600090815260208190526040902054818110156115325760405163391434e360e21b81526001600160a01b038516600482015260248101829052604481018390526064016109c5565b6001600160a01b03841660009081526020819052604090209082900390555b6001600160a01b03821661156d5760028054829003905561158c565b6001600160a01b03821660009081526020819052604090208054820190555b816001600160a01b0316836001600160a01b03167fddf252ad1be2c89b69c2b068fc378daa952ba7f163c4a11628f55a4df523b3ef836040516115d191815260200190565b60405180910390a3505050565b600060ff8216601f81111561052c57604051632cd44ac360e21b815260040160405180910390fd5b60006020828403121561161857600080fd5b81356001600160e01b03198116811461163057600080fd5b9392505050565b8035801515811461164757600080fd5b919050565b60006020828403121561165e57600080fd5b61163082611637565b6000815180845260005b8181101561168d57602081850181015186830182015201611671565b506000602082860101526020601f19601f83011685010191505092915050565b6020815260006116306020830184611667565b80356001600160a01b038116811461164757600080fd5b600080604083850312156116ea57600080fd5b6116f3836116c0565b946020939093013593505050565b60008060006060848603121561171657600080fd5b61171f846116c0565b925061172d602085016116c0565b9150604084013590509250925092565b60006020828403121561174f57600080fd5b5035919050565b6000806040838503121561176957600080fd5b82359150611779602084016116c0565b90509250929050565b60006020828403121561179457600080fd5b611630826116c0565b600080604083850312156117b057600080fd5b6117b9836116c0565b915061177960208401611637565b60ff60f81b881681526000602060e060208401526117e860e084018a611667565b83810360408501526117fa818a611667565b606085018990526001600160a01b038816608086015260a0850187905284810360c08601528551808252602080880193509091019060005b8181101561184e57835183529284019291840191600101611832565b50909c9b505050505050505050505050565b60008060006040848603121561187557600080fd5b833567ffffffffffffffff8082111561188d57600080fd5b818601915086601f8301126118a157600080fd5b8135818111156118b057600080fd5b8760208260051b85010111156118c557600080fd5b6020928301955093506118db9186019050611637565b90509250925092565b600080600080600080600060e0888a0312156118ff57600080fd5b611908886116c0565b9650611916602089016116c0565b95506040880135945060608801359350608088013560ff8116811461193a57600080fd5b9699959850939692959460a0840135945060c09093013592915050565b6000806040838503121561196a57600080fd5b611973836116c0565b9150611779602084016116c0565b600181811c9082168061199557607f821691505b6020821081036119b557634e487b7160e01b600052602260045260246000fd5b50919050565b634e487b7160e01b600052603260045260246000fd5b634e487b7160e01b600052602160045260246000fd5b8082018082111561052c57634e487b7160e01b600052601160045260246000fdfe442a94f1a1fac79af32856af2a64f63648cfa2ef3b98610a5bb7cbec4cee6985a2646970667358221220c84b71610b950a3fa5700525944016c2d5b2b060ae320436465f4ed0d337607064736f6c63430008180033",
  "linkReferences": {},
  "deployedLinkReferences": {}
}