{
  "_format": "hh-sol-artifact-1",
  "contractName": "RBT",
  "sourceName": "contracts/RBT.sol",
  "abi": [
    {
      "inputs": [
        {
          "internalType": "string",
          "name": "name_",
          "type": "string"
        },
        {
          "internalType": "string",
          "name": "symbol_",
          "type": "string"
        },
        {
          "internalType": "uint256",
          "name": "initialSupply_",
          "type": "uint256"
        },
        {
          "internalType": "address",
          "name": "admin_",
          "type": "address"
        }
      ],
      "stateMutability": "nonpayable",
      "type": "constructor"
    },
    {
      "inputs": [],
      "name": "AccessControlBadConfirmation",
      "type": "error"
    },
    {
      "inputs": [
        {
          "internalType": "address",
          "name": "account",
          "type": "address"
        },
        {
          "internalType": "bytes32",
          "name": "neededRole",
          "type": "bytes32"
        }
      ],
      "name": "AccessControlUnauthorizedAccount",
      "type": "error"
    },
    {
      "inputs": [],
      "name": "ECDSAInvalidSignature",
      "type": "error"
    },
    {
      "inputs": [
        {
          "internalType": "uint256",
          "name": "length",
          "type": "uint256"
        }
      ],
      "name": "ECDSAInvalidSignatureLength",
      "type": "error"
    },
    {
      "inputs": [
        {
          "internalType": "bytes32",
          "name": "s",
          "type": "bytes32"
        }
      ],
      "name": "ECDSAInvalidSignatureS",
      "type": "error"
    },
    {
      "inputs": [
        {
          "internalType": "address",
          "name": "spender",
          "type": "address"
        },
        {
          "internalType": "uint256",
          "name": "allowance",
          "type": "uint256"
        },
        {
          "internalType": "uint256",
          "name": "needed",
          "type": "uint256"
        }
      ],
      "name": "ERC20InsufficientAllowance",
      "type": "error"
    },
    {
      "inputs": [
        {
          "internalType": "address",
          "name": "sender",
          "type": "address"
        },
        {
          "internalType": "uint256",
          "name": "balance",
          "type": "uint256"
        },
        {
          "internalType": "uint256",
          "name": "needed",
          "type": "uint256"
        }
      ],
      "name": "ERC20InsufficientBalance",
      "type": "error"
    },
    {
      "inputs": [
        {
          "internalType": "address",
          "name": "approver",
          "type": "address"
        }
      ],
      "name": "ERC20InvalidApprover",
      "type": "error"
    },
    {
      "inputs": [
        {
          "internalType": "address",
          "name": "receiver",
          "type": "address"
        }
      ],
      "name": "ERC20InvalidReceiver",
      "type": "error"
    },
    {
      "inputs": [
        {
          "internalType": "address",
          "name": "sender",
          "type": "address"
        }
      ],
      "name": "ERC20InvalidSender",
      "type": "error"
    },
    {
      "inputs": [
        {
          "internalType": "address",
          "name": "spender",
          "type": "address"
        }
      ],
      "name": "ERC20InvalidSpender",
      "type": "error"
    },
    {
      "inputs": [
        {
          "internalType": "uint256",
          "name": "deadline",
          "type": "uint256"
        }
      ],
      "name": "ERC2612ExpiredSignature",
      "type": "error"
    },
    {
      "inputs": [
        {
          "internalType": "address",
          "name": "signer",
          "type": "address"
        },
        {
          "internalType": "address",
          "name": "owner",
          "type": "address"
        }
      ],
      "name": "ERC2612InvalidSigner",
      "type": "error"
    },
    {
      "inputs": [],
      "name": "EnforcedPause",
      "type": "error"
    },
    {
      "inputs": [],
      "name": "ExpectedPause",
      "type": "error"
    },
    {
      "inputs": [
        {
          "internalType": "address",
          "name": "account",
          "type": "address"
        },
        {
          "internalType": "uint256",
          "name": "currentNonce",
          "type": "uint256"
        }
      ],
      "name": "InvalidAccountNonce",
      "type": "error"
    },
    {
      "inputs": [],
      "name": "InvalidShortString",
      "type": "error"
    },
    {
      "inputs": [
        {
          "internalType": "string",
          "name": "str",
          "type": "string"
        }
      ],
      "name": "StringTooLong",
      "type": "error"
    },
    {
      "anonymous": false,
      "inputs": [
        {
          "indexed": true,
          "internalType": "address",
          "name": "owner",
          "type": "address"
        },
        {
          "indexed": true,
          "internalType": "address",
          "name": "spender",
          "type": "address"
        },
        {
          "indexed": false,
          "internalType": "uint256",
          "name": "value",
          "type": "uint256"
        }
      ],
      "name": "Approval",
      "type": "event"
    },
    {
      "anonymous": false,
      "inputs": [],
      "name": "EIP712DomainChanged",
      "type": "event"
    },
    {
      "anonymous": false,
      "inputs": [
        {
          "indexed": false,
          "internalType": "address",
          "name": "account",
          "type": "address"
        }
      ],
      "name": "Paused",
      "type": "event"
    },
    {
      "anonymous": false,
      "inputs": [
        {
          "indexed": true,
          "internalType": "bytes32",
          "name": "role",
          "type": "bytes32"
        },
        {
          "indexed": true,
          "internalType": "bytes32",
          "name": "previousAdminRole",
          "type": "bytes32"
        },
        {
          "indexed": true,
          "internalType": "bytes32",
          "name": "newAdminRole",
          "type": "bytes32"
        }
      ],
      "name": "RoleAdminChanged",
      "type": "event"
    },
    {
      "anonymous": false,
      "inputs": [
        {
          "indexed": true,
          "internalType": "bytes32",
          "name": "role",
          "type": "bytes32"
        },
        {
          "indexed": true,
          "internalType": "address",
          "name": "account",
          "type": "address"
        },
        {
          "indexed": true,
          "internalType": "address",
          "name": "sender",
          "type": "address"
        }
      ],
      "name": "RoleGranted",
      "type": "event"
    },
    {
      "anonymous": false,
      "inputs": [
        {
          "indexed": true,
          "internalType": "bytes32",
          "name": "role",
          "type": "bytes32"
        },
        {
          "indexed": true,
          "internalType": "address",
          "name": "account",
          "type": "address"
        },
        {
          "indexed": true,
          "internalType": "address",
          "name": "sender",
          "type": "address"
        }
      ],
      "name": "RoleRevoked",
      "type": "event"
    },
    {
      "anonymous": false,
      "inputs": [
        {
          "indexed": true,
          "internalType": "address",
          "name": "from",
          "type": "address"
        },
        {
          "indexed": true,
          "internalType": "address",
          "name": "to",
          "type": "address"
        },
        {
          "indexed": false,
          "internalType": "uint256",
          "name": "value",
          "type": "uint256"
        }
      ],
      "name": "Transfer",
      "type": "event"
    },
    {
      "anonymous": false,
      "inputs": [
        {
          "indexed": false,
          "internalType": "address",
          "name": "account",
          "type": "address"
        }
      ],
      "name": "Unpaused",
      "type": "event"
    },
    {
      "anonymous": false,
      "inputs": [
        {
          "indexed": false,
          "internalType": "bool",
          "name": "enabled",
          "type": "bool"
        }
      ],
      "name": "WhitelistEnabled",
      "type": "event"
    },
    {
      "anonymous": false,
      "inputs": [
        {
          "indexed": true,
          "internalType": "address",
          "name": "account",
          "type": "address"
        },
        {
          "indexed": false,
          "internalType": "bool",
          "name": "allowed",
          "type": "bool"
        }
      ],
      "name": "WhitelistSet",
      "type": "event"
    },
    {
      "inputs": [],
      "name": "COMPLIANCE_ROLE",
      "outputs": [
        {
          "internalType": "bytes32",
          "name": "",
          "type": "bytes32"
        }
      ],
      "stateMutability": "view",
      "type": "function"
    },
    {
      "inputs": [],
      "name": "DEFAULT_ADMIN_ROLE",
      "outputs": [
        {
          "internalType": "bytes32",
          "name": "",
          "type": "bytes32"
        }
      ],
      "stateMutability": "view",
      "type": "function"
    },
    {
      "inputs": [],
      "name": "DOMAIN_SEPARATOR",
      "outputs": [
        {
          "internalType": "bytes32",
          "name": "",
          "type": "bytes32"
        }
      ],
      "stateMutability": "view",
      "type": "function"
    },
    {
      "inputs": [],
      "name": "MINTER_ROLE",
      "outputs": [
        {
          "internalType": "bytes32",
          "name": "",
          "type": "bytes32"
        }
      ],
      "stateMutability": "view",
      "type": "function"
    },
    {
      "inputs": [],
      "name": "PAUSER_ROLE",
      "outputs": [
        {
          "internalType": "bytes32",
          "name": "",
          "type": "bytes32"
        }
      ],
      "stateMutability": "view",
      "type": "function"
    },
    {
      "inputs": [
        {
          "internalType": "address",
          "name": "owner",
          "type": "address"
        },
        {
          "internalType": "address",
          "name": "spender",
          "type": "address"
        }
      ],
      "name": "allowance",
      "outputs": [
        {
          "internalType": "uint256",
          "name": "",
          "type": "uint256"
        }
      ],
      "stateMutability": "view",
      "type": "function"
    },
    {
      "inputs": [
        {
          "internalType": "address",
          "name": "spender",
          "type": "address"
        },
        {
          "internalType": "uint256",
          "name": "value",
          "type": "uint256"
        }
      ],
      "name": "approve",
      "outputs": [
        {
          "internalType": "bool",
          "name": "",
          "type": "bool"
        }
      ],
      "stateMutability": "nonpayable",
      "type": "function"
    },
    {
      "inputs": [
        {
          "internalType": "address",
          "name": "account",
          "type": "address"
        }
      ],
      "name": "balanceOf",
      "outputs": [
        {
          "internalType": "uint256",
          "name": "",
          "type": "uint256"
        }
      ],
      "stateMutability": "view",
      "type": "function"
    },
    {
      "inputs": [
        {
          "internalType": "address[]",
          "name": "accounts",
          "type": "address[]"
        },
        {
          "internalType": "bool",
          "name": "allowed",
          "type": "bool"
        }
      ],
      "name": "batchSetWhitelist",
      "outputs": [],
      "stateMutability": "nonpayable",
      "type": "function"
    },
    {
      "inputs": [
        {
          "internalType": "uint256",
          "name": "value",
          "type": "uint256"
        }
      ],
      "name": "burn",
      "outputs": [],
      "stateMutability": "nonpayable",
      "type": "function"
    },
    {
      "inputs": [
        {
          "internalType": "address",
          "name": "account",
          "type": "address"
        },
        {
          "internalType": "uint256",
          "name": "value",
          "type": "uint256"
        }
      ],
      "name": "burnFrom",
      "outputs": [],
      "stateMutability": "nonpayable",
      "type": "function"
    },
    {
      "inputs": [],
      "name": "decimals",
      "outputs": [
        {
          "internalType": "uint8",
          "name": "",
          "type": "uint8"
        }
      ],
      "stateMutability": "view",
      "type": "function"
    },
    {
      "inputs": [],
      "name": "eip712Domain",
      "outputs": [
        {
          "internalType": "bytes1",
          "name": "fields",
          "type": "bytes1"
        },
        {
          "internalType": "string",
          "name": "name",
          "type": "string"
        },
        {
          "internalType": "string",
          "name": "version",
          "type": "string"
        },
        {
          "internalType": "uint256",
          "name": "chainId",
          "type": "uint256"
        },
        {
          "internalType": "address",
          "name": "verifyingContract",
          "type": "address"
        },
        {
          "internalType": "bytes32",
          "name": "salt",
          "type": "bytes32"
        },
        {
          "internalType": "uint256[]",
          "name": "extensions",
          "type": "uint256[]"
        }
      ],
      "stateMutability": "view",
      "type": "function"
    },
    {
      "inputs": [
        {
          "internalType": "bytes32",
          "name": "role",
          "type": "bytes32"
        }
      ],
      "name": "getRoleAdmin",
      "outputs": [
        {
          "internalType": "bytes32",
          "name": "",
          "type": "bytes32"
        }
      ],
      "stateMutability": "view",
      "type": "function"
    },
    {
      "inputs": [
        {
          "internalType": "bytes32",
          "name": "role",
          "type": "bytes32"
        },
        {
          "internalType": "address",
          "name": "account",
          "type": "address"
        }
      ],
      "name": "grantRole",
      "outputs": [],
      "stateMutability": "nonpayable",
      "type": "function"
    },
    {
      "inputs": [
        {
          "internalType": "bytes32",
          "name": "role",
          "type": "bytes32"
        },
        {
          "internalType": "address",
          "name": "account",
          "type": "address"
        }
      ],
      "name": "hasRole",
      "outputs": [
        {
          "internalType": "bool",
          "name": "",
          "type": "bool"
        }
      ],
      "stateMutability": "view",
      "type": "function"
    },
    {
      "inputs": [
        {
          "internalType": "address",
          "name": "account",
          "type": "address"
        }
      ],
      "name": "isWhitelisted",
      "outputs": [
        {
          "internalType": "bool",
          "name": "",
          "type": "bool"
        }
      ],
      "stateMutability": "view",
      "type": "function"
    },
    {
      "inputs": [
        {
          "internalType": "address",
          "name": "to",
          "type": "address"
        },
        {
          "internalType": "uint256",
          "name": "amount",
          "type": "uint256"
        }
      ],
      "name": "mint",
      "outputs": [],
      "stateMutability": "nonpayable",
      "type": "function"
    },
    {
      "inputs": [],
      "name": "name",
      "outputs": [
        {
          "internalType": "string",
          "name": "",
          "type": "string"
        }
      ],
      "stateMutability": "view",
      "type": "function"
    },
    {
      "inputs": [
        {
          "internalType": "address",
          "name": "owner",
          "type": "address"
        }
      ],
      "name": "nonces",
      "outputs": [
        {
          "internalType": "uint256",
          "name": "",
          "type": "uint256"
        }
      ],
      "stateMutability": "view",
      "type": "function"
    },
    {
      "inputs": [],
      "name": "pause",
      "outputs": [],
      "stateMutability": "nonpayable",
      "type": "function"
    },
    {
      "inputs": [],
      "name": "paused",
      "outputs": [
        {
          "internalType": "bool",
          "name": "",
          "type": "bool"
        }
      ],
      "stateMutability": "view",
      "type": "function"
    },
    {
      "inputs": [
        {
          "internalType": "address",
          "name": "owner",
          "type": "address"
        },
        {
          "internalType": "address",
          "name": "spender",
          "type": "address"
        },
        {
          "internalType": "uint256",
          "name": "value",
          "type": "uint256"
        },
        {
          "internalType": "uint256",
          "name": "deadline",
          "type": "uint256"
        },
        {
          "internalType": "uint8",
          "name": "v",
          "type": "uint8"
        },
        {
          "internalType": "bytes32",
          "name": "r",
          "type": "bytes32"
        },
        {
          "internalType": "bytes32",
          "name": "s",
          "type": "bytes32"
        }
      ],
      "name": "permit",
      "outputs": [],
      "stateMutability": "nonpayable",
      "type": "function"
    },
    {
      "inputs": [
        {
          "internalType": "bytes32",
          "name": "role",
          "type": "bytes32"
        },
        {
          "internalType": "address",
          "name": "callerConfirmation",
          "type": "address"
        }
      ],
      "name": "renounceRole",
      "outputs": [],
      "stateMutability": "nonpayable",
      "type": "function"
    },
    {
      "inputs": [
        {
          "internalType": "bytes32",
          "name": "role",
          "type": "bytes32"
        },
        {
          "internalType": "address",
          "name": "account",
          "type": "address"
        }
      ],
      "name": "revokeRole",
      "outputs": [],
      "stateMutability": "nonpayable",
      "type": "function"
    },
    {
      "inputs": [
        {
          "internalType": "address",
          "name": "account",
          "type": "address"
        },
        {
          "internalType": "bool",
          "name": "allowed",
          "type": "bool"
        }
      ],
      "name": "setWhitelist",
      "outputs": [],
      "stateMutability": "nonpayable",
      "type": "function"
    },
    {
      "inputs": [
        {
          "internalType": "bool",
          "name": "enabled",
          "type": "bool"
        }
      ],
      "name": "setWhitelistEnabled",
      "outputs": [],
      "stateMutability": "nonpayable",
      "type": "function"
    },
    {
      "inputs": [
        {
          "internalType": "bytes4",
          "name": "interfaceId",
          "type": "bytes4"
        }
      ],
      "name": "supportsInterface",
      "outputs": [
        {
          "internalType": "bool",
          "name": "",
          "type": "bool"
        }
      ],
      "stateMutability": "view",
      "type": "function"
    },
    {
      "inputs": [],
      "name": "symbol",
      "outputs": [
        {
          "internalType": "string",
          "name": "",
          "type": "string"
        }
      ],
      "stateMutability": "view",
      "type": "function"
    },
    {
      "inputs": [],
      "name": "totalSupply",
      "outputs": [
        {
          "internalType": "uint256",
          "name": "",
          "type": "uint256"
        }
      ],
      "stateMutability": "view",
      "type": "function"
    },
    {
      "inputs": [
        {
          "internalType": "address",
          "name": "to",
          "type": "address"
        },
        {
          "internalType": "uint256",
          "name": "value",
          "type": "uint256"
        }
      ],
      "name": "transfer",
      "outputs": [
        {
          "internalType": "bool",
          "name": "",
          "type": "bool"
        }
      ],
      "stateMutability": "nonpayable",
      "type": "function"
    },
    {
      "inputs": [
        {
          "internalType": "address",
          "name": "from",
          "type": "address"
        },
        {
          "internalType": "address",
          "name": "to",
          "type": "address"
        },
        {
          "internalType": "uint256",
          "name": "value",
          "type": "uint256"
        }
      ],
      "name": "transferFrom",
      "outputs": [
        {
          "internalType": "bool",
          "name": "",
          "type": "bool"
        }
      ],
      "stateMutability": "nonpayable",
      "type": "function"
    },
    {
      "inputs": [],
      "name": "unpause",
      "outputs": [],
      "stateMutability": "nonpayable",
      "type": "function"
    },
    {
      "inputs": [],
      "name": "whitelistEnabled",
      "outputs": [
        {
          "internalType": "bool",
          "name": "",
          "type": "bool"
        }
      ],
      "stateMutability": "view",
      "type": "function"
    }
  ],
  "bytecode": "0x6101606040523480156200001257600080fd5b506040516200244a3803806200244a8339810160408190526200003591620006ff565b6040805180820190915260018152603160f81b6020820152849081908186600362000061838262000822565b50600462000070828262000822565b50620000829150839050600562000243565b610120526200009381600662000243565b61014052815160208084019190912060e052815190820120610100524660a0526200012160e05161010051604080517f8b73c3c69bb8fe3d512ecc4cf759cc79239f7b179b0ffacaa9a75d522b39400f60208201529081019290925260608201524660808201523060a082015260009060c00160405160208183030381529060405280519060200120905090565b60805250503060c052506008805460ff191690556001600160a01b038116620001915760405162461bcd60e51b815260206004820152601460248201527f61646d696e2063616e6e6f74206265207a65726f00000000000000000000000060448201526064015b60405180910390fd5b6200019e6000826200027c565b50620001cb7f9f2df0fed2c77648de5860a4cc508cd0818c85b8b8a1ab4ceeef8d981c8956a6826200027c565b50620001f87f65d7a28e3265b37a6474929f336521b332c1681b933f6cb9f3376673440d862a826200027c565b50620002257f442a94f1a1fac79af32856af2a64f63648cfa2ef3b98610a5bb7cbec4cee6985826200027c565b50811562000239576200023981836200032e565b505050506200096a565b600060208351101562000263576200025b836200036c565b905062000276565b8162000270848262000822565b5060ff90505b92915050565b60008281526009602090815260408083206001600160a01b038516845290915281205460ff16620003255760008381526009602090815260408083206001600160a01b03861684529091529020805460ff19166001179055620002dc3390565b6001600160a01b0316826001600160a01b0316847f2f8788117e7eff1d82e926ec794901d17c78024a50270940304540a733656f0d60405160405180910390a450600162000276565b50600062000276565b6001600160a01b0382166200035a5760405163ec442f0560e01b81526000600482015260240162000188565b6200036860008383620003af565b5050565b600080829050601f815111156200039a578260405163305a27a960e01b8152600401620001889190620008ee565b8051620003a78262000923565b179392505050565b600a5460ff1615620004af576001600160a01b0383161562000435576001600160a01b0383166000908152600b602052604090205460ff16620004355760405162461bcd60e51b815260206004820152601b60248201527f5242543a2073656e646572206e6f742077686974656c69737465640000000000604482015260640162000188565b6001600160a01b03821615620004af576001600160a01b0382166000908152600b602052604090205460ff16620004af5760405162461bcd60e51b815260206004820152601e60248201527f5242543a20726563697069656e74206e6f742077686974656c69737465640000604482015260640162000188565b620004bc838383620004c1565b505050565b620004cb620004d8565b620004bc838383620004ff565b60085460ff1615620004fd5760405163d93c066560e01b815260040160405180910390fd5b565b6001600160a01b0383166200052e57806002600082825462000522919062000948565b90915550620005a29050565b6001600160a01b03831660009081526020819052604090205481811015620005835760405163391434e360e21b81526001600160a01b0385166004820152602481018290526044810183905260640162000188565b6001600160a01b03841660009081526020819052604090209082900390555b6001600160a01b038216620005c057600280548290039055620005df565b6001600160a01b03821660009081526020819052604090208054820190555b816001600160a01b0316836001600160a01b03167fddf252ad1be2c89b69c2b068fc378daa952ba7f163c4a11628f55a4df523b3ef836040516200062591815260200190565b60405180910390a3505050565b634e487b7160e01b600052604160045260246000fd5b60005b83811015620006655781810151838201526020016200064b565b50506000910152565b600082601f8301126200068057600080fd5b81516001600160401b03808211156200069d576200069d62000632565b604051601f8301601f19908116603f01168101908282118183101715620006c857620006c862000632565b81604052838152866020858801011115620006e257600080fd5b620006f584602083016020890162000648565b9695505050505050565b600080600080608085870312156200071657600080fd5b84516001600160401b03808211156200072e57600080fd5b6200073c888389016200066e565b955060208701519150808211156200075357600080fd5b5062000762878288016200066e565b60408701516060880151919550935090506001600160a01b03811681146200078957600080fd5b939692955090935050565b600181811c90821680620007a957607f821691505b602082108103620007ca57634e487b7160e01b600052602260045260246000fd5b50919050565b601f821115620004bc57600081815260208120601f850160051c81016020861015620007f95750805b601f850160051c820191505b818110156200081a5782815560010162000805565b505050505050565b81516001600160401b038111156200083e576200083e62000632565b62000856816200084f845462000794565b84620007d0565b602080601f8311600181146200088e5760008415620008755750858301515b600019600386901b1c1916600185901b1785556200081a565b600085815260208120601f198616915b82811015620008bf578886015182559484019460019091019084016200089e565b5085821015620008de5787850151600019600388901b60f8161c191681555b5050505050600190811b01905550565b60208152600082518060208401526200090f81604085016020870162000648565b601f01601f19169190910160400192915050565b80516020808301519190811015620007ca5760001960209190910360031b1b16919050565b808201808211156200027657634e487b7160e01b600052601160045260246000fd5b60805160a05160c05160e051610100516101205161014051611a85620009c56000396000610f5c01526000610f2f01526000610d6f01526000610d4701526000610ca201526000610ccc01526000610cf60152611a856000f3fe608060405234801561001057600080fd5b50600436106102065760003560e01c806353d6fd591161011a57806395d89b41116100ad578063d505accf1161007c578063d505accf1461044e578063d539139314610461578063d547741f14610488578063dd62ed3e1461049b578063e63ab1e9146104d457600080fd5b806395d89b4114610418578063a095e8f914610420578063a217fddf14610433578063a9059cbb1461043b57600080fd5b80637ecebe00116100e95780637ecebe00146103cf5780638456cb59146103e257806384b0196e146103ea57806391d148541461040557600080fd5b806353d6fd59146103755780635c975abb1461038857806370a082311461039357806379cc6790146103bc57600080fd5b80632f2ff15d1161019d5780633af32abf1161016c5780633af32abf1461030e5780633f4ba83a1461033a57806340c10f191461034257806342966c681461035557806351fb012d1461036857600080fd5b80632f2ff15d146102d1578063313ce567146102e45780633644e515146102f357806336568abe146102fb57600080fd5b8063095ea7b3116101d9578063095ea7b31461028057806318160ddd1461029357806323b872dd1461029b578063248a9ca3146102ae57600080fd5b806301ffc9a71461020b578063052d9e7e14610233578063062d3bd71461024857806306fdde031461026b575b600080fd5b61021e61021936600461160f565b6104fb565b60405190151581526020015b60405180910390f35b610246610241366004611655565b610532565b005b61025d600080516020611a3083398151915281565b60405190815260200161022a565b610273610592565b60405161022a91906116b6565b61021e61028e3660046116e0565b610624565b60025461025d565b61021e6102a936600461170a565b61063c565b61025d6102bc366004611746565b60009081526009602052604090206001015490565b6102466102df36600461175f565b610660565b6040516012815260200161022a565b61025d61068b565b61024661030936600461175f565b61069a565b61021e61031c36600461178b565b6001600160a01b03166000908152600b602052604090205460ff1690565b6102466106d2565b6102466103503660046116e0565b610707565b610246610363366004611746565b61073b565b600a5461021e9060ff1681565b6102466103833660046117a6565b610745565b60085460ff1661021e565b61025d6103a136600461178b565b6001600160a01b031660009081526020819052604090205490565b6102466103ca3660046116e0565b6107bd565b61025d6103dd36600461178b565b6107d6565b6102466107f4565b6103f2610826565b60405161022a97969594939291906117d0565b61021e61041336600461175f565b61086c565b610273610897565b61024661042e366004611866565b6108a6565b61025d600081565b61021e6104493660046116e0565b6109a1565b61024661045c3660046118ea565b6109af565b61025d7f9f2df0fed2c77648de5860a4cc508cd0818c85b8b8a1ab4ceeef8d981c8956a681565b61024661049636600461175f565b610aee565b61025d6104a936600461195d565b6001600160a01b03918216600090815260016020908152604080832093909416825291909152205490565b61025d7f65d7a28e3265b37a6474929f336521b332c1681b933f6cb9f3376673440d862a81565b60006001600160e01b03198216637965db0b60e01b148061052c57506301ffc9a760e01b6001600160e01b03198316145b92915050565b600080516020611a3083398151915261054a81610b13565b600a805460ff19168315159081179091556040519081527f9bea0dd3cae4438dc4c54c3110002aedc380f4075b6edae73ae0536105a2008a9060200160405180910390a15050565b6060600380546105a190611987565b80601f01602080910402602001604051908101604052809291908181526020018280546105cd90611987565b801561061a5780601f106105ef5761010080835404028352916020019161061a565b820191906000526020600020905b8154815290600101906020018083116105fd57829003601f168201915b5050505050905090565b600033610632818585610b1d565b5060019392505050565b60003361064a858285610b2a565b610655858585610ba2565b506001949350505050565b60008281526009602052604090206001015461067b81610b13565b6106858383610c01565b50505050565b6000610695610c95565b905090565b6001600160a01b03811633146106c35760405163334bd91960e11b815260040160405180910390fd5b6106cd8282610dc0565b505050565b7f65d7a28e3265b37a6474929f336521b332c1681b933f6cb9f3376673440d862a6106fc81610b13565b610704610e2d565b50565b7f9f2df0fed2c77648de5860a4cc508cd0818c85b8b8a1ab4ceeef8d981c8956a661073181610b13565b6106cd8383610e7f565b6107043382610eb5565b600080516020611a3083398151915261075d81610b13565b6001600160a01b0383166000818152600b6020908152604091829020805460ff191686151590811790915591519182527f0aa5ec5ffdc7f6f9c4d0dded489d7450297155cb2f71cb771e02427f7dff4f51910160405180910390a2505050565b6107c8823383610b2a565b6107d28282610eb5565b5050565b6001600160a01b03811660009081526007602052604081205461052c565b7f65d7a28e3265b37a6474929f336521b332c1681b933f6cb9f3376673440d862a61081e81610b13565b610704610eeb565b60006060806000806000606061083a610f28565b610842610f55565b60408051600080825260208201909252600f60f81b9b939a50919850469750309650945092509050565b60009182526009602090815260408084206001600160a01b0393909316845291905290205460ff1690565b6060600480546105a190611987565b600080516020611a308339815191526108be81610b13565b60005b8381101561099a5782600b60008787858181106108e0576108e06119c1565b90506020020160208101906108f5919061178b565b6001600160a01b031681526020810191909152604001600020805460ff191691151591909117905584848281811061092f5761092f6119c1565b9050602002016020810190610944919061178b565b6001600160a01b03167f0aa5ec5ffdc7f6f9c4d0dded489d7450297155cb2f71cb771e02427f7dff4f5184604051610980911515815260200190565b60405180910390a280610992816119ed565b9150506108c1565b5050505050565b600033610632818585610ba2565b834211156109d85760405163313c898160e11b8152600481018590526024015b60405180910390fd5b60007f6e71edae12b1b97f4d1f60370fef10105fa2faae0126114a169c64845d6126c9888888610a258c6001600160a01b0316600090815260076020526040902080546001810190915590565b6040805160208101969096526001600160a01b0394851690860152929091166060840152608083015260a082015260c0810186905260e0016040516020818303038152906040528051906020012090506000610a8082610f82565b90506000610a9082878787610faf565b9050896001600160a01b0316816001600160a01b031614610ad7576040516325c0072360e11b81526001600160a01b0380831660048301528b1660248201526044016109cf565b610ae28a8a8a610b1d565b50505050505050505050565b600082815260096020526040902060010154610b0981610b13565b6106858383610dc0565b6107048133610fdd565b6106cd8383836001611016565b6001600160a01b0383811660009081526001602090815260408083209386168352929052205460001981146106855781811015610b9357604051637dc7a0d960e11b81526001600160a01b038416600482015260248101829052604481018390526064016109cf565b61068584848484036000611016565b6001600160a01b038316610bcc57604051634b637e8f60e11b8152600060048201526024016109cf565b6001600160a01b038216610bf65760405163ec442f0560e01b8152600060048201526024016109cf565b6106cd8383836110eb565b6000610c0d838361086c565b610c8d5760008381526009602090815260408083206001600160a01b03861684529091529020805460ff19166001179055610c453390565b6001600160a01b0316826001600160a01b0316847f2f8788117e7eff1d82e926ec794901d17c78024a50270940304540a733656f0d60405160405180910390a450600161052c565b50600061052c565b6000306001600160a01b037f000000000000000000000000000000000000000000000000000000000000000016148015610cee57507f000000000000000000000000000000000000000000000000000000000000000046145b15610d1857507f000000000000000000000000000000000000000000000000000000000000000090565b610695604080517f8b73c3c69bb8fe3d512ecc4cf759cc79239f7b179b0ffacaa9a75d522b39400f60208201527f0000000000000000000000000000000000000000000000000000000000000000918101919091527f000000000000000000000000000000000000000000000000000000000000000060608201524660808201523060a082015260009060c00160405160208183030381529060405280519060200120905090565b6000610dcc838361086c565b15610c8d5760008381526009602090815260408083206001600160a01b0386168085529252808320805460ff1916905551339286917ff6391f5c32d9c69d2a47ea670b442974b53935d1edc7fd64eb21e047a839171b9190a450600161052c565b610e356111ef565b6008805460ff191690557f5db9ee0a495bf2e6ff9c91a7834c1ba4fdd244a5e8aa4e537bd38aeae4b073aa335b6040516001600160a01b03909116815260200160405180910390a1565b6001600160a01b038216610ea95760405163ec442f0560e01b8152600060048201526024016109cf565b6107d2600083836110eb565b6001600160a01b038216610edf57604051634b637e8f60e11b8152600060048201526024016109cf565b6107d2826000836110eb565b610ef3611214565b6008805460ff191660011790557f62e78cea01bee320cd4e420270b5ea74000d11b0c9f74754ebdbfc544b05a258610e623390565b60606106957f00000000000000000000000000000000000000000000000000000000000000006005611238565b60606106957f00000000000000000000000000000000000000000000000000000000000000006006611238565b600061052c610f8f610c95565b8360405161190160f01b8152600281019290925260228201526042902090565b600080600080610fc1888888886112e3565b925092509250610fd182826113b2565b50909695505050505050565b610fe7828261086c565b6107d25760405163e2517d3f60e01b81526001600160a01b0382166004820152602481018390526044016109cf565b6001600160a01b0384166110405760405163e602df0560e01b8152600060048201526024016109cf565b6001600160a01b03831661106a57604051634a1406b160e11b8152600060048201526024016109cf565b6001600160a01b038085166000908152600160209081526040808320938716835292905220829055801561068557826001600160a01b0316846001600160a01b03167f8c5be1e5ebec7d5bd14f71427d1e84f3dd0314c0f7b2291e5b200ac8c7c3b925846040516110dd91815260200190565b60405180910390a350505050565b600a5460ff16156111e4576001600160a01b0383161561116d576001600160a01b0383166000908152600b602052604090205460ff1661116d5760405162461bcd60e51b815260206004820152601b60248201527f5242543a2073656e646572206e6f742077686974656c6973746564000000000060448201526064016109cf565b6001600160a01b038216156111e4576001600160a01b0382166000908152600b602052604090205460ff166111e45760405162461bcd60e51b815260206004820152601e60248201527f5242543a20726563697069656e74206e6f742077686974656c6973746564000060448201526064016109cf565b6106cd83838361146b565b60085460ff1661121257604051638dfc202b60e01b815260040160405180910390fd5b565b60085460ff16156112125760405163d93c066560e01b815260040160405180910390fd5b606060ff83146112525761124b8361147e565b905061052c565b81805461125e90611987565b80601f016020809104026020016040519081016040528092919081815260200182805461128a90611987565b80156112d75780601f106112ac576101008083540402835291602001916112d7565b820191906000526020600020905b8154815290600101906020018083116112ba57829003601f168201915b5050505050905061052c565b600080807f7fffffffffffffffffffffffffffffff5d576e7357a4501ddfe92f46681b20a084111561131e57506000915060039050826113a8565b604080516000808252602082018084528a905260ff891692820192909252606081018790526080810186905260019060a0016020604051602081039080840390855afa158015611372573d6000803e3d6000fd5b5050604051601f1901519150506001600160a01b03811661139e575060009250600191508290506113a8565b9250600091508190505b9450945094915050565b60008260038111156113c6576113c6611a06565b036113cf575050565b60018260038111156113e3576113e3611a06565b036114015760405163f645eedf60e01b815260040160405180910390fd5b600282600381111561141557611415611a06565b036114365760405163fce698f760e01b8152600481018290526024016109cf565b600382600381111561144a5761144a611a06565b036107d2576040516335e2f38360e21b8152600481018290526024016109cf565b611473611214565b6106cd8383836114bd565b6060600061148b836115e7565b604080516020808252818301909252919250600091906020820181803683375050509182525060208101929092525090565b6001600160a01b0383166114e85780600260008282546114dd9190611a1c565b9091555061155a9050565b6001600160a01b0383166000908152602081905260409020548181101561153b5760405163391434e360e21b81526001600160a01b038516600482015260248101829052604481018390526064016109cf565b6001600160a01b03841660009081526020819052604090209082900390555b6001600160a01b03821661157657600280548290039055611595565b6001600160a01b03821660009081526020819052604090208054820190555b816001600160a01b0316836001600160a01b03167fddf252ad1be2c89b69c2b068fc378daa952ba7f163c4a11628f55a4df523b3ef836040516115da91815260200190565b60405180910390a3505050565b600060ff8216601f81111561052c57604051632cd44ac360e21b815260040160405180910390fd5b60006020828403121561162157600080fd5b81356001600160e01b03198116811461163957600080fd5b9392505050565b8035801515811461165057600080fd5b919050565b60006020828403121561166757600080fd5b61163982611640565b6000815180845260005b818110156116965760208185018101518683018201520161167a565b506000602082860101526020601f19601f83011685010191505092915050565b6020815260006116396020830184611670565b80356001600160a01b038116811461165057600080fd5b600080604083850312156116f357600080fd5b6116fc836116c9565b946020939093013593505050565b60008060006060848603121561171f57600080fd5b611728846116c9565b9250611736602085016116c9565b9150604084013590509250925092565b60006020828403121561175857600080fd5b5035919050565b6000806040838503121561177257600080fd5b82359150611782602084016116c9565b90509250929050565b60006020828403121561179d57600080fd5b611639826116c9565b600080604083850312156117b957600080fd5b6117c2836116c9565b915061178260208401611640565b60ff60f81b881681526000602060e0818401526117f060e084018a611670565b8381036040850152611802818a611670565b606085018990526001600160a01b038816608086015260a0850187905284810360c0860152855180825283870192509083019060005b8181101561185457835183529284019291840191600101611838565b50909c9b505050505050505050505050565b60008060006040848603121561187b57600080fd5b833567ffffffffffffffff8082111561189357600080fd5b818601915086601f8301126118a757600080fd5b8135818111156118b657600080fd5b8760208260051b85010111156118cb57600080fd5b6020928301955093506118e19186019050611640565b90509250925092565b600080600080600080600060e0888a03121561190557600080fd5b61190e886116c9565b965061191c602089016116c9565b95506040880135945060608801359350608088013560ff8116811461194057600080fd5b9699959850939692959460a0840135945060c09093013592915050565b6000806040838503121561197057600080fd5b611979836116c9565b9150611782602084016116c9565b600181811c9082168061199b57607f821691505b6020821081036119bb57634e487b7160e01b600052602260045260246000fd5b50919050565b634e487b7160e01b600052603260045260246000fd5b634e487b7160e01b600052601160045260246000fd5b6000600182016119ff576119ff6119d7565b5060010190565b634e487b7160e01b600052602160045260246000fd5b8082018082111561052c5761052c6119d756fe442a94f1a1fac79af32856af2a64f63648cfa2ef3b98610a5bb7cbec4cee6985a26469706673582212205f1afa9695362d6c011f940044f52707f495fbcb88a4d593d4169fb85f1a936664736f6c63430008140033",
  "linkReferences": {},
  "deployedLinkReferences": {}
}