{
  "_format": "hh-sol-artifact-1",
  "contractName": "WFTStaking",
  "sourceName": "contracts/wft/WFTStaking.sol",
  "abi": [
    {
      "inputs": [
        {
          "internalType": "address",
          "name": "wftToken",
          "type": "address"
        },
        {
          "internalType": "address",
          "name": "admin",
          "type": "address"
        },
        {
          "internalType": "address",
          "name": "_rewardToken",
          "type": "address"
        }
      ],
      "stateMutability": "nonpayable",
      "type": "constructor"
    },
    {
      "inputs": [],
      "name": "AccessControlBadConfirmation",
      "type": "error"
    },
    {
      "inputs": [
        {
          "internalType": "address",
          "name": "account",
          "type": "address"
        },
        {
          "internalType": "bytes32",
          "name": "neededRole",
          "type": "bytes32"
        }
      ],
      "name": "AccessControlUnauthorizedAccount",
      "type": "error"
    },
    {
      "inputs": [],
      "name": "ReentrancyGuardReentrantCall",
      "type": "error"
    },
    {
      "anonymous": false,
      "inputs": [
        {
          "indexed": true,
          "internalType": "address",
          "name": "user",
          "type": "address"
        },
        {
          "indexed": false,
          "internalType": "uint256",
          "name": "amount",
          "type": "uint256"
        }
      ],
      "name": "Claimed",
      "type": "event"
    },
    {
      "anonymous": false,
      "inputs": [
        {
          "indexed": true,
          "internalType": "address",
          "name": "from",
          "type": "address"
        },
        {
          "indexed": false,
          "internalType": "uint256",
          "name": "amount",
          "type": "uint256"
        }
      ],
      "name": "RewardDeposited",
      "type": "event"
    },
    {
      "anonymous": false,
      "inputs": [
        {
          "indexed": true,
          "internalType": "bytes32",
          "name": "role",
          "type": "bytes32"
        },
        {
          "indexed": true,
          "internalType": "bytes32",
          "name": "previousAdminRole",
          "type": "bytes32"
        },
        {
          "indexed": true,
          "internalType": "bytes32",
          "name": "newAdminRole",
          "type": "bytes32"
        }
      ],
      "name": "RoleAdminChanged",
      "type": "event"
    },
    {
      "anonymous": false,
      "inputs": [
        {
          "indexed": true,
          "internalType": "bytes32",
          "name": "role",
          "type": "bytes32"
        },
        {
          "indexed": true,
          "internalType": "address",
          "name": "account",
          "type": "address"
        },
        {
          "indexed": true,
          "internalType": "address",
          "name": "sender",
          "type": "address"
        }
      ],
      "name": "RoleGranted",
      "type": "event"
    },
    {
      "anonymous": false,
      "inputs": [
        {
          "indexed": true,
          "internalType": "bytes32",
          "name": "role",
          "type": "bytes32"
        },
        {
          "indexed": true,
          "internalType": "address",
          "name": "account",
          "type": "address"
        },
        {
          "indexed": true,
          "internalType": "address",
          "name": "sender",
          "type": "address"
        }
      ],
      "name": "RoleRevoked",
      "type": "event"
    },
    {
      "anonymous": false,
      "inputs": [
        {
          "indexed": true,
          "internalType": "address",
          "name": "user",
          "type": "address"
        },
        {
          "indexed": false,
          "internalType": "uint256",
          "name": "amount",
          "type": "uint256"
        }
      ],
      "name": "Staked",
      "type": "event"
    },
    {
      "anonymous": false,
      "inputs": [
        {
          "indexed": true,
          "internalType": "address",
          "name": "user",
          "type": "address"
        },
        {
          "indexed": false,
          "internalType": "uint256",
          "name": "amount",
          "type": "uint256"
        }
      ],
      "name": "Unstaked",
      "type": "event"
    },
    {
      "inputs": [],
      "name": "DEFAULT_ADMIN_ROLE",
      "outputs": [
        {
          "internalType": "bytes32",
          "name": "",
          "type": "bytes32"
        }
      ],
      "stateMutability": "view",
      "type": "function"
    },
    {
      "inputs": [],
      "name": "OPERATOR_ROLE",
      "outputs": [
        {
          "internalType": "bytes32",
          "name": "",
          "type": "bytes32"
        }
      ],
      "stateMutability": "view",
      "type": "function"
    },
    {
      "inputs": [],
      "name": "accRewardPerShare",
      "outputs": [
        {
          "internalType": "uint256",
          "name": "",
          "type": "uint256"
        }
      ],
      "stateMutability": "view",
      "type": "function"
    },
    {
      "inputs": [],
      "name": "claim",
      "outputs": [],
      "stateMutability": "nonpayable",
      "type": "function"
    },
    {
      "inputs": [
        {
          "internalType": "uint256",
          "name": "amount",
          "type": "uint256"
        }
      ],
      "name": "depositReward",
      "outputs": [],
      "stateMutability": "nonpayable",
      "type": "function"
    },
    {
      "inputs": [
        {
          "internalType": "bytes32",
          "name": "role",
          "type": "bytes32"
        }
      ],
      "name": "getRoleAdmin",
      "outputs": [
        {
          "internalType": "bytes32",
          "name": "",
          "type": "bytes32"
        }
      ],
      "stateMutability": "view",
      "type": "function"
    },
    {
      "inputs": [
        {
          "internalType": "bytes32",
          "name": "role",
          "type": "bytes32"
        },
        {
          "internalType": "address",
          "name": "account",
          "type": "address"
        }
      ],
      "name": "grantRole",
      "outputs": [],
      "stateMutability": "nonpayable",
      "type": "function"
    },
    {
      "inputs": [
        {
          "internalType": "bytes32",
          "name": "role",
          "type": "bytes32"
        },
        {
          "internalType": "address",
          "name": "account",
          "type": "address"
        }
      ],
      "name": "hasRole",
      "outputs": [
        {
          "internalType": "bool",
          "name": "",
          "type": "bool"
        }
      ],
      "stateMutability": "view",
      "type": "function"
    },
    {
      "inputs": [
        {
          "internalType": "address",
          "name": "user",
          "type": "address"
        }
      ],
      "name": "pendingReward",
      "outputs": [
        {
          "internalType": "uint256",
          "name": "",
          "type": "uint256"
        }
      ],
      "stateMutability": "view",
      "type": "function"
    },
    {
      "inputs": [
        {
          "internalType": "bytes32",
          "name": "role",
          "type": "bytes32"
        },
        {
          "internalType": "address",
          "name": "callerConfirmation",
          "type": "address"
        }
      ],
      "name": "renounceRole",
      "outputs": [],
      "stateMutability": "nonpayable",
      "type": "function"
    },
    {
      "inputs": [
        {
          "internalType": "bytes32",
          "name": "role",
          "type": "bytes32"
        },
        {
          "internalType": "address",
          "name": "account",
          "type": "address"
        }
      ],
      "name": "revokeRole",
      "outputs": [],
      "stateMutability": "nonpayable",
      "type": "function"
    },
    {
      "inputs": [
        {
          "internalType": "address",
          "name": "",
          "type": "address"
        }
      ],
      "name": "rewardDebt",
      "outputs": [
        {
          "internalType": "uint256",
          "name": "",
          "type": "uint256"
        }
      ],
      "stateMutability": "view",
      "type": "function"
    },
    {
      "inputs": [],
      "name": "rewardToken",
      "outputs": [
        {
          "internalType": "contract IERC20",
          "name": "",
          "type": "address"
        }
      ],
      "stateMutability": "view",
      "type": "function"
    },
    {
      "inputs": [
        {
          "internalType": "address",
          "name": "_rewardToken",
          "type": "address"
        }
      ],
      "name": "setRewardToken",
      "outputs": [],
      "stateMutability": "nonpayable",
      "type": "function"
    },
    {
      "inputs": [
        {
          "internalType": "uint256",
          "name": "amount",
          "type": "uint256"
        }
      ],
      "name": "stake",
      "outputs": [],
      "stateMutability": "nonpayable",
      "type": "function"
    },
    {
      "inputs": [
        {
          "internalType": "address",
          "name": "",
          "type": "address"
        }
      ],
      "name": "staked",
      "outputs": [
        {
          "internalType": "uint256",
          "name": "",
          "type": "uint256"
        }
      ],
      "stateMutability": "view",
      "type": "function"
    },
    {
      "inputs": [
        {
          "internalType": "bytes4",
          "name": "interfaceId",
          "type": "bytes4"
        }
      ],
      "name": "supportsInterface",
      "outputs": [
        {
          "internalType": "bool",
          "name": "",
          "type": "bool"
        }
      ],
      "stateMutability": "view",
      "type": "function"
    },
    {
      "inputs": [],
      "name": "totalStaked",
      "outputs": [
        {
          "internalType": "uint256",
          "name": "",
          "type": "uint256"
        }
      ],
      "stateMutability": "view",
      "type": "function"
    },
    {
      "inputs": [
        {
          "internalType": "uint256",
          "name": "amount",
          "type": "uint256"
        }
      ],
      "name": "unstake",
      "outputs": [],
      "stateMutability": "nonpayable",
      "type": "function"
    },
    {
      "inputs": [],
      "name": "wft",
      "outputs": [
        {
          "internalType": "contract IERC20",
          "name": "",
          "type": "address"
        }
      ],
      "stateMutability": "view",
      "type": "function"
    }
  ],
  "bytecode": "0x60a06040523480156200001157600080fd5b506040516200102d3803806200102d83398101604081905262000034916200016d565b600180556001600160a01b03838116608052600480546001600160a01b0319169183169190911790556200006a600083620000a1565b50620000977f97667070c54ef182b0f5858b034beac1b6f3089aa2d3188bb1e8929f4fa9b92983620000a1565b50505050620001b7565b6000828152602081815260408083206001600160a01b038516845290915281205460ff1662000146576000838152602081815260408083206001600160a01b03861684529091529020805460ff19166001179055620000fd3390565b6001600160a01b0316826001600160a01b0316847f2f8788117e7eff1d82e926ec794901d17c78024a50270940304540a733656f0d60405160405180910390a45060016200014a565b5060005b92915050565b80516001600160a01b03811681146200016857600080fd5b919050565b6000806000606084860312156200018357600080fd5b6200018e8462000150565b92506200019e6020850162000150565b9150620001ae6040850162000150565b90509250925092565b608051610e4c620001e160003960008181610278015281816105f001526108260152610e4c6000f3fe608060405234801561001057600080fd5b506004361061012c5760003560e01c806391d14854116100ad578063b012251411610071578063b012251414610273578063d547741f146102b2578063f40f0f52146102c5578063f5b541a6146102d8578063f7c618c1146102ff57600080fd5b806391d148541461021c578063939d62371461022f57806398807d8414610238578063a217fddf14610258578063a694fc3a1461026057600080fd5b806336568abe116100f457806336568abe146101c55780634e71d92d146101d85780635873eb9b146101e0578063817b1cd2146102005780638aee81271461020957600080fd5b806301ffc9a7146101315780631e2720ff14610159578063248a9ca31461016e5780632e17de781461019f5780632f2ff15d146101b2575b600080fd5b61014461013f366004610cd2565b610312565b60405190151581526020015b60405180910390f35b61016c610167366004610d03565b610349565b005b61019161017c366004610d03565b60009081526020819052604090206001015490565b604051908152602001610150565b61016c6101ad366004610d03565b6104e4565b61016c6101c0366004610d38565b6106dd565b61016c6101d3366004610d38565b610708565b61016c610740565b6101916101ee366004610d64565b60066020526000908152604090205481565b61019160025481565b61016c610217366004610d64565b61079c565b61014461022a366004610d38565b6107ca565b61019160055481565b610191610246366004610d64565b60036020526000908152604090205481565b610191600081565b61016c61026e366004610d03565b6107f3565b61029a7f000000000000000000000000000000000000000000000000000000000000000081565b6040516001600160a01b039091168152602001610150565b61016c6102c0366004610d38565b610990565b6101916102d3366004610d64565b6109b5565b6101917f97667070c54ef182b0f5858b034beac1b6f3089aa2d3188bb1e8929f4fa9b92981565b60045461029a906001600160a01b031681565b60006001600160e01b03198216637965db0b60e01b148061034357506301ffc9a760e01b6001600160e01b03198316145b92915050565b7f97667070c54ef182b0f5858b034beac1b6f3089aa2d3188bb1e8929f4fa9b92961037381610a58565b6000600254116103b75760405162461bcd60e51b815260206004820152600a6024820152696e6f207374616b65727360b01b60448201526064015b60405180910390fd5b600480546040516323b872dd60e01b81523392810192909252306024830152604482018490526001600160a01b0316906323b872dd906064016020604051808303816000875af115801561040f573d6000803e3d6000fd5b505050506040513d601f19601f820116820180604052508101906104339190610d7f565b6104755760405162461bcd60e51b81526020600482015260136024820152721d1c985b9cd9995c919c9bdb4819985a5b1959606a1b60448201526064016103ae565b60025461048a83670de0b6b3a7640000610db7565b6104949190610dce565b600560008282546104a59190610df0565b909155505060405182815233907f7dbc080e4530c8bcf265eb5c9a35ae096ca1eb607b7e802b96581ef4c5e1a703906020015b60405180910390a25050565b6104ec610a62565b6104f533610a8c565b336000908152600360205260409020548111156105495760405162461bcd60e51b8152602060048201526012602482015271696e73756666696369656e74207374616b6560701b60448201526064016103ae565b3360009081526003602052604081208054839290610568908490610e03565b9250508190555080600260008282546105819190610e03565b909155505060055433600090815260036020526040902054670de0b6b3a7640000916105ac91610db7565b6105b69190610dce565b336000818152600660205260409081902092909255905163a9059cbb60e01b81526004810191909152602481018290526001600160a01b037f0000000000000000000000000000000000000000000000000000000000000000169063a9059cbb906044016020604051808303816000875af1158015610639573d6000803e3d6000fd5b505050506040513d601f19601f8201168201806040525081019061065d9190610d7f565b61069b5760405162461bcd60e51b815260206004820152600f60248201526e1d1c985b9cd9995c8819985a5b1959608a1b60448201526064016103ae565b60405181815233907f0f5bb82176feb1b5e747e28471aa92156a04d9f3ab9f45f28e2d704232b93f75906020015b60405180910390a26106da60018055565b50565b6000828152602081905260409020600101546106f881610a58565b6107028383610b9c565b50505050565b6001600160a01b03811633146107315760405163334bd91960e11b815260040160405180910390fd5b61073b8282610c2e565b505050565b610748610a62565b61075133610a8c565b60055433600090815260036020526040902054670de0b6b3a76400009161077791610db7565b6107819190610dce565b3360009081526006602052604090205561079a60018055565b565b60006107a781610a58565b50600480546001600160a01b0319166001600160a01b0392909216919091179055565b6000918252602082815260408084206001600160a01b0393909316845291905290205460ff1690565b6107fb610a62565b61080433610a8c565b6040516323b872dd60e01b8152336004820152306024820152604481018290527f00000000000000000000000000000000000000000000000000000000000000006001600160a01b0316906323b872dd906064016020604051808303816000875af1158015610877573d6000803e3d6000fd5b505050506040513d601f19601f8201168201806040525081019061089b9190610d7f565b6108dd5760405162461bcd60e51b81526020600482015260136024820152721d1c985b9cd9995c919c9bdb4819985a5b1959606a1b60448201526064016103ae565b33600090815260036020526040812080548392906108fc908490610df0565b9250508190555080600260008282546109159190610df0565b909155505060055433600090815260036020526040902054670de0b6b3a76400009161094091610db7565b61094a9190610dce565b33600081815260066020526040908190209290925590517f9e71bc8eea02a63969f509818f2dafb9254532904319f9dbda79b67bd34a5f3d906106c99084815260200190565b6000828152602081905260409020600101546109ab81610a58565b6107028383610c2e565b6001600160a01b0381166000908152600360205260408120548082036109de5750600092915050565b6000670de0b6b3a7640000600554836109f79190610db7565b610a019190610dce565b6001600160a01b0385166000908152600660205260409020549091508111610a2d575060009392505050565b6001600160a01b038416600090815260066020526040902054610a509082610e03565b949350505050565b6106da8133610c99565b600260015403610a8557604051633ee5aeb560e01b815260040160405180910390fd5b6002600155565b6000610a97826109b5565b90508015610b98576004805460405163a9059cbb60e01b81526001600160a01b03858116938201939093526024810184905291169063a9059cbb906044016020604051808303816000875af1158015610af4573d6000803e3d6000fd5b505050506040513d601f19601f82011682018060405250810190610b189190610d7f565b610b5d5760405162461bcd60e51b81526020600482015260166024820152751c995dd85c99081d1c985b9cd9995c8819985a5b195960521b60448201526064016103ae565b816001600160a01b03167fd8138f8a3f377c5259ca548e70e4c2de94f129f5a11036a15b69513cba2b426a826040516104d891815260200190565b5050565b6000610ba883836107ca565b610c26576000838152602081815260408083206001600160a01b03861684529091529020805460ff19166001179055610bde3390565b6001600160a01b0316826001600160a01b0316847f2f8788117e7eff1d82e926ec794901d17c78024a50270940304540a733656f0d60405160405180910390a4506001610343565b506000610343565b6000610c3a83836107ca565b15610c26576000838152602081815260408083206001600160a01b0386168085529252808320805460ff1916905551339286917ff6391f5c32d9c69d2a47ea670b442974b53935d1edc7fd64eb21e047a839171b9190a4506001610343565b610ca382826107ca565b610b985760405163e2517d3f60e01b81526001600160a01b0382166004820152602481018390526044016103ae565b600060208284031215610ce457600080fd5b81356001600160e01b031981168114610cfc57600080fd5b9392505050565b600060208284031215610d1557600080fd5b5035919050565b80356001600160a01b0381168114610d3357600080fd5b919050565b60008060408385031215610d4b57600080fd5b82359150610d5b60208401610d1c565b90509250929050565b600060208284031215610d7657600080fd5b610cfc82610d1c565b600060208284031215610d9157600080fd5b81518015158114610cfc57600080fd5b634e487b7160e01b600052601160045260246000fd5b808202811582820484141761034357610343610da1565b600082610deb57634e487b7160e01b600052601260045260246000fd5b500490565b8082018082111561034357610343610da1565b8181038181111561034357610343610da156fea264697066735822122090912d2d393b0bc3eab06bf930eb1cd5db6886dad6f5cbd61b3825a71affc7fa64736f6c63430008180033",
  "linkReferences": {},
  "deployedLinkReferences": {}
}