{
  "_format": "hh-sol-artifact-1",
  "contractName": "USDRToken",
  "sourceName": "contracts/usdr/USDRToken.sol",
  "abi": [
    {
      "inputs": [],
      "name": "AccessControlBadConfirmation",
      "type": "error"
    },
    {
      "inputs": [
        {
          "internalType": "address",
          "name": "account",
          "type": "address"
        },
        {
          "internalType": "bytes32",
          "name": "neededRole",
          "type": "bytes32"
        }
      ],
      "name": "AccessControlUnauthorizedAccount",
      "type": "error"
    },
    {
      "inputs": [
        {
          "internalType": "address",
          "name": "target",
          "type": "address"
        }
      ],
      "name": "AddressEmptyCode",
      "type": "error"
    },
    {
      "inputs": [],
      "name": "ECDSAInvalidSignature",
      "type": "error"
    },
    {
      "inputs": [
        {
          "internalType": "uint256",
          "name": "length",
          "type": "uint256"
        }
      ],
      "name": "ECDSAInvalidSignatureLength",
      "type": "error"
    },
    {
      "inputs": [
        {
          "internalType": "bytes32",
          "name": "s",
          "type": "bytes32"
        }
      ],
      "name": "ECDSAInvalidSignatureS",
      "type": "error"
    },
    {
      "inputs": [
        {
          "internalType": "address",
          "name": "implementation",
          "type": "address"
        }
      ],
      "name": "ERC1967InvalidImplementation",
      "type": "error"
    },
    {
      "inputs": [],
      "name": "ERC1967NonPayable",
      "type": "error"
    },
    {
      "inputs": [
        {
          "internalType": "address",
          "name": "spender",
          "type": "address"
        },
        {
          "internalType": "uint256",
          "name": "allowance",
          "type": "uint256"
        },
        {
          "internalType": "uint256",
          "name": "needed",
          "type": "uint256"
        }
      ],
      "name": "ERC20InsufficientAllowance",
      "type": "error"
    },
    {
      "inputs": [
        {
          "internalType": "address",
          "name": "sender",
          "type": "address"
        },
        {
          "internalType": "uint256",
          "name": "balance",
          "type": "uint256"
        },
        {
          "internalType": "uint256",
          "name": "needed",
          "type": "uint256"
        }
      ],
      "name": "ERC20InsufficientBalance",
      "type": "error"
    },
    {
      "inputs": [
        {
          "internalType": "address",
          "name": "approver",
          "type": "address"
        }
      ],
      "name": "ERC20InvalidApprover",
      "type": "error"
    },
    {
      "inputs": [
        {
          "internalType": "address",
          "name": "receiver",
          "type": "address"
        }
      ],
      "name": "ERC20InvalidReceiver",
      "type": "error"
    },
    {
      "inputs": [
        {
          "internalType": "address",
          "name": "sender",
          "type": "address"
        }
      ],
      "name": "ERC20InvalidSender",
      "type": "error"
    },
    {
      "inputs": [
        {
          "internalType": "address",
          "name": "spender",
          "type": "address"
        }
      ],
      "name": "ERC20InvalidSpender",
      "type": "error"
    },
    {
      "inputs": [
        {
          "internalType": "uint256",
          "name": "deadline",
          "type": "uint256"
        }
      ],
      "name": "ERC2612ExpiredSignature",
      "type": "error"
    },
    {
      "inputs": [
        {
          "internalType": "address",
          "name": "signer",
          "type": "address"
        },
        {
          "internalType": "address",
          "name": "owner",
          "type": "address"
        }
      ],
      "name": "ERC2612InvalidSigner",
      "type": "error"
    },
    {
      "inputs": [],
      "name": "EnforcedPause",
      "type": "error"
    },
    {
      "inputs": [],
      "name": "ExpectedPause",
      "type": "error"
    },
    {
      "inputs": [],
      "name": "FailedCall",
      "type": "error"
    },
    {
      "inputs": [
        {
          "internalType": "address",
          "name": "account",
          "type": "address"
        },
        {
          "internalType": "uint256",
          "name": "currentNonce",
          "type": "uint256"
        }
      ],
      "name": "InvalidAccountNonce",
      "type": "error"
    },
    {
      "inputs": [],
      "name": "InvalidInitialization",
      "type": "error"
    },
    {
      "inputs": [],
      "name": "NotInitializing",
      "type": "error"
    },
    {
      "inputs": [],
      "name": "UUPSUnauthorizedCallContext",
      "type": "error"
    },
    {
      "inputs": [
        {
          "internalType": "bytes32",
          "name": "slot",
          "type": "bytes32"
        }
      ],
      "name": "UUPSUnsupportedProxiableUUID",
      "type": "error"
    },
    {
      "anonymous": false,
      "inputs": [
        {
          "indexed": true,
          "internalType": "address",
          "name": "owner",
          "type": "address"
        },
        {
          "indexed": true,
          "internalType": "address",
          "name": "spender",
          "type": "address"
        },
        {
          "indexed": false,
          "internalType": "uint256",
          "name": "value",
          "type": "uint256"
        }
      ],
      "name": "Approval",
      "type": "event"
    },
    {
      "anonymous": false,
      "inputs": [
        {
          "indexed": true,
          "internalType": "address",
          "name": "account",
          "type": "address"
        },
        {
          "indexed": false,
          "internalType": "bool",
          "name": "blacklisted",
          "type": "bool"
        }
      ],
      "name": "BlacklistUpdated",
      "type": "event"
    },
    {
      "anonymous": false,
      "inputs": [
        {
          "indexed": false,
          "internalType": "string",
          "name": "uri",
          "type": "string"
        }
      ],
      "name": "DisclosuresURIUpdated",
      "type": "event"
    },
    {
      "anonymous": false,
      "inputs": [],
      "name": "EIP712DomainChanged",
      "type": "event"
    },
    {
      "anonymous": false,
      "inputs": [
        {
          "indexed": true,
          "internalType": "address",
          "name": "account",
          "type": "address"
        },
        {
          "indexed": false,
          "internalType": "bool",
          "name": "frozen",
          "type": "bool"
        }
      ],
      "name": "FrozenUpdated",
      "type": "event"
    },
    {
      "anonymous": false,
      "inputs": [
        {
          "indexed": false,
          "internalType": "uint64",
          "name": "version",
          "type": "uint64"
        }
      ],
      "name": "Initialized",
      "type": "event"
    },
    {
      "anonymous": false,
      "inputs": [
        {
          "indexed": false,
          "internalType": "address",
          "name": "account",
          "type": "address"
        }
      ],
      "name": "Paused",
      "type": "event"
    },
    {
      "anonymous": false,
      "inputs": [
        {
          "indexed": true,
          "internalType": "bytes32",
          "name": "role",
          "type": "bytes32"
        },
        {
          "indexed": true,
          "internalType": "bytes32",
          "name": "previousAdminRole",
          "type": "bytes32"
        },
        {
          "indexed": true,
          "internalType": "bytes32",
          "name": "newAdminRole",
          "type": "bytes32"
        }
      ],
      "name": "RoleAdminChanged",
      "type": "event"
    },
    {
      "anonymous": false,
      "inputs": [
        {
          "indexed": true,
          "internalType": "bytes32",
          "name": "role",
          "type": "bytes32"
        },
        {
          "indexed": true,
          "internalType": "address",
          "name": "account",
          "type": "address"
        },
        {
          "indexed": true,
          "internalType": "address",
          "name": "sender",
          "type": "address"
        }
      ],
      "name": "RoleGranted",
      "type": "event"
    },
    {
      "anonymous": false,
      "inputs": [
        {
          "indexed": true,
          "internalType": "bytes32",
          "name": "role",
          "type": "bytes32"
        },
        {
          "indexed": true,
          "internalType": "address",
          "name": "account",
          "type": "address"
        },
        {
          "indexed": true,
          "internalType": "address",
          "name": "sender",
          "type": "address"
        }
      ],
      "name": "RoleRevoked",
      "type": "event"
    },
    {
      "anonymous": false,
      "inputs": [
        {
          "indexed": true,
          "internalType": "address",
          "name": "from",
          "type": "address"
        },
        {
          "indexed": true,
          "internalType": "address",
          "name": "to",
          "type": "address"
        },
        {
          "indexed": false,
          "internalType": "uint256",
          "name": "value",
          "type": "uint256"
        }
      ],
      "name": "Transfer",
      "type": "event"
    },
    {
      "anonymous": false,
      "inputs": [
        {
          "indexed": false,
          "internalType": "address",
          "name": "account",
          "type": "address"
        }
      ],
      "name": "Unpaused",
      "type": "event"
    },
    {
      "anonymous": false,
      "inputs": [
        {
          "indexed": true,
          "internalType": "address",
          "name": "implementation",
          "type": "address"
        }
      ],
      "name": "Upgraded",
      "type": "event"
    },
    {
      "inputs": [],
      "name": "BURNER_ROLE",
      "outputs": [
        {
          "internalType": "bytes32",
          "name": "",
          "type": "bytes32"
        }
      ],
      "stateMutability": "view",
      "type": "function"
    },
    {
      "inputs": [],
      "name": "COMPLIANCE_ROLE",
      "outputs": [
        {
          "internalType": "bytes32",
          "name": "",
          "type": "bytes32"
        }
      ],
      "stateMutability": "view",
      "type": "function"
    },
    {
      "inputs": [],
      "name": "DEFAULT_ADMIN_ROLE",
      "outputs": [
        {
          "internalType": "bytes32",
          "name": "",
          "type": "bytes32"
        }
      ],
      "stateMutability": "view",
      "type": "function"
    },
    {
      "inputs": [],
      "name": "DOMAIN_SEPARATOR",
      "outputs": [
        {
          "internalType": "bytes32",
          "name": "",
          "type": "bytes32"
        }
      ],
      "stateMutability": "view",
      "type": "function"
    },
    {
      "inputs": [],
      "name": "MINTER_ROLE",
      "outputs": [
        {
          "internalType": "bytes32",
          "name": "",
          "type": "bytes32"
        }
      ],
      "stateMutability": "view",
      "type": "function"
    },
    {
      "inputs": [],
      "name": "PAUSER_ROLE",
      "outputs": [
        {
          "internalType": "bytes32",
          "name": "",
          "type": "bytes32"
        }
      ],
      "stateMutability": "view",
      "type": "function"
    },
    {
      "inputs": [],
      "name": "UPGRADE_INTERFACE_VERSION",
      "outputs": [
        {
          "internalType": "string",
          "name": "",
          "type": "string"
        }
      ],
      "stateMutability": "view",
      "type": "function"
    },
    {
      "inputs": [
        {
          "internalType": "address",
          "name": "owner",
          "type": "address"
        },
        {
          "internalType": "address",
          "name": "spender",
          "type": "address"
        }
      ],
      "name": "allowance",
      "outputs": [
        {
          "internalType": "uint256",
          "name": "",
          "type": "uint256"
        }
      ],
      "stateMutability": "view",
      "type": "function"
    },
    {
      "inputs": [
        {
          "internalType": "address",
          "name": "spender",
          "type": "address"
        },
        {
          "internalType": "uint256",
          "name": "value",
          "type": "uint256"
        }
      ],
      "name": "approve",
      "outputs": [
        {
          "internalType": "bool",
          "name": "",
          "type": "bool"
        }
      ],
      "stateMutability": "nonpayable",
      "type": "function"
    },
    {
      "inputs": [
        {
          "internalType": "address",
          "name": "account",
          "type": "address"
        }
      ],
      "name": "balanceOf",
      "outputs": [
        {
          "internalType": "uint256",
          "name": "",
          "type": "uint256"
        }
      ],
      "stateMutability": "view",
      "type": "function"
    },
    {
      "inputs": [
        {
          "internalType": "address",
          "name": "",
          "type": "address"
        }
      ],
      "name": "blacklisted",
      "outputs": [
        {
          "internalType": "bool",
          "name": "",
          "type": "bool"
        }
      ],
      "stateMutability": "view",
      "type": "function"
    },
    {
      "inputs": [
        {
          "internalType": "address",
          "name": "from",
          "type": "address"
        },
        {
          "internalType": "uint256",
          "name": "amount",
          "type": "uint256"
        }
      ],
      "name": "burnFrom",
      "outputs": [],
      "stateMutability": "nonpayable",
      "type": "function"
    },
    {
      "inputs": [],
      "name": "decimals",
      "outputs": [
        {
          "internalType": "uint8",
          "name": "",
          "type": "uint8"
        }
      ],
      "stateMutability": "view",
      "type": "function"
    },
    {
      "inputs": [],
      "name": "disclosuresURI",
      "outputs": [
        {
          "internalType": "string",
          "name": "",
          "type": "string"
        }
      ],
      "stateMutability": "view",
      "type": "function"
    },
    {
      "inputs": [],
      "name": "eip712Domain",
      "outputs": [
        {
          "internalType": "bytes1",
          "name": "fields",
          "type": "bytes1"
        },
        {
          "internalType": "string",
          "name": "name",
          "type": "string"
        },
        {
          "internalType": "string",
          "name": "version",
          "type": "string"
        },
        {
          "internalType": "uint256",
          "name": "chainId",
          "type": "uint256"
        },
        {
          "internalType": "address",
          "name": "verifyingContract",
          "type": "address"
        },
        {
          "internalType": "bytes32",
          "name": "salt",
          "type": "bytes32"
        },
        {
          "internalType": "uint256[]",
          "name": "extensions",
          "type": "uint256[]"
        }
      ],
      "stateMutability": "view",
      "type": "function"
    },
    {
      "inputs": [
        {
          "internalType": "address",
          "name": "",
          "type": "address"
        }
      ],
      "name": "frozen",
      "outputs": [
        {
          "internalType": "bool",
          "name": "",
          "type": "bool"
        }
      ],
      "stateMutability": "view",
      "type": "function"
    },
    {
      "inputs": [
        {
          "internalType": "bytes32",
          "name": "role",
          "type": "bytes32"
        }
      ],
      "name": "getRoleAdmin",
      "outputs": [
        {
          "internalType": "bytes32",
          "name": "",
          "type": "bytes32"
        }
      ],
      "stateMutability": "view",
      "type": "function"
    },
    {
      "inputs": [
        {
          "internalType": "bytes32",
          "name": "role",
          "type": "bytes32"
        },
        {
          "internalType": "address",
          "name": "account",
          "type": "address"
        }
      ],
      "name": "grantRole",
      "outputs": [],
      "stateMutability": "nonpayable",
      "type": "function"
    },
    {
      "inputs": [
        {
          "internalType": "bytes32",
          "name": "role",
          "type": "bytes32"
        },
        {
          "internalType": "address",
          "name": "account",
          "type": "address"
        }
      ],
      "name": "hasRole",
      "outputs": [
        {
          "internalType": "bool",
          "name": "",
          "type": "bool"
        }
      ],
      "stateMutability": "view",
      "type": "function"
    },
    {
      "inputs": [
        {
          "internalType": "address",
          "name": "admin",
          "type": "address"
        },
        {
          "internalType": "string",
          "name": "_disclosuresURI",
          "type": "string"
        }
      ],
      "name": "initialize",
      "outputs": [],
      "stateMutability": "nonpayable",
      "type": "function"
    },
    {
      "inputs": [
        {
          "internalType": "address",
          "name": "to",
          "type": "address"
        },
        {
          "internalType": "uint256",
          "name": "amount",
          "type": "uint256"
        }
      ],
      "name": "mint",
      "outputs": [],
      "stateMutability": "nonpayable",
      "type": "function"
    },
    {
      "inputs": [],
      "name": "name",
      "outputs": [
        {
          "internalType": "string",
          "name": "",
          "type": "string"
        }
      ],
      "stateMutability": "view",
      "type": "function"
    },
    {
      "inputs": [
        {
          "internalType": "address",
          "name": "owner",
          "type": "address"
        }
      ],
      "name": "nonces",
      "outputs": [
        {
          "internalType": "uint256",
          "name": "",
          "type": "uint256"
        }
      ],
      "stateMutability": "view",
      "type": "function"
    },
    {
      "inputs": [],
      "name": "pause",
      "outputs": [],
      "stateMutability": "nonpayable",
      "type": "function"
    },
    {
      "inputs": [],
      "name": "paused",
      "outputs": [
        {
          "internalType": "bool",
          "name": "",
          "type": "bool"
        }
      ],
      "stateMutability": "view",
      "type": "function"
    },
    {
      "inputs": [
        {
          "internalType": "address",
          "name": "owner",
          "type": "address"
        },
        {
          "internalType": "address",
          "name": "spender",
          "type": "address"
        },
        {
          "internalType": "uint256",
          "name": "value",
          "type": "uint256"
        },
        {
          "internalType": "uint256",
          "name": "deadline",
          "type": "uint256"
        },
        {
          "internalType": "uint8",
          "name": "v",
          "type": "uint8"
        },
        {
          "internalType": "bytes32",
          "name": "r",
          "type": "bytes32"
        },
        {
          "internalType": "bytes32",
          "name": "s",
          "type": "bytes32"
        }
      ],
      "name": "permit",
      "outputs": [],
      "stateMutability": "nonpayable",
      "type": "function"
    },
    {
      "inputs": [],
      "name": "proxiableUUID",
      "outputs": [
        {
          "internalType": "bytes32",
          "name": "",
          "type": "bytes32"
        }
      ],
      "stateMutability": "view",
      "type": "function"
    },
    {
      "inputs": [
        {
          "internalType": "bytes32",
          "name": "role",
          "type": "bytes32"
        },
        {
          "internalType": "address",
          "name": "callerConfirmation",
          "type": "address"
        }
      ],
      "name": "renounceRole",
      "outputs": [],
      "stateMutability": "nonpayable",
      "type": "function"
    },
    {
      "inputs": [
        {
          "internalType": "bytes32",
          "name": "role",
          "type": "bytes32"
        },
        {
          "internalType": "address",
          "name": "account",
          "type": "address"
        }
      ],
      "name": "revokeRole",
      "outputs": [],
      "stateMutability": "nonpayable",
      "type": "function"
    },
    {
      "inputs": [
        {
          "internalType": "address",
          "name": "account",
          "type": "address"
        },
        {
          "internalType": "bool",
          "name": "v",
          "type": "bool"
        }
      ],
      "name": "setBlacklisted",
      "outputs": [],
      "stateMutability": "nonpayable",
      "type": "function"
    },
    {
      "inputs": [
        {
          "internalType": "string",
          "name": "uri",
          "type": "string"
        }
      ],
      "name": "setDisclosuresURI",
      "outputs": [],
      "stateMutability": "nonpayable",
      "type": "function"
    },
    {
      "inputs": [
        {
          "internalType": "address",
          "name": "account",
          "type": "address"
        },
        {
          "internalType": "bool",
          "name": "v",
          "type": "bool"
        }
      ],
      "name": "setFrozen",
      "outputs": [],
      "stateMutability": "nonpayable",
      "type": "function"
    },
    {
      "inputs": [
        {
          "internalType": "bytes4",
          "name": "interfaceId",
          "type": "bytes4"
        }
      ],
      "name": "supportsInterface",
      "outputs": [
        {
          "internalType": "bool",
          "name": "",
          "type": "bool"
        }
      ],
      "stateMutability": "view",
      "type": "function"
    },
    {
      "inputs": [],
      "name": "symbol",
      "outputs": [
        {
          "internalType": "string",
          "name": "",
          "type": "string"
        }
      ],
      "stateMutability": "view",
      "type": "function"
    },
    {
      "inputs": [],
      "name": "totalSupply",
      "outputs": [
        {
          "internalType": "uint256",
          "name": "",
          "type": "uint256"
        }
      ],
      "stateMutability": "view",
      "type": "function"
    },
    {
      "inputs": [
        {
          "internalType": "address",
          "name": "to",
          "type": "address"
        },
        {
          "internalType": "uint256",
          "name": "value",
          "type": "uint256"
        }
      ],
      "name": "transfer",
      "outputs": [
        {
          "internalType": "bool",
          "name": "",
          "type": "bool"
        }
      ],
      "stateMutability": "nonpayable",
      "type": "function"
    },
    {
      "inputs": [
        {
          "internalType": "address",
          "name": "from",
          "type": "address"
        },
        {
          "internalType": "address",
          "name": "to",
          "type": "address"
        },
        {
          "internalType": "uint256",
          "name": "value",
          "type": "uint256"
        }
      ],
      "name": "transferFrom",
      "outputs": [
        {
          "internalType": "bool",
          "name": "",
          "type": "bool"
        }
      ],
      "stateMutability": "nonpayable",
      "type": "function"
    },
    {
      "inputs": [],
      "name": "unpause",
      "outputs": [],
      "stateMutability": "nonpayable",
      "type": "function"
    },
    {
      "inputs": [
        {
          "internalType": "address",
          "name": "newImplementation",
          "type": "address"
        },
        {
          "internalType": "bytes",
          "name": "data",
          "type": "bytes"
        }
      ],
      "name": "upgradeToAndCall",
      "outputs": [],
      "stateMutability": "payable",
      "type": "function"
    }
  ],
  "bytecode": "0x60a06040523060805234801561001457600080fd5b5060805161298f61003e600039600081816113d6015281816113ff0152611545015261298f6000f3fe6080604052600436106102305760003560e01c806379cc67901161012e578063d01dd6d2116100ab578063dbac26e91161006f578063dbac26e9146106aa578063dd62ed3e146106da578063e103cea5146106fa578063e63ab1e91461071a578063f399e22e1461073c57600080fd5b8063d01dd6d2146105e6578063d051665014610606578063d505accf14610636578063d539139314610656578063d547741f1461068a57600080fd5b806395d89b41116100f257806395d89b411461054b578063a217fddf14610560578063a9059cbb14610575578063ac869cd814610595578063ad3cb1cc146105b557600080fd5b806379cc6790146104ae5780637ecebe00146104ce5780638456cb59146104ee57806384b0196e1461050357806391d148541461052b57600080fd5b8063313ce567116101bc5780634f1ef286116101805780634f1ef2861461042c57806352d1902d1461043f5780635c975abb14610454578063609a30651461047957806370a082311461048e57600080fd5b8063313ce567146103a65780633644e515146103c257806336568abe146103d75780633f4ba83a146103f757806340c10f191461040c57600080fd5b806318160ddd1161020357806318160ddd146102dc57806323b872dd14610310578063248a9ca314610330578063282c51f3146103505780632f2ff15d1461038457600080fd5b806301ffc9a714610235578063062d3bd71461026a57806306fdde031461029a578063095ea7b3146102bc575b600080fd5b34801561024157600080fd5b5061025561025036600461213d565b61075c565b60405190151581526020015b60405180910390f35b34801561027657600080fd5b5061028c6000805160206128da83398151915281565b604051908152602001610261565b3480156102a657600080fd5b506102af610793565b60405161026191906121b7565b3480156102c857600080fd5b506102556102d73660046121e6565b61083c565b3480156102e857600080fd5b507f52c63247e1f47db19d5ce0460030c497f067ca4cebf71ba98eeadabe20bace025461028c565b34801561031c57600080fd5b5061025561032b366004612210565b610854565b34801561033c57600080fd5b5061028c61034b36600461224c565b61087a565b34801561035c57600080fd5b5061028c7f3c11d16cbaffd01df69ce1c404f6340ee057498f5f00246190ea54220576a84881565b34801561039057600080fd5b506103a461039f366004612265565b61089c565b005b3480156103b257600080fd5b5060405160128152602001610261565b3480156103ce57600080fd5b5061028c6108be565b3480156103e357600080fd5b506103a46103f2366004612265565b6108cd565b34801561040357600080fd5b506103a4610905565b34801561041857600080fd5b506103a46104273660046121e6565b610928565b6103a461043a3660046122a7565b61095c565b34801561044b57600080fd5b5061028c61097b565b34801561046057600080fd5b5060008051602061293a8339815191525460ff16610255565b34801561048557600080fd5b506102af610998565b34801561049a57600080fd5b5061028c6104a9366004612369565b610a26565b3480156104ba57600080fd5b506103a46104c93660046121e6565b610a59565b3480156104da57600080fd5b5061028c6104e9366004612369565b610a8d565b3480156104fa57600080fd5b506103a4610a98565b34801561050f57600080fd5b50610518610ab8565b6040516102619796959493929190612384565b34801561053757600080fd5b50610255610546366004612265565b610b69565b34801561055757600080fd5b506102af610ba1565b34801561056c57600080fd5b5061028c600081565b34801561058157600080fd5b506102556105903660046121e6565b610be0565b3480156105a157600080fd5b506103a46105b036600461241d565b610bee565b3480156105c157600080fd5b506102af604051806040016040528060058152602001640352e302e360dc1b81525081565b3480156105f257600080fd5b506103a461060136600461241d565b610c65565b34801561061257600080fd5b50610255610621366004612369565b60006020819052908152604090205460ff1681565b34801561064257600080fd5b506103a4610651366004612459565b610cd5565b34801561066257600080fd5b5061028c7f9f2df0fed2c77648de5860a4cc508cd0818c85b8b8a1ab4ceeef8d981c8956a681565b34801561069657600080fd5b506103a46106a5366004612265565b610e2e565b3480156106b657600080fd5b506102556106c5366004612369565b60016020526000908152604090205460ff1681565b3480156106e657600080fd5b5061028c6106f53660046124cc565b610e4a565b34801561070657600080fd5b506103a461071536600461253f565b610e94565b34801561072657600080fd5b5061028c6000805160206128fa83398151915281565b34801561074857600080fd5b506103a4610757366004612581565b610eeb565b60006001600160e01b03198216637965db0b60e01b148061078d57506301ffc9a760e01b6001600160e01b03198316145b92915050565b6060600060008051602061287a8339815191525b90508060030180546107b8906125d4565b80601f01602080910402602001604051908101604052809291908181526020018280546107e4906125d4565b80156108315780601f1061080657610100808354040283529160200191610831565b820191906000526020600020905b81548152906001019060200180831161081457829003601f168201915b505050505091505090565b60003361084a818585611133565b5060019392505050565b600033610862858285611140565b61086d8585856111a1565b60019150505b9392505050565b600090815260008051602061291a833981519152602052604090206001015490565b6108a58261087a565b6108ae81611200565b6108b8838361120a565b50505050565b60006108c86112af565b905090565b6001600160a01b03811633146108f65760405163334bd91960e11b815260040160405180910390fd5b61090082826112b9565b505050565b6000805160206128fa83398151915261091d81611200565b610925611335565b50565b7f9f2df0fed2c77648de5860a4cc508cd0818c85b8b8a1ab4ceeef8d981c8956a661095281611200565b6109008383611395565b6109646113cb565b61096d82611472565b610977828261147d565b5050565b600061098561153a565b506000805160206128ba83398151915290565b600280546109a5906125d4565b80601f01602080910402602001604051908101604052809291908181526020018280546109d1906125d4565b8015610a1e5780601f106109f357610100808354040283529160200191610a1e565b820191906000526020600020905b815481529060010190602001808311610a0157829003601f168201915b505050505081565b60008060008051602061287a8339815191525b6001600160a01b0390931660009081526020939093525050604090205490565b7f3c11d16cbaffd01df69ce1c404f6340ee057498f5f00246190ea54220576a848610a8381611200565b6109008383611583565b600061078d826115b9565b6000805160206128fa833981519152610ab081611200565b6109256115e2565b6000606080828080838160008051602061289a8339815191528054909150158015610ae557506001810154155b610b2e5760405162461bcd60e51b81526020600482015260156024820152741152540dcc4c8e88155b9a5b9a5d1a585b1a5e9959605a1b60448201526064015b60405180910390fd5b610b3661162b565b610b3e61166a565b60408051600080825260208201909252600f60f81b9c939b5091995046985030975095509350915050565b600091825260008051602061291a833981519152602090815260408084206001600160a01b0393909316845291905290205460ff1690565b7f52c63247e1f47db19d5ce0460030c497f067ca4cebf71ba98eeadabe20bace04805460609160008051602061287a833981519152916107b8906125d4565b60003361084a8185856111a1565b6000805160206128da833981519152610c0681611200565b6001600160a01b03831660008181526020818152604091829020805460ff191686151590811790915591519182527f3fdf348e931eca704dcfa3857f82af4904ebc7a2898428f61b37252a2cc71d2a91015b60405180910390a2505050565b6000805160206128da833981519152610c7d81611200565b6001600160a01b038316600081815260016020908152604091829020805460ff191686151590811790915591519182527f6a12b3df6cba4203bd7fd06b816789f87de8c594299aed5717ae070fac781bac9101610c58565b83421115610cf95760405163313c898160e11b815260048101859052602401610b25565b60007f6e71edae12b1b97f4d1f60370fef10105fa2faae0126114a169c64845d6126c9888888610d658c6001600160a01b031660009081527f5ab42ced628888259c08ac98db1eb0cf702fc1501344311d8b100cd1bfe4bb006020526040902080546001810190915590565b6040805160208101969096526001600160a01b0394851690860152929091166060840152608083015260a082015260c0810186905260e0016040516020818303038152906040528051906020012090506000610dc082611682565b90506000610dd0828787876116af565b9050896001600160a01b0316816001600160a01b031614610e17576040516325c0072360e11b81526001600160a01b0380831660048301528b166024820152604401610b25565b610e228a8a8a611133565b50505050505050505050565b610e378261087a565b610e4081611200565b6108b883836112b9565b6001600160a01b0391821660009081527f52c63247e1f47db19d5ce0460030c497f067ca4cebf71ba98eeadabe20bace016020908152604080832093909416825291909152205490565b6000610e9f81611200565b6002610eac83858361265e565b507f3033a6a2903637dbff59c22a023dff442a5dd1b196cbf4cdfcd40b2cc6c1bc668383604051610ede92919061271e565b60405180910390a1505050565b6000610ef56116dd565b805490915060ff600160401b820416159067ffffffffffffffff16600081158015610f1d5750825b905060008267ffffffffffffffff166001148015610f3a5750303b155b905081158015610f48575080155b15610f665760405163f92ee8a960e01b815260040160405180910390fd5b845467ffffffffffffffff191660011785558315610f9057845460ff60401b1916600160401b1785555b610feb6040518060400160405280601c81526020017f5765426c6f636b2055534420536574746c656d656e7420546f6b656e00000000815250604051806040016040528060048152602001632aa9a22960e11b815250611706565b6110296040518060400160405280601c81526020017f5765426c6f636b2055534420536574746c656d656e7420546f6b656e00000000815250611718565b611031611743565b611039611743565b611041611743565b61104c60008961120a565b506110777f9f2df0fed2c77648de5860a4cc508cd0818c85b8b8a1ab4ceeef8d981c8956a68961120a565b506110a27f3c11d16cbaffd01df69ce1c404f6340ee057498f5f00246190ea54220576a8488961120a565b506110bb6000805160206128fa8339815191528961120a565b506110d46000805160206128da8339815191528961120a565b5060026110e287898361265e565b50831561112957845460ff60401b19168555604051600181527fc7f505b2f371ae2175ee4913f4499e1f2633a7b5936321eed1cdaeb6115181d29060200160405180910390a15b5050505050505050565b610900838383600161174b565b600061114c8484610e4a565b90506000198110156108b8578181101561119257604051637dc7a0d960e11b81526001600160a01b03841660048201526024810182905260448101839052606401610b25565b6108b88484848403600061174b565b6001600160a01b0383166111cb57604051634b637e8f60e11b815260006004820152602401610b25565b6001600160a01b0382166111f55760405163ec442f0560e01b815260006004820152602401610b25565b610900838383611833565b61092581336119f6565b600060008051602061291a8339815191526112258484610b69565b6112a5576000848152602082815260408083206001600160a01b03871684529091529020805460ff1916600117905561125b3390565b6001600160a01b0316836001600160a01b0316857f2f8788117e7eff1d82e926ec794901d17c78024a50270940304540a733656f0d60405160405180910390a4600191505061078d565b600091505061078d565b60006108c8611a2f565b600060008051602061291a8339815191526112d48484610b69565b156112a5576000848152602082815260408083206001600160a01b0387168085529252808320805460ff1916905551339287917ff6391f5c32d9c69d2a47ea670b442974b53935d1edc7fd64eb21e047a839171b9190a4600191505061078d565b61133d611aa3565b60008051602061293a833981519152805460ff191681557f5db9ee0a495bf2e6ff9c91a7834c1ba4fdd244a5e8aa4e537bd38aeae4b073aa335b6040516001600160a01b03909116815260200160405180910390a150565b6001600160a01b0382166113bf5760405163ec442f0560e01b815260006004820152602401610b25565b61097760008383611833565b306001600160a01b037f000000000000000000000000000000000000000000000000000000000000000016148061145257507f00000000000000000000000000000000000000000000000000000000000000006001600160a01b03166114466000805160206128ba833981519152546001600160a01b031690565b6001600160a01b031614155b156114705760405163703e46dd60e11b815260040160405180910390fd5b565b600061097781611200565b816001600160a01b03166352d1902d6040518163ffffffff1660e01b8152600401602060405180830381865afa9250505080156114d7575060408051601f3d908101601f191682019092526114d49181019061274d565b60015b6114ff57604051634c9c8ce360e01b81526001600160a01b0383166004820152602401610b25565b6000805160206128ba833981519152811461153057604051632a87526960e21b815260048101829052602401610b25565b6109008383611ad3565b306001600160a01b037f000000000000000000000000000000000000000000000000000000000000000016146114705760405163703e46dd60e11b815260040160405180910390fd5b6001600160a01b0382166115ad57604051634b637e8f60e11b815260006004820152602401610b25565b61097782600083611833565b6000807f5ab42ced628888259c08ac98db1eb0cf702fc1501344311d8b100cd1bfe4bb00610a39565b6115ea611b29565b60008051602061293a833981519152805460ff191660011781557f62e78cea01bee320cd4e420270b5ea74000d11b0c9f74754ebdbfc544b05a25833611377565b7fa16a46d94261c7517cc8ff89f61c0ce93598e3c849801011dee649a6a557d102805460609160008051602061289a833981519152916107b8906125d4565b6060600060008051602061289a8339815191526107a7565b600061078d61168f6112af565b8360405161190160f01b8152600281019290925260228201526042902090565b6000806000806116c188888888611b5a565b9250925092506116d18282611c29565b50909695505050505050565b6000807ff0c57e16840df040f15088dc2f81fe391c3923bec73e23a9662efc9c229c6a0061078d565b61170e611ce2565b6109778282611d07565b611720611ce2565b61092581604051806040016040528060018152602001603160f81b815250611d58565b611470611ce2565b60008051602061287a8339815191526001600160a01b0385166117845760405163e602df0560e01b815260006004820152602401610b25565b6001600160a01b0384166117ae57604051634a1406b160e11b815260006004820152602401610b25565b6001600160a01b0380861660009081526001830160209081526040808320938816835292905220839055811561182c57836001600160a01b0316856001600160a01b03167f8c5be1e5ebec7d5bd14f71427d1e84f3dd0314c0f7b2291e5b200ac8c7c3b9258560405161182391815260200190565b60405180910390a35b5050505050565b61183b611b29565b6001600160a01b03831615611912576001600160a01b03831660009081526001602052604090205460ff16156118b35760405162461bcd60e51b815260206004820152601860248201527f555344523a2073656e64657220626c61636b6c697374656400000000000000006044820152606401610b25565b6001600160a01b03831660009081526020819052604090205460ff16156119125760405162461bcd60e51b81526020600482015260136024820152722aa9a2291d1039b2b73232b910333937bd32b760691b6044820152606401610b25565b6001600160a01b038216156119eb576001600160a01b03821660009081526001602052604090205460ff161561198a5760405162461bcd60e51b815260206004820152601a60248201527f555344523a20726563656976657220626c61636b6c69737465640000000000006044820152606401610b25565b6001600160a01b03821660009081526020819052604090205460ff16156119eb5760405162461bcd60e51b81526020600482015260156024820152742aa9a2291d103932b1b2b4bb32b910333937bd32b760591b6044820152606401610b25565b610900838383611db9565b611a008282610b69565b6109775760405163e2517d3f60e01b81526001600160a01b038216600482015260248101839052604401610b25565b60007f8b73c3c69bb8fe3d512ecc4cf759cc79239f7b179b0ffacaa9a75d522b39400f611a5a611ef7565b611a62611f61565b60408051602081019490945283019190915260608201524660808201523060a082015260c00160405160208183030381529060405280519060200120905090565b60008051602061293a8339815191525460ff1661147057604051638dfc202b60e01b815260040160405180910390fd5b611adc82611fa5565b6040516001600160a01b038316907fbc7cd75a20ee27fd9adebab32041f755214dbc6bffa90cc0225b39da2e5c2d3b90600090a2805115611b2157610900828261200a565b610977612080565b60008051602061293a8339815191525460ff16156114705760405163d93c066560e01b815260040160405180910390fd5b600080807f7fffffffffffffffffffffffffffffff5d576e7357a4501ddfe92f46681b20a0841115611b955750600091506003905082611c1f565b604080516000808252602082018084528a905260ff891692820192909252606081018790526080810186905260019060a0016020604051602081039080840390855afa158015611be9573d6000803e3d6000fd5b5050604051601f1901519150506001600160a01b038116611c1557506000925060019150829050611c1f565b9250600091508190505b9450945094915050565b6000826003811115611c3d57611c3d612766565b03611c46575050565b6001826003811115611c5a57611c5a612766565b03611c785760405163f645eedf60e01b815260040160405180910390fd5b6002826003811115611c8c57611c8c612766565b03611cad5760405163fce698f760e01b815260048101829052602401610b25565b6003826003811115611cc157611cc1612766565b03610977576040516335e2f38360e21b815260048101829052602401610b25565b611cea61209f565b61147057604051631afcd79f60e31b815260040160405180910390fd5b611d0f611ce2565b60008051602061287a8339815191527f52c63247e1f47db19d5ce0460030c497f067ca4cebf71ba98eeadabe20bace03611d49848261277c565b50600481016108b8838261277c565b611d60611ce2565b60008051602061289a8339815191527fa16a46d94261c7517cc8ff89f61c0ce93598e3c849801011dee649a6a557d102611d9a848261277c565b5060038101611da9838261277c565b5060008082556001909101555050565b60008051602061287a8339815191526001600160a01b038416611df55781816002016000828254611dea919061283c565b90915550611e679050565b6001600160a01b03841660009081526020829052604090205482811015611e485760405163391434e360e21b81526001600160a01b03861660048201526024810182905260448101849052606401610b25565b6001600160a01b03851660009081526020839052604090209083900390555b6001600160a01b038316611e85576002810180548390039055611ea4565b6001600160a01b03831660009081526020829052604090208054830190555b826001600160a01b0316846001600160a01b03167fddf252ad1be2c89b69c2b068fc378daa952ba7f163c4a11628f55a4df523b3ef84604051611ee991815260200190565b60405180910390a350505050565b600060008051602061289a83398151915281611f1161162b565b805190915015611f2957805160209091012092915050565b81548015611f38579392505050565b7fc5d2460186f7233c927e7db2dcc703c0e500b653ca82273b7bfad8045d85a470935050505090565b600060008051602061289a83398151915281611f7b61166a565b805190915015611f9357805160209091012092915050565b60018201548015611f38579392505050565b806001600160a01b03163b600003611fdb57604051634c9c8ce360e01b81526001600160a01b0382166004820152602401610b25565b6000805160206128ba83398151915280546001600160a01b0319166001600160a01b0392909216919091179055565b6060600080846001600160a01b031684604051612027919061285d565b600060405180830381855af49150503d8060008114612062576040519150601f19603f3d011682016040523d82523d6000602084013e612067565b606091505b50915091506120778583836120b9565b95945050505050565b34156114705760405163b398979f60e01b815260040160405180910390fd5b60006120a96116dd565b54600160401b900460ff16919050565b6060826120ce576120c982612115565b610873565b81511580156120e557506001600160a01b0384163b155b1561210e57604051639996b31560e01b81526001600160a01b0385166004820152602401610b25565b5080610873565b80511561212457805160208201fd5b60405163d6bda27560e01b815260040160405180910390fd5b60006020828403121561214f57600080fd5b81356001600160e01b03198116811461087357600080fd5b60005b8381101561218257818101518382015260200161216a565b50506000910152565b600081518084526121a3816020860160208601612167565b601f01601f19169290920160200192915050565b602081526000610873602083018461218b565b80356001600160a01b03811681146121e157600080fd5b919050565b600080604083850312156121f957600080fd5b612202836121ca565b946020939093013593505050565b60008060006060848603121561222557600080fd5b61222e846121ca565b925061223c602085016121ca565b9150604084013590509250925092565b60006020828403121561225e57600080fd5b5035919050565b6000806040838503121561227857600080fd5b82359150612288602084016121ca565b90509250929050565b634e487b7160e01b600052604160045260246000fd5b600080604083850312156122ba57600080fd5b6122c3836121ca565b9150602083013567ffffffffffffffff808211156122e057600080fd5b818501915085601f8301126122f457600080fd5b81358181111561230657612306612291565b604051601f8201601f19908116603f0116810190838211818310171561232e5761232e612291565b8160405282815288602084870101111561234757600080fd5b8260208601602083013760006020848301015280955050505050509250929050565b60006020828403121561237b57600080fd5b610873826121ca565b60ff60f81b881681526000602060e060208401526123a560e084018a61218b565b83810360408501526123b7818a61218b565b606085018990526001600160a01b038816608086015260a0850187905284810360c08601528551808252602080880193509091019060005b8181101561240b578351835292840192918401916001016123ef565b50909c9b505050505050505050505050565b6000806040838503121561243057600080fd5b612439836121ca565b91506020830135801515811461244e57600080fd5b809150509250929050565b600080600080600080600060e0888a03121561247457600080fd5b61247d886121ca565b965061248b602089016121ca565b95506040880135945060608801359350608088013560ff811681146124af57600080fd5b9699959850939692959460a0840135945060c09093013592915050565b600080604083850312156124df57600080fd5b6124e8836121ca565b9150612288602084016121ca565b60008083601f84011261250857600080fd5b50813567ffffffffffffffff81111561252057600080fd5b60208301915083602082850101111561253857600080fd5b9250929050565b6000806020838503121561255257600080fd5b823567ffffffffffffffff81111561256957600080fd5b612575858286016124f6565b90969095509350505050565b60008060006040848603121561259657600080fd5b61259f846121ca565b9250602084013567ffffffffffffffff8111156125bb57600080fd5b6125c7868287016124f6565b9497909650939450505050565b600181811c908216806125e857607f821691505b60208210810361260857634e487b7160e01b600052602260045260246000fd5b50919050565b601f821115610900576000816000526020600020601f850160051c810160208610156126375750805b601f850160051c820191505b8181101561265657828155600101612643565b505050505050565b67ffffffffffffffff83111561267657612676612291565b61268a8361268483546125d4565b8361260e565b6000601f8411600181146126be57600085156126a65750838201355b600019600387901b1c1916600186901b17835561182c565b600083815260209020601f19861690835b828110156126ef57868501358255602094850194600190920191016126cf565b508682101561270c5760001960f88860031b161c19848701351681555b505060018560011b0183555050505050565b60208152816020820152818360408301376000818301604090810191909152601f909201601f19160101919050565b60006020828403121561275f57600080fd5b5051919050565b634e487b7160e01b600052602160045260246000fd5b815167ffffffffffffffff81111561279657612796612291565b6127aa816127a484546125d4565b8461260e565b602080601f8311600181146127df57600084156127c75750858301515b600019600386901b1c1916600185901b178555612656565b600085815260208120601f198616915b8281101561280e578886015182559484019460019091019084016127ef565b508582101561282c5787850151600019600388901b60f8161c191681555b5050505050600190811b01905550565b8082018082111561078d57634e487b7160e01b600052601160045260246000fd5b6000825161286f818460208701612167565b919091019291505056fe52c63247e1f47db19d5ce0460030c497f067ca4cebf71ba98eeadabe20bace00a16a46d94261c7517cc8ff89f61c0ce93598e3c849801011dee649a6a557d100360894a13ba1a3210667c828492db98dca3e2076cc3735a920a3ca505d382bbc442a94f1a1fac79af32856af2a64f63648cfa2ef3b98610a5bb7cbec4cee698565d7a28e3265b37a6474929f336521b332c1681b933f6cb9f3376673440d862a02dd7bc7dec4dceedda775e58dd541e08a116c6c53815c0bd028192f7b626800cd5ed15c6e187e77e9aee88184c21f4f2182ab5827cb3b7e07fbedcd63f03300a2646970667358221220cb738aeb650542cb62e3c641a28f0d099ebcf8571db6d13b6539ff694381d12e64736f6c63430008180033",
  "linkReferences": {},
  "deployedLinkReferences": {}
}