{
  "_format": "hh-sol-artifact-1",
  "contractName": "RBTAssetFactory",
  "sourceName": "contracts/rbt/RBTAssetFactory.sol",
  "abi": [
    {
      "inputs": [
        {
          "internalType": "address",
          "name": "_implementation",
          "type": "address"
        }
      ],
      "stateMutability": "nonpayable",
      "type": "constructor"
    },
    {
      "inputs": [],
      "name": "FailedDeployment",
      "type": "error"
    },
    {
      "inputs": [
        {
          "internalType": "uint256",
          "name": "balance",
          "type": "uint256"
        },
        {
          "internalType": "uint256",
          "name": "needed",
          "type": "uint256"
        }
      ],
      "name": "InsufficientBalance",
      "type": "error"
    },
    {
      "anonymous": false,
      "inputs": [
        {
          "indexed": true,
          "internalType": "address",
          "name": "asset",
          "type": "address"
        },
        {
          "indexed": false,
          "internalType": "string",
          "name": "assetName",
          "type": "string"
        },
        {
          "indexed": false,
          "internalType": "string",
          "name": "assetLabel",
          "type": "string"
        },
        {
          "indexed": false,
          "internalType": "address",
          "name": "settlementToken",
          "type": "address"
        }
      ],
      "name": "AssetCreated",
      "type": "event"
    },
    {
      "inputs": [
        {
          "internalType": "uint256",
          "name": "",
          "type": "uint256"
        }
      ],
      "name": "allAssets",
      "outputs": [
        {
          "internalType": "address",
          "name": "",
          "type": "address"
        }
      ],
      "stateMutability": "view",
      "type": "function"
    },
    {
      "inputs": [],
      "name": "assetsLength",
      "outputs": [
        {
          "internalType": "uint256",
          "name": "",
          "type": "uint256"
        }
      ],
      "stateMutability": "view",
      "type": "function"
    },
    {
      "inputs": [
        {
          "internalType": "string",
          "name": "assetName",
          "type": "string"
        },
        {
          "internalType": "string",
          "name": "assetSymbol",
          "type": "string"
        },
        {
          "internalType": "string",
          "name": "assetLabel",
          "type": "string"
        },
        {
          "internalType": "address",
          "name": "settlementToken",
          "type": "address"
        },
        {
          "internalType": "address",
          "name": "admin",
          "type": "address"
        }
      ],
      "name": "createAsset",
      "outputs": [
        {
          "internalType": "address",
          "name": "asset",
          "type": "address"
        }
      ],
      "stateMutability": "nonpayable",
      "type": "function"
    },
    {
      "inputs": [],
      "name": "implementation",
      "outputs": [
        {
          "internalType": "address",
          "name": "",
          "type": "address"
        }
      ],
      "stateMutability": "view",
      "type": "function"
    }
  ],
  "bytecode": "0x60a060405234801561001057600080fd5b506040516105ae3803806105ae83398101604081905261002f91610040565b6001600160a01b0316608052610070565b60006020828403121561005257600080fd5b81516001600160a01b038116811461006957600080fd5b9392505050565b60805161051e610090600039600081816086015260fd015261051e6000f3fe608060405234801561001057600080fd5b506004361061004c5760003560e01c8063578e5c22146100515780635c60da1b14610081578063d12693e1146100a8578063f50477a2146100bb575b600080fd5b61006461005f3660046102df565b6100cc565b6040516001600160a01b0390911681526020015b60405180910390f35b6100647f000000000000000000000000000000000000000000000000000000000000000081565b6100646100b636600461035d565b6100f6565b600054604051908152602001610078565b600081815481106100dc57600080fd5b6000918252602090912001546001600160a01b0316905081565b600061012a7f00000000000000000000000000000000000000000000000000000000000000006001600160a01b0316610232565b604051636b687d7760e11b81529091506001600160a01b0382169063d6d0faee90610167908c908c908c908c908c908c908c908c90600401610441565b600060405180830381600087803b15801561018157600080fd5b505af1158015610195573d6000803e3d6000fd5b5050600080546001810182559080527f290decd9548b62a8d60345a988386fc84ba6bc95484008f6362f93160ef3e5630180546001600160a01b0319166001600160a01b0385169081179091556040519092507fd74bdcb8b9251ab993ae74d1d5a439c33d392a2d08f4a397e07e062f09a8be33915061021e908c908c908a908a908a906104a6565b60405180910390a298975050505050505050565b600061023f826000610245565b92915050565b6000814710156102755760405163cf47918160e01b81524760048201526024810183905260440160405180910390fd5b763d602d80600a3d3981f3363d3d373d3d3d363d730000008360601b60e81c176000526e5af43d82803e903d91602b57fd5bf38360781b176020526037600983f090506001600160a01b03811661023f5760405163b06ebf3d60e01b815260040160405180910390fd5b6000602082840312156102f157600080fd5b5035919050565b60008083601f84011261030a57600080fd5b50813567ffffffffffffffff81111561032257600080fd5b60208301915083602082850101111561033a57600080fd5b9250929050565b80356001600160a01b038116811461035857600080fd5b919050565b60008060008060008060008060a0898b03121561037957600080fd5b883567ffffffffffffffff8082111561039157600080fd5b61039d8c838d016102f8565b909a50985060208b01359150808211156103b657600080fd5b6103c28c838d016102f8565b909850965060408b01359150808211156103db57600080fd5b506103e88b828c016102f8565b90955093506103fb905060608a01610341565b915061040960808a01610341565b90509295985092959890939650565b81835281816020850137506000828201602090810191909152601f909101601f19169091010190565b60a08152600061045560a083018a8c610418565b828103602084015261046881898b610418565b9050828103604084015261047d818789610418565b6001600160a01b0395861660608501529390941660809092019190915250979650505050505050565b6060815260006104ba606083018789610418565b82810360208401526104cd818688610418565b91505060018060a01b0383166040830152969550505050505056fea2646970667358221220c403cd8561f66710e47349f97f18b033b09872e8f2c7cbb28060c4147c7e42a764736f6c63430008180033",
  "linkReferences": {},
  "deployedLinkReferences": {}
}