{
  "_format": "hh-sol-artifact-1",
  "contractName": "RBTAssetFactory",
  "sourceName": "contracts/rbt/RBTAssetFactory.sol",
  "abi": [
    {
      "inputs": [
        {
          "internalType": "address",
          "name": "_implementation",
          "type": "address"
        },
        {
          "internalType": "address",
          "name": "admin",
          "type": "address"
        }
      ],
      "stateMutability": "nonpayable",
      "type": "constructor"
    },
    {
      "inputs": [],
      "name": "AccessControlBadConfirmation",
      "type": "error"
    },
    {
      "inputs": [
        {
          "internalType": "address",
          "name": "account",
          "type": "address"
        },
        {
          "internalType": "bytes32",
          "name": "neededRole",
          "type": "bytes32"
        }
      ],
      "name": "AccessControlUnauthorizedAccount",
      "type": "error"
    },
    {
      "inputs": [],
      "name": "FailedDeployment",
      "type": "error"
    },
    {
      "inputs": [
        {
          "internalType": "uint256",
          "name": "balance",
          "type": "uint256"
        },
        {
          "internalType": "uint256",
          "name": "needed",
          "type": "uint256"
        }
      ],
      "name": "InsufficientBalance",
      "type": "error"
    },
    {
      "anonymous": false,
      "inputs": [
        {
          "indexed": true,
          "internalType": "address",
          "name": "asset",
          "type": "address"
        },
        {
          "indexed": false,
          "internalType": "string",
          "name": "assetName",
          "type": "string"
        },
        {
          "indexed": false,
          "internalType": "string",
          "name": "assetLabel",
          "type": "string"
        },
        {
          "indexed": false,
          "internalType": "address",
          "name": "settlementToken",
          "type": "address"
        }
      ],
      "name": "AssetCreated",
      "type": "event"
    },
    {
      "anonymous": false,
      "inputs": [
        {
          "indexed": true,
          "internalType": "bytes32",
          "name": "role",
          "type": "bytes32"
        },
        {
          "indexed": true,
          "internalType": "bytes32",
          "name": "previousAdminRole",
          "type": "bytes32"
        },
        {
          "indexed": true,
          "internalType": "bytes32",
          "name": "newAdminRole",
          "type": "bytes32"
        }
      ],
      "name": "RoleAdminChanged",
      "type": "event"
    },
    {
      "anonymous": false,
      "inputs": [
        {
          "indexed": true,
          "internalType": "bytes32",
          "name": "role",
          "type": "bytes32"
        },
        {
          "indexed": true,
          "internalType": "address",
          "name": "account",
          "type": "address"
        },
        {
          "indexed": true,
          "internalType": "address",
          "name": "sender",
          "type": "address"
        }
      ],
      "name": "RoleGranted",
      "type": "event"
    },
    {
      "anonymous": false,
      "inputs": [
        {
          "indexed": true,
          "internalType": "bytes32",
          "name": "role",
          "type": "bytes32"
        },
        {
          "indexed": true,
          "internalType": "address",
          "name": "account",
          "type": "address"
        },
        {
          "indexed": true,
          "internalType": "address",
          "name": "sender",
          "type": "address"
        }
      ],
      "name": "RoleRevoked",
      "type": "event"
    },
    {
      "inputs": [],
      "name": "CREATOR_ROLE",
      "outputs": [
        {
          "internalType": "bytes32",
          "name": "",
          "type": "bytes32"
        }
      ],
      "stateMutability": "view",
      "type": "function"
    },
    {
      "inputs": [],
      "name": "DEFAULT_ADMIN_ROLE",
      "outputs": [
        {
          "internalType": "bytes32",
          "name": "",
          "type": "bytes32"
        }
      ],
      "stateMutability": "view",
      "type": "function"
    },
    {
      "inputs": [
        {
          "internalType": "uint256",
          "name": "",
          "type": "uint256"
        }
      ],
      "name": "allAssets",
      "outputs": [
        {
          "internalType": "address",
          "name": "",
          "type": "address"
        }
      ],
      "stateMutability": "view",
      "type": "function"
    },
    {
      "inputs": [],
      "name": "assetsLength",
      "outputs": [
        {
          "internalType": "uint256",
          "name": "",
          "type": "uint256"
        }
      ],
      "stateMutability": "view",
      "type": "function"
    },
    {
      "inputs": [
        {
          "internalType": "string",
          "name": "assetName",
          "type": "string"
        },
        {
          "internalType": "string",
          "name": "assetSymbol",
          "type": "string"
        },
        {
          "internalType": "string",
          "name": "assetLabel",
          "type": "string"
        },
        {
          "internalType": "address",
          "name": "settlementToken",
          "type": "address"
        },
        {
          "internalType": "address",
          "name": "admin",
          "type": "address"
        }
      ],
      "name": "createAsset",
      "outputs": [
        {
          "internalType": "address",
          "name": "asset",
          "type": "address"
        }
      ],
      "stateMutability": "nonpayable",
      "type": "function"
    },
    {
      "inputs": [
        {
          "internalType": "bytes32",
          "name": "role",
          "type": "bytes32"
        }
      ],
      "name": "getRoleAdmin",
      "outputs": [
        {
          "internalType": "bytes32",
          "name": "",
          "type": "bytes32"
        }
      ],
      "stateMutability": "view",
      "type": "function"
    },
    {
      "inputs": [
        {
          "internalType": "bytes32",
          "name": "role",
          "type": "bytes32"
        },
        {
          "internalType": "address",
          "name": "account",
          "type": "address"
        }
      ],
      "name": "grantRole",
      "outputs": [],
      "stateMutability": "nonpayable",
      "type": "function"
    },
    {
      "inputs": [
        {
          "internalType": "bytes32",
          "name": "role",
          "type": "bytes32"
        },
        {
          "internalType": "address",
          "name": "account",
          "type": "address"
        }
      ],
      "name": "hasRole",
      "outputs": [
        {
          "internalType": "bool",
          "name": "",
          "type": "bool"
        }
      ],
      "stateMutability": "view",
      "type": "function"
    },
    {
      "inputs": [],
      "name": "implementation",
      "outputs": [
        {
          "internalType": "address",
          "name": "",
          "type": "address"
        }
      ],
      "stateMutability": "view",
      "type": "function"
    },
    {
      "inputs": [
        {
          "internalType": "bytes32",
          "name": "role",
          "type": "bytes32"
        },
        {
          "internalType": "address",
          "name": "callerConfirmation",
          "type": "address"
        }
      ],
      "name": "renounceRole",
      "outputs": [],
      "stateMutability": "nonpayable",
      "type": "function"
    },
    {
      "inputs": [
        {
          "internalType": "bytes32",
          "name": "role",
          "type": "bytes32"
        },
        {
          "internalType": "address",
          "name": "account",
          "type": "address"
        }
      ],
      "name": "revokeRole",
      "outputs": [],
      "stateMutability": "nonpayable",
      "type": "function"
    },
    {
      "inputs": [
        {
          "internalType": "bytes4",
          "name": "interfaceId",
          "type": "bytes4"
        }
      ],
      "name": "supportsInterface",
      "outputs": [
        {
          "internalType": "bool",
          "name": "",
          "type": "bool"
        }
      ],
      "stateMutability": "view",
      "type": "function"
    }
  ],
  "bytecode": "0x60a060405234801561001057600080fd5b50604051610a99380380610a9983398101604081905261002f91610142565b6001600160a01b03821660805261004760008261007a565b506100727f828634d95e775031b9ff576b159a8509d3053581a8c9c4d7d86899e0afcd882f8261007a565b505050610175565b6000828152602081815260408083206001600160a01b038516845290915281205460ff1661011c576000838152602081815260408083206001600160a01b03861684529091529020805460ff191660011790556100d43390565b6001600160a01b0316826001600160a01b0316847f2f8788117e7eff1d82e926ec794901d17c78024a50270940304540a733656f0d60405160405180910390a4506001610120565b5060005b92915050565b80516001600160a01b038116811461013d57600080fd5b919050565b6000806040838503121561015557600080fd5b61015e83610126565b915061016c60208401610126565b90509250929050565b6080516109026101976000396000818161016a015261031a01526109026000f3fe608060405234801561001057600080fd5b50600436106100b45760003560e01c80638aeda25a116100715780638aeda25a1461018c57806391d14854146101b3578063a217fddf146101c6578063d12693e1146101ce578063d547741f146101e1578063f50477a2146101f457600080fd5b806301ffc9a7146100b9578063248a9ca3146100e15780632f2ff15d1461011257806336568abe14610127578063578e5c221461013a5780635c60da1b14610165575b600080fd5b6100cc6100c7366004610666565b6101fc565b60405190151581526020015b60405180910390f35b6101046100ef366004610697565b60009081526020819052604090206001015490565b6040519081526020016100d8565b6101256101203660046106cc565b610233565b005b6101256101353660046106cc565b61025e565b61014d610148366004610697565b610296565b6040516001600160a01b0390911681526020016100d8565b61014d7f000000000000000000000000000000000000000000000000000000000000000081565b6101047f828634d95e775031b9ff576b159a8509d3053581a8c9c4d7d86899e0afcd882f81565b6100cc6101c13660046106cc565b6102c0565b610104600081565b61014d6101dc366004610741565b6102e9565b6101256101ef3660046106cc565b610452565b600154610104565b60006001600160e01b03198216637965db0b60e01b148061022d57506301ffc9a760e01b6001600160e01b03198316145b92915050565b60008281526020819052604090206001015461024e81610477565b6102588383610484565b50505050565b6001600160a01b03811633146102875760405163334bd91960e11b815260040160405180910390fd5b6102918282610516565b505050565b600181815481106102a657600080fd5b6000918252602090912001546001600160a01b0316905081565b6000918252602082815260408084206001600160a01b0393909316845291905290205460ff1690565b60007f828634d95e775031b9ff576b159a8509d3053581a8c9c4d7d86899e0afcd882f61031581610477565b6103477f00000000000000000000000000000000000000000000000000000000000000006001600160a01b0316610581565b604051636b687d7760e11b81529092506001600160a01b0383169063d6d0faee90610384908d908d908d908d908d908d908d908d90600401610825565b600060405180830381600087803b15801561039e57600080fd5b505af11580156103b2573d6000803e3d6000fd5b50506001805480820182556000919091527fb10e2d527612073b26eecdfd717e6a320cf44b4afac2b0732d9fcbe2b7fa0cf60180546001600160a01b0319166001600160a01b0386169081179091556040519092507fd74bdcb8b9251ab993ae74d1d5a439c33d392a2d08f4a397e07e062f09a8be33915061043d908d908d908b908b908b9061088a565b60405180910390a25098975050505050505050565b60008281526020819052604090206001015461046d81610477565b6102588383610516565b610481813361058e565b50565b600061049083836102c0565b61050e576000838152602081815260408083206001600160a01b03861684529091529020805460ff191660011790556104c63390565b6001600160a01b0316826001600160a01b0316847f2f8788117e7eff1d82e926ec794901d17c78024a50270940304540a733656f0d60405160405180910390a450600161022d565b50600061022d565b600061052283836102c0565b1561050e576000838152602081815260408083206001600160a01b0386168085529252808320805460ff1916905551339286917ff6391f5c32d9c69d2a47ea670b442974b53935d1edc7fd64eb21e047a839171b9190a450600161022d565b600061022d8260006105d0565b61059882826102c0565b6105cc5760405163e2517d3f60e01b81526001600160a01b0382166004820152602481018390526044015b60405180910390fd5b5050565b6000814710156105fc5760405163cf47918160e01b8152476004820152602481018390526044016105c3565b763d602d80600a3d3981f3363d3d373d3d3d363d730000008360601b60e81c176000526e5af43d82803e903d91602b57fd5bf38360781b176020526037600983f090506001600160a01b03811661022d5760405163b06ebf3d60e01b815260040160405180910390fd5b60006020828403121561067857600080fd5b81356001600160e01b03198116811461069057600080fd5b9392505050565b6000602082840312156106a957600080fd5b5035919050565b80356001600160a01b03811681146106c757600080fd5b919050565b600080604083850312156106df57600080fd5b823591506106ef602084016106b0565b90509250929050565b60008083601f84011261070a57600080fd5b50813567ffffffffffffffff81111561072257600080fd5b60208301915083602082850101111561073a57600080fd5b9250929050565b60008060008060008060008060a0898b03121561075d57600080fd5b883567ffffffffffffffff8082111561077557600080fd5b6107818c838d016106f8565b909a50985060208b013591508082111561079a57600080fd5b6107a68c838d016106f8565b909850965060408b01359150808211156107bf57600080fd5b506107cc8b828c016106f8565b90955093506107df905060608a016106b0565b91506107ed60808a016106b0565b90509295985092959890939650565b81835281816020850137506000828201602090810191909152601f909101601f19169091010190565b60a08152600061083960a083018a8c6107fc565b828103602084015261084c81898b6107fc565b905082810360408401526108618187896107fc565b6001600160a01b0395861660608501529390941660809092019190915250979650505050505050565b60608152600061089e6060830187896107fc565b82810360208401526108b18186886107fc565b91505060018060a01b0383166040830152969550505050505056fea2646970667358221220eb7245a6d8e29b67676026a2301423d9ab9b5b3dccc0578f0b8a4cebae03019b64736f6c63430008180033",
  "linkReferences": {},
  "deployedLinkReferences": {}
}