{
  "_format": "hh-sol-artifact-1",
  "contractName": "USDR",
  "sourceName": "contracts/outdate/USDR.sol",
  "abi": [
    {
      "inputs": [
        {
          "internalType": "string",
          "name": "name_",
          "type": "string"
        },
        {
          "internalType": "string",
          "name": "symbol_",
          "type": "string"
        },
        {
          "internalType": "uint256",
          "name": "initialSupply_",
          "type": "uint256"
        },
        {
          "internalType": "address",
          "name": "admin_",
          "type": "address"
        }
      ],
      "stateMutability": "nonpayable",
      "type": "constructor"
    },
    {
      "inputs": [],
      "name": "AccessControlBadConfirmation",
      "type": "error"
    },
    {
      "inputs": [
        {
          "internalType": "address",
          "name": "account",
          "type": "address"
        },
        {
          "internalType": "bytes32",
          "name": "neededRole",
          "type": "bytes32"
        }
      ],
      "name": "AccessControlUnauthorizedAccount",
      "type": "error"
    },
    {
      "inputs": [],
      "name": "ECDSAInvalidSignature",
      "type": "error"
    },
    {
      "inputs": [
        {
          "internalType": "uint256",
          "name": "length",
          "type": "uint256"
        }
      ],
      "name": "ECDSAInvalidSignatureLength",
      "type": "error"
    },
    {
      "inputs": [
        {
          "internalType": "bytes32",
          "name": "s",
          "type": "bytes32"
        }
      ],
      "name": "ECDSAInvalidSignatureS",
      "type": "error"
    },
    {
      "inputs": [
        {
          "internalType": "address",
          "name": "spender",
          "type": "address"
        },
        {
          "internalType": "uint256",
          "name": "allowance",
          "type": "uint256"
        },
        {
          "internalType": "uint256",
          "name": "needed",
          "type": "uint256"
        }
      ],
      "name": "ERC20InsufficientAllowance",
      "type": "error"
    },
    {
      "inputs": [
        {
          "internalType": "address",
          "name": "sender",
          "type": "address"
        },
        {
          "internalType": "uint256",
          "name": "balance",
          "type": "uint256"
        },
        {
          "internalType": "uint256",
          "name": "needed",
          "type": "uint256"
        }
      ],
      "name": "ERC20InsufficientBalance",
      "type": "error"
    },
    {
      "inputs": [
        {
          "internalType": "address",
          "name": "approver",
          "type": "address"
        }
      ],
      "name": "ERC20InvalidApprover",
      "type": "error"
    },
    {
      "inputs": [
        {
          "internalType": "address",
          "name": "receiver",
          "type": "address"
        }
      ],
      "name": "ERC20InvalidReceiver",
      "type": "error"
    },
    {
      "inputs": [
        {
          "internalType": "address",
          "name": "sender",
          "type": "address"
        }
      ],
      "name": "ERC20InvalidSender",
      "type": "error"
    },
    {
      "inputs": [
        {
          "internalType": "address",
          "name": "spender",
          "type": "address"
        }
      ],
      "name": "ERC20InvalidSpender",
      "type": "error"
    },
    {
      "inputs": [
        {
          "internalType": "uint256",
          "name": "deadline",
          "type": "uint256"
        }
      ],
      "name": "ERC2612ExpiredSignature",
      "type": "error"
    },
    {
      "inputs": [
        {
          "internalType": "address",
          "name": "signer",
          "type": "address"
        },
        {
          "internalType": "address",
          "name": "owner",
          "type": "address"
        }
      ],
      "name": "ERC2612InvalidSigner",
      "type": "error"
    },
    {
      "inputs": [],
      "name": "EnforcedPause",
      "type": "error"
    },
    {
      "inputs": [],
      "name": "ExpectedPause",
      "type": "error"
    },
    {
      "inputs": [
        {
          "internalType": "address",
          "name": "account",
          "type": "address"
        },
        {
          "internalType": "uint256",
          "name": "currentNonce",
          "type": "uint256"
        }
      ],
      "name": "InvalidAccountNonce",
      "type": "error"
    },
    {
      "inputs": [],
      "name": "InvalidShortString",
      "type": "error"
    },
    {
      "inputs": [
        {
          "internalType": "string",
          "name": "str",
          "type": "string"
        }
      ],
      "name": "StringTooLong",
      "type": "error"
    },
    {
      "anonymous": false,
      "inputs": [
        {
          "indexed": true,
          "internalType": "address",
          "name": "owner",
          "type": "address"
        },
        {
          "indexed": true,
          "internalType": "address",
          "name": "spender",
          "type": "address"
        },
        {
          "indexed": false,
          "internalType": "uint256",
          "name": "value",
          "type": "uint256"
        }
      ],
      "name": "Approval",
      "type": "event"
    },
    {
      "anonymous": false,
      "inputs": [],
      "name": "EIP712DomainChanged",
      "type": "event"
    },
    {
      "anonymous": false,
      "inputs": [
        {
          "indexed": false,
          "internalType": "address",
          "name": "account",
          "type": "address"
        }
      ],
      "name": "Paused",
      "type": "event"
    },
    {
      "anonymous": false,
      "inputs": [
        {
          "indexed": true,
          "internalType": "bytes32",
          "name": "role",
          "type": "bytes32"
        },
        {
          "indexed": true,
          "internalType": "bytes32",
          "name": "previousAdminRole",
          "type": "bytes32"
        },
        {
          "indexed": true,
          "internalType": "bytes32",
          "name": "newAdminRole",
          "type": "bytes32"
        }
      ],
      "name": "RoleAdminChanged",
      "type": "event"
    },
    {
      "anonymous": false,
      "inputs": [
        {
          "indexed": true,
          "internalType": "bytes32",
          "name": "role",
          "type": "bytes32"
        },
        {
          "indexed": true,
          "internalType": "address",
          "name": "account",
          "type": "address"
        },
        {
          "indexed": true,
          "internalType": "address",
          "name": "sender",
          "type": "address"
        }
      ],
      "name": "RoleGranted",
      "type": "event"
    },
    {
      "anonymous": false,
      "inputs": [
        {
          "indexed": true,
          "internalType": "bytes32",
          "name": "role",
          "type": "bytes32"
        },
        {
          "indexed": true,
          "internalType": "address",
          "name": "account",
          "type": "address"
        },
        {
          "indexed": true,
          "internalType": "address",
          "name": "sender",
          "type": "address"
        }
      ],
      "name": "RoleRevoked",
      "type": "event"
    },
    {
      "anonymous": false,
      "inputs": [
        {
          "indexed": true,
          "internalType": "address",
          "name": "from",
          "type": "address"
        },
        {
          "indexed": true,
          "internalType": "address",
          "name": "to",
          "type": "address"
        },
        {
          "indexed": false,
          "internalType": "uint256",
          "name": "value",
          "type": "uint256"
        }
      ],
      "name": "Transfer",
      "type": "event"
    },
    {
      "anonymous": false,
      "inputs": [
        {
          "indexed": false,
          "internalType": "address",
          "name": "account",
          "type": "address"
        }
      ],
      "name": "Unpaused",
      "type": "event"
    },
    {
      "inputs": [],
      "name": "DEFAULT_ADMIN_ROLE",
      "outputs": [
        {
          "internalType": "bytes32",
          "name": "",
          "type": "bytes32"
        }
      ],
      "stateMutability": "view",
      "type": "function"
    },
    {
      "inputs": [],
      "name": "DOMAIN_SEPARATOR",
      "outputs": [
        {
          "internalType": "bytes32",
          "name": "",
          "type": "bytes32"
        }
      ],
      "stateMutability": "view",
      "type": "function"
    },
    {
      "inputs": [],
      "name": "MINTER_ROLE",
      "outputs": [
        {
          "internalType": "bytes32",
          "name": "",
          "type": "bytes32"
        }
      ],
      "stateMutability": "view",
      "type": "function"
    },
    {
      "inputs": [],
      "name": "PAUSER_ROLE",
      "outputs": [
        {
          "internalType": "bytes32",
          "name": "",
          "type": "bytes32"
        }
      ],
      "stateMutability": "view",
      "type": "function"
    },
    {
      "inputs": [
        {
          "internalType": "address",
          "name": "owner",
          "type": "address"
        },
        {
          "internalType": "address",
          "name": "spender",
          "type": "address"
        }
      ],
      "name": "allowance",
      "outputs": [
        {
          "internalType": "uint256",
          "name": "",
          "type": "uint256"
        }
      ],
      "stateMutability": "view",
      "type": "function"
    },
    {
      "inputs": [
        {
          "internalType": "address",
          "name": "spender",
          "type": "address"
        },
        {
          "internalType": "uint256",
          "name": "value",
          "type": "uint256"
        }
      ],
      "name": "approve",
      "outputs": [
        {
          "internalType": "bool",
          "name": "",
          "type": "bool"
        }
      ],
      "stateMutability": "nonpayable",
      "type": "function"
    },
    {
      "inputs": [
        {
          "internalType": "address",
          "name": "account",
          "type": "address"
        }
      ],
      "name": "balanceOf",
      "outputs": [
        {
          "internalType": "uint256",
          "name": "",
          "type": "uint256"
        }
      ],
      "stateMutability": "view",
      "type": "function"
    },
    {
      "inputs": [
        {
          "internalType": "uint256",
          "name": "value",
          "type": "uint256"
        }
      ],
      "name": "burn",
      "outputs": [],
      "stateMutability": "nonpayable",
      "type": "function"
    },
    {
      "inputs": [
        {
          "internalType": "address",
          "name": "account",
          "type": "address"
        },
        {
          "internalType": "uint256",
          "name": "value",
          "type": "uint256"
        }
      ],
      "name": "burnFrom",
      "outputs": [],
      "stateMutability": "nonpayable",
      "type": "function"
    },
    {
      "inputs": [],
      "name": "decimals",
      "outputs": [
        {
          "internalType": "uint8",
          "name": "",
          "type": "uint8"
        }
      ],
      "stateMutability": "pure",
      "type": "function"
    },
    {
      "inputs": [],
      "name": "eip712Domain",
      "outputs": [
        {
          "internalType": "bytes1",
          "name": "fields",
          "type": "bytes1"
        },
        {
          "internalType": "string",
          "name": "name",
          "type": "string"
        },
        {
          "internalType": "string",
          "name": "version",
          "type": "string"
        },
        {
          "internalType": "uint256",
          "name": "chainId",
          "type": "uint256"
        },
        {
          "internalType": "address",
          "name": "verifyingContract",
          "type": "address"
        },
        {
          "internalType": "bytes32",
          "name": "salt",
          "type": "bytes32"
        },
        {
          "internalType": "uint256[]",
          "name": "extensions",
          "type": "uint256[]"
        }
      ],
      "stateMutability": "view",
      "type": "function"
    },
    {
      "inputs": [
        {
          "internalType": "bytes32",
          "name": "role",
          "type": "bytes32"
        }
      ],
      "name": "getRoleAdmin",
      "outputs": [
        {
          "internalType": "bytes32",
          "name": "",
          "type": "bytes32"
        }
      ],
      "stateMutability": "view",
      "type": "function"
    },
    {
      "inputs": [
        {
          "internalType": "bytes32",
          "name": "role",
          "type": "bytes32"
        },
        {
          "internalType": "address",
          "name": "account",
          "type": "address"
        }
      ],
      "name": "grantRole",
      "outputs": [],
      "stateMutability": "nonpayable",
      "type": "function"
    },
    {
      "inputs": [
        {
          "internalType": "bytes32",
          "name": "role",
          "type": "bytes32"
        },
        {
          "internalType": "address",
          "name": "account",
          "type": "address"
        }
      ],
      "name": "hasRole",
      "outputs": [
        {
          "internalType": "bool",
          "name": "",
          "type": "bool"
        }
      ],
      "stateMutability": "view",
      "type": "function"
    },
    {
      "inputs": [
        {
          "internalType": "address",
          "name": "to",
          "type": "address"
        },
        {
          "internalType": "uint256",
          "name": "amount",
          "type": "uint256"
        }
      ],
      "name": "mint",
      "outputs": [],
      "stateMutability": "nonpayable",
      "type": "function"
    },
    {
      "inputs": [],
      "name": "name",
      "outputs": [
        {
          "internalType": "string",
          "name": "",
          "type": "string"
        }
      ],
      "stateMutability": "view",
      "type": "function"
    },
    {
      "inputs": [
        {
          "internalType": "address",
          "name": "owner",
          "type": "address"
        }
      ],
      "name": "nonces",
      "outputs": [
        {
          "internalType": "uint256",
          "name": "",
          "type": "uint256"
        }
      ],
      "stateMutability": "view",
      "type": "function"
    },
    {
      "inputs": [],
      "name": "pause",
      "outputs": [],
      "stateMutability": "nonpayable",
      "type": "function"
    },
    {
      "inputs": [],
      "name": "paused",
      "outputs": [
        {
          "internalType": "bool",
          "name": "",
          "type": "bool"
        }
      ],
      "stateMutability": "view",
      "type": "function"
    },
    {
      "inputs": [
        {
          "internalType": "address",
          "name": "owner",
          "type": "address"
        },
        {
          "internalType": "address",
          "name": "spender",
          "type": "address"
        },
        {
          "internalType": "uint256",
          "name": "value",
          "type": "uint256"
        },
        {
          "internalType": "uint256",
          "name": "deadline",
          "type": "uint256"
        },
        {
          "internalType": "uint8",
          "name": "v",
          "type": "uint8"
        },
        {
          "internalType": "bytes32",
          "name": "r",
          "type": "bytes32"
        },
        {
          "internalType": "bytes32",
          "name": "s",
          "type": "bytes32"
        }
      ],
      "name": "permit",
      "outputs": [],
      "stateMutability": "nonpayable",
      "type": "function"
    },
    {
      "inputs": [
        {
          "internalType": "bytes32",
          "name": "role",
          "type": "bytes32"
        },
        {
          "internalType": "address",
          "name": "callerConfirmation",
          "type": "address"
        }
      ],
      "name": "renounceRole",
      "outputs": [],
      "stateMutability": "nonpayable",
      "type": "function"
    },
    {
      "inputs": [
        {
          "internalType": "bytes32",
          "name": "role",
          "type": "bytes32"
        },
        {
          "internalType": "address",
          "name": "account",
          "type": "address"
        }
      ],
      "name": "revokeRole",
      "outputs": [],
      "stateMutability": "nonpayable",
      "type": "function"
    },
    {
      "inputs": [
        {
          "internalType": "bytes4",
          "name": "interfaceId",
          "type": "bytes4"
        }
      ],
      "name": "supportsInterface",
      "outputs": [
        {
          "internalType": "bool",
          "name": "",
          "type": "bool"
        }
      ],
      "stateMutability": "view",
      "type": "function"
    },
    {
      "inputs": [],
      "name": "symbol",
      "outputs": [
        {
          "internalType": "string",
          "name": "",
          "type": "string"
        }
      ],
      "stateMutability": "view",
      "type": "function"
    },
    {
      "inputs": [],
      "name": "totalSupply",
      "outputs": [
        {
          "internalType": "uint256",
          "name": "",
          "type": "uint256"
        }
      ],
      "stateMutability": "view",
      "type": "function"
    },
    {
      "inputs": [
        {
          "internalType": "address",
          "name": "to",
          "type": "address"
        },
        {
          "internalType": "uint256",
          "name": "value",
          "type": "uint256"
        }
      ],
      "name": "transfer",
      "outputs": [
        {
          "internalType": "bool",
          "name": "",
          "type": "bool"
        }
      ],
      "stateMutability": "nonpayable",
      "type": "function"
    },
    {
      "inputs": [
        {
          "internalType": "address",
          "name": "from",
          "type": "address"
        },
        {
          "internalType": "address",
          "name": "to",
          "type": "address"
        },
        {
          "internalType": "uint256",
          "name": "value",
          "type": "uint256"
        }
      ],
      "name": "transferFrom",
      "outputs": [
        {
          "internalType": "bool",
          "name": "",
          "type": "bool"
        }
      ],
      "stateMutability": "nonpayable",
      "type": "function"
    },
    {
      "inputs": [],
      "name": "unpause",
      "outputs": [],
      "stateMutability": "nonpayable",
      "type": "function"
    }
  ],
  "bytecode": "0x6101606040523480156200001257600080fd5b5060405162001e5038038062001e508339810160408190526200003591620005c8565b6040805180820190915260018152603160f81b60208201528490819081866003620000618382620006ed565b506004620000708282620006ed565b5062000082915083905060056200020c565b61012052620000938160066200020c565b61014052815160208084019190912060e052815190820120610100524660a0526200012160e05161010051604080517f8b73c3c69bb8fe3d512ecc4cf759cc79239f7b179b0ffacaa9a75d522b39400f60208201529081019290925260608201524660808201523060a082015260009060c00160405160208183030381529060405280519060200120905090565b60805250503060c052506001600160a01b038116620001875760405162461bcd60e51b815260206004820152601460248201527f61646d696e2063616e6e6f74206265207a65726f00000000000000000000000060448201526064015b60405180910390fd5b6200019460008262000245565b50620001c17f9f2df0fed2c77648de5860a4cc508cd0818c85b8b8a1ab4ceeef8d981c8956a68262000245565b50620001ee7f65d7a28e3265b37a6474929f336521b332c1681b933f6cb9f3376673440d862a8262000245565b5081156200020257620002028183620002f7565b5050505062000835565b60006020835110156200022c57620002248362000335565b90506200023f565b81620002398482620006ed565b5060ff90505b92915050565b60008281526009602090815260408083206001600160a01b038516845290915281205460ff16620002ee5760008381526009602090815260408083206001600160a01b03861684529091529020805460ff19166001179055620002a53390565b6001600160a01b0316826001600160a01b0316847f2f8788117e7eff1d82e926ec794901d17c78024a50270940304540a733656f0d60405160405180910390a45060016200023f565b5060006200023f565b6001600160a01b038216620003235760405163ec442f0560e01b8152600060048201526024016200017e565b620003316000838362000378565b5050565b600080829050601f8151111562000363578260405163305a27a960e01b81526004016200017e9190620007b9565b80516200037082620007ee565b179392505050565b620003858383836200038a565b505050565b62000394620003a1565b62000385838383620003c8565b60085460ff1615620003c65760405163d93c066560e01b815260040160405180910390fd5b565b6001600160a01b038316620003f7578060026000828254620003eb919062000813565b909155506200046b9050565b6001600160a01b038316600090815260208190526040902054818110156200044c5760405163391434e360e21b81526001600160a01b038516600482015260248101829052604481018390526064016200017e565b6001600160a01b03841660009081526020819052604090209082900390555b6001600160a01b0382166200048957600280548290039055620004a8565b6001600160a01b03821660009081526020819052604090208054820190555b816001600160a01b0316836001600160a01b03167fddf252ad1be2c89b69c2b068fc378daa952ba7f163c4a11628f55a4df523b3ef83604051620004ee91815260200190565b60405180910390a3505050565b634e487b7160e01b600052604160045260246000fd5b60005b838110156200052e57818101518382015260200162000514565b50506000910152565b600082601f8301126200054957600080fd5b81516001600160401b0380821115620005665762000566620004fb565b604051601f8301601f19908116603f01168101908282118183101715620005915762000591620004fb565b81604052838152866020858801011115620005ab57600080fd5b620005be84602083016020890162000511565b9695505050505050565b60008060008060808587031215620005df57600080fd5b84516001600160401b0380821115620005f757600080fd5b620006058883890162000537565b955060208701519150808211156200061c57600080fd5b506200062b8782880162000537565b60408701516060880151919550935090506001600160a01b03811681146200065257600080fd5b939692955090935050565b600181811c908216806200067257607f821691505b6020821081036200069357634e487b7160e01b600052602260045260246000fd5b50919050565b601f82111562000385576000816000526020600020601f850160051c81016020861015620006c45750805b601f850160051c820191505b81811015620006e557828155600101620006d0565b505050505050565b81516001600160401b03811115620007095762000709620004fb565b62000721816200071a84546200065d565b8462000699565b602080601f831160018114620007595760008415620007405750858301515b600019600386901b1c1916600185901b178555620006e5565b600085815260208120601f198616915b828110156200078a5788860151825594840194600190910190840162000769565b5085821015620007a95787850151600019600388901b60f8161c191681555b5050505050600190811b01905550565b6020815260008251806020840152620007da81604085016020870162000511565b601f01601f19169190910160400192915050565b80516020808301519190811015620006935760001960209190910360031b1b16919050565b808201808211156200023f57634e487b7160e01b600052601160045260246000fd5b60805160a05160c05160e0516101005161012051610140516115c0620008906000396000610cbd01526000610c9001526000610ad001526000610aa801526000610a0301526000610a2d01526000610a5701526115c06000f3fe608060405234801561001057600080fd5b50600436106101c45760003560e01c806370a08231116100f9578063a217fddf11610097578063d539139311610071578063d539139314610394578063d547741f146103bb578063dd62ed3e146103ce578063e63ab1e91461040757600080fd5b8063a217fddf14610366578063a9059cbb1461036e578063d505accf1461038157600080fd5b80638456cb59116100d35780638456cb591461032857806384b0196e1461033057806391d148541461034b57806395d89b411461035e57600080fd5b806370a08231146102d957806379cc6790146103025780637ecebe001461031557600080fd5b8063313ce567116101665780633f4ba83a116101405780633f4ba83a146102a057806340c10f19146102a857806342966c68146102bb5780635c975abb146102ce57600080fd5b8063313ce567146102765780633644e5151461028557806336568abe1461028d57600080fd5b806318160ddd116101a257806318160ddd1461021957806323b872dd1461022b578063248a9ca31461023e5780632f2ff15d1461026157600080fd5b806301ffc9a7146101c957806306fdde03146101f1578063095ea7b314610206575b600080fd5b6101dc6101d7366004611277565b61042e565b60405190151581526020015b60405180910390f35b6101f9610465565b6040516101e891906112ee565b6101dc61021436600461131d565b6104f7565b6002545b6040519081526020016101e8565b6101dc610239366004611347565b61050f565b61021d61024c366004611383565b60009081526009602052604090206001015490565b61027461026f36600461139c565b610533565b005b604051600681526020016101e8565b61021d61055e565b61027461029b36600461139c565b61056d565b6102746105a5565b6102746102b636600461131d565b6105da565b6102746102c9366004611383565b61060e565b60085460ff166101dc565b61021d6102e73660046113c8565b6001600160a01b031660009081526020819052604090205490565b61027461031036600461131d565b610618565b61021d6103233660046113c8565b610631565b61027461064f565b610338610681565b6040516101e897969594939291906113e3565b6101dc61035936600461139c565b6106c7565b6101f96106f2565b61021d600081565b6101dc61037c36600461131d565b610701565b61027461038f36600461147c565b61070f565b61021d7f9f2df0fed2c77648de5860a4cc508cd0818c85b8b8a1ab4ceeef8d981c8956a681565b6102746103c936600461139c565b61084e565b61021d6103dc3660046114ef565b6001600160a01b03918216600090815260016020908152604080832093909416825291909152205490565b61021d7f65d7a28e3265b37a6474929f336521b332c1681b933f6cb9f3376673440d862a81565b60006001600160e01b03198216637965db0b60e01b148061045f57506301ffc9a760e01b6001600160e01b03198316145b92915050565b60606003805461047490611519565b80601f01602080910402602001604051908101604052809291908181526020018280546104a090611519565b80156104ed5780601f106104c2576101008083540402835291602001916104ed565b820191906000526020600020905b8154815290600101906020018083116104d057829003601f168201915b5050505050905090565b600033610505818585610873565b5060019392505050565b60003361051d858285610880565b6105288585856108f9565b506001949350505050565b60008281526009602052604090206001015461054e81610958565b6105588383610962565b50505050565b60006105686109f6565b905090565b6001600160a01b03811633146105965760405163334bd91960e11b815260040160405180910390fd5b6105a08282610b21565b505050565b7f65d7a28e3265b37a6474929f336521b332c1681b933f6cb9f3376673440d862a6105cf81610958565b6105d7610b8e565b50565b7f9f2df0fed2c77648de5860a4cc508cd0818c85b8b8a1ab4ceeef8d981c8956a661060481610958565b6105a08383610be0565b6105d73382610c16565b610623823383610880565b61062d8282610c16565b5050565b6001600160a01b03811660009081526007602052604081205461045f565b7f65d7a28e3265b37a6474929f336521b332c1681b933f6cb9f3376673440d862a61067981610958565b6105d7610c4c565b600060608060008060006060610695610c89565b61069d610cb6565b60408051600080825260208201909252600f60f81b9b939a50919850469750309650945092509050565b60009182526009602090815260408084206001600160a01b0393909316845291905290205460ff1690565b60606004805461047490611519565b6000336105058185856108f9565b834211156107385760405163313c898160e11b8152600481018590526024015b60405180910390fd5b60007f6e71edae12b1b97f4d1f60370fef10105fa2faae0126114a169c64845d6126c98888886107858c6001600160a01b0316600090815260076020526040902080546001810190915590565b6040805160208101969096526001600160a01b0394851690860152929091166060840152608083015260a082015260c0810186905260e00160405160208183030381529060405280519060200120905060006107e082610ce3565b905060006107f082878787610d10565b9050896001600160a01b0316816001600160a01b031614610837576040516325c0072360e11b81526001600160a01b0380831660048301528b16602482015260440161072f565b6108428a8a8a610873565b50505050505050505050565b60008281526009602052604090206001015461086981610958565b6105588383610b21565b6105a08383836001610d3e565b6001600160a01b0383811660009081526001602090815260408083209386168352929052205460001981101561055857818110156108ea57604051637dc7a0d960e11b81526001600160a01b0384166004820152602481018290526044810183905260640161072f565b61055884848484036000610d3e565b6001600160a01b03831661092357604051634b637e8f60e11b81526000600482015260240161072f565b6001600160a01b03821661094d5760405163ec442f0560e01b81526000600482015260240161072f565b6105a0838383610e13565b6105d78133610e1e565b600061096e83836106c7565b6109ee5760008381526009602090815260408083206001600160a01b03861684529091529020805460ff191660011790556109a63390565b6001600160a01b0316826001600160a01b0316847f2f8788117e7eff1d82e926ec794901d17c78024a50270940304540a733656f0d60405160405180910390a450600161045f565b50600061045f565b6000306001600160a01b037f000000000000000000000000000000000000000000000000000000000000000016148015610a4f57507f000000000000000000000000000000000000000000000000000000000000000046145b15610a7957507f000000000000000000000000000000000000000000000000000000000000000090565b610568604080517f8b73c3c69bb8fe3d512ecc4cf759cc79239f7b179b0ffacaa9a75d522b39400f60208201527f0000000000000000000000000000000000000000000000000000000000000000918101919091527f000000000000000000000000000000000000000000000000000000000000000060608201524660808201523060a082015260009060c00160405160208183030381529060405280519060200120905090565b6000610b2d83836106c7565b156109ee5760008381526009602090815260408083206001600160a01b0386168085529252808320805460ff1916905551339286917ff6391f5c32d9c69d2a47ea670b442974b53935d1edc7fd64eb21e047a839171b9190a450600161045f565b610b96610e57565b6008805460ff191690557f5db9ee0a495bf2e6ff9c91a7834c1ba4fdd244a5e8aa4e537bd38aeae4b073aa335b6040516001600160a01b03909116815260200160405180910390a1565b6001600160a01b038216610c0a5760405163ec442f0560e01b81526000600482015260240161072f565b61062d60008383610e13565b6001600160a01b038216610c4057604051634b637e8f60e11b81526000600482015260240161072f565b61062d82600083610e13565b610c54610e7c565b6008805460ff191660011790557f62e78cea01bee320cd4e420270b5ea74000d11b0c9f74754ebdbfc544b05a258610bc33390565b60606105687f00000000000000000000000000000000000000000000000000000000000000006005610ea0565b60606105687f00000000000000000000000000000000000000000000000000000000000000006006610ea0565b600061045f610cf06109f6565b8360405161190160f01b8152600281019290925260228201526042902090565b600080600080610d2288888888610f4b565b925092509250610d32828261101a565b50909695505050505050565b6001600160a01b038416610d685760405163e602df0560e01b81526000600482015260240161072f565b6001600160a01b038316610d9257604051634a1406b160e11b81526000600482015260240161072f565b6001600160a01b038085166000908152600160209081526040808320938716835292905220829055801561055857826001600160a01b0316846001600160a01b03167f8c5be1e5ebec7d5bd14f71427d1e84f3dd0314c0f7b2291e5b200ac8c7c3b92584604051610e0591815260200190565b60405180910390a350505050565b6105a08383836110d3565b610e2882826106c7565b61062d5760405163e2517d3f60e01b81526001600160a01b03821660048201526024810183905260440161072f565b60085460ff16610e7a57604051638dfc202b60e01b815260040160405180910390fd5b565b60085460ff1615610e7a5760405163d93c066560e01b815260040160405180910390fd5b606060ff8314610eba57610eb3836110e6565b905061045f565b818054610ec690611519565b80601f0160208091040260200160405190810160405280929190818152602001828054610ef290611519565b8015610f3f5780601f10610f1457610100808354040283529160200191610f3f565b820191906000526020600020905b815481529060010190602001808311610f2257829003601f168201915b5050505050905061045f565b600080807f7fffffffffffffffffffffffffffffff5d576e7357a4501ddfe92f46681b20a0841115610f865750600091506003905082611010565b604080516000808252602082018084528a905260ff891692820192909252606081018790526080810186905260019060a0016020604051602081039080840390855afa158015610fda573d6000803e3d6000fd5b5050604051601f1901519150506001600160a01b03811661100657506000925060019150829050611010565b9250600091508190505b9450945094915050565b600082600381111561102e5761102e611553565b03611037575050565b600182600381111561104b5761104b611553565b036110695760405163f645eedf60e01b815260040160405180910390fd5b600282600381111561107d5761107d611553565b0361109e5760405163fce698f760e01b81526004810182905260240161072f565b60038260038111156110b2576110b2611553565b0361062d576040516335e2f38360e21b81526004810182905260240161072f565b6110db610e7c565b6105a0838383611125565b606060006110f38361124f565b604080516020808252818301909252919250600091906020820181803683375050509182525060208101929092525090565b6001600160a01b0383166111505780600260008282546111459190611569565b909155506111c29050565b6001600160a01b038316600090815260208190526040902054818110156111a35760405163391434e360e21b81526001600160a01b0385166004820152602481018290526044810183905260640161072f565b6001600160a01b03841660009081526020819052604090209082900390555b6001600160a01b0382166111de576002805482900390556111fd565b6001600160a01b03821660009081526020819052604090208054820190555b816001600160a01b0316836001600160a01b03167fddf252ad1be2c89b69c2b068fc378daa952ba7f163c4a11628f55a4df523b3ef8360405161124291815260200190565b60405180910390a3505050565b600060ff8216601f81111561045f57604051632cd44ac360e21b815260040160405180910390fd5b60006020828403121561128957600080fd5b81356001600160e01b0319811681146112a157600080fd5b9392505050565b6000815180845260005b818110156112ce576020818501810151868301820152016112b2565b506000602082860101526020601f19601f83011685010191505092915050565b6020815260006112a160208301846112a8565b80356001600160a01b038116811461131857600080fd5b919050565b6000806040838503121561133057600080fd5b61133983611301565b946020939093013593505050565b60008060006060848603121561135c57600080fd5b61136584611301565b925061137360208501611301565b9150604084013590509250925092565b60006020828403121561139557600080fd5b5035919050565b600080604083850312156113af57600080fd5b823591506113bf60208401611301565b90509250929050565b6000602082840312156113da57600080fd5b6112a182611301565b60ff60f81b881681526000602060e0602084015261140460e084018a6112a8565b8381036040850152611416818a6112a8565b606085018990526001600160a01b038816608086015260a0850187905284810360c08601528551808252602080880193509091019060005b8181101561146a5783518352928401929184019160010161144e565b50909c9b505050505050505050505050565b600080600080600080600060e0888a03121561149757600080fd5b6114a088611301565b96506114ae60208901611301565b95506040880135945060608801359350608088013560ff811681146114d257600080fd5b9699959850939692959460a0840135945060c09093013592915050565b6000806040838503121561150257600080fd5b61150b83611301565b91506113bf60208401611301565b600181811c9082168061152d57607f821691505b60208210810361154d57634e487b7160e01b600052602260045260246000fd5b50919050565b634e487b7160e01b600052602160045260246000fd5b8082018082111561045f57634e487b7160e01b600052601160045260246000fdfea2646970667358221220d39333cd67291932a2ab1b3b7eb53b1c9067d50281e9f4a7c3971f5d1ea01fc864736f6c63430008180033",
  "linkReferences": {},
  "deployedLinkReferences": {}
}