{
  "_format": "hh-sol-artifact-1",
  "contractName": "RBTPrimarySaleRouter",
  "sourceName": "contracts/rbt/RBTPrimarySaleRouter.sol",
  "abi": [
    {
      "inputs": [
        {
          "internalType": "address",
          "name": "usdrToken",
          "type": "address"
        },
        {
          "internalType": "address",
          "name": "admin",
          "type": "address"
        }
      ],
      "stateMutability": "nonpayable",
      "type": "constructor"
    },
    {
      "inputs": [],
      "name": "AccessControlBadConfirmation",
      "type": "error"
    },
    {
      "inputs": [
        {
          "internalType": "address",
          "name": "account",
          "type": "address"
        },
        {
          "internalType": "bytes32",
          "name": "neededRole",
          "type": "bytes32"
        }
      ],
      "name": "AccessControlUnauthorizedAccount",
      "type": "error"
    },
    {
      "inputs": [],
      "name": "BuyerNotWhitelisted",
      "type": "error"
    },
    {
      "inputs": [
        {
          "internalType": "uint256",
          "name": "cost",
          "type": "uint256"
        },
        {
          "internalType": "uint256",
          "name": "maxCost",
          "type": "uint256"
        }
      ],
      "name": "CostExceeded",
      "type": "error"
    },
    {
      "inputs": [],
      "name": "EnforcedPause",
      "type": "error"
    },
    {
      "inputs": [],
      "name": "ExpectedPause",
      "type": "error"
    },
    {
      "inputs": [],
      "name": "InsufficientRemaining",
      "type": "error"
    },
    {
      "inputs": [],
      "name": "InvalidAddress",
      "type": "error"
    },
    {
      "inputs": [],
      "name": "InvalidPrice",
      "type": "error"
    },
    {
      "inputs": [],
      "name": "InvalidUnits",
      "type": "error"
    },
    {
      "inputs": [],
      "name": "NotEnabled",
      "type": "error"
    },
    {
      "inputs": [],
      "name": "NotInSaleTime",
      "type": "error"
    },
    {
      "inputs": [],
      "name": "ReentrancyGuardReentrantCall",
      "type": "error"
    },
    {
      "inputs": [
        {
          "internalType": "address",
          "name": "token",
          "type": "address"
        }
      ],
      "name": "SafeERC20FailedOperation",
      "type": "error"
    },
    {
      "inputs": [],
      "name": "SettlementTokenMismatch",
      "type": "error"
    },
    {
      "anonymous": false,
      "inputs": [
        {
          "indexed": true,
          "internalType": "uint256",
          "name": "offeringId",
          "type": "uint256"
        },
        {
          "indexed": true,
          "internalType": "address",
          "name": "asset",
          "type": "address"
        },
        {
          "indexed": true,
          "internalType": "uint256",
          "name": "seriesId",
          "type": "uint256"
        },
        {
          "indexed": false,
          "internalType": "uint256",
          "name": "unitPrice",
          "type": "uint256"
        },
        {
          "indexed": false,
          "internalType": "uint256",
          "name": "remainingUnits",
          "type": "uint256"
        },
        {
          "indexed": false,
          "internalType": "uint64",
          "name": "startAt",
          "type": "uint64"
        },
        {
          "indexed": false,
          "internalType": "uint64",
          "name": "endAt",
          "type": "uint64"
        },
        {
          "indexed": false,
          "internalType": "address",
          "name": "treasury",
          "type": "address"
        },
        {
          "indexed": false,
          "internalType": "bool",
          "name": "enabled",
          "type": "bool"
        }
      ],
      "name": "OfferingUpserted",
      "type": "event"
    },
    {
      "anonymous": false,
      "inputs": [
        {
          "indexed": false,
          "internalType": "address",
          "name": "account",
          "type": "address"
        }
      ],
      "name": "Paused",
      "type": "event"
    },
    {
      "anonymous": false,
      "inputs": [
        {
          "indexed": true,
          "internalType": "uint256",
          "name": "offeringId",
          "type": "uint256"
        },
        {
          "indexed": true,
          "internalType": "address",
          "name": "buyer",
          "type": "address"
        },
        {
          "indexed": true,
          "internalType": "address",
          "name": "asset",
          "type": "address"
        },
        {
          "indexed": false,
          "internalType": "uint256",
          "name": "seriesId",
          "type": "uint256"
        },
        {
          "indexed": false,
          "internalType": "uint256",
          "name": "units",
          "type": "uint256"
        },
        {
          "indexed": false,
          "internalType": "uint256",
          "name": "cost",
          "type": "uint256"
        },
        {
          "indexed": false,
          "internalType": "address",
          "name": "treasury",
          "type": "address"
        }
      ],
      "name": "Purchased",
      "type": "event"
    },
    {
      "anonymous": false,
      "inputs": [
        {
          "indexed": true,
          "internalType": "bytes32",
          "name": "role",
          "type": "bytes32"
        },
        {
          "indexed": true,
          "internalType": "bytes32",
          "name": "previousAdminRole",
          "type": "bytes32"
        },
        {
          "indexed": true,
          "internalType": "bytes32",
          "name": "newAdminRole",
          "type": "bytes32"
        }
      ],
      "name": "RoleAdminChanged",
      "type": "event"
    },
    {
      "anonymous": false,
      "inputs": [
        {
          "indexed": true,
          "internalType": "bytes32",
          "name": "role",
          "type": "bytes32"
        },
        {
          "indexed": true,
          "internalType": "address",
          "name": "account",
          "type": "address"
        },
        {
          "indexed": true,
          "internalType": "address",
          "name": "sender",
          "type": "address"
        }
      ],
      "name": "RoleGranted",
      "type": "event"
    },
    {
      "anonymous": false,
      "inputs": [
        {
          "indexed": true,
          "internalType": "bytes32",
          "name": "role",
          "type": "bytes32"
        },
        {
          "indexed": true,
          "internalType": "address",
          "name": "account",
          "type": "address"
        },
        {
          "indexed": true,
          "internalType": "address",
          "name": "sender",
          "type": "address"
        }
      ],
      "name": "RoleRevoked",
      "type": "event"
    },
    {
      "anonymous": false,
      "inputs": [
        {
          "indexed": false,
          "internalType": "address",
          "name": "account",
          "type": "address"
        }
      ],
      "name": "Unpaused",
      "type": "event"
    },
    {
      "inputs": [],
      "name": "DEFAULT_ADMIN_ROLE",
      "outputs": [
        {
          "internalType": "bytes32",
          "name": "",
          "type": "bytes32"
        }
      ],
      "stateMutability": "view",
      "type": "function"
    },
    {
      "inputs": [],
      "name": "PAUSER_ROLE",
      "outputs": [
        {
          "internalType": "bytes32",
          "name": "",
          "type": "bytes32"
        }
      ],
      "stateMutability": "view",
      "type": "function"
    },
    {
      "inputs": [],
      "name": "SALE_MANAGER_ROLE",
      "outputs": [
        {
          "internalType": "bytes32",
          "name": "",
          "type": "bytes32"
        }
      ],
      "stateMutability": "view",
      "type": "function"
    },
    {
      "inputs": [
        {
          "internalType": "uint256",
          "name": "offeringId",
          "type": "uint256"
        },
        {
          "internalType": "uint256",
          "name": "units",
          "type": "uint256"
        },
        {
          "internalType": "uint256",
          "name": "maxCost",
          "type": "uint256"
        }
      ],
      "name": "buy",
      "outputs": [],
      "stateMutability": "nonpayable",
      "type": "function"
    },
    {
      "inputs": [
        {
          "internalType": "bytes32",
          "name": "role",
          "type": "bytes32"
        }
      ],
      "name": "getRoleAdmin",
      "outputs": [
        {
          "internalType": "bytes32",
          "name": "",
          "type": "bytes32"
        }
      ],
      "stateMutability": "view",
      "type": "function"
    },
    {
      "inputs": [
        {
          "internalType": "bytes32",
          "name": "role",
          "type": "bytes32"
        },
        {
          "internalType": "address",
          "name": "account",
          "type": "address"
        }
      ],
      "name": "grantRole",
      "outputs": [],
      "stateMutability": "nonpayable",
      "type": "function"
    },
    {
      "inputs": [
        {
          "internalType": "bytes32",
          "name": "role",
          "type": "bytes32"
        },
        {
          "internalType": "address",
          "name": "account",
          "type": "address"
        }
      ],
      "name": "hasRole",
      "outputs": [
        {
          "internalType": "bool",
          "name": "",
          "type": "bool"
        }
      ],
      "stateMutability": "view",
      "type": "function"
    },
    {
      "inputs": [
        {
          "internalType": "uint256",
          "name": "",
          "type": "uint256"
        }
      ],
      "name": "offerings",
      "outputs": [
        {
          "internalType": "address",
          "name": "asset",
          "type": "address"
        },
        {
          "internalType": "uint256",
          "name": "seriesId",
          "type": "uint256"
        },
        {
          "internalType": "uint256",
          "name": "unitPrice",
          "type": "uint256"
        },
        {
          "internalType": "uint256",
          "name": "remainingUnits",
          "type": "uint256"
        },
        {
          "internalType": "uint64",
          "name": "startAt",
          "type": "uint64"
        },
        {
          "internalType": "uint64",
          "name": "endAt",
          "type": "uint64"
        },
        {
          "internalType": "address",
          "name": "treasury",
          "type": "address"
        },
        {
          "internalType": "bool",
          "name": "enabled",
          "type": "bool"
        }
      ],
      "stateMutability": "view",
      "type": "function"
    },
    {
      "inputs": [],
      "name": "pause",
      "outputs": [],
      "stateMutability": "nonpayable",
      "type": "function"
    },
    {
      "inputs": [],
      "name": "paused",
      "outputs": [
        {
          "internalType": "bool",
          "name": "",
          "type": "bool"
        }
      ],
      "stateMutability": "view",
      "type": "function"
    },
    {
      "inputs": [
        {
          "internalType": "bytes32",
          "name": "role",
          "type": "bytes32"
        },
        {
          "internalType": "address",
          "name": "callerConfirmation",
          "type": "address"
        }
      ],
      "name": "renounceRole",
      "outputs": [],
      "stateMutability": "nonpayable",
      "type": "function"
    },
    {
      "inputs": [
        {
          "internalType": "address",
          "name": "token",
          "type": "address"
        },
        {
          "internalType": "address",
          "name": "to",
          "type": "address"
        },
        {
          "internalType": "uint256",
          "name": "amount",
          "type": "uint256"
        }
      ],
      "name": "rescueERC20",
      "outputs": [],
      "stateMutability": "nonpayable",
      "type": "function"
    },
    {
      "inputs": [
        {
          "internalType": "bytes32",
          "name": "role",
          "type": "bytes32"
        },
        {
          "internalType": "address",
          "name": "account",
          "type": "address"
        }
      ],
      "name": "revokeRole",
      "outputs": [],
      "stateMutability": "nonpayable",
      "type": "function"
    },
    {
      "inputs": [
        {
          "internalType": "bytes4",
          "name": "interfaceId",
          "type": "bytes4"
        }
      ],
      "name": "supportsInterface",
      "outputs": [
        {
          "internalType": "bool",
          "name": "",
          "type": "bool"
        }
      ],
      "stateMutability": "view",
      "type": "function"
    },
    {
      "inputs": [],
      "name": "unpause",
      "outputs": [],
      "stateMutability": "nonpayable",
      "type": "function"
    },
    {
      "inputs": [
        {
          "internalType": "uint256",
          "name": "offeringId",
          "type": "uint256"
        },
        {
          "internalType": "address",
          "name": "asset",
          "type": "address"
        },
        {
          "internalType": "uint256",
          "name": "seriesId",
          "type": "uint256"
        },
        {
          "internalType": "uint256",
          "name": "unitPrice",
          "type": "uint256"
        },
        {
          "internalType": "uint256",
          "name": "remainingUnits",
          "type": "uint256"
        },
        {
          "internalType": "uint64",
          "name": "startAt",
          "type": "uint64"
        },
        {
          "internalType": "uint64",
          "name": "endAt",
          "type": "uint64"
        },
        {
          "internalType": "address",
          "name": "treasury",
          "type": "address"
        },
        {
          "internalType": "bool",
          "name": "enabled",
          "type": "bool"
        }
      ],
      "name": "upsertOffering",
      "outputs": [],
      "stateMutability": "nonpayable",
      "type": "function"
    },
    {
      "inputs": [],
      "name": "usdr",
      "outputs": [
        {
          "internalType": "contract IERC20",
          "name": "",
          "type": "address"
        }
      ],
      "stateMutability": "view",
      "type": "function"
    }
  ],
  "bytecode": "0x60a06040523480156200001157600080fd5b50604051620013a1380380620013a18339810160408190526200003491620001bf565b60016002556001600160a01b03821615806200005757506001600160a01b038116155b15620000765760405163e6c4247b60e01b815260040160405180910390fd5b6001600160a01b03821660805262000090600082620000f3565b50620000bd7f988301af8238f779281a300de031815cd01b48e9f1ae47a0f91ed6584213624a82620000f3565b50620000ea7f65d7a28e3265b37a6474929f336521b332c1681b933f6cb9f3376673440d862a82620000f3565b505050620001f7565b6000828152602081815260408083206001600160a01b038516845290915281205460ff1662000198576000838152602081815260408083206001600160a01b03861684529091529020805460ff191660011790556200014f3390565b6001600160a01b0316826001600160a01b0316847f2f8788117e7eff1d82e926ec794901d17c78024a50270940304540a733656f0d60405160405180910390a45060016200019c565b5060005b92915050565b80516001600160a01b0381168114620001ba57600080fd5b919050565b60008060408385031215620001d357600080fd5b620001de83620001a2565b9150620001ee60208401620001a2565b90509250929050565b60805161118062000221600039600081816102190152818161046e01526109e701526111806000f3fe608060405234801561001057600080fd5b506004361061010b5760003560e01c80635c975abb116100a2578063ada13fc611610071578063ada13fc614610214578063b2118a8d14610253578063d547741f14610266578063e34fec1d14610279578063e63ab1e91461034257600080fd5b80635c975abb146101e65780638456cb59146101f157806391d14854146101f9578063a217fddf1461020c57600080fd5b806336568abe116100de57806336568abe146101915780633f4ba83a146101a457806340993b26146101ac578063551b42a8146101bf57600080fd5b806301ffc9a71461011057806318710e2414610138578063248a9ca31461014d5780632f2ff15d1461017e575b600080fd5b61012361011e366004610f16565b610369565b60405190151581526020015b60405180910390f35b61014b610146366004610f86565b6103a0565b005b61017061015b36600461101a565b60009081526020819052604090206001015490565b60405190815260200161012f565b61014b61018c366004611033565b610718565b61014b61019f366004611033565b610743565b61014b61077b565b61014b6101ba366004611063565b6107b0565b6101707f988301af8238f779281a300de031815cd01b48e9f1ae47a0f91ed6584213624a81565b60015460ff16610123565b61014b610af1565b610123610207366004611033565b610b23565b610170600081565b61023b7f000000000000000000000000000000000000000000000000000000000000000081565b6040516001600160a01b03909116815260200161012f565b61014b61026136600461108f565b610b4c565b61014b610274366004611033565b610ba6565b6102ec61028736600461101a565b60036020819052600091825260409091208054600182015460028301549383015460048401546005909401546001600160a01b03938416959294929391926001600160401b0380821693600160401b909204169190811690600160a01b900460ff1688565b604080516001600160a01b03998a168152602081019890985287019590955260608601939093526001600160401b0391821660808601521660a084015290921660c082015290151560e08201526101000161012f565b6101707f65d7a28e3265b37a6474929f336521b332c1681b933f6cb9f3376673440d862a81565b60006001600160e01b03198216637965db0b60e01b148061039a57506301ffc9a760e01b6001600160e01b03198316145b92915050565b7f988301af8238f779281a300de031815cd01b48e9f1ae47a0f91ed6584213624a6103ca81610bcb565b6001600160a01b03891615806103e757506001600160a01b038316155b156104055760405163e6c4247b60e01b815260040160405180910390fd5b866000036104255760405162bfc92160e01b815260040160405180910390fd5b6001600160401b0384161580159061044e5750846001600160401b0316846001600160401b0316105b1561046c5760405163c867bfaf60e01b815260040160405180910390fd5b7f00000000000000000000000000000000000000000000000000000000000000006001600160a01b0316896001600160a01b0316637b9e618d6040518163ffffffff1660e01b8152600401602060405180830381865afa1580156104d4573d6000803e3d6000fd5b505050506040513d601f19601f820116820180604052508101906104f891906110d0565b6001600160a01b03161461051f5760405163913c5c2160e01b815260040160405180910390fd5b6040518061010001604052808a6001600160a01b03168152602001898152602001888152602001878152602001866001600160401b03168152602001856001600160401b03168152602001846001600160a01b03168152602001831515815250600360008c815260200190815260200160002060008201518160000160006101000a8154816001600160a01b0302191690836001600160a01b0316021790555060208201518160010155604082015181600201556060820151816003015560808201518160040160006101000a8154816001600160401b0302191690836001600160401b0316021790555060a08201518160040160086101000a8154816001600160401b0302191690836001600160401b0316021790555060c08201518160050160006101000a8154816001600160a01b0302191690836001600160a01b0316021790555060e08201518160050160146101000a81548160ff02191690831515021790555090505087896001600160a01b03168b7f1680c70a8b7fec1ff25935c15c119073cc5cfcb500ceed89c8be7bb78a9e9c728a8a8a8a8a8a6040516107049695949392919095865260208601949094526001600160401b039283166040860152911660608401526001600160a01b03166080830152151560a082015260c00190565b60405180910390a450505050505050505050565b60008281526020819052604090206001015461073381610bcb565b61073d8383610bd5565b50505050565b6001600160a01b038116331461076c5760405163334bd91960e11b815260040160405180910390fd5b6107768282610c67565b505050565b7f65d7a28e3265b37a6474929f336521b332c1681b933f6cb9f3376673440d862a6107a581610bcb565b6107ad610cd2565b50565b6107b8610d24565b6107c0610d4c565b816000036107e157604051630e433c2360e31b815260040160405180910390fd5b60008381526003602052604090206005810154600160a01b900460ff1661081b57604051633f54562b60e11b815260040160405180910390fd5b600481015442906001600160401b031615801590610849575060048201546001600160401b03908116908216105b156108675760405163c867bfaf60e01b815260040160405180910390fd5b6004820154600160401b90046001600160401b0316158015906108a1575060048201546001600160401b03600160401b9091048116908216115b156108bf5760405163c867bfaf60e01b815260040160405180910390fd5b6003820154156109085783826003015410156108ee576040516304fce4c160e21b815260040160405180910390fd5b838260030160008282546109029190611103565b90915550505b8154604051636c9b2a3f60e11b81523360048201526001600160a01b039091169063d936547e90602401602060405180830381865afa15801561094f573d6000803e3d6000fd5b505050506040513d601f19601f820116820180604052508101906109739190611116565b6109905760405163716e1be760e11b815260040160405180910390fd5b60008260020154856109a29190611133565b9050838111156109d45760405163571797b560e11b815260048101829052602481018590526044015b60405180910390fd5b6005830154610a12906001600160a01b037f000000000000000000000000000000000000000000000000000000000000000081169133911684610d72565b82546001840154604051630ffea21360e21b81526004810191909152336024820152604481018790526001600160a01b0390911690633ffa884c90606401600060405180830381600087803b158015610a6a57600080fd5b505af1158015610a7e573d6000803e3d6000fd5b505084546001860154600587015460408051928352602083018b90528281018790526001600160a01b039182166060840152519216935033925089917f6d6d9146d86c1569a48365a49d5a6ca05fb3463e82a9508f75c5319fe0ddbba79181900360800190a45050506107766001600255565b7f65d7a28e3265b37a6474929f336521b332c1681b933f6cb9f3376673440d862a610b1b81610bcb565b6107ad610dd9565b6000918252602082815260408084206001600160a01b0393909316845291905290205460ff1690565b6000610b5781610bcb565b6001600160a01b0384161580610b7457506001600160a01b038316155b15610b925760405163e6c4247b60e01b815260040160405180910390fd5b61073d6001600160a01b0385168484610e14565b600082815260208190526040902060010154610bc181610bcb565b61073d8383610c67565b6107ad8133610e45565b6000610be18383610b23565b610c5f576000838152602081815260408083206001600160a01b03861684529091529020805460ff19166001179055610c173390565b6001600160a01b0316826001600160a01b0316847f2f8788117e7eff1d82e926ec794901d17c78024a50270940304540a733656f0d60405160405180910390a450600161039a565b50600061039a565b6000610c738383610b23565b15610c5f576000838152602081815260408083206001600160a01b0386168085529252808320805460ff1916905551339286917ff6391f5c32d9c69d2a47ea670b442974b53935d1edc7fd64eb21e047a839171b9190a450600161039a565b610cda610e82565b6001805460ff191690557f5db9ee0a495bf2e6ff9c91a7834c1ba4fdd244a5e8aa4e537bd38aeae4b073aa335b6040516001600160a01b03909116815260200160405180910390a1565b6002805403610d4657604051633ee5aeb560e01b815260040160405180910390fd5b60028055565b60015460ff1615610d705760405163d93c066560e01b815260040160405180910390fd5b565b6040516001600160a01b03848116602483015283811660448301526064820183905261073d9186918216906323b872dd906084015b604051602081830303815290604052915060e01b6020820180516001600160e01b038381831617835250505050610ea5565b610de1610d4c565b6001805460ff1916811790557f62e78cea01bee320cd4e420270b5ea74000d11b0c9f74754ebdbfc544b05a25833610d07565b6040516001600160a01b0383811660248301526044820183905261077691859182169063a9059cbb90606401610da7565b610e4f8282610b23565b610e7e5760405163e2517d3f60e01b81526001600160a01b0382166004820152602481018390526044016109cb565b5050565b60015460ff16610d7057604051638dfc202b60e01b815260040160405180910390fd5b600080602060008451602086016000885af180610ec8576040513d6000823e3d81fd5b50506000513d91508115610ee0578060011415610eed565b6001600160a01b0384163b155b1561073d57604051635274afe760e01b81526001600160a01b03851660048201526024016109cb565b600060208284031215610f2857600080fd5b81356001600160e01b031981168114610f4057600080fd5b9392505050565b6001600160a01b03811681146107ad57600080fd5b80356001600160401b0381168114610f7357600080fd5b919050565b80151581146107ad57600080fd5b60008060008060008060008060006101208a8c031215610fa557600080fd5b8935985060208a0135610fb781610f47565b975060408a0135965060608a0135955060808a01359450610fda60a08b01610f5c565b9350610fe860c08b01610f5c565b925060e08a0135610ff881610f47565b91506101008a013561100981610f78565b809150509295985092959850929598565b60006020828403121561102c57600080fd5b5035919050565b6000806040838503121561104657600080fd5b82359150602083013561105881610f47565b809150509250929050565b60008060006060848603121561107857600080fd5b505081359360208301359350604090920135919050565b6000806000606084860312156110a457600080fd5b83356110af81610f47565b925060208401356110bf81610f47565b929592945050506040919091013590565b6000602082840312156110e257600080fd5b8151610f4081610f47565b634e487b7160e01b600052601160045260246000fd5b8181038181111561039a5761039a6110ed565b60006020828403121561112857600080fd5b8151610f4081610f78565b808202811582820484141761039a5761039a6110ed56fea264697066735822122081e947bc1cdb74385cbaf48ce9ce48bb493f7c782b4baeea2c5bcfafaed7f1c564736f6c63430008180033",
  "linkReferences": {},
  "deployedLinkReferences": {}
}