{
  "_format": "hh-sol-artifact-1",
  "contractName": "RBTMonthlyRevenueVault",
  "sourceName": "contracts/rbt/RBTMonthlyRevenueVault.sol",
  "abi": [
    {
      "inputs": [
        {
          "internalType": "address",
          "name": "usdrToken",
          "type": "address"
        },
        {
          "internalType": "address",
          "name": "admin",
          "type": "address"
        }
      ],
      "stateMutability": "nonpayable",
      "type": "constructor"
    },
    {
      "inputs": [],
      "name": "AccessControlBadConfirmation",
      "type": "error"
    },
    {
      "inputs": [
        {
          "internalType": "address",
          "name": "account",
          "type": "address"
        },
        {
          "internalType": "bytes32",
          "name": "neededRole",
          "type": "bytes32"
        }
      ],
      "name": "AccessControlUnauthorizedAccount",
      "type": "error"
    },
    {
      "inputs": [],
      "name": "EnforcedPause",
      "type": "error"
    },
    {
      "inputs": [],
      "name": "ExpectedPause",
      "type": "error"
    },
    {
      "inputs": [],
      "name": "ReentrancyGuardReentrantCall",
      "type": "error"
    },
    {
      "anonymous": false,
      "inputs": [
        {
          "indexed": true,
          "internalType": "uint256",
          "name": "epoch",
          "type": "uint256"
        },
        {
          "indexed": true,
          "internalType": "uint256",
          "name": "seriesId",
          "type": "uint256"
        },
        {
          "indexed": true,
          "internalType": "address",
          "name": "account",
          "type": "address"
        },
        {
          "indexed": false,
          "internalType": "uint256",
          "name": "amount",
          "type": "uint256"
        }
      ],
      "name": "Claimed",
      "type": "event"
    },
    {
      "anonymous": false,
      "inputs": [
        {
          "indexed": true,
          "internalType": "address",
          "name": "from",
          "type": "address"
        },
        {
          "indexed": false,
          "internalType": "uint256",
          "name": "amount",
          "type": "uint256"
        }
      ],
      "name": "Funded",
      "type": "event"
    },
    {
      "anonymous": false,
      "inputs": [
        {
          "indexed": false,
          "internalType": "address",
          "name": "account",
          "type": "address"
        }
      ],
      "name": "Paused",
      "type": "event"
    },
    {
      "anonymous": false,
      "inputs": [
        {
          "indexed": true,
          "internalType": "bytes32",
          "name": "role",
          "type": "bytes32"
        },
        {
          "indexed": true,
          "internalType": "bytes32",
          "name": "previousAdminRole",
          "type": "bytes32"
        },
        {
          "indexed": true,
          "internalType": "bytes32",
          "name": "newAdminRole",
          "type": "bytes32"
        }
      ],
      "name": "RoleAdminChanged",
      "type": "event"
    },
    {
      "anonymous": false,
      "inputs": [
        {
          "indexed": true,
          "internalType": "bytes32",
          "name": "role",
          "type": "bytes32"
        },
        {
          "indexed": true,
          "internalType": "address",
          "name": "account",
          "type": "address"
        },
        {
          "indexed": true,
          "internalType": "address",
          "name": "sender",
          "type": "address"
        }
      ],
      "name": "RoleGranted",
      "type": "event"
    },
    {
      "anonymous": false,
      "inputs": [
        {
          "indexed": true,
          "internalType": "bytes32",
          "name": "role",
          "type": "bytes32"
        },
        {
          "indexed": true,
          "internalType": "address",
          "name": "account",
          "type": "address"
        },
        {
          "indexed": true,
          "internalType": "address",
          "name": "sender",
          "type": "address"
        }
      ],
      "name": "RoleRevoked",
      "type": "event"
    },
    {
      "anonymous": false,
      "inputs": [
        {
          "indexed": true,
          "internalType": "uint256",
          "name": "epoch",
          "type": "uint256"
        },
        {
          "indexed": true,
          "internalType": "uint256",
          "name": "seriesId",
          "type": "uint256"
        },
        {
          "indexed": false,
          "internalType": "bytes32",
          "name": "root",
          "type": "bytes32"
        }
      ],
      "name": "RootSet",
      "type": "event"
    },
    {
      "anonymous": false,
      "inputs": [
        {
          "indexed": false,
          "internalType": "address",
          "name": "account",
          "type": "address"
        }
      ],
      "name": "Unpaused",
      "type": "event"
    },
    {
      "inputs": [],
      "name": "DEFAULT_ADMIN_ROLE",
      "outputs": [
        {
          "internalType": "bytes32",
          "name": "",
          "type": "bytes32"
        }
      ],
      "stateMutability": "view",
      "type": "function"
    },
    {
      "inputs": [],
      "name": "OPERATOR_ROLE",
      "outputs": [
        {
          "internalType": "bytes32",
          "name": "",
          "type": "bytes32"
        }
      ],
      "stateMutability": "view",
      "type": "function"
    },
    {
      "inputs": [
        {
          "internalType": "uint256",
          "name": "epoch",
          "type": "uint256"
        },
        {
          "internalType": "uint256",
          "name": "seriesId",
          "type": "uint256"
        },
        {
          "internalType": "uint256",
          "name": "amount",
          "type": "uint256"
        },
        {
          "internalType": "bytes32[]",
          "name": "proof",
          "type": "bytes32[]"
        }
      ],
      "name": "claim",
      "outputs": [],
      "stateMutability": "nonpayable",
      "type": "function"
    },
    {
      "inputs": [
        {
          "internalType": "uint256",
          "name": "",
          "type": "uint256"
        },
        {
          "internalType": "uint256",
          "name": "",
          "type": "uint256"
        },
        {
          "internalType": "address",
          "name": "",
          "type": "address"
        }
      ],
      "name": "claimed",
      "outputs": [
        {
          "internalType": "bool",
          "name": "",
          "type": "bool"
        }
      ],
      "stateMutability": "view",
      "type": "function"
    },
    {
      "inputs": [
        {
          "internalType": "uint256",
          "name": "amount",
          "type": "uint256"
        }
      ],
      "name": "fund",
      "outputs": [],
      "stateMutability": "nonpayable",
      "type": "function"
    },
    {
      "inputs": [
        {
          "internalType": "bytes32",
          "name": "role",
          "type": "bytes32"
        }
      ],
      "name": "getRoleAdmin",
      "outputs": [
        {
          "internalType": "bytes32",
          "name": "",
          "type": "bytes32"
        }
      ],
      "stateMutability": "view",
      "type": "function"
    },
    {
      "inputs": [
        {
          "internalType": "bytes32",
          "name": "role",
          "type": "bytes32"
        },
        {
          "internalType": "address",
          "name": "account",
          "type": "address"
        }
      ],
      "name": "grantRole",
      "outputs": [],
      "stateMutability": "nonpayable",
      "type": "function"
    },
    {
      "inputs": [
        {
          "internalType": "bytes32",
          "name": "role",
          "type": "bytes32"
        },
        {
          "internalType": "address",
          "name": "account",
          "type": "address"
        }
      ],
      "name": "hasRole",
      "outputs": [
        {
          "internalType": "bool",
          "name": "",
          "type": "bool"
        }
      ],
      "stateMutability": "view",
      "type": "function"
    },
    {
      "inputs": [
        {
          "internalType": "uint256",
          "name": "epoch",
          "type": "uint256"
        },
        {
          "internalType": "uint256",
          "name": "seriesId",
          "type": "uint256"
        },
        {
          "internalType": "address",
          "name": "account",
          "type": "address"
        }
      ],
      "name": "isClaimed",
      "outputs": [
        {
          "internalType": "bool",
          "name": "",
          "type": "bool"
        }
      ],
      "stateMutability": "view",
      "type": "function"
    },
    {
      "inputs": [],
      "name": "pause",
      "outputs": [],
      "stateMutability": "nonpayable",
      "type": "function"
    },
    {
      "inputs": [],
      "name": "paused",
      "outputs": [
        {
          "internalType": "bool",
          "name": "",
          "type": "bool"
        }
      ],
      "stateMutability": "view",
      "type": "function"
    },
    {
      "inputs": [
        {
          "internalType": "bytes32",
          "name": "role",
          "type": "bytes32"
        },
        {
          "internalType": "address",
          "name": "callerConfirmation",
          "type": "address"
        }
      ],
      "name": "renounceRole",
      "outputs": [],
      "stateMutability": "nonpayable",
      "type": "function"
    },
    {
      "inputs": [
        {
          "internalType": "bytes32",
          "name": "role",
          "type": "bytes32"
        },
        {
          "internalType": "address",
          "name": "account",
          "type": "address"
        }
      ],
      "name": "revokeRole",
      "outputs": [],
      "stateMutability": "nonpayable",
      "type": "function"
    },
    {
      "inputs": [
        {
          "internalType": "uint256",
          "name": "",
          "type": "uint256"
        },
        {
          "internalType": "uint256",
          "name": "",
          "type": "uint256"
        }
      ],
      "name": "roots",
      "outputs": [
        {
          "internalType": "bytes32",
          "name": "",
          "type": "bytes32"
        }
      ],
      "stateMutability": "view",
      "type": "function"
    },
    {
      "inputs": [
        {
          "internalType": "uint256",
          "name": "epoch",
          "type": "uint256"
        },
        {
          "internalType": "uint256",
          "name": "seriesId",
          "type": "uint256"
        },
        {
          "internalType": "bytes32",
          "name": "root",
          "type": "bytes32"
        }
      ],
      "name": "setRoot",
      "outputs": [],
      "stateMutability": "nonpayable",
      "type": "function"
    },
    {
      "inputs": [
        {
          "internalType": "bytes4",
          "name": "interfaceId",
          "type": "bytes4"
        }
      ],
      "name": "supportsInterface",
      "outputs": [
        {
          "internalType": "bool",
          "name": "",
          "type": "bool"
        }
      ],
      "stateMutability": "view",
      "type": "function"
    },
    {
      "inputs": [],
      "name": "unpause",
      "outputs": [],
      "stateMutability": "nonpayable",
      "type": "function"
    },
    {
      "inputs": [],
      "name": "usdr",
      "outputs": [
        {
          "internalType": "contract IERC20",
          "name": "",
          "type": "address"
        }
      ],
      "stateMutability": "view",
      "type": "function"
    }
  ],
  "bytecode": "0x60a06040523480156200001157600080fd5b50604051620010ae380380620010ae833981016040819052620000349162000155565b60016002556001600160a01b0382166080526200005360008262000089565b50620000807f97667070c54ef182b0f5858b034beac1b6f3089aa2d3188bb1e8929f4fa9b9298262000089565b5050506200018d565b6000828152602081815260408083206001600160a01b038516845290915281205460ff166200012e576000838152602081815260408083206001600160a01b03861684529091529020805460ff19166001179055620000e53390565b6001600160a01b0316826001600160a01b0316847f2f8788117e7eff1d82e926ec794901d17c78024a50270940304540a733656f0d60405160405180910390a450600162000132565b5060005b92915050565b80516001600160a01b03811681146200015057600080fd5b919050565b600080604083850312156200016957600080fd5b620001748362000138565b9150620001846020840162000138565b90509250929050565b608051610ef7620001b760003960008181610276015281816105d301526108f30152610ef76000f3fe608060405234801561001057600080fd5b50600436106101165760003560e01c80638456cb59116100a2578063aef9249b11610071578063aef9249b146102b0578063ca1d209d146102c3578063d547741f146102d6578063ea25e176146102e9578063f5b541a6146102fc57600080fd5b80638456cb591461024e57806391d1485414610256578063a217fddf14610269578063ada13fc61461027157600080fd5b80632f2ff15d116100e95780632f2ff15d146101df57806336568abe146101f45780633f4ba83a1461020757806347f5af8d1461020f5780635c975abb1461024357600080fd5b806301ffc9a71461011b5780630fc3cec014610143578063248a9ca31461017c57806328bb0f8a1461019f575b600080fd5b61012e610129366004610ccb565b610311565b60405190151581526020015b60405180910390f35b61016e610151366004610cf5565b600360209081526000928352604080842090915290825290205481565b60405190815260200161013a565b61016e61018a366004610d17565b60009081526020819052604090206001015490565b61012e6101ad366004610d4c565b60009283526004602090815260408085209385529281528284206001600160a01b039290921684525290205460ff1690565b6101f26101ed366004610d81565b610348565b005b6101f2610202366004610d81565b610373565b6101f26103ab565b61012e61021d366004610d4c565b600460209081526000938452604080852082529284528284209052825290205460ff1681565b60015460ff1661012e565b6101f26103ce565b61012e610264366004610d81565b6103ee565b61016e600081565b6102987f000000000000000000000000000000000000000000000000000000000000000081565b6040516001600160a01b03909116815260200161013a565b6101f26102be366004610dad565b610417565b6101f26102d1366004610d17565b61055e565b6101f26102e4366004610d81565b6106c3565b6101f26102f7366004610dd9565b6106e8565b61016e600080516020610ea283398151915281565b60006001600160e01b03198216637965db0b60e01b148061034257506301ffc9a760e01b6001600160e01b03198316145b92915050565b600082815260208190526040902060010154610363816109fe565b61036d8383610a08565b50505050565b6001600160a01b038116331461039c5760405163334bd91960e11b815260040160405180910390fd5b6103a68282610a9a565b505050565b600080516020610ea28339815191526103c3816109fe565b6103cb610b05565b50565b600080516020610ea28339815191526103e6816109fe565b6103cb610b57565b6000918252602082815260408084206001600160a01b0393909316845291905290205460ff1690565b600080516020610ea283398151915261042f816109fe565b62030d418410156104775760405162461bcd60e51b815260206004820152600d60248201526c0d2dcecc2d8d2c840cae0dec6d609b1b60448201526064015b60405180910390fd5b816104ad5760405162461bcd60e51b81526020600482015260066024820152650726f6f743d360d41b604482015260640161046e565b6000848152600360209081526040808320868452909152902054156105075760405162461bcd60e51b815260206004820152601060248201526f1c9bdbdd08185b1c9958591e481cd95d60821b604482015260640161046e565b60008481526003602090815260408083208684528252918290208490559051838152849186917f7c36db3a343b712ebb5821d2f26dca1292be7182615266d9ae37e20729beea15910160405180910390a350505050565b600080516020610ea2833981519152610576816109fe565b600082116105b15760405162461bcd60e51b81526020600482015260086024820152670616d6f756e743d360c41b604482015260640161046e565b6040516323b872dd60e01b8152336004820152306024820152604481018390527f00000000000000000000000000000000000000000000000000000000000000006001600160a01b0316906323b872dd906064016020604051808303816000875af1158015610624573d6000803e3d6000fd5b505050506040513d601f19601f820116820180604052508101906106489190610e69565b61068a5760405162461bcd60e51b81526020600482015260136024820152721d1c985b9cd9995c919c9bdb4819985a5b1959606a1b604482015260640161046e565b60405182815233907f5af8184bef8e4b45eb9f6ed7734d04da38ced226495548f46e0c8ff8d7d9a5249060200160405180910390a25050565b6000828152602081905260409020600101546106de816109fe565b61036d8383610a9a565b6106f0610b92565b6106f8610bba565b6000858152600460209081526040808320878452825280832033845290915290205460ff161561075c5760405162461bcd60e51b815260206004820152600f60248201526e185b1c9958591e4818db185a5b5959608a1b604482015260640161046e565b6000858152600360209081526040808320878452909152902054806107b25760405162461bcd60e51b815260206004820152600c60248201526b1c9bdbdd081b9bdd081cd95d60a21b604482015260640161046e565b600084116107ed5760405162461bcd60e51b81526020600482015260086024820152670616d6f756e743d360c41b604482015260640161046e565b6040516bffffffffffffffffffffffff193360601b1660208201526034810185905260009060540160405160208183030381529060405280519060200120905061086d848480806020026020016040519081016040528093929190818152602001838360200280828437600092019190915250869250859150610be09050565b6108a95760405162461bcd60e51b815260206004820152600d60248201526c34b73b30b634b210383937b7b360991b604482015260640161046e565b60008781526004602081815260408084208a8552825280842033808652925292839020805460ff19166001179055915163a9059cbb60e01b815290810191909152602481018690527f00000000000000000000000000000000000000000000000000000000000000006001600160a01b03169063a9059cbb906044016020604051808303816000875af1158015610944573d6000803e3d6000fd5b505050506040513d601f19601f820116820180604052508101906109689190610e69565b6109a65760405162461bcd60e51b815260206004820152600f60248201526e1d1c985b9cd9995c8819985a5b1959608a1b604482015260640161046e565b336001600160a01b031686887fb94bf7f9302edf52a596286915a69b4b0685574cffdedd0712e3c62f2550f0ba886040516109e391815260200190565b60405180910390a450506109f76001600255565b5050505050565b6103cb8133610bf6565b6000610a1483836103ee565b610a92576000838152602081815260408083206001600160a01b03861684529091529020805460ff19166001179055610a4a3390565b6001600160a01b0316826001600160a01b0316847f2f8788117e7eff1d82e926ec794901d17c78024a50270940304540a733656f0d60405160405180910390a4506001610342565b506000610342565b6000610aa683836103ee565b15610a92576000838152602081815260408083206001600160a01b0386168085529252808320805460ff1916905551339286917ff6391f5c32d9c69d2a47ea670b442974b53935d1edc7fd64eb21e047a839171b9190a4506001610342565b610b0d610c33565b6001805460ff191690557f5db9ee0a495bf2e6ff9c91a7834c1ba4fdd244a5e8aa4e537bd38aeae4b073aa335b6040516001600160a01b03909116815260200160405180910390a1565b610b5f610bba565b6001805460ff1916811790557f62e78cea01bee320cd4e420270b5ea74000d11b0c9f74754ebdbfc544b05a25833610b3a565b6002805403610bb457604051633ee5aeb560e01b815260040160405180910390fd5b60028055565b60015460ff1615610bde5760405163d93c066560e01b815260040160405180910390fd5b565b600082610bed8584610c56565b14949350505050565b610c0082826103ee565b610c2f5760405163e2517d3f60e01b81526001600160a01b03821660048201526024810183905260440161046e565b5050565b60015460ff16610bde57604051638dfc202b60e01b815260040160405180910390fd5b600081815b8451811015610c9157610c8782868381518110610c7a57610c7a610e8b565b6020026020010151610c99565b9150600101610c5b565b509392505050565b6000818310610cb5576000828152602084905260409020610cc4565b60008381526020839052604090205b9392505050565b600060208284031215610cdd57600080fd5b81356001600160e01b031981168114610cc457600080fd5b60008060408385031215610d0857600080fd5b50508035926020909101359150565b600060208284031215610d2957600080fd5b5035919050565b80356001600160a01b0381168114610d4757600080fd5b919050565b600080600060608486031215610d6157600080fd5b8335925060208401359150610d7860408501610d30565b90509250925092565b60008060408385031215610d9457600080fd5b82359150610da460208401610d30565b90509250929050565b600080600060608486031215610dc257600080fd5b505081359360208301359350604090920135919050565b600080600080600060808688031215610df157600080fd5b853594506020860135935060408601359250606086013567ffffffffffffffff80821115610e1e57600080fd5b818801915088601f830112610e3257600080fd5b813581811115610e4157600080fd5b8960208260051b8501011115610e5657600080fd5b9699959850939650602001949392505050565b600060208284031215610e7b57600080fd5b81518015158114610cc457600080fd5b634e487b7160e01b600052603260045260246000fdfe97667070c54ef182b0f5858b034beac1b6f3089aa2d3188bb1e8929f4fa9b929a2646970667358221220e68324791e89c43095a14306837e9783b7f4d920062645f75157587cbd468dc664736f6c63430008180033",
  "linkReferences": {},
  "deployedLinkReferences": {}
}